###############################################################################
#
# IAR ELF Linker V7.70.1.11437/W32 for ARM                13/Jun/2017  16:47:57
# Copyright 2007-2016 IAR Systems AB.
#
#    Output file  =  package/n331_vip.out
#    Map file     =  obj/n331_vip.map
#    Command line =  
#        obj/portasm.o obj/cpu_a.o obj/cmsis_os.o obj/croutine.o
#        obj/event_groups.o obj/list.o obj/queue.o obj/tasks.o obj/timers.o
#        obj/port.o obj/heap_4.o obj/hal_cpu_clk.o obj/hal_cpu_vect.o
#        obj/hal_s32k14x_adc.o obj/hal_s32k14x_dflash.o obj/hal_s32k14x_edma.o
#        obj/hal_s32k14x_eep.o obj/hal_s32k14x_gpio.o obj/hal_s32k14x_iic.o
#        obj/hal_s32k14x_scg.o obj/hal_s32k14x_spi.o obj/hal_s32k14x_uart.o
#        obj/hal_s32k14x_wdt.o obj/hal_adc.o obj/hal_dflash.o obj/hal_eep.o
#        obj/hal_flash.o obj/hal_gpio.o obj/hal_iic.o obj/hal_int.o
#        obj/hal_rtc.o obj/hal_spi.o obj/hal_uart.o obj/hal_wdt.o
#        obj/hal_os_cmsis.o obj/hal_hw.o obj/ipc_debug.o obj/ipc_swdl.o
#        obj/ipc_test.o obj/App_OnOff.o obj/board_hw.o obj/log_cmd.o obj/main.o
#        obj/map_mana.o obj/pwrctrl.o obj/ver_info.o obj/app_sig.o
#        obj/ipc_iic_gw.o obj/App_Diag.o obj/App_Test_diagnostic.o
#        obj/gen_stub_diagnostic_imp.o obj/bsp_misc.o obj/bsp_gpio.o
#        obj/App_Test_AudioControl.o obj/bsp_audio.o
#        obj/gen_stub_AudioControl_imp.o obj/tdf8546.o obj/tef6638_funcs.o
#        obj/tef6638audio.o obj/App_Test_gps.o obj/bsp_gps.o
#        obj/gen_stub_gps_imp.o obj/cpu_ts.o obj/ap_state.o obj/crc16.o
#        obj/crc32.o obj/md5.o obj/serv.o obj/serv_evt.o obj/serv_evtFunc.o
#        obj/serv_func.o obj/serv_misc.o obj/serv_tmr.o obj/serv_wdt.o
#        obj/serv_xxtea.o obj/softdog.o obj/utc2local.o obj/xxtea.o
#        obj/Trace_Buffer.o obj/Trace_Common.o obj/Trace_Dispatcher.o
#        obj/Trace_Server.o obj/trace.o obj/trace_phy.o obj/trace_version.o
#        obj/vip_gen_all_code.o --cpu=Cortex-M4F --inline --vfe --silent
#        --config s32k14x_flash.icf -o package/n331_vip.out --map
#        obj/n331_vip.map
#
###############################################################################

*******************************************************************************
*** RUNTIME MODEL ATTRIBUTES
***

CppFlavor       = *
__Heap_Handler  = Basic
__SystemLibrary = DLib


*******************************************************************************
*** PLACEMENT SUMMARY
***

"A0":  place at 0x00000000 { ro section .intvec };
"P1":  place in [from 0x00000000 to 0x000003ff] |
                [from 0x00000410 to 0x0007ffff] { ro };
"P3":  place in [from 0x1ffe0000 to 0x1fffffff] |
                [from 0x20000000 to 0x2001dfff] { rw, block CSTACK, block HEAP };
"P6":  place in [from 0x2001e000 to 0x2001efff] { section .noinit };
initialize by copy { rw };

  Section             Kind        Address     Size  Object
  -------             ----        -------     ----  ------
"A0":                                        0x240
  .intvec             const    0x00000000    0x240  hal_cpu_vect.o [1]
                             - 0x00000240    0x240

"P1", part 1 of 2:                            0x94
  .rodata             const    0x00000240      0x0  zero_init3.o [5]
  .rodata             const    0x00000240      0x0  copy_init3.o [5]
  Initializer bytes   const    0x00000240     0x94  <for P3 s0>
                             - 0x000002d4     0x94

Absolute sections, part 1 of 2:               0x10
  .rodata             const    0x00000400     0x10  ver_info.o [1]
                             - 0x00000410     0x10

Absolute sections, part 2 of 2:               0xa8
  .rodata             const    0x00010000     0xa8  ver_info.o [1]
                             - 0x000100a8     0xa8

"P1", part 2 of 2:                         0x16ac4
  .text               ro code  0x000100a8   0x94b4  vip_gen_all_code.o [1]
  .text               ro code  0x0001955c    0x148  cmsis_os.o [1]
  .text               ro code  0x000196a4    0x4fc  queue.o [1]
  .text               ro code  0x00019ba0    0x4fc  pwrctrl.o [1]
  CODE                ro code  0x0001a09c     0x34  cpu_a.o [1]
  .text               ro code  0x0001a0d0     0xf0  cpu_ts.o [1]
  .text               ro code  0x0001a1c0     0x24  App_Test_AudioControl.o [1]
  .text               ro code  0x0001a1e4     0x50  App_Test_diagnostic.o [1]
  .text               ro code  0x0001a234     0x48  App_Test_gps.o [1]
  .text               ro code  0x0001a27c     0x24  App_OnOff.o [1]
  .text               ro code  0x0001a2a0     0x78  App_Diag.o [1]
  .text               ro code  0x0001a318    0x22c  crc16.o [1]
  .text               ro code  0x0001a544    0x2d4  Trace_Buffer.o [1]
  .text               ro code  0x0001a818     0x88  hal_dflash.o [1]
  .text               ro code  0x0001a8a0    0x430  crc32.o [1]
  .text               ro code  0x0001acd0     0x18  app_sig.o [1]
  .text               ro code  0x0001ace8     0x40  bsp_misc.o [1]
  .text               ro code  0x0001ad28     0x34  ver_info.o [1]
  .text               ro code  0x0001ad5c    0x1b4  ap_state.o [1]
  .text               ro code  0x0001af10    0x108  serv_func.o [1]
  .text               ro code  0x0001b018     0x76  ipc_swdl.o [1]
  .text               ro code  0x0001b090    0xc14  bsp_gps.o [1]
  .text               ro code  0x0001bca4    0x3a0  bsp_audio.o [1]
  .text               ro code  0x0001c044     0x20  ipc_debug.o [1]
  .text               ro code  0x0001c064     0x88  hal_gpio.o [1]
  .text               ro code  0x0001c0ec    0x189  hal_spi.o [1]
  .text               ro code  0x0001c278      0x6  ABImemclr4.o [5]
  .text               ro code  0x0001c280    0x10c  serv_wdt.o [1]
  .text               ro code  0x0001c38c    0x7b0  tasks.o [1]
  .text               ro code  0x0001cb3c     0xf0  port.o [1]
  .text               ro code  0x0001cc2c     0x8a  list.o [1]
  .text               ro code  0x0001ccb8    0x184  heap_4.o [1]
  .text               ro code  0x0001ce3c     0x76  ABImemcpy_unaligned.o [5]
  .text               ro code  0x0001ceb4     0xf4  trace.o [1]
  .text               ro code  0x0001cfa8     0x78  hal_hw.o [1]
  .text               ro code  0x0001d020     0x48  hal_wdt.o [1]
  .text               ro code  0x0001d068     0x8c  hal_uart.o [1]
  .text               ro code  0x0001d0f4     0xd0  mktime.o [3]
  .text               ro code  0x0001d1c4    0x138  hal_iic.o [1]
  .text               ro code  0x0001d2fc    0x248  bsp_gpio.o [1]
  .text               ro code  0x0001d544    0x178  tdf8546.o [1]
  .text               ro code  0x0001d6bc   0x12ac  tef6638audio.o [1]
  .text               ro code  0x0001e968   0x361c  tef6638_funcs.o [1]
  .text               ro code  0x00021f84     0x3a  ABImemset48.o [5]
  .text               ro code  0x00021fc0    0x2d8  main.o [1]
  CODE                ro code  0x00022298     0xa8  portasm.o [1]
  .text               ro code  0x00022340      0xa  hal_cpu_clk.o [1]
  .text               ro code  0x0002234c    0x860  Trace_Server.o [1]
  .text               ro code  0x00022bac     0xc0  hal_s32k14x_wdt.o [1]
  .text               ro code  0x00022c6c    0x3c8  hal_s32k14x_spi.o [1]
  .text               ro code  0x00023034    0x49c  hal_s32k14x_edma.o [1]
  .text               ro code  0x000234d0     0x24  hal_flash.o [1]
  .text               ro code  0x000234f4    0x118  hal_rtc.o [1]
  .text               ro code  0x0002360c    0x188  xttotm.o [3]
  .text               ro code  0x00023794     0x9c  localtim.o [3]
  .text               ro code  0x00023830    0x38c  map_mana.o [1]
  .text               ro code  0x00023bbc    0x1a8  serv_evt.o [1]
  .text               ro code  0x00023d64     0xc2  hal_int.o [1]
  .text               ro code  0x00023e26      0x4  serv.o [1]
  .text               ro code  0x00023e2c     0x68  board_hw.o [1]
  .text               ro code  0x00023e94     0xb4  log_cmd.o [1]
  .text               ro code  0x00023f48     0x54  serv_tmr.o [1]
  .text               ro code  0x00023f9c     0x5c  serv_evtFunc.o [1]
  .text               ro code  0x00023ff8     0xcc  hal_s32k14x_scg.o [1]
  .text               ro code  0x000240c4    0x17c  trace_phy.o [1]
  .text               ro code  0x00024240      0x8  trace_version.o [1]
  .text               ro code  0x00024248     0xb4  Trace_Dispatcher.o [1]
  .text               ro code  0x000242fc      0xc  cstartup_M.o [5]
  .text               ro code  0x00024308    0x11c  utc2local.o [1]
  .text               ro code  0x00024424    0x134  xisdst.o [3]
  .text               ro code  0x00024558     0x29  setlocale.o [3]
  .text               ro code  0x00024584      0xa  getzone.o [3]
  .text               ro code  0x0002458e     0x42  xgettime.o [3]
  .text               ro code  0x000245d0     0x86  xstol.o [3]
  .text               ro code  0x00024658     0x22  fpinit_M.o [4]
  .text               ro code  0x0002467c     0x1a  cmain.o [5]
  .text               ro code  0x00024696    0x15e  xgetdst.o [3]
  .text               ro code  0x000247f4     0x80  xxmemxfree.o [3]
  .text               ro code  0x00024874     0x16  strchr.o [5]
  .text               ro code  0x0002488c     0x36  strlen.o [5]
  .text               ro code  0x000248c4    0x198  xstoul.o [3]
  .text               ro code  0x00024a5c      0xc  errno.o [3]
  .text               ro code  0x00024a68     0x28  data_init.o [5]
  .text               ro code  0x00024a90      0x4  exit.o [3]
  .text               ro code  0x00024a94     0xb0  xxmemxmalloc.o [3]
  .text               ro code  0x00024b44     0x58  memchr.o [5]
  .text               ro code  0x00024b9c      0x2  xtls.o [3]
  .text               ro code  0x00024ba0      0xa  cexit.o [5]
  .text               ro code  0x00024bac     0x2c  xgetmemchunk.o [3]
  .text               ro code  0x00024bd8      0xc  XXexit.o [5]
  .text               ro code  0x00024be4    0x810  hal_s32k14x_iic.o [1]
  .text               ro code  0x000253f4    0x7d0  hal_s32k14x_gpio.o [1]
  .text               ro code  0x00025bc4    0x78c  hal_s32k14x_uart.o [1]
  .text               ro code  0x00026350    0x354  hal_cpu_vect.o [1]
  .text               ro code  0x000266a4    0x228  hal_s32k14x_dflash.o [1]
  .text               ro code  0x000268cc    0x110  hal_s32k14x_adc.o [1]
  .text               ro code  0x000269dc     0x40  zero_init3.o [5]
  .rodata             const    0x00026a1c     0x30  gen_stub_diagnostic_imp.o [1]
  .text               ro code  0x00026a4c     0x2c  copy_init3.o [5]
  .iar.init_table     const    0x00026a78     0x24  - Linker created -
  .rodata             const    0x00026a9c     0x20  gen_stub_gps_imp.o [1]
  .rodata             const    0x00026abc     0x20  vip_gen_all_code.o [1]
  .text               ro code  0x00026adc     0x1c  gen_stub_gps_imp.o [1]
  .rodata             const    0x00026af8     0x18  main.o [1]
  .rodata             const    0x00026b10     0x18  bsp_audio.o [1]
  .text               ro code  0x00026b28     0x18  gen_stub_diagnostic_imp.o [1]
  .rodata             const    0x00026b40     0x10  gen_stub_AudioControl_imp.o [1]
  .text               ro code  0x00026b50      0xc  gen_stub_AudioControl_imp.o [1]
  .rodata             const    0x00026b5c      0x8  log_cmd.o [1]
  .rodata             const    0x00026b64      0x8  pwrctrl.o [1]
                             - 0x00026b6c  0x16ac4

"P3", part 1 of 3:                            0x94
  P3 s0                        0x1ffe0000     0x94  <Init block>
    __DLIB_PERTHREAD  inited   0x1ffe0000     0x2c  xttotm.o [3]
    .data             inited   0x1ffe002c     0x18  tef6638_funcs.o [1]
    .data             inited   0x1ffe0044     0x18  vip_gen_all_code.o [1]
    .data             inited   0x1ffe005c     0x14  bsp_audio.o [1]
    __DLIB_PERTHREAD  inited   0x1ffe0070      0x8  localtim.o [3]
    __DLIB_PERTHREAD  inited   0x1ffe0078      0x8  setlocale.o [3]
    .data             inited   0x1ffe0080      0x4  port.o [1]
    __DLIB_PERTHREAD  inited   0x1ffe0084      0x4  xisdst.o [3]
    __DLIB_PERTHREAD  inited   0x1ffe0088      0x4  errno.o [3]
    __DLIB_PERTHREAD  inited   0x1ffe008c      0x4  xisdstData.o [3]
    .data             inited   0x1ffe0090      0x1  tef6638_funcs.o [1]
                             - 0x1ffe0094     0x94

"P3", part 2 of 3:                          0x97fc
  .bss                zero     0x1ffe0094   0x4018  heap_4.o [1]
  .bss                zero     0x1ffe40ac   0x1f54  vip_gen_all_code.o [1]
  .bss                zero     0x1ffe6000   0x1008  bsp_gps.o [1]
  .bss                zero     0x1ffe7008    0x80c  vip_gen_all_code.o [1]
  .bss                zero     0x1ffe7814    0x700  vip_gen_all_code.o [1]
  .bss                zero     0x1ffe7f14    0x404  vip_gen_all_code.o [1]
  .bss                zero     0x1ffe8318    0x248  vip_gen_all_code.o [1]
  .bss                zero     0x1ffe8560    0x204  vip_gen_all_code.o [1]
  .bss                zero     0x1ffe8764    0x200  hal_int.o [1]
  .bss                zero     0x1ffe8964    0x104  bsp_audio.o [1]
  .bss                zero     0x1ffe8a68    0x104  bsp_audio.o [1]
  .bss                zero     0x1ffe8b6c     0xa0  queue.o [1]
  .bss                zero     0x1ffe8c0c     0xa0  tasks.o [1]
  .bss                zero     0x1ffe8cac     0xa0  tasks.o [1]
  .bss                zero     0x1ffe8d4c     0xa0  hal_s32k14x_gpio.o [1]
  .bss                zero     0x1ffe8dec     0x98  bsp_gps.o [1]
  .bss                zero     0x1ffe8e84     0x90  serv_wdt.o [1]
  .bss                zero     0x1ffe8f14     0x8c  bsp_gps.o [1]
  .bss                zero     0x1ffe8fa0     0x80  serv_evt.o [1]
  .bss                zero     0x1ffe9020     0x80  serv_func.o [1]
  .bss                zero     0x1ffe90a0     0x80  serv_func.o [1]
  .bss                zero     0x1ffe9120     0x80  vip_gen_all_code.o [1]
  .bss                zero     0x1ffe91a0     0x80  vip_gen_all_code.o [1]
  .bss                zero     0x1ffe9220     0x70  hal_s32k14x_uart.o [1]
  .bss                zero     0x1ffe9290     0x60  serv_tmr.o [1]
  .bss                zero     0x1ffe92f0     0x58  vip_gen_all_code.o [1]
  .bss                zero     0x1ffe9348     0x54  bsp_gps.o [1]
  .bss                zero     0x1ffe939c     0x50  ap_state.o [1]
  .bss                zero     0x1ffe93ec     0x4c  main.o [1]
  .bss                zero     0x1ffe9438     0x48  vip_gen_all_code.o [1]
  .bss                zero     0x1ffe9480     0x40  hal_s32k14x_edma.o [1]
  .bss                zero     0x1ffe94c0     0x40  vip_gen_all_code.o [1]
  .bss                zero     0x1ffe9500     0x3c  vip_gen_all_code.o [1]
  .bss                zero     0x1ffe953c     0x2c  hal_spi.o [1]
  .bss                zero     0x1ffe9568     0x28  bsp_gps.o [1]
  .bss                zero     0x1ffe9590     0x28  bsp_gps.o [1]
  .bss                zero     0x1ffe95b8     0x20  hal_s32k14x_iic.o [1]
  .bss                zero     0x1ffe95d8     0x20  hal_s32k14x_uart.o [1]
  .bss                zero     0x1ffe95f8     0x20  serv_evtFunc.o [1]
  .bss                zero     0x1ffe9618     0x20  trace_phy.o [1]
  .bss                zero     0x1ffe9638     0x1c  hal_rtc.o [1]
  .bss                zero     0x1ffe9654     0x1c  pwrctrl.o [1]
  .bss                zero     0x1ffe9670     0x1c  bsp_gpio.o [1]
  .bss                zero     0x1ffe968c     0x18  log_cmd.o [1]
  .bss                zero     0x1ffe96a4     0x18  Trace_Server.o [1]
  .bss                zero     0x1ffe96bc     0x14  hal_iic.o [1]
  .bss                zero     0x1ffe96d0     0x14  vip_gen_all_code.o [1]
  .bss                zero     0x1ffe96e4     0x14  vip_gen_all_code.o [1]
  .bss                zero     0x1ffe96f8     0x14  vip_gen_all_code.o [1]
  .bss                zero     0x1ffe970c     0x14  vip_gen_all_code.o [1]
  .bss                zero     0x1ffe9720     0x14  vip_gen_all_code.o [1]
  .bss                zero     0x1ffe9734     0x14  vip_gen_all_code.o [1]
  .bss                zero     0x1ffe9748     0x14  vip_gen_all_code.o [1]
  .bss                zero     0x1ffe975c     0x14  vip_gen_all_code.o [1]
  .bss                zero     0x1ffe9770     0x14  vip_gen_all_code.o [1]
  .bss                zero     0x1ffe9784     0x14  vip_gen_all_code.o [1]
  .bss                zero     0x1ffe9798     0x14  vip_gen_all_code.o [1]
  .bss                zero     0x1ffe97ac     0x14  vip_gen_all_code.o [1]
  .bss                zero     0x1ffe97c0     0x10  vip_gen_all_code.o [1]
  .bss                zero     0x1ffe97d0     0x10  vip_gen_all_code.o [1]
  .bss                zero     0x1ffe97e0     0x10  vip_gen_all_code.o [1]
  .bss                zero     0x1ffe97f0      0xc  hal_s32k14x_adc.o [1]
  .bss                zero     0x1ffe97fc      0xc  bsp_gps.o [1]
  .bss                zero     0x1ffe9808      0xa  cpu_ts.o [1]
  .bss                zero     0x1ffe9812      0x8  map_mana.o [1]
  .bss                zero     0x1ffe981a      0x6  vip_gen_all_code.o [1]
  .bss                zero     0x1ffe9820      0x8  ap_state.o [1]
  .bss                zero     0x1ffe9828      0x8  vip_gen_all_code.o [1]
  .bss                zero     0x1ffe9830      0x8  xxmemxmalloc.o [3]
  .bss                zero     0x1ffe9838      0x4  hal_s32k14x_spi.o [1]
  .bss                zero     0x1ffe983c      0x4  hal_s32k14x_uart.o [1]
  .bss                zero     0x1ffe9840      0x4  hal_s32k14x_uart.o [1]
  .bss                zero     0x1ffe9844      0x4  hal_dflash.o [1]
  .bss                zero     0x1ffe9848      0x4  hal_flash.o [1]
  .bss                zero     0x1ffe984c      0x4  hal_gpio.o [1]
  .bss                zero     0x1ffe9850      0x4  hal_uart.o [1]
  .bss                zero     0x1ffe9854      0x4  hal_wdt.o [1]
  .bss                zero     0x1ffe9858      0x4  bsp_gps.o [1]
  .bss                zero     0x1ffe985c      0x4  Trace_Common.o [1]
  .bss                zero     0x1ffe9860      0x4  Trace_Common.o [1]
  .bss                zero     0x1ffe9864      0x4  Trace_Common.o [1]
  .bss                zero     0x1ffe9868      0x4  Trace_Server.o [1]
  .bss                zero     0x1ffe986c      0x4  trace.o [1]
  .bss                zero     0x1ffe9870      0x4  xgetmemchunk.o [3]
  .bss                zero     0x1ffe9874      0x2  Trace_Common.o [1]
  .bss                zero     0x1ffe9876      0x2  Trace_Common.o [1]
  .bss                zero     0x1ffe9878      0x2  Trace_Common.o [1]
  .bss                zero     0x1ffe987a      0x2  Trace_Common.o [1]
  .bss                zero     0x1ffe987c      0x1  hal_s32k14x_spi.o [1]
  .bss                zero     0x1ffe987d      0x1  hal_s32k14x_wdt.o [1]
  .bss                zero     0x1ffe987e      0x1  ipc_debug.o [1]
  .bss                zero     0x1ffe987f      0x1  ipc_swdl.o [1]
  .bss                zero     0x1ffe9880      0x1  app_sig.o [1]
  .bss                zero     0x1ffe9881      0x1  bsp_misc.o [1]
  .bss                zero     0x1ffe9882      0x1  Trace_Buffer.o [1]
  .bss                zero     0x1ffe9883      0x1  Trace_Common.o [1]
  .bss                zero     0x1ffe9884      0x1  Trace_Common.o [1]
  .bss                zero     0x1ffe9885      0x1  Trace_Common.o [1]
  .bss                zero     0x1ffe9886      0x1  Trace_Common.o [1]
  .bss                zero     0x1ffe9887      0x1  Trace_Common.o [1]
  .bss                zero     0x1ffe9888      0x1  Trace_Common.o [1]
  .bss                zero     0x1ffe9889      0x1  Trace_Common.o [1]
  .bss                zero     0x1ffe988a      0x1  Trace_Dispatcher.o [1]
  .bss                zero     0x1ffe988b      0x1  vip_gen_all_code.o [1]
  .bss                zero     0x1ffe988c      0x1  vip_gen_all_code.o [1]
  .bss                zero     0x1ffe988d      0x1  vip_gen_all_code.o [1]
                             - 0x1ffe988e   0x97fa

"P3", part 3 of 3:                           0x400
  CSTACK                       0x1ffe9890    0x400  <Block>
    CSTACK            uninit   0x1ffe9890    0x400  <Block tail>
  HEAP                         0x1ffe9c90      0x0  <Block>
                             - 0x1ffe9c90    0x400

"P6":                                        0x915
  .noinit             uninit   0x2001e000    0x7d8  Trace_Buffer.o [1]
  .noinit             uninit   0x2001e7d8    0x100  Trace_Server.o [1]
  .noinit             uninit   0x2001e8d8     0x28  Trace_Server.o [1]
  .noinit             uninit   0x2001e900      0xc  vip_gen_all_code.o [1]
  .noinit             uninit   0x2001e90c      0x9  Trace_Buffer.o [1]
                             - 0x2001e915    0x915


*******************************************************************************
*** INIT TABLE
***

          Address     Size
          -------     ----
Zero (__iar_zero_init3)
    1 destination range, total size 0x97fa:
          0x1ffe0094  0x97fa

Copy (__iar_copy_init3)
    1 source range, total size 0x94 (102% of destination):
          0x00000240    0x94
    1 destination range, total size 0x91:
          0x1ffe0000    0x91



*******************************************************************************
*** MODULE SUMMARY
***

    Module                       ro code  ro data  rw data  ro data
                                                             (abs)
    ------                       -------  -------  -------  -------
C:\WangChao\sx5_git\n331_vip\src_app\obj: [1]
    App_Diag.o                       120
    App_OnOff.o                       36
    App_Test_AudioControl.o           36
    App_Test_diagnostic.o             80
    App_Test_gps.o                    72
    Trace_Buffer.o                   724             2 018
    Trace_Common.o                                      27
    Trace_Dispatcher.o               180                 1
    Trace_Server.o                 2 144               324
    ap_state.o                       436                88
    app_sig.o                         24                 1
    board_hw.o                       104
    bsp_audio.o                      928       44      540
    bsp_gpio.o                       584                28
    bsp_gps.o                      3 092             4 576
    bsp_misc.o                        64                 1
    cmsis_os.o                       328
    cpu_a.o                           52
    cpu_ts.o                         240                10
    crc16.o                          556
    crc32.o                        1 072
    gen_stub_AudioControl_imp.o       12       16
    gen_stub_diagnostic_imp.o         24       48
    gen_stub_gps_imp.o                28       32
    hal_cpu_clk.o                     10
    hal_cpu_vect.o                   852      576
    hal_dflash.o                     136                 4
    hal_flash.o                       36                 4
    hal_gpio.o                       136                 4
    hal_hw.o                         120
    hal_iic.o                        312                20
    hal_int.o                        194               512
    hal_rtc.o                        280                28
    hal_s32k14x_adc.o                272                12
    hal_s32k14x_dflash.o             552
    hal_s32k14x_edma.o             1 180                64
    hal_s32k14x_gpio.o             2 000               160
    hal_s32k14x_iic.o              2 064                32
    hal_s32k14x_scg.o                204
    hal_s32k14x_spi.o                968                 5
    hal_s32k14x_uart.o             1 932               152
    hal_s32k14x_wdt.o                192                 1
    hal_spi.o                        393                44
    hal_uart.o                       140                 4
    hal_wdt.o                         72                 4
    heap_4.o                         388            16 408
    ipc_debug.o                       32                 1
    ipc_swdl.o                       118                 1
    list.o                           138
    log_cmd.o                        180        8       24
    main.o                           728       24       76
    map_mana.o                       908                 8
    port.o                           240        4        4
    portasm.o                        168
    pwrctrl.o                      1 276        8       28
    queue.o                        1 276               160
    serv.o                             4
    serv_evt.o                       424               128
    serv_evtFunc.o                    92                32
    serv_func.o                      264               256
    serv_tmr.o                        84                96
    serv_wdt.o                       268               144
    tasks.o                        1 968               320
    tdf8546.o                        376
    tef6638_funcs.o               13 852       25       25
    tef6638audio.o                 4 780
    trace.o                          244                 4
    trace_phy.o                      380                32
    trace_version.o                    8
    utc2local.o                      284
    ver_info.o                        52                        184
    vip_gen_all_code.o            38 068       56   14 881
    ---------------------------------------------------------------
    Total:                        89 581      841   41 292      184

command line: [2]
    ---------------------------------------------------------------
    Total:

dl7M_tln.a: [3]
    errno.o                           12        4        4
    exit.o                             4
    getzone.o                         10
    localtim.o                       156        8        8
    mktime.o                         208
    setlocale.o                       41        8        8
    xgetdst.o                        350
    xgetmemchunk.o                    44                 4
    xgettime.o                        66
    xisdst.o                         308        4        4
    xisdstData.o                                4        4
    xstol.o                          134
    xstoul.o                         408
    xtls.o                             2
    xttotm.o                         392       44       44
    xxmemxfree.o                     128
    xxmemxmalloc.o                   176                 8
    ---------------------------------------------------------------
    Total:                         2 439       72       84

m7M_tls.a: [4]
    fpinit_M.o                        34
    ---------------------------------------------------------------
    Total:                            34

rt7M_tl.a: [5]
    ABImemclr4.o                       6
    ABImemcpy_unaligned.o            118
    ABImemset48.o                     58
    XXexit.o                          12
    cexit.o                           10
    cmain.o                           26
    copy_init3.o                      44
    cstartup_M.o                      12
    data_init.o                       40
    memchr.o                          88
    strchr.o                          22
    strlen.o                          54
    zero_init3.o                      64
    ---------------------------------------------------------------
    Total:                           554

    Gaps                              32
    Linker created                             39    1 024
-------------------------------------------------------------------
    Grand Total:                  92 640      952   42 400      184


*******************************************************************************
*** ENTRY LIST
***

Entry                      Address    Size  Type      Object
-----                      -------    ----  ----      ------
.iar.init_table$$Base   0x00026a78           --   Gb  - Linker created -
.iar.init_table$$Limit  0x00026a9c           --   Gb  - Linker created -
?main                   0x0002467d          Code  Gb  cmain.o [5]
AddSystemTmToTraceBuffer
                        0x0001a725    0x60  Code  Lc  Trace_Buffer.o [1]
ApState1_ChgTm_min_intv_val
                        0x1ffe9302     0x2  Data  Lc  vip_gen_all_code.o [1]
ApState1_ChgTm_tx_sig_val
                        0x1ffe930c    0x10  Data  Lc  vip_gen_all_code.o [1]
ApState2_ChgTm_min_intv_val
                        0x1ffe9304     0x2  Data  Lc  vip_gen_all_code.o [1]
ApState2_ChgTm_tx_sig_val
                        0x1ffe931c    0x10  Data  Lc  vip_gen_all_code.o [1]
ApState3_ChgTm_min_intv_val
                        0x1ffe9306     0x2  Data  Lc  vip_gen_all_code.o [1]
ApState3_ChgTm_tx_sig_val
                        0x1ffe932c    0x10  Data  Lc  vip_gen_all_code.o [1]
ApState4_ChgTm_min_intv_val
                        0x1ffe9308     0x2  Data  Lc  vip_gen_all_code.o [1]
ApState4_ChgTm_tx_sig_val
                        0x1ffe97c0    0x10  Data  Lc  vip_gen_all_code.o [1]
ApState5_ChgTm_min_intv_val
                        0x1ffe930a     0x2  Data  Lc  vip_gen_all_code.o [1]
ApState5_ChgTm_tx_sig_val
                        0x1ffe97d0    0x10  Data  Lc  vip_gen_all_code.o [1]
ApStateCmd              0x00023ebd    0x6e  Code  Lc  log_cmd.o [1]
ApState_GetState1Tm     0x0001ad5d    0x34  Code  Gb  ap_state.o [1]
ApState_GetState2Tm     0x0001ad91    0x36  Code  Gb  ap_state.o [1]
ApState_GetState3Tm     0x0001adc7    0x36  Code  Gb  ap_state.o [1]
ApState_GetState4Tm     0x0001adfd    0x36  Code  Gb  ap_state.o [1]
ApState_GetState5Tm     0x0001ae33    0x38  Code  Gb  ap_state.o [1]
ApState_State1CaptEdgeIsr
                        0x0001ae6d    0x1c  Code  Gb  ap_state.o [1]
ApState_State2CaptEdgeIsr
                        0x0001ae89    0x1e  Code  Gb  ap_state.o [1]
ApState_State3CaptEdgeIsr
                        0x0001aea9    0x1e  Code  Gb  ap_state.o [1]
ApState_State4CaptEdgeIsr
                        0x0001aec9    0x1e  Code  Gb  ap_state.o [1]
ApState_State5CaptEdgeIsr
                        0x0001aee9    0x20  Code  Gb  ap_state.o [1]
AppSig_SystemReset      0x0001acd1     0x4  Code  Gb  app_sig.o [1]
AppTaskStart            0x00022035   0x102  Code  Lc  main.o [1]
AppWriteResetInfo       0x000221bd    0x14  Code  Lc  main.o [1]
App_BusFault_ISR        0x0002669d     0x2  Code  Lc  hal_cpu_vect.o [1]
App_Diag_Init           0x0001a2a1     0xc  Code  Gb  App_Diag.o [1]
App_Diag_Proxy_AudioControl
                        0x0001a308    0x10  Data  Gb  App_Diag.o [1]
App_Diag_Proxy_AudioControl_Init
                        0x0001a2cd     0xa  Code  Lc  App_Diag.o [1]
App_Diag_Proxy_diagnostic
                        0x0001a2dc    0x2c  Data  Gb  App_Diag.o [1]
App_Diag_Proxy_diagnostic_Init
                        0x0001a2ad     0xa  Code  Lc  App_Diag.o [1]
App_Fault_ISR           0x0002669b     0x2  Code  Lc  hal_cpu_vect.o [1]
App_MemFault_ISR        0x000266a1     0x2  Code  Lc  hal_cpu_vect.o [1]
App_NMI_ISR             0x00026699     0x2  Code  Lc  hal_cpu_vect.o [1]
App_OnOff_Init          0x0001a27d     0x2  Code  Gb  App_OnOff.o [1]
App_OnOff_Proxy_AudioControl
                        0x0001a290    0x10  Data  Gb  App_OnOff.o [1]
App_OnOff_Proxy_AudioControl_Init
                        0x0001a27f     0xa  Code  Lc  App_OnOff.o [1]
App_Spurious_ISR        0x000266a3     0x2  Code  Lc  hal_cpu_vect.o [1]
App_Test_AudioControl_Init
                        0x0001a1c1     0x2  Code  Gb  App_Test_AudioControl.o [1]
App_Test_AudioControl_Proxy_AudioControl
                        0x0001a1d4    0x10  Data  Gb  App_Test_AudioControl.o [1]
App_Test_AudioControl_Proxy_AudioControl_Init
                        0x0001a1c3     0xa  Code  Lc  App_Test_AudioControl.o [1]
App_Test_diagnostic_Init
                        0x0001a1e5     0x2  Code  Gb  App_Test_diagnostic.o [1]
App_Test_diagnostic_Proxy_diagnostic
                        0x0001a208    0x2c  Data  Gb  App_Test_diagnostic.o [1]
App_Test_diagnostic_Proxy_diagnostic_Init
                        0x0001a1e7     0xa  Code  Lc  App_Test_diagnostic.o [1]
App_Test_gps_Init       0x0001a235     0x2  Code  Gb  App_Test_gps.o [1]
App_Test_gps_Proxy_gps  0x0001a254    0x28  Data  Gb  App_Test_gps.o [1]
App_Test_gps_Proxy_gps_Init
                        0x0001a237     0xa  Code  Lc  App_Test_gps.o [1]
App_UsageFault_ISR      0x0002669f     0x2  Code  Lc  hal_cpu_vect.o [1]
AudioControl_InjectClient
                        0x00010127    0x30  Code  Gb  vip_gen_all_code.o [1]
AudioControl_ProxyDecodeMethodHook
                        0x00010157     0xe  Code  Gb  vip_gen_all_code.o [1]
AudioControl_ProxyDecodeSignalHook
                        0x00010165    0xfa  Code  Gb  vip_gen_all_code.o [1]
AudioControl_StubDecodeMethodHook
                        0x00010293    0x8a  Code  Gb  vip_gen_all_code.o [1]
AudioControl_on_signal_CurrentWarningSource
                        0x0001a28d     0x2  Code  Lc  App_OnOff.o [1]
AudioControl_on_signal_CurrentWarningSource
                        0x0001a2db     0x2  Code  Lc  App_Diag.o [1]
AudioControl_on_signal_CurrentWarningSource
                        0x0001a1d1     0x2  Code  Lc  App_Test_AudioControl.o [1]
AudioControl_on_signal_DspReset
                        0x0001a1d3     0x2  Code  Lc  App_Test_AudioControl.o [1]
AudioControl_on_signal_connected
                        0x0001a289     0x2  Code  Lc  App_OnOff.o [1]
AudioControl_on_signal_connected
                        0x0001a2d7     0x2  Code  Lc  App_Diag.o [1]
AudioControl_on_signal_connected
                        0x0001a1cd     0x2  Code  Lc  App_Test_AudioControl.o [1]
AudioControl_on_signal_disconnected
                        0x0001a28b     0x2  Code  Lc  App_OnOff.o [1]
AudioControl_on_signal_disconnected
                        0x0001a2d9     0x2  Code  Lc  App_Diag.o [1]
AudioControl_on_signal_disconnected
                        0x0001a1cf     0x2  Code  Lc  App_Test_AudioControl.o [1]
AudioControl_signal_DspReset
                        0x0001025f    0x34  Code  Gb  vip_gen_all_code.o [1]
BeepWarning             0x000218f1   0x330  Code  Gb  tef6638_funcs.o [1]
BoardHw_EnterHp         0x00023e37     0x4  Code  Lc  board_hw.o [1]
BoardHw_EnterLp         0x00023e5d     0x2  Code  Lc  board_hw.o [1]
BoardHw_EnterMp         0x00023e47     0x4  Code  Lc  board_hw.o [1]
BoardHw_EnterSleep      0x00023e61     0x2  Code  Lc  board_hw.o [1]
BoardHw_ExitHp          0x00023e3b     0xc  Code  Lc  board_hw.o [1]
BoardHw_ExitLp          0x00023e5f     0x2  Code  Lc  board_hw.o [1]
BoardHw_ExitMp          0x00023e4b     0xc  Code  Lc  board_hw.o [1]
BoardHw_ExitSleep       0x00023e63     0x2  Code  Lc  board_hw.o [1]
BoardHw_GetPwrCtrlApi   0x00023e31     0x6  Code  Gb  board_hw.o [1]
BoardHw_ReqHp           0x00023e2d     0x4  Code  Lc  board_hw.o [1]
BspAudio_1sFunc         0x0001beb9    0x2a  Code  Lc  bsp_audio.o [1]
BspAudio_CmdThread      0x0001bdeb    0xcc  Code  Lc  bsp_audio.o [1]
BspAudio_Init           0x0001bcf5    0x20  Code  Gb  bsp_audio.o [1]
BspAudio_OnOff          0x0001bda7     0xa  Code  Gb  bsp_audio.o [1]
BspAudio_PowerState     0x0001bdd9    0x12  Code  Gb  bsp_audio.o [1]
BspAudio_RxMsg          0x0001bd15    0x92  Code  Gb  bsp_audio.o [1]
BspAudio_WarningRequire
                        0x0001bdb1    0x28  Code  Gb  bsp_audio.o [1]
BspGpio_GetHwInsVal     0x0001d3b5    0x46  Code  Gb  bsp_gpio.o [1]
BspGpio_Init            0x0001d2fd    0x7c  Code  Gb  bsp_gpio.o [1]
BspGpio_MainFunc        0x0001d3fb    0x60  Code  Gb  bsp_gpio.o [1]
BspGpio_SetVal          0x0001d379    0x3c  Code  Gb  bsp_gpio.o [1]
BspGps_DebugOnOff       0x0001b135    0x36  Code  Gb  bsp_gps.o [1]
BspGps_DebugRxMsg       0x0001b133     0x2  Code  Gb  bsp_gps.o [1]
BspGps_Init             0x0001b091    0x5e  Code  Gb  bsp_gps.o [1]
BspGps_PlaybackOnOff    0x0001b121    0x12  Code  Gb  bsp_gps.o [1]
BspGps_PlaybackRxMsg    0x0001b0ef    0x32  Code  Gb  bsp_gps.o [1]
BspMisc_GetWakeUpReason
                        0x0001ad19     0x6  Code  Gb  bsp_misc.o [1]
BspMisc_Init            0x0001ace9    0x30  Code  Gb  bsp_misc.o [1]
BufferlevelCriticalFlag_u8
                        0x1ffe9882     0x1  Data  Gb  Trace_Buffer.o [1]
CPU_CntLeadZeros        0x0001a0bb          Code  Gb  cpu_a.o [1]
CPU_CntTrailZeros       0x0001a0c1          Code  Gb  cpu_a.o [1]
CPU_IntDis              0x0001a09d          Code  Gb  cpu_a.o [1]
CPU_IntEn               0x0001a0a1          Code  Gb  cpu_a.o [1]
CPU_RevBits             0x0001a0cb          Code  Gb  cpu_a.o [1]
CPU_SR_Restore          0x0001a0ad          Code  Gb  cpu_a.o [1]
CPU_SR_Save             0x0001a0a5          Code  Gb  cpu_a.o [1]
CPU_WaitForExcept       0x0001a0b7          Code  Gb  cpu_a.o [1]
CPU_WaitForInt          0x0001a0b3          Code  Gb  cpu_a.o [1]
CSTACK$$Base            0x1ffe9890           --   Gb  - Linker created -
CSTACK$$Limit           0x1ffe9c90           --   Gb  - Linker created -
CalcCpuLoad             0x00022137    0x44  Code  Lc  main.o [1]
CalcTxHwLenAndCrc       0x000191d9    0xb8  Code  Lc  vip_gen_all_code.o [1]
CallbackFunctionList    0x1ffe9868     0x4  Data  Gb  Trace_Server.o [1]
CfKernelDaemon_Task     0x0001149d   0x17c  Code  Lc  vip_gen_all_code.o [1]
CfKernel_DaemonStackGet
                        0x00011403    0x2a  Code  Gb  vip_gen_all_code.o [1]
CfKernel_DaemonStackInit
                        0x000113f9     0xa  Code  Gb  vip_gen_all_code.o [1]
CfKernel_FreeMsg        0x00011367    0x92  Code  Gb  vip_gen_all_code.o [1]
CfKernel_GetMsg         0x00011241    0xb8  Code  Gb  vip_gen_all_code.o [1]
CfKernel_Init           0x00011221     0xa  Code  Gb  vip_gen_all_code.o [1]
CfKernel_MemCopy        0x000100a9    0x16  Code  Lc  vip_gen_all_code.o [1]
CfKernel_PutMsg         0x000112f9    0x6e  Code  Gb  vip_gen_all_code.o [1]
CheckAmpActive          0x0001d573    0x32  Code  Gb  tdf8546.o [1]
Check_Cmd_Need_Send     0x0001b9a5    0xd0  Code  Lc  bsp_gps.o [1]
CommandDataBuffer       0x2001e7d8   0x100  Data  Lc  Trace_Server.o [1]
CommandDataCompleteFlag_u8
                        0x1ffe96a7     0x1  Data  Gb  Trace_Server.o [1]
CommandDataErrorFlag_u8
                        0x1ffe96a6     0x1  Data  Gb  Trace_Server.o [1]
CpuTs_GetCnt            0x0001a115     0x8  Code  Gb  cpu_ts.o [1]
CpuTs_GetDisIntLongCnt  0x0001a189     0x6  Code  Gb  cpu_ts.o [1]
CpuTs_GetDisIntMaxTm    0x0001a183     0x6  Code  Gb  cpu_ts.o [1]
CpuTs_GetDisIntNestMax  0x0001a17d     0x6  Code  Gb  cpu_ts.o [1]
CpuTs_Init              0x0001a0d1    0x44  Code  Gb  cpu_ts.o [1]
CpuTs_IntDisMeasStart   0x0001a11d    0x22  Code  Gb  cpu_ts.o [1]
CpuTs_IntDisMeasStop    0x0001a13f    0x3e  Code  Gb  cpu_ts.o [1]
CpuTs_ReinitCnt         0x0001a18f    0x20  Code  Gb  cpu_ts.o [1]
Crc16_Calc              0x0001a319    0x2c  Code  Gb  crc16.o [1]
Crc32_Calc              0x0001a8a1    0x2e  Code  Gb  crc32.o [1]
DEV_IPC_SPI_0_ActvIpcHwComTask
                        0x00018301     0xa  Code  Lc  vip_gen_all_code.o [1]
DEV_IPC_SPI_0_AddIpcTxMsgToDevipcBuf
                        0x00018a41   0x31c  Code  Lc  vip_gen_all_code.o [1]
DEV_IPC_SPI_0_ExecChInit
                        0x0001830b    0x1a  Code  Lc  vip_gen_all_code.o [1]
DEV_IPC_SPI_0_GetHwAckPinLvl
                        0x0001823d     0x8  Code  Lc  vip_gen_all_code.o [1]
DEV_IPC_SPI_0_GetHwReqPinLvl
                        0x000182f9     0x8  Code  Lc  vip_gen_all_code.o [1]
DEV_IPC_SPI_0_HwAckPinInit
                        0x000181f5    0x48  Code  Lc  vip_gen_all_code.o [1]
DEV_IPC_SPI_0_HwAckSigPost
                        0x00018255     0xa  Code  Gb  vip_gen_all_code.o [1]
DEV_IPC_SPI_0_HwDatReqPinInit
                        0x000182a9    0x50  Code  Lc  vip_gen_all_code.o [1]
DEV_IPC_SPI_0_HwDatReqSigPost
                        0x00018299     0xa  Code  Gb  vip_gen_all_code.o [1]
DEV_IPC_SPI_0_HwSendRecvData
                        0x0001860f    0x66  Code  Lc  vip_gen_all_code.o [1]
DEV_IPC_SPI_0_HwSendRecvDataAtOnce
                        0x000185b1    0x5e  Code  Lc  vip_gen_all_code.o [1]
DEV_IPC_SPI_0_IpcHwAckDis
                        0x00018245     0x8  Code  Lc  vip_gen_all_code.o [1]
DEV_IPC_SPI_0_IpcHwAckEn
                        0x0001824d     0x8  Code  Lc  vip_gen_all_code.o [1]
DEV_IPC_SPI_0_IpcHwComTaskCreate
                        0x00018f41     0xa  Code  Lc  vip_gen_all_code.o [1]
DEV_IPC_SPI_0_IpcHwCom_Task
                        0x00019121     0x2  Code  Lc  vip_gen_all_code.o [1]
DEV_IPC_SPI_0_IpcHwSyncWithAp
                        0x00018f05    0x30  Code  Lc  vip_gen_all_code.o [1]
DEV_IPC_SPI_0_IpcHw_Spi_Proc_Task
                        0x00018f61   0x170  Code  Lc  vip_gen_all_code.o [1]
DEV_IPC_SPI_0_IpcProcessRcvMsg
                        0x000184ed    0x7c  Code  Lc  vip_gen_all_code.o [1]
DEV_IPC_SPI_0_ProcXonOffMsg
                        0x00018569     0x2  Code  Lc  vip_gen_all_code.o [1]
DEV_IPC_SPI_0_ProcessCloseAllClient
                        0x000187f5    0x28  Code  Lc  vip_gen_all_code.o [1]
DEV_IPC_SPI_0_ProcessDeleteAllUnsendMsg
                        0x00018a15    0x24  Code  Lc  vip_gen_all_code.o [1]
DEV_IPC_SPI_0_ProcessTxAckResgMsg
                        0x00018785    0x68  Code  Lc  vip_gen_all_code.o [1]
DEV_IPC_SPI_0_ProcessTxMsgWithApi
                        0x0001876f    0x16  Code  Lc  vip_gen_all_code.o [1]
DEV_IPC_SPI_0_ProcessTxNeedAckMsg
                        0x00018719     0x4  Code  Lc  vip_gen_all_code.o [1]
DEV_IPC_SPI_0_ProcessTxNoCopyMsg
                        0x0001871d    0x52  Code  Lc  vip_gen_all_code.o [1]
DEV_IPC_SPI_0_ProcessXonOffRxMsg
                        0x0001856b    0x46  Code  Lc  vip_gen_all_code.o [1]
DEV_IPC_SPI_0_RecvHwData
                        0x00018325   0x1c8  Code  Lc  vip_gen_all_code.o [1]
DEV_IPC_SPI_0_SendXonOffMsgHandle
                        0x00018675    0x9e  Code  Lc  vip_gen_all_code.o [1]
DEV_IPC_SPI_0_Spi_IpcHwSyncWithAp
                        0x00018d61   0x19e  Code  Lc  vip_gen_all_code.o [1]
DEV_IPC_SPI_0_WaitIpcHwAck
                        0x00018265    0x2c  Code  Lc  vip_gen_all_code.o [1]
DEV_IPC_SPI_0_ack_msg_buf
                        0x1ffe94c0    0x40  Data  Lc  vip_gen_all_code.o [1]
DEV_IPC_SPI_0_ack_msg_rx
                        0x1ffe981c     0x2  Data  Lc  vip_gen_all_code.o [1]
DEV_IPC_SPI_0_ack_msg_used
                        0x1ffe981a     0x2  Data  Lc  vip_gen_all_code.o [1]
DEV_IPC_SPI_0_ack_msg_wr
                        0x1ffe981e     0x2  Data  Lc  vip_gen_all_code.o [1]
DEV_IPC_SPI_0_actv_ipc_com_task
                        0x1ffe9538     0x4  Data  Lc  vip_gen_all_code.o [1]
DEV_IPC_SPI_0_cur_hw_tx_fifo_len
                        0x1ffe9526     0x2  Data  Lc  vip_gen_all_code.o [1]
DEV_IPC_SPI_0_cur_rx_msg_len
                        0x1ffe951e     0x2  Data  Lc  vip_gen_all_code.o [1]
DEV_IPC_SPI_0_echo_open
                        0x1ffe988d     0x1  Data  Lc  vip_gen_all_code.o [1]
DEV_IPC_SPI_0_ipc_ch_attr
                        0x0001881c   0x1f8  Data  Lc  vip_gen_all_code.o [1]
DEV_IPC_SPI_0_ipc_cur_state
                        0x1ffe9515     0x1  Data  Lc  vip_gen_all_code.o [1]
DEV_IPC_SPI_0_ipc_hw_ack_max_tm
                        0x1ffe9528     0x4  Data  Lc  vip_gen_all_code.o [1]
DEV_IPC_SPI_0_ipc_hw_avbl
                        0x1ffe9534     0x4  Data  Lc  vip_gen_all_code.o [1]
DEV_IPC_SPI_0_ipc_state_req
                        0x1ffe9516     0x1  Data  Lc  vip_gen_all_code.o [1]
DEV_IPC_SPI_0_ipc_tx_buf_data
                        0x1ffe7008   0x80c  Data  Lc  vip_gen_all_code.o [1]
DEV_IPC_SPI_0_ipc_tx_buf_rx
                        0x1ffe9522     0x2  Data  Lc  vip_gen_all_code.o [1]
DEV_IPC_SPI_0_ipc_tx_buf_used
                        0x1ffe9520     0x2  Data  Lc  vip_gen_all_code.o [1]
DEV_IPC_SPI_0_ipc_tx_buf_wr
                        0x1ffe9524     0x2  Data  Lc  vip_gen_all_code.o [1]
DEV_IPC_SPI_0_ipc_tx_seq
                        0x1ffe951a     0x1  Data  Lc  vip_gen_all_code.o [1]
DEV_IPC_SPI_0_ipc_wdt_count
                        0x1ffe951c     0x2  Data  Lc  vip_gen_all_code.o [1]
DEV_IPC_SPI_0_msg_rx_crc
                        0x1ffe9518     0x1  Data  Lc  vip_gen_all_code.o [1]
DEV_IPC_SPI_0_msg_rx_state
                        0x1ffe9519     0x1  Data  Lc  vip_gen_all_code.o [1]
DEV_IPC_SPI_0_rx_hw_fifo_data
                        0x1ffe91a0    0x80  Data  Lc  vip_gen_all_code.o [1]
DEV_IPC_SPI_0_rx_msg_data
                        0x1ffe8560   0x204  Data  Lc  vip_gen_all_code.o [1]
DEV_IPC_SPI_0_serv_wdt  0x1ffe952c     0x4  Data  Lc  vip_gen_all_code.o [1]
DEV_IPC_SPI_0_sync_msg  0x00018f00     0x4  Data  Lc  vip_gen_all_code.o [1]
DEV_IPC_SPI_0_tx_buf_avbl
                        0x1ffe9530     0x4  Data  Lc  vip_gen_all_code.o [1]
DEV_IPC_SPI_0_tx_hw_fifo_data
                        0x1ffe9120    0x80  Data  Lc  vip_gen_all_code.o [1]
DEV_IPC_SPI_0_tx_xon_off_msg
                        0x1ffe9514     0x1  Data  Lc  vip_gen_all_code.o [1]
DEV_IPC_SPI_0_wdt_msg_recv
                        0x1ffe9517     0x1  Data  Lc  vip_gen_all_code.o [1]
DevIpcHwAckMaxTm_min_intv_val
                        0x1ffe9300     0x2  Data  Lc  vip_gen_all_code.o [1]
DevIpcHwAckMaxTm_tx_sig_val
                        0x1ffe9344     0x4  Data  Lc  vip_gen_all_code.o [1]
DevIpc_10msFuncCall     0x00019291    0x3e  Code  Lc  vip_gen_all_code.o [1]
DevIpc_Init             0x000192cf    0x1c  Code  Gb  vip_gen_all_code.o [1]
DevIpc_SendMsg          0x00019309    0x26  Code  Gb  vip_gen_all_code.o [1]
DevIpc_SendMsgWithApi   0x00019351    0x1a  Code  Gb  vip_gen_all_code.o [1]
DevIpc_SendMsgWithNoBlock
                        0x0001932f    0x22  Code  Gb  vip_gen_all_code.o [1]
DevIpc_StartReq         0x000192ff     0xa  Code  Gb  vip_gen_all_code.o [1]
DevIpc_StopReq          0x000192f5     0xa  Code  Gb  vip_gen_all_code.o [1]
DevSig_10msFunc         0x0001435d    0x84  Code  Lc  vip_gen_all_code.o [1]
DevSig_GetTestCnt       0x0001acd5     0xa  Code  Gb  app_sig.o [1]
DevSig_HandleTxSig_ApState1_ChgTm
                        0x00014027    0x54  Code  Gb  vip_gen_all_code.o [1]
DevSig_HandleTxSig_ApState2_ChgTm
                        0x000140ab    0x54  Code  Gb  vip_gen_all_code.o [1]
DevSig_HandleTxSig_ApState3_ChgTm
                        0x0001412f    0x52  Code  Gb  vip_gen_all_code.o [1]
DevSig_HandleTxSig_ApState4_ChgTm
                        0x000141bd    0x56  Code  Gb  vip_gen_all_code.o [1]
DevSig_HandleTxSig_ApState5_ChgTm
                        0x00014243    0x56  Code  Gb  vip_gen_all_code.o [1]
DevSig_HandleTxSig_DevIpcHwAckMaxTm
                        0x00013f83    0x38  Code  Gb  vip_gen_all_code.o [1]
DevSig_HandleTxSig_IgnState
                        0x00013f0f    0x5a  Code  Gb  vip_gen_all_code.o [1]
DevSig_HandleTxSig_TestCnt
                        0x00013e69    0x22  Code  Gb  vip_gen_all_code.o [1]
DevSig_HandleTxSig_WakeUpReason
                        0x00013e9f    0x5a  Code  Gb  vip_gen_all_code.o [1]
DevSig_Init             0x00014343    0x1a  Code  Gb  vip_gen_all_code.o [1]
DevSig_OnOff            0x000143e9    0x42  Code  Gb  vip_gen_all_code.o [1]
DevSig_RxMsg            0x00014431    0x62  Code  Gb  vip_gen_all_code.o [1]
DevSig_SegTxGetBuf      0x000144e5    0x3e  Code  Gb  vip_gen_all_code.o [1]
DevSig_SegTxResult      0x00014551    0x20  Code  Gb  vip_gen_all_code.o [1]
DevSig_SetTestCnt       0x0001acdf     0x6  Code  Gb  app_sig.o [1]
DspResetRoutine         0x0001e8ab    0xb8  Code  Gb  tef6638audio.o [1]
EepBlock_BoardHwCfg_Init
                        0x0001257f   0x110  Code  Lc  vip_gen_all_code.o [1]
EepBlock_BoardReset_Init
                        0x0001268f   0x10a  Code  Lc  vip_gen_all_code.o [1]
EepBlock_UserCfg_Init   0x00012471   0x10e  Code  Lc  vip_gen_all_code.o [1]
EepBlock_block_1_Init   0x00012365   0x10c  Code  Lc  vip_gen_all_code.o [1]
EepCopyEepImageToHw     0x00013689   0x7da  Code  Lc  vip_gen_all_code.o [1]
EepCopyRamImageToEepImage
                        0x000133e9   0x1f6  Code  Lc  vip_gen_all_code.o [1]
EepCopyUserImageToHwImageFuncTbl
                        0x000135e8    0x94  Data  Lc  vip_gen_all_code.o [1]
EepCopy_AccOnWakeup_Cnt_FromUserImageToHwImage
                        0x00011faf    0x1a  Code  Lc  vip_gen_all_code.o [1]
EepCopy_AmpPreWarning_Cnt_FromUserImageToHwImage
                        0x00012183    0x16  Code  Lc  vip_gen_all_code.o [1]
EepCopy_AmpPwr_cnt_FromUserImageToHwImage
                        0x00012345    0x16  Code  Lc  vip_gen_all_code.o [1]
EepCopy_AmpReset_cnt_FromUserImageToHwImage
                        0x0001232b    0x16  Code  Lc  vip_gen_all_code.o [1]
EepCopy_AudioCmdExecMaxTm_FromUserImageToHwImage
                        0x0001216d    0x16  Code  Lc  vip_gen_all_code.o [1]
EepCopy_AudioEepTest_FromUserImageToHwImage
                        0x00011b61    0x1a  Code  Lc  vip_gen_all_code.o [1]
EepCopy_BackLighMode_FromUserImageToHwImage
                        0x00011b0b    0x1a  Code  Lc  vip_gen_all_code.o [1]
EepCopy_BatState_ChgDly_FromUserImageToHwImage
                        0x00011c09    0x1a  Code  Lc  vip_gen_all_code.o [1]
EepCopy_BatVolHigh_Hysteresis_H_FromUserImageToHwImage
                        0x00011c81    0x1a  Code  Lc  vip_gen_all_code.o [1]
EepCopy_BatVolHigh_Hysteresis_L_FromUserImageToHwImage
                        0x00011c9b    0x16  Code  Lc  vip_gen_all_code.o [1]
EepCopy_BatVolLow_Hysteresis_H_FromUserImageToHwImage
                        0x00011cb5    0x16  Code  Lc  vip_gen_all_code.o [1]
EepCopy_BatVolLow_Hysteresis_L_FromUserImageToHwImage
                        0x00011cd1    0x16  Code  Lc  vip_gen_all_code.o [1]
EepCopy_BatVolVeryHigh_Hysteresis_H_FromUserImageToHwImage
                        0x00011c29    0x1a  Code  Lc  vip_gen_all_code.o [1]
EepCopy_BatVolVeryHigh_Hysteresis_L_FromUserImageToHwImage
                        0x00011c4d    0x1a  Code  Lc  vip_gen_all_code.o [1]
EepCopy_BatVolVeryLow_Hysteresis_H_FromUserImageToHwImage
                        0x00011ce7    0x18  Code  Lc  vip_gen_all_code.o [1]
EepCopy_BatVolVeryLow_Hysteresis_L_FromUserImageToHwImage
                        0x00011d05    0x18  Code  Lc  vip_gen_all_code.o [1]
EepCopy_BatteryOnWakeup_Cnt_FromUserImageToHwImage
                        0x00011f95    0x1a  Code  Lc  vip_gen_all_code.o [1]
EepCopy_CanWakeup_Cnt_FromUserImageToHwImage
                        0x00011fc9    0x1a  Code  Lc  vip_gen_all_code.o [1]
EepCopy_CpuDisIntMaxNest_FromUserImageToHwImage
                        0x00012209    0x16  Code  Lc  vip_gen_all_code.o [1]
EepCopy_CpuDisIntMaxTm_FromUserImageToHwImage
                        0x0001228f    0x16  Code  Lc  vip_gen_all_code.o [1]
EepCopy_CpuDisIntTooLongCnt_FromUserImageToHwImage
                        0x00012315    0x16  Code  Lc  vip_gen_all_code.o [1]
EepCopy_DspKeyCodeOnOff_FromUserImageToHwImage
                        0x00011ba1    0x1a  Code  Lc  vip_gen_all_code.o [1]
EepCopy_DspKeyCode_FromUserImageToHwImage
                        0x00011be1    0x1a  Code  Lc  vip_gen_all_code.o [1]
EepCopy_DspPOR_cnt_FromUserImageToHwImage
                        0x000120dd    0x1a  Code  Lc  vip_gen_all_code.o [1]
EepCopy_LastWatchdogReset_id_FromUserImageToHwImage
                        0x00012017    0x1a  Code  Lc  vip_gen_all_code.o [1]
EepCopy_MapAppFailure_Cnt_FromUserImageToHwImage
                        0x0001204b    0x1a  Code  Lc  vip_gen_all_code.o [1]
EepCopy_MapPowerFailure_Cnt_FromUserImageToHwImage
                        0x00012031    0x1a  Code  Lc  vip_gen_all_code.o [1]
EepCopy_ScreenBackLigtPwmValOnDay_FromUserImageToHwImage
                        0x00011b29    0x1a  Code  Lc  vip_gen_all_code.o [1]
EepCopy_ScreenBackLigtPwmValOnNight_FromUserImageToHwImage
                        0x00011b43    0x1a  Code  Lc  vip_gen_all_code.o [1]
EepCopy_Sn_FromUserImageToHwImage
                        0x00011af3    0x18  Code  Lc  vip_gen_all_code.o [1]
EepCopy_TotalReset_Cnt_FromUserImageToHwImage
                        0x00011f7b    0x1a  Code  Lc  vip_gen_all_code.o [1]
EepCopy_TraceModuleLvlCrc_FromUserImageToHwImage
                        0x00011eeb    0x1a  Code  Lc  vip_gen_all_code.o [1]
EepCopy_UserReset_Cnt_FromUserImageToHwImage
                        0x00011fe3    0x1a  Code  Lc  vip_gen_all_code.o [1]
EepCopy_Vin_FromUserImageToHwImage
                        0x00011acf    0x24  Code  Lc  vip_gen_all_code.o [1]
EepCopy_VipLogModLvl_FromUserImageToHwImage
                        0x00011e4d    0x26  Code  Lc  vip_gen_all_code.o [1]
EepCopy_WatchDogReset_Cnt_FromUserImageToHwImage
                        0x00011ffd    0x1a  Code  Lc  vip_gen_all_code.o [1]
EepCopy_trace_phy_FromUserImageToHwImage
                        0x00011d91    0x18  Code  Lc  vip_gen_all_code.o [1]
EepIpcTxProcess         0x00012eb3   0x102  Code  Lc  vip_gen_all_code.o [1]
EepMana_IdleTask        0x00012b49    0x18  Code  Gb  vip_gen_all_code.o [1]
EepMana_Init            0x00012b19    0x30  Code  Gb  vip_gen_all_code.o [1]
EepMana_OnOff           0x00012be5    0x14  Code  Gb  vip_gen_all_code.o [1]
EepMana_RxMsg           0x00012b61    0x84  Code  Gb  vip_gen_all_code.o [1]
EepMana_SegTxGetBuf     0x00012c09   0x218  Code  Gb  vip_gen_all_code.o [1]
EepMana_SegTxResult     0x00012e21    0x7a  Code  Gb  vip_gen_all_code.o [1]
EepMana_SegTxStart      0x00012bf9    0x10  Code  Gb  vip_gen_all_code.o [1]
EepWrProcess            0x00012e9b    0x18  Code  Lc  vip_gen_all_code.o [1]
FifoRx                  0x2001e8d8    0x24  Data  Lc  Trace_Server.o [1]
GPS_ColdReset_OP        0x0001b80b    0x24  Code  Gb  bsp_gps.o [1]
GPS_FactoryReset_OP     0x0001b7e7    0x24  Code  Gb  bsp_gps.o [1]
GPS_GetDRState_OP       0x0001b845     0xc  Code  Gb  bsp_gps.o [1]
GPS_GetVer_OP           0x0001b82f    0x16  Code  Gb  bsp_gps.o [1]
GPS_HotReset_OP         0x0001b7c3    0x24  Code  Gb  bsp_gps.o [1]
GenCfKernel_OnOff       0x00011489     0xe  Code  Gb  vip_gen_all_code.o [1]
GenCfKernel_RxMsg       0x0001142d    0x5c  Code  Gb  vip_gen_all_code.o [1]
GenDevIp_StopReq_DEV_IPC_SPI_0
                        0x0001819d    0x22  Code  Gb  vip_gen_all_code.o [1]
GenDevIpc_GetIpcHwAckMaxT_DEV_IPC_SPI_0
                        0x000181e1     0x8  Code  Gb  vip_gen_all_code.o [1]
GenDevIpc_GetState_DEV_IPC_SPI_0
                        0x00018191     0x6  Code  Gb  vip_gen_all_code.o [1]
GenDevIpc_SetIpcHwAckMaxTm_DEV_IPC_SPI_0
                        0x000181e9     0x8  Code  Gb  vip_gen_all_code.o [1]
GenDevIpc_StartReq_DEV_IPC_SPI_0
                        0x000181bf    0x22  Code  Gb  vip_gen_all_code.o [1]
GenEep_Get_AudioCmdExecMaxTm
                        0x000120f7    0x22  Code  Gb  vip_gen_all_code.o [1]
GenEep_Get_CpuDisIntMaxNest
                        0x00012199    0x20  Code  Gb  vip_gen_all_code.o [1]
GenEep_Get_CpuDisIntMaxTm
                        0x0001221f    0x20  Code  Gb  vip_gen_all_code.o [1]
GenEep_Get_CpuDisIntTooLongCnt
                        0x000122a5    0x20  Code  Gb  vip_gen_all_code.o [1]
GenEep_Get_DspKeyCode   0x00011bbb    0x22  Code  Gb  vip_gen_all_code.o [1]
GenEep_Get_DspKeyCodeOnOff
                        0x00011b7b    0x22  Code  Gb  vip_gen_all_code.o [1]
GenEep_Get_DspPOR_cnt   0x00012065    0x22  Code  Gb  vip_gen_all_code.o [1]
GenEep_Get_TotalReset_Cnt
                        0x00011f05    0x22  Code  Gb  vip_gen_all_code.o [1]
GenEep_Get_TraceModuleLvlCrc
                        0x00011e73    0x22  Code  Gb  vip_gen_all_code.o [1]
GenEep_Get_VipLogModLvl
                        0x00011da9    0x32  Code  Gb  vip_gen_all_code.o [1]
GenEep_Get_trace_phy    0x00011d1d    0x22  Code  Gb  vip_gen_all_code.o [1]
GenEep_Set_AudioCmdExecMaxTm
                        0x00012119    0x54  Code  Gb  vip_gen_all_code.o [1]
GenEep_Set_CpuDisIntMaxNest
                        0x000121b9    0x50  Code  Gb  vip_gen_all_code.o [1]
GenEep_Set_CpuDisIntMaxTm
                        0x0001223f    0x50  Code  Gb  vip_gen_all_code.o [1]
GenEep_Set_CpuDisIntTooLongCnt
                        0x000122c5    0x50  Code  Gb  vip_gen_all_code.o [1]
GenEep_Set_DspPOR_cnt   0x00012087    0x56  Code  Gb  vip_gen_all_code.o [1]
GenEep_Set_TotalReset_Cnt
                        0x00011f27    0x54  Code  Gb  vip_gen_all_code.o [1]
GenEep_Set_TraceModuleLvlCrc
                        0x00011e95    0x56  Code  Gb  vip_gen_all_code.o [1]
GenEep_Set_VipLogModLvl
                        0x00011de5    0x64  Code  Gb  vip_gen_all_code.o [1]
GenEep_Set_trace_phy    0x00011d3f    0x52  Code  Gb  vip_gen_all_code.o [1]
Gen_Cf_DaemonDecode     0x0001162d    0x9e  Code  Gb  vip_gen_all_code.o [1]
GetValFromCmd           0x00021f43    0x42  Code  Lc  tef6638_funcs.o [1]
GpsProcessSignalReq     0x0001ba75    0xd4  Code  Lc  bsp_gps.o [1]
GpsUart_DebugSegTxResult
                        0x0001b1cd    0x22  Code  Gb  bsp_gps.o [1]
GpsUart_DebugTxGetBuf   0x0001b16b    0x62  Code  Gb  bsp_gps.o [1]
GpsUart_MSG_1101_Process
                        0x0001b637    0x12  Code  Lc  bsp_gps.o [1]
GpsUart_MSG_1108_Process
                        0x0001b649    0x12  Code  Lc  bsp_gps.o [1]
GpsUart_MSG_1401_Process
                        0x0001b787    0x3c  Code  Lc  bsp_gps.o [1]
GpsUart_MSG_3002_Process
                        0x0001b377   0x104  Code  Lc  bsp_gps.o [1]
GpsUart_MSG_3102_Process
                        0x0001b47b    0xee  Code  Lc  bsp_gps.o [1]
GpsUart_MSG_3201_Process
                        0x0001b569    0x6e  Code  Lc  bsp_gps.o [1]
GpsUart_MSG_3301_Process
                        0x0001b5d7    0x60  Code  Lc  bsp_gps.o [1]
GpsUart_MSG_7013_Process
                        0x0001b65b    0x7c  Code  Lc  bsp_gps.o [1]
GpsUart_MSG_7014_Process
                        0x0001b6d7    0x72  Code  Lc  bsp_gps.o [1]
GpsUart_MSG_7040_Process
                        0x0001b749     0xa  Code  Lc  bsp_gps.o [1]
GpsUart_MSG_7060_Process
                        0x0001b753    0x34  Code  Lc  bsp_gps.o [1]
GpsUart_ReceivedData    0x0001b1fd    0x2a  Code  Lc  bsp_gps.o [1]
GpsUart_RxDat_Parse     0x0001b22b   0x14c  Code  Lc  bsp_gps.o [1]
GpsUart_TxComfirmation  0x0001b229     0x2  Code  Lc  bsp_gps.o [1]
HEAP$$Base              0x1ffe9c90           --   Gb  - Linker created -
HEAP$$Limit             0x1ffe9c90           --   Gb  - Linker created -
HalClk_CpuClkInit       0x00022341     0x4  Code  Gb  hal_cpu_clk.o [1]
HalClk_GetCpuFreq       0x00022345     0x6  Code  Gb  hal_cpu_clk.o [1]
HalDFlash_Erase         0x0001a837    0x18  Code  Gb  hal_dflash.o [1]
HalDFlash_Init          0x0001a819    0x1e  Code  Gb  hal_dflash.o [1]
HalDFlash_IsBusy        0x0001a887    0x14  Code  Gb  hal_dflash.o [1]
HalDFlash_ProgramData   0x0001a84f    0x1c  Code  Gb  hal_dflash.o [1]
HalDFlash_ReadData      0x0001a86b    0x1c  Code  Gb  hal_dflash.o [1]
HalFlash_Init           0x000234d1    0x1e  Code  Gb  hal_flash.o [1]
HalGpio_DisPinInt       0x0001c0d9     0xe  Code  Gb  hal_gpio.o [1]
HalGpio_EnPinInt        0x0001c0cb     0xe  Code  Gb  hal_gpio.o [1]
HalGpio_GetPinVal       0x0001c09f    0x10  Code  Gb  hal_gpio.o [1]
HalGpio_Init            0x0001c065    0x1e  Code  Gb  hal_gpio.o [1]
HalGpio_InitPinGpio     0x0001c083     0xe  Code  Gb  hal_gpio.o [1]
HalGpio_InitPinInt      0x0001c0bd     0xe  Code  Gb  hal_gpio.o [1]
HalGpio_PinAFConfig     0x0001c0af     0xe  Code  Gb  hal_gpio.o [1]
HalGpio_SetPinVal       0x0001c091     0xe  Code  Gb  hal_gpio.o [1]
HalHw_GetApi            0x0001cfdf    0x18  Code  Gb  hal_hw.o [1]
HalHw_Init              0x0001cfa9    0x36  Code  Gb  hal_hw.o [1]
HalIic_GetDev           0x0001d23f    0x12  Code  Gb  hal_iic.o [1]
HalIic_Init             0x0001d213    0x2c  Code  Gb  hal_iic.o [1]
HalIic_SndRcv           0x0001d251    0x8c  Code  Gb  hal_iic.o [1]
HalInt_Dis              0x00023da3     0x8  Code  Gb  hal_int.o [1]
HalInt_En               0x00023dab     0x8  Code  Gb  hal_int.o [1]
HalInt_Handler          0x00023dff    0x12  Code  Gb  hal_int.o [1]
HalInt_HandlerDummy     0x00023e25     0x2  Code  Lc  hal_int.o [1]
HalInt_Init             0x00023dcb    0x34  Code  Gb  hal_int.o [1]
HalInt_PrioSet          0x00023dbf     0xc  Code  Gb  hal_int.o [1]
HalInt_VectSet          0x00023db3     0xc  Code  Gb  hal_int.o [1]
HalOS_SemaphoreCreate   0x0001d1c5    0x18  Code  Lc  hal_iic.o [1]
HalOS_SemaphoreCreate   0x000234f5    0x18  Code  Lc  hal_rtc.o [1]
HalOS_SemaphoreCreate   0x0001c0ed    0x18  Code  Lc  hal_spi.o [1]
HalOS_SemaphoreCreate   0x00019ba1    0x18  Code  Lc  pwrctrl.o [1]
HalOS_SemaphoreCreate   0x00023bbd    0x18  Code  Lc  serv_evt.o [1]
HalOS_SemaphoreCreate   0x000100bf    0x18  Code  Lc  vip_gen_all_code.o [1]
HalOS_SemaphoreCreateWithMaxCnt
                        0x00024be5    0x1a  Code  Lc  hal_s32k14x_iic.o [1]
HalOS_SemaphoreCreateWithMaxCnt
                        0x0001bca5    0x1a  Code  Lc  bsp_audio.o [1]
HalOS_SemaphoreCreateWithMaxCnt
                        0x0001ceb5    0x1a  Code  Lc  trace.o [1]
HalOS_SemaphoreCreateWithMaxCnt
                        0x000100d7    0x1a  Code  Lc  vip_gen_all_code.o [1]
HalOS_SemaphoreWait     0x00024bff    0x36  Code  Lc  hal_s32k14x_iic.o [1]
HalOS_SemaphoreWait     0x0001d1dd    0x36  Code  Lc  hal_iic.o [1]
HalOS_SemaphoreWait     0x0001c105    0x36  Code  Lc  hal_spi.o [1]
HalOS_SemaphoreWait     0x00019bb9    0x36  Code  Lc  pwrctrl.o [1]
HalOS_SemaphoreWait     0x0001bcbf    0x36  Code  Lc  bsp_audio.o [1]
HalOS_SemaphoreWait     0x00023bd5    0x36  Code  Lc  serv_evt.o [1]
HalOS_SemaphoreWait     0x0001cecf    0x36  Code  Lc  trace.o [1]
HalOS_SemaphoreWait     0x000100f1    0x36  Code  Lc  vip_gen_all_code.o [1]
HalRtc_Init             0x0002350d    0x9a  Code  Gb  hal_rtc.o [1]
HalRtc_wakeup_isr       0x000235a9    0x54  Code  Lc  hal_rtc.o [1]
HalS32K14x_AdcChDeInit  0x0002691d    0x1e  Code  Lc  hal_s32k14x_adc.o [1]
HalS32K14x_AdcChInit    0x000268d3    0x4a  Code  Lc  hal_s32k14x_adc.o [1]
HalS32K14x_AdcFunc10ms  0x0002693b    0x34  Code  Lc  hal_s32k14x_adc.o [1]
HalS32K14x_AdcGetChVal  0x0002696f    0x30  Code  Lc  hal_s32k14x_adc.o [1]
HalS32K14x_ScgGetFreq   0x0002408d    0x16  Code  Gb  hal_s32k14x_scg.o [1]
HalS32K14x_ScgInit      0x00023ff9    0x94  Code  Gb  hal_s32k14x_scg.o [1]
HalS32K14x_SpiInit      0x00022c81    0xfe  Code  Gb  hal_s32k14x_spi.o [1]
HalS32K14x_Wdt_GetApi   0x00022bcf     0x6  Code  Gb  hal_s32k14x_wdt.o [1]
HalS32K14x_Wdt_Mount    0x00022bc7     0x8  Code  Gb  hal_s32k14x_wdt.o [1]
HalS32K14x_eDMAChInit   0x0002309d    0x36  Code  Gb  hal_s32k14x_edma.o [1]
HalS32K14x_eDMAConfigSourceChannel
                        0x000230d3    0x18  Code  Gb  hal_s32k14x_edma.o [1]
HalS32K14x_eDMAEnableChErrInt
                        0x000230eb     0xe  Code  Gb  hal_s32k14x_edma.o [1]
HalS32K14x_eDMASetChannelIsr
                        0x000230f9    0x2a  Code  Gb  hal_s32k14x_edma.o [1]
HalS32K14x_eDMASetTCDDOFF
                        0x000231c1    0x2c  Code  Gb  hal_s32k14x_edma.o [1]
HalS32K14x_eDMASetTCDFrameAttr
                        0x00023139    0x5c  Code  Gb  hal_s32k14x_edma.o [1]
HalS32K14x_eDMASetTCDSOFF
                        0x00023195    0x2c  Code  Gb  hal_s32k14x_edma.o [1]
HalS32K14x_eDMASetTCDSrcDestAddr
                        0x00023123    0x16  Code  Gb  hal_s32k14x_edma.o [1]
HalS32k14x_eDMACh0Isr   0x0002323d    0x1e  Code  Lc  hal_s32k14x_edma.o [1]
HalS32k14x_eDMACh10Isr  0x0002336d    0x20  Code  Lc  hal_s32k14x_edma.o [1]
HalS32k14x_eDMACh11Isr  0x0002338d    0x20  Code  Lc  hal_s32k14x_edma.o [1]
HalS32k14x_eDMACh12Isr  0x000233ad    0x20  Code  Lc  hal_s32k14x_edma.o [1]
HalS32k14x_eDMACh13Isr  0x000233cd    0x20  Code  Lc  hal_s32k14x_edma.o [1]
HalS32k14x_eDMACh14Isr  0x000233ed    0x20  Code  Lc  hal_s32k14x_edma.o [1]
HalS32k14x_eDMACh15Isr  0x0002340d    0x20  Code  Lc  hal_s32k14x_edma.o [1]
HalS32k14x_eDMACh1Isr   0x0002325b    0x1e  Code  Lc  hal_s32k14x_edma.o [1]
HalS32k14x_eDMACh2Isr   0x00023279    0x1e  Code  Lc  hal_s32k14x_edma.o [1]
HalS32k14x_eDMACh3Isr   0x00023297    0x1e  Code  Lc  hal_s32k14x_edma.o [1]
HalS32k14x_eDMACh4Isr   0x000232b5    0x1e  Code  Lc  hal_s32k14x_edma.o [1]
HalS32k14x_eDMACh5Isr   0x000232d3    0x1e  Code  Lc  hal_s32k14x_edma.o [1]
HalS32k14x_eDMACh6Isr   0x000232f1    0x1e  Code  Lc  hal_s32k14x_edma.o [1]
HalS32k14x_eDMACh7Isr   0x0002330f    0x1e  Code  Lc  hal_s32k14x_edma.o [1]
HalS32k14x_eDMACh8Isr   0x0002332d    0x20  Code  Lc  hal_s32k14x_edma.o [1]
HalS32k14x_eDMACh9Isr   0x0002334d    0x20  Code  Lc  hal_s32k14x_edma.o [1]
HalS32k14x_eDMAERQSet   0x0002321d    0x20  Code  Gb  hal_s32k14x_edma.o [1]
HalS32k14x_eDMAInit     0x00023035    0x68  Code  Gb  hal_s32k14x_edma.o [1]
HalS32k14x_eDMAReqTrigTypeSet
                        0x000231ed    0x30  Code  Gb  hal_s32k14x_edma.o [1]
HalS32k_DmaTransCalBk_SPI_1
                        0x00022c6d     0xe  Code  Lc  hal_s32k14x_spi.o [1]
HalSpi_Com              0x0001c189    0xa0  Code  Gb  hal_spi.o [1]
HalSpi_GetDev           0x0001c179    0x10  Code  Gb  hal_spi.o [1]
HalSpi_HwComOk          0x0001c229    0x30  Code  Gb  hal_spi.o [1]
HalSpi_Init             0x0001c13b    0x3e  Code  Gb  hal_spi.o [1]
HalUart_GetDev          0x0001d077    0x14  Code  Gb  hal_uart.o [1]
HalUart_Init            0x0001d069     0xe  Code  Gb  hal_uart.o [1]
HalUart_InitDev         0x0001d08b    0x12  Code  Gb  hal_uart.o [1]
HalUart_Send            0x0001d09d    0x1a  Code  Gb  hal_uart.o [1]
HalUart_SetCalBk        0x0001d0cf    0x20  Code  Gb  hal_uart.o [1]
HalUart_SetParameter    0x0001d0b7    0x18  Code  Gb  hal_uart.o [1]
HalWdt_Feed             0x0001d03f    0x12  Code  Gb  hal_wdt.o [1]
HalWdt_Init             0x0001d021    0x1e  Code  Gb  hal_wdt.o [1]
HalWdt_RstCpu           0x0001d051    0x12  Code  Gb  hal_wdt.o [1]
Hal_IntVectTbl          0x1ffe8764   0x200  Data  Lc  hal_int.o [1]
IIC_HwInit              0x00024c43    0xbe  Code  Lc  hal_s32k14x_iic.o [1]
IIC_HwRead              0x00024e9b   0x18c  Code  Lc  hal_s32k14x_iic.o [1]
IIC_HwWrite             0x00024d01   0x19a  Code  Lc  hal_s32k14x_iic.o [1]
IIC_InitDrv             0x00025163   0x13a  Code  Lc  hal_s32k14x_iic.o [1]
IIC_IntMasterHandle     0x0002529d    0xf6  Code  Lc  hal_s32k14x_iic.o [1]
IIC_Int_IIC_A0          0x00024c35     0x4  Code  Lc  hal_s32k14x_iic.o [1]
IIC_Int_IIC_A1          0x00024c39     0x4  Code  Lc  hal_s32k14x_iic.o [1]
IIC_UnlockBus           0x00025027   0x13c  Code  Lc  hal_s32k14x_iic.o [1]
IPC_AUDIO_10msTimeCycCall
                        0x00016d49    0x2e  Code  Lc  vip_gen_all_code.o [1]
IPC_AUDIO_IpcChClose    0x00016975     0x8  Code  Lc  vip_gen_all_code.o [1]
IPC_AUDIO_IpcChOpen     0x0001696d     0x8  Code  Lc  vip_gen_all_code.o [1]
IPC_AUDIO_IpcChSendMsgWithBlock
                        0x000169f5    0xbc  Code  Lc  vip_gen_all_code.o [1]
IPC_AUDIO_IpcChSendMsgWithoutTmout
                        0x0001697d    0x72  Code  Lc  vip_gen_all_code.o [1]
IPC_AUDIO_ProcIpcChAckRespMsg
                        0x00016b19    0x5e  Code  Lc  vip_gen_all_code.o [1]
IPC_AUDIO_ProcIpcChNeedAckMsg
                        0x00016b77    0x5a  Code  Lc  vip_gen_all_code.o [1]
IPC_AUDIO_ProcIpcChTxNoCopyMsg
                        0x00016cc1    0x88  Code  Lc  vip_gen_all_code.o [1]
IPC_AUDIO_ProcIpcChXonOffMsg
                        0x00016bd1    0x34  Code  Lc  vip_gen_all_code.o [1]
IPC_AUDIO_ProcessSendMsgSendMsgNoCopy
                        0x00016ab9    0x5c  Code  Lc  vip_gen_all_code.o [1]
IPC_AUDIO_ProcessSendMsgWithAck
                        0x00016b15     0x4  Code  Lc  vip_gen_all_code.o [1]
IPC_AUDIO_ProcessSendMsgWithApi
                        0x00016ab5     0x4  Code  Lc  vip_gen_all_code.o [1]
IPC_AUDIO_TxNoCopyMessage
                        0x00016c05    0xbc  Code  Lc  vip_gen_all_code.o [1]
IPC_AUDIO_client_cb     0x1ffe975c    0x14  Data  Lc  vip_gen_all_code.o [1]
IPC_CAN_MSG_10msTimeCycCall
                        0x00015723    0x2e  Code  Lc  vip_gen_all_code.o [1]
IPC_CAN_MSG_IpcChClose  0x0001534d     0x8  Code  Lc  vip_gen_all_code.o [1]
IPC_CAN_MSG_IpcChOpen   0x00015345     0x8  Code  Lc  vip_gen_all_code.o [1]
IPC_CAN_MSG_IpcChSendMsgWithBlock
                        0x000153d1    0xbe  Code  Lc  vip_gen_all_code.o [1]
IPC_CAN_MSG_IpcChSendMsgWithoutTmout
                        0x00015355    0x72  Code  Lc  vip_gen_all_code.o [1]
IPC_CAN_MSG_ProcIpcChAckRespMsg
                        0x000154f5    0x5e  Code  Lc  vip_gen_all_code.o [1]
IPC_CAN_MSG_ProcIpcChNeedAckMsg
                        0x00015553    0x5a  Code  Lc  vip_gen_all_code.o [1]
IPC_CAN_MSG_ProcIpcChTxNoCopyMsg
                        0x0001569b    0x88  Code  Lc  vip_gen_all_code.o [1]
IPC_CAN_MSG_ProcIpcChXonOffMsg
                        0x000155ad    0x2a  Code  Lc  vip_gen_all_code.o [1]
IPC_CAN_MSG_ProcessSendMsgSendMsgNoCopy
                        0x00015493    0x5e  Code  Lc  vip_gen_all_code.o [1]
IPC_CAN_MSG_ProcessSendMsgWithAck
                        0x000154f1     0x4  Code  Lc  vip_gen_all_code.o [1]
IPC_CAN_MSG_ProcessSendMsgWithApi
                        0x0001548f     0x4  Code  Lc  vip_gen_all_code.o [1]
IPC_CAN_MSG_TxNoCopyMessage
                        0x000155dd    0xbe  Code  Lc  vip_gen_all_code.o [1]
IPC_CAN_MSG_client_cb   0x1ffe970c    0x14  Data  Lc  vip_gen_all_code.o [1]
IPC_CF_10msTimeCycCall  0x00015f41    0x2e  Code  Lc  vip_gen_all_code.o [1]
IPC_CF_IpcChClose       0x00015b69     0x8  Code  Lc  vip_gen_all_code.o [1]
IPC_CF_IpcChOpen        0x00015b61     0x8  Code  Lc  vip_gen_all_code.o [1]
IPC_CF_IpcChSendMsgWithBlock
                        0x00015be5    0xc0  Code  Lc  vip_gen_all_code.o [1]
IPC_CF_IpcChSendMsgWithoutTmout
                        0x00015b71    0x74  Code  Lc  vip_gen_all_code.o [1]
IPC_CF_ProcIpcChAckRespMsg
                        0x00015d0b    0x5e  Code  Lc  vip_gen_all_code.o [1]
IPC_CF_ProcIpcChNeedAckMsg
                        0x00015d69    0x5a  Code  Lc  vip_gen_all_code.o [1]
IPC_CF_ProcIpcChTxNoCopyMsg
                        0x00015ebb    0x86  Code  Lc  vip_gen_all_code.o [1]
IPC_CF_ProcIpcChXonOffMsg
                        0x00015dc3    0x34  Code  Lc  vip_gen_all_code.o [1]
IPC_CF_ProcessSendMsgSendMsgNoCopy
                        0x00015ca9    0x5e  Code  Lc  vip_gen_all_code.o [1]
IPC_CF_ProcessSendMsgWithAck
                        0x00015d07     0x4  Code  Lc  vip_gen_all_code.o [1]
IPC_CF_ProcessSendMsgWithApi
                        0x00015ca5     0x4  Code  Lc  vip_gen_all_code.o [1]
IPC_CF_TxNoCopyMessage  0x00015dfd    0xbe  Code  Lc  vip_gen_all_code.o [1]
IPC_CF_client_cb        0x1ffe9734    0x14  Data  Lc  vip_gen_all_code.o [1]
IPC_DEBUG_10msTimeCycCall
                        0x00018163    0x2e  Code  Lc  vip_gen_all_code.o [1]
IPC_DEBUG_IpcChClose    0x00017d97     0x8  Code  Lc  vip_gen_all_code.o [1]
IPC_DEBUG_IpcChOpen     0x00017d8f     0x8  Code  Lc  vip_gen_all_code.o [1]
IPC_DEBUG_IpcChSendMsgWithBlock
                        0x00017e11    0xbc  Code  Lc  vip_gen_all_code.o [1]
IPC_DEBUG_IpcChSendMsgWithoutTmout
                        0x00017d9f    0x72  Code  Lc  vip_gen_all_code.o [1]
IPC_DEBUG_ProcIpcChAckRespMsg
                        0x00017f33    0x5e  Code  Lc  vip_gen_all_code.o [1]
IPC_DEBUG_ProcIpcChNeedAckMsg
                        0x00017f91    0x58  Code  Lc  vip_gen_all_code.o [1]
IPC_DEBUG_ProcIpcChTxNoCopyMsg
                        0x000180dd    0x86  Code  Lc  vip_gen_all_code.o [1]
IPC_DEBUG_ProcIpcChXonOffMsg
                        0x00017fe9    0x36  Code  Lc  vip_gen_all_code.o [1]
IPC_DEBUG_ProcessSendMsgSendMsgNoCopy
                        0x00017ed1    0x5e  Code  Lc  vip_gen_all_code.o [1]
IPC_DEBUG_ProcessSendMsgWithAck
                        0x00017f2f     0x4  Code  Lc  vip_gen_all_code.o [1]
IPC_DEBUG_ProcessSendMsgWithApi
                        0x00017ecd     0x4  Code  Lc  vip_gen_all_code.o [1]
IPC_DEBUG_TxNoCopyMessage
                        0x0001801f    0xbe  Code  Lc  vip_gen_all_code.o [1]
IPC_DEBUG_client_cb     0x1ffe97ac    0x14  Data  Lc  vip_gen_all_code.o [1]
IPC_DEV_SIG_10msTimeCycCall
                        0x0001793d    0x3e  Code  Lc  vip_gen_all_code.o [1]
IPC_DEV_SIG_IpcChClose  0x00017389     0x8  Code  Lc  vip_gen_all_code.o [1]
IPC_DEV_SIG_IpcChOpen   0x00017381     0x8  Code  Lc  vip_gen_all_code.o [1]
IPC_DEV_SIG_IpcChSendMsgWithBlock
                        0x00017405    0xc0  Code  Lc  vip_gen_all_code.o [1]
IPC_DEV_SIG_IpcChSendMsgWithoutTmout
                        0x00017391    0x74  Code  Lc  vip_gen_all_code.o [1]
IPC_DEV_SIG_ProcIpcChAckRespMsg
                        0x0001757d    0x64  Code  Lc  vip_gen_all_code.o [1]
IPC_DEV_SIG_ProcIpcChNeedAckMsg
                        0x000175e1    0x5a  Code  Lc  vip_gen_all_code.o [1]
IPC_DEV_SIG_ProcIpcChTxMsgWithApi
                        0x000178ad    0x90  Code  Lc  vip_gen_all_code.o [1]
IPC_DEV_SIG_ProcIpcChTxNoCopyMsg
                        0x0001772d    0x88  Code  Lc  vip_gen_all_code.o [1]
IPC_DEV_SIG_ProcIpcChXonOffMsg
                        0x0001763b    0x36  Code  Lc  vip_gen_all_code.o [1]
IPC_DEV_SIG_ProcessSendMsgSendMsgNoCopy
                        0x0001751b    0x5e  Code  Lc  vip_gen_all_code.o [1]
IPC_DEV_SIG_ProcessSendMsgWithAck
                        0x00017579     0x4  Code  Lc  vip_gen_all_code.o [1]
IPC_DEV_SIG_ProcessSendMsgWithApi
                        0x000174c5    0x56  Code  Lc  vip_gen_all_code.o [1]
IPC_DEV_SIG_TxNoCopyMessage
                        0x00017671    0xbc  Code  Lc  vip_gen_all_code.o [1]
IPC_DEV_SIG_TxSegTxMsgWithApi
                        0x000177b9    0xee  Code  Lc  vip_gen_all_code.o [1]
IPC_DEV_SIG_client_cb   0x1ffe9784    0x14  Data  Lc  vip_gen_all_code.o [1]
IPC_DIAG_10msTimeCycCall
                        0x00015313    0x2e  Code  Lc  vip_gen_all_code.o [1]
IPC_DIAG_IpcChClose     0x00014f45     0x8  Code  Lc  vip_gen_all_code.o [1]
IPC_DIAG_IpcChOpen      0x00014f3d     0x8  Code  Lc  vip_gen_all_code.o [1]
IPC_DIAG_IpcChSendMsgWithBlock
                        0x00014fcd    0xbc  Code  Lc  vip_gen_all_code.o [1]
IPC_DIAG_IpcChSendMsgWithoutTmout
                        0x00014f4d    0x72  Code  Lc  vip_gen_all_code.o [1]
IPC_DIAG_ProcIpcChAckRespMsg
                        0x000150ed    0x5e  Code  Lc  vip_gen_all_code.o [1]
IPC_DIAG_ProcIpcChNeedAckMsg
                        0x0001514b    0x56  Code  Lc  vip_gen_all_code.o [1]
IPC_DIAG_ProcIpcChTxNoCopyMsg
                        0x0001528d    0x86  Code  Lc  vip_gen_all_code.o [1]
IPC_DIAG_ProcIpcChXonOffMsg
                        0x000151a1    0x28  Code  Lc  vip_gen_all_code.o [1]
IPC_DIAG_ProcessSendMsgSendMsgNoCopy
                        0x0001508d    0x5c  Code  Lc  vip_gen_all_code.o [1]
IPC_DIAG_ProcessSendMsgWithAck
                        0x000150e9     0x4  Code  Lc  vip_gen_all_code.o [1]
IPC_DIAG_ProcessSendMsgWithApi
                        0x00015089     0x4  Code  Lc  vip_gen_all_code.o [1]
IPC_DIAG_TxNoCopyMessage
                        0x000151c9    0xbe  Code  Lc  vip_gen_all_code.o [1]
IPC_DIAG_client_cb      0x1ffe96f8    0x14  Data  Lc  vip_gen_all_code.o [1]
IPC_ECHO_10msTimeCycCall
                        0x00017d61    0x2e  Code  Lc  vip_gen_all_code.o [1]
IPC_ECHO_IpcChClose     0x00017983     0x8  Code  Lc  vip_gen_all_code.o [1]
IPC_ECHO_IpcChOpen      0x0001797b     0x8  Code  Lc  vip_gen_all_code.o [1]
IPC_ECHO_IpcChSendMsgWithBlock
                        0x000179fd    0xbe  Code  Lc  vip_gen_all_code.o [1]
IPC_ECHO_IpcChSendMsgWithoutTmout
                        0x0001798b    0x72  Code  Lc  vip_gen_all_code.o [1]
IPC_ECHO_ProcIpcChAckRespMsg
                        0x00017b25    0x5e  Code  Lc  vip_gen_all_code.o [1]
IPC_ECHO_ProcIpcChNeedAckMsg
                        0x00017b83    0x5a  Code  Lc  vip_gen_all_code.o [1]
IPC_ECHO_ProcIpcChTxNoCopyMsg
                        0x00017cd5    0x88  Code  Lc  vip_gen_all_code.o [1]
IPC_ECHO_ProcIpcChXonOffMsg
                        0x00017bdd    0x36  Code  Lc  vip_gen_all_code.o [1]
IPC_ECHO_ProcessSendMsgSendMsgNoCopy
                        0x00017abf    0x5c  Code  Lc  vip_gen_all_code.o [1]
IPC_ECHO_ProcessSendMsgWithAck
                        0x00017b21     0x4  Code  Lc  vip_gen_all_code.o [1]
IPC_ECHO_ProcessSendMsgWithApi
                        0x00017abb     0x4  Code  Lc  vip_gen_all_code.o [1]
IPC_ECHO_TxNoCopyMessage
                        0x00017c19    0xbc  Code  Lc  vip_gen_all_code.o [1]
IPC_ECHO_client_cb      0x1ffe9798    0x14  Data  Lc  vip_gen_all_code.o [1]
IPC_EEPROM_10msTimeCycCall
                        0x0001733d    0x3e  Code  Lc  vip_gen_all_code.o [1]
IPC_EEPROM_IpcChClose   0x00016d85     0x8  Code  Lc  vip_gen_all_code.o [1]
IPC_EEPROM_IpcChOpen    0x00016d7d     0x8  Code  Lc  vip_gen_all_code.o [1]
IPC_EEPROM_IpcChSendMsgWithBlock
                        0x00016e05    0xbe  Code  Lc  vip_gen_all_code.o [1]
IPC_EEPROM_IpcChSendMsgWithoutTmout
                        0x00016d8d    0x72  Code  Lc  vip_gen_all_code.o [1]
IPC_EEPROM_ProcIpcChAckRespMsg
                        0x00016f81    0x64  Code  Lc  vip_gen_all_code.o [1]
IPC_EEPROM_ProcIpcChNeedAckMsg
                        0x00016fe5    0x56  Code  Lc  vip_gen_all_code.o [1]
IPC_EEPROM_ProcIpcChTxMsgWithApi
                        0x000172a9    0x8e  Code  Lc  vip_gen_all_code.o [1]
IPC_EEPROM_ProcIpcChTxNoCopyMsg
                        0x00017131    0x86  Code  Lc  vip_gen_all_code.o [1]
IPC_EEPROM_ProcIpcChXonOffMsg
                        0x0001703b    0x36  Code  Lc  vip_gen_all_code.o [1]
IPC_EEPROM_ProcessSendMsgSendMsgNoCopy
                        0x00016f1f    0x5e  Code  Lc  vip_gen_all_code.o [1]
IPC_EEPROM_ProcessSendMsgWithAck
                        0x00016f7d     0x4  Code  Lc  vip_gen_all_code.o [1]
IPC_EEPROM_ProcessSendMsgWithApi
                        0x00016ec9    0x56  Code  Lc  vip_gen_all_code.o [1]
IPC_EEPROM_TxNoCopyMessage
                        0x00017075    0xbc  Code  Lc  vip_gen_all_code.o [1]
IPC_EEPROM_TxSegTxMsgWithApi
                        0x000171b7    0xee  Code  Lc  vip_gen_all_code.o [1]
IPC_EEPROM_client_cb    0x1ffe9770    0x14  Data  Lc  vip_gen_all_code.o [1]
IPC_GPS_DEBUG_10msTimeCycCall
                        0x0001692f    0x3e  Code  Lc  vip_gen_all_code.o [1]
IPC_GPS_DEBUG_IpcChClose
                        0x0001638b     0x8  Code  Lc  vip_gen_all_code.o [1]
IPC_GPS_DEBUG_IpcChOpen
                        0x00016383     0x8  Code  Lc  vip_gen_all_code.o [1]
IPC_GPS_DEBUG_IpcChSendMsgWithBlock
                        0x00016407    0xc0  Code  Lc  vip_gen_all_code.o [1]
IPC_GPS_DEBUG_IpcChSendMsgWithoutTmout
                        0x00016393    0x74  Code  Lc  vip_gen_all_code.o [1]
IPC_GPS_DEBUG_ProcIpcChAckRespMsg
                        0x0001657f    0x64  Code  Lc  vip_gen_all_code.o [1]
IPC_GPS_DEBUG_ProcIpcChNeedAckMsg
                        0x000165e9    0x5a  Code  Lc  vip_gen_all_code.o [1]
IPC_GPS_DEBUG_ProcIpcChTxMsgWithApi
                        0x000168a3    0x8c  Code  Lc  vip_gen_all_code.o [1]
IPC_GPS_DEBUG_ProcIpcChTxNoCopyMsg
                        0x00016735    0x84  Code  Lc  vip_gen_all_code.o [1]
IPC_GPS_DEBUG_ProcIpcChXonOffMsg
                        0x00016643    0x36  Code  Lc  vip_gen_all_code.o [1]
IPC_GPS_DEBUG_ProcessSendMsgSendMsgNoCopy
                        0x0001651d    0x5e  Code  Lc  vip_gen_all_code.o [1]
IPC_GPS_DEBUG_ProcessSendMsgWithAck
                        0x0001657b     0x4  Code  Lc  vip_gen_all_code.o [1]
IPC_GPS_DEBUG_ProcessSendMsgWithApi
                        0x000164c7    0x56  Code  Lc  vip_gen_all_code.o [1]
IPC_GPS_DEBUG_TxNoCopyMessage
                        0x0001667d    0xb8  Code  Lc  vip_gen_all_code.o [1]
IPC_GPS_DEBUG_TxSegTxMsgWithApi
                        0x000167b9    0xea  Code  Lc  vip_gen_all_code.o [1]
IPC_GPS_DEBUG_client_cb
                        0x1ffe9500    0x14  Data  Lc  vip_gen_all_code.o [1]
IPC_GPS_Playback_10msTimeCycCall
                        0x00016355    0x2e  Code  Lc  vip_gen_all_code.o [1]
IPC_GPS_Playback_IpcChClose
                        0x00015f77     0x8  Code  Lc  vip_gen_all_code.o [1]
IPC_GPS_Playback_IpcChOpen
                        0x00015f6f     0x8  Code  Lc  vip_gen_all_code.o [1]
IPC_GPS_Playback_IpcChSendMsgWithBlock
                        0x00015ff1    0xbc  Code  Lc  vip_gen_all_code.o [1]
IPC_GPS_Playback_IpcChSendMsgWithoutTmout
                        0x00015f7f    0x72  Code  Lc  vip_gen_all_code.o [1]
IPC_GPS_Playback_ProcIpcChAckRespMsg
                        0x00016117    0x5e  Code  Lc  vip_gen_all_code.o [1]
IPC_GPS_Playback_ProcIpcChNeedAckMsg
                        0x00016179    0x56  Code  Lc  vip_gen_all_code.o [1]
IPC_GPS_Playback_ProcIpcChTxNoCopyMsg
                        0x000162cd    0x88  Code  Lc  vip_gen_all_code.o [1]
IPC_GPS_Playback_ProcIpcChXonOffMsg
                        0x000161cf    0x36  Code  Lc  vip_gen_all_code.o [1]
IPC_GPS_Playback_ProcessSendMsgSendMsgNoCopy
                        0x000160b5    0x5e  Code  Lc  vip_gen_all_code.o [1]
IPC_GPS_Playback_ProcessSendMsgWithAck
                        0x00016113     0x4  Code  Lc  vip_gen_all_code.o [1]
IPC_GPS_Playback_ProcessSendMsgWithApi
                        0x000160b1     0x4  Code  Lc  vip_gen_all_code.o [1]
IPC_GPS_Playback_TxNoCopyMessage
                        0x0001620d    0xbc  Code  Lc  vip_gen_all_code.o [1]
IPC_GPS_Playback_client_cb
                        0x1ffe9748    0x14  Data  Lc  vip_gen_all_code.o [1]
IPC_ON_OFF_10msTimeCycCall
                        0x00014f0b    0x2e  Code  Lc  vip_gen_all_code.o [1]
IPC_ON_OFF_IpcChClose   0x00014b3b     0x8  Code  Lc  vip_gen_all_code.o [1]
IPC_ON_OFF_IpcChOpen    0x00014b33     0x8  Code  Lc  vip_gen_all_code.o [1]
IPC_ON_OFF_IpcChSendMsgWithBlock
                        0x00014bb5    0xbe  Code  Lc  vip_gen_all_code.o [1]
IPC_ON_OFF_IpcChSendMsgWithoutTmout
                        0x00014b43    0x72  Code  Lc  vip_gen_all_code.o [1]
IPC_ON_OFF_ProcIpcChAckRespMsg
                        0x00014cd9    0x5e  Code  Lc  vip_gen_all_code.o [1]
IPC_ON_OFF_ProcIpcChNeedAckMsg
                        0x00014d37    0x5a  Code  Lc  vip_gen_all_code.o [1]
IPC_ON_OFF_ProcIpcChTxNoCopyMsg
                        0x00014e83    0x88  Code  Lc  vip_gen_all_code.o [1]
IPC_ON_OFF_ProcIpcChXonOffMsg
                        0x00014d91    0x2a  Code  Lc  vip_gen_all_code.o [1]
IPC_ON_OFF_ProcessSendMsgSendMsgNoCopy
                        0x00014c77    0x5e  Code  Lc  vip_gen_all_code.o [1]
IPC_ON_OFF_ProcessSendMsgWithAck
                        0x00014cd5     0x4  Code  Lc  vip_gen_all_code.o [1]
IPC_ON_OFF_ProcessSendMsgWithApi
                        0x00014c73     0x4  Code  Lc  vip_gen_all_code.o [1]
IPC_ON_OFF_TxNoCopyMessage
                        0x00014dc5    0xbe  Code  Lc  vip_gen_all_code.o [1]
IPC_ON_OFF_client_cb    0x1ffe96e4    0x14  Data  Lc  vip_gen_all_code.o [1]
IPC_SWDL_10msTimeCycCall
                        0x00015b33    0x2e  Code  Lc  vip_gen_all_code.o [1]
IPC_SWDL_IpcChClose     0x00015759     0x8  Code  Lc  vip_gen_all_code.o [1]
IPC_SWDL_IpcChOpen      0x00015751     0x8  Code  Lc  vip_gen_all_code.o [1]
IPC_SWDL_IpcChSendMsgWithBlock
                        0x000157d5    0xc0  Code  Lc  vip_gen_all_code.o [1]
IPC_SWDL_IpcChSendMsgWithoutTmout
                        0x00015761    0x74  Code  Lc  vip_gen_all_code.o [1]
IPC_SWDL_ProcIpcChAckRespMsg
                        0x000158fb    0x5e  Code  Lc  vip_gen_all_code.o [1]
IPC_SWDL_ProcIpcChNeedAckMsg
                        0x00015959    0x5a  Code  Lc  vip_gen_all_code.o [1]
IPC_SWDL_ProcIpcChTxNoCopyMsg
                        0x00015aab    0x88  Code  Lc  vip_gen_all_code.o [1]
IPC_SWDL_ProcIpcChXonOffMsg
                        0x000159b3    0x36  Code  Lc  vip_gen_all_code.o [1]
IPC_SWDL_ProcessSendMsgSendMsgNoCopy
                        0x00015899    0x5e  Code  Lc  vip_gen_all_code.o [1]
IPC_SWDL_ProcessSendMsgWithAck
                        0x000158f7     0x4  Code  Lc  vip_gen_all_code.o [1]
IPC_SWDL_ProcessSendMsgWithApi
                        0x00015895     0x4  Code  Lc  vip_gen_all_code.o [1]
IPC_SWDL_TxNoCopyMessage
                        0x000159ed    0xbe  Code  Lc  vip_gen_all_code.o [1]
IPC_SWDL_client_cb      0x1ffe9720    0x14  Data  Lc  vip_gen_all_code.o [1]
IPC_WDT_10msTimeCycCall
                        0x00014b05    0x2e  Code  Lc  vip_gen_all_code.o [1]
IPC_WDT_IpcChClose      0x0001472d     0x8  Code  Lc  vip_gen_all_code.o [1]
IPC_WDT_IpcChOpen       0x00014725     0x8  Code  Lc  vip_gen_all_code.o [1]
IPC_WDT_IpcChSendMsgWithBlock
                        0x000147ad    0xbe  Code  Lc  vip_gen_all_code.o [1]
IPC_WDT_IpcChSendMsgWithoutTmout
                        0x00014735    0x72  Code  Lc  vip_gen_all_code.o [1]
IPC_WDT_ProcIpcChAckRespMsg
                        0x000148d1    0x5e  Code  Lc  vip_gen_all_code.o [1]
IPC_WDT_ProcIpcChNeedAckMsg
                        0x0001492f    0x5a  Code  Lc  vip_gen_all_code.o [1]
IPC_WDT_ProcIpcChTxNoCopyMsg
                        0x00014a7d    0x88  Code  Lc  vip_gen_all_code.o [1]
IPC_WDT_ProcIpcChXonOffMsg
                        0x00014989    0x36  Code  Lc  vip_gen_all_code.o [1]
IPC_WDT_ProcessSendMsgSendMsgNoCopy
                        0x0001486f    0x5e  Code  Lc  vip_gen_all_code.o [1]
IPC_WDT_ProcessSendMsgWithAck
                        0x000148cd     0x4  Code  Lc  vip_gen_all_code.o [1]
IPC_WDT_ProcessSendMsgWithApi
                        0x0001486b     0x4  Code  Lc  vip_gen_all_code.o [1]
IPC_WDT_TxNoCopyMessage
                        0x000149bf    0xbe  Code  Lc  vip_gen_all_code.o [1]
IPC_WDT_client_cb       0x1ffe96d0    0x14  Data  Lc  vip_gen_all_code.o [1]
IPC_XON_OFF_IpcChClose  0x00014579     0x8  Code  Lc  vip_gen_all_code.o [1]
IPC_XON_OFF_IpcChOpen   0x00014571     0x8  Code  Lc  vip_gen_all_code.o [1]
IPC_XON_OFF_IpcChSendMsgWithBlock
                        0x000145fd    0xc0  Code  Lc  vip_gen_all_code.o [1]
IPC_XON_OFF_IpcChSendMsgWithoutTmout
                        0x00014581    0x74  Code  Lc  vip_gen_all_code.o [1]
IPC_XON_OFF_ProcIpcChAckRespMsg
                        0x000146c9     0x2  Code  Lc  vip_gen_all_code.o [1]
IPC_XON_OFF_ProcIpcChNeedAckMsg
                        0x000146cb    0x5a  Code  Lc  vip_gen_all_code.o [1]
IPC_XON_OFF_ProcessSendMsgSendMsgNoCopy
                        0x000146c1     0x4  Code  Lc  vip_gen_all_code.o [1]
IPC_XON_OFF_ProcessSendMsgWithAck
                        0x000146c5     0x4  Code  Lc  vip_gen_all_code.o [1]
IPC_XON_OFF_ProcessSendMsgWithApi
                        0x000146bd     0x4  Code  Lc  vip_gen_all_code.o [1]
IgnState_cyc_tm_val     0x1ffe92fa     0x2  Data  Lc  vip_gen_all_code.o [1]
IgnState_min_intv_val   0x1ffe92fc     0x2  Data  Lc  vip_gen_all_code.o [1]
IgnState_tx_sig_val     0x1ffe92fe     0x2  Data  Lc  vip_gen_all_code.o [1]
InvokeCallbackFunctionFlag_u8
                        0x1ffe96a8     0x1  Data  Gb  Trace_Server.o [1]
IpcDebug_Init           0x0001c045     0x8  Code  Gb  ipc_debug.o [1]
IpcDebug_OnOff          0x0001c04f    0x10  Code  Gb  ipc_debug.o [1]
IpcDebug_RxMsg          0x0001c04d     0x2  Code  Gb  ipc_debug.o [1]
IpcEcho_DEV_IPC_SPI_0_Init
                        0x00019191     0x8  Code  Lc  vip_gen_all_code.o [1]
IpcEcho_DEV_IPC_SPI_0_OnOff
                        0x000191d3     0x6  Code  Lc  vip_gen_all_code.o [1]
IpcEcho_DEV_IPC_SPI_0_RxMsg
                        0x00019199    0x3a  Code  Lc  vip_gen_all_code.o [1]
IpcSwdl_Init            0x0001b019     0x8  Code  Gb  ipc_swdl.o [1]
IpcSwdl_MsgProcess      0x0001b049    0x42  Code  Lc  ipc_swdl.o [1]
IpcSwdl_OnOff           0x0001b035    0x10  Code  Gb  ipc_swdl.o [1]
IpcSwdl_RxMsg           0x0001b021    0x14  Code  Gb  ipc_swdl.o [1]
IpcWdt_DEV_IPC_SPI_0_10msFunc
                        0x0001914f    0x42  Code  Lc  vip_gen_all_code.o [1]
IpcWdt_DEV_IPC_SPI_0_Init
                        0x00019123    0x1e  Code  Lc  vip_gen_all_code.o [1]
IpcWdt_DEV_IPC_SPI_0_OnOff
                        0x0001914d     0x2  Code  Lc  vip_gen_all_code.o [1]
IpcWdt_DEV_IPC_SPI_0_RxMsg
                        0x00019141     0x8  Code  Lc  vip_gen_all_code.o [1]
IsRunNian               0x00024309    0x32  Code  Gb  utc2local.o [1]
LocalTime2Utc           0x0002433b    0xae  Code  Gb  utc2local.o [1]
LogCmd_Init             0x00023e95    0x22  Code  Gb  log_cmd.o [1]
LogHandle_Init          0x000116d7    0x28  Code  Gb  vip_gen_all_code.o [1]
LogHandle_RestoreModuleLogLvlFromEep
                        0x00011887    0x84  Code  Gb  vip_gen_all_code.o [1]
LogHandle_SetModuleLogLvl
                        0x00011705   0x182  Code  Gb  vip_gen_all_code.o [1]
LogHandle_SetModuleMask
                        0x0001190b    0x4a  Code  Gb  vip_gen_all_code.o [1]
MAP_AppVer_sig_rx_val   0x1ffe97e0    0x10  Data  Lc  vip_gen_all_code.o [1]
MOD_ALWAYS_Lvl          0x2001e900     0x1  Data  Gb  vip_gen_all_code.o [1]
MOD_AUDIO_Lvl           0x2001e905     0x1  Data  Gb  vip_gen_all_code.o [1]
MOD_CAN_Lvl             0x2001e903     0x1  Data  Gb  vip_gen_all_code.o [1]
MOD_CF_KERNEL_Lvl       0x2001e909     0x1  Data  Gb  vip_gen_all_code.o [1]
MOD_CF_PROXY_Lvl        0x2001e90b     0x1  Data  Gb  vip_gen_all_code.o [1]
MOD_CF_STUB_Lvl         0x2001e90a     0x1  Data  Gb  vip_gen_all_code.o [1]
MOD_DIAG_Lvl            0x2001e904     0x1  Data  Gb  vip_gen_all_code.o [1]
MOD_EEPROM_Lvl          0x2001e908     0x1  Data  Gb  vip_gen_all_code.o [1]
MOD_GPS_Lvl             0x2001e907     0x1  Data  Gb  vip_gen_all_code.o [1]
MOD_HW_Lvl              0x2001e902     0x1  Data  Gb  vip_gen_all_code.o [1]
MOD_IPC_Lvl             0x2001e906     0x1  Data  Gb  vip_gen_all_code.o [1]
MOD_OS_Lvl              0x2001e901     0x1  Data  Gb  vip_gen_all_code.o [1]
MapManaStateChange      0x00023875   0x212  Code  Lc  map_mana.o [1]
MapMana_1msFunc         0x0002385d    0x18  Code  Gb  map_mana.o [1]
MapMana_EnterToUsbDownload
                        0x00023a8b    0x94  Code  Gb  map_mana.o [1]
MapMana_ForceReset      0x00023a87     0x4  Code  Gb  map_mana.o [1]
MapMana_HoldPowerOn     0x00023b1f    0x8c  Code  Gb  map_mana.o [1]
MapMana_Init            0x00023831    0x2c  Code  Gb  map_mana.o [1]
MapPowerOffProcess      0x00023bab     0xe  Code  Lc  map_mana.o [1]
NVIC_DisableIRQ         0x00023d77    0x12  Code  Lc  hal_int.o [1]
NVIC_EnableIRQ          0x00023d65    0x12  Code  Lc  hal_int.o [1]
NVIC_SetPriority        0x00023d89    0x1a  Code  Lc  hal_int.o [1]
NVIC_SetVectorTable     0x00026351     0xe  Code  Lc  hal_cpu_vect.o [1]
NVIC_SystemReset        0x00022bad    0x1a  Code  Lc  hal_s32k14x_wdt.o [1]
OsStatusMonitor         0x000221d1    0x62  Code  Lc  main.o [1]
ProcAmpDspResetRoutine  0x0001bfd1    0x34  Code  Lc  bsp_audio.o [1]
ProcAudioWarning        0x0001c015     0x4  Code  Lc  bsp_audio.o [1]
ProcIpcAudioCmd         0x0001bf53    0x7e  Code  Lc  bsp_audio.o [1]
ProcessImxReadEepByList
                        0x00013131    0x58  Code  Lc  vip_gen_all_code.o [1]
ProcessImxReadEepByOffset
                        0x00012fb7    0x7a  Code  Lc  vip_gen_all_code.o [1]
ProcessImxWriteEepByList
                        0x00013191   0x122  Code  Lc  vip_gen_all_code.o [1]
ProcessImxWriteEepByOffset
                        0x00013039    0xee  Code  Lc  vip_gen_all_code.o [1]
Program_start           0x0002665f    0x2a  Code  Lc  hal_cpu_vect.o [1]
PwrCtrl_1msHpFunc       0x00019c3b    0x6c  Code  Gb  pwrctrl.o [1]
PwrCtrl_Dis1msMonitor   0x00019cb1     0xa  Code  Gb  pwrctrl.o [1]
PwrCtrl_DisLpSleepGlobal
                        0x00019ce3    0x24  Code  Gb  pwrctrl.o [1]
PwrCtrl_DisMpSleepGate  0x00019d91    0x3a  Code  Gb  pwrctrl.o [1]
PwrCtrl_DisMpSleepGlobal
                        0x00019d2f    0x30  Code  Gb  pwrctrl.o [1]
PwrCtrl_En1msMonitor    0x00019ca7     0xa  Code  Gb  pwrctrl.o [1]
PwrCtrl_EnLpSleepGlobal
                        0x00019cbb    0x28  Code  Gb  pwrctrl.o [1]
PwrCtrl_EnMpSleepGate   0x00019d5f    0x32  Code  Gb  pwrctrl.o [1]
PwrCtrl_EnMpSleepGlobal
                        0x00019d07    0x28  Code  Gb  pwrctrl.o [1]
PwrCtrl_GetPwrMode      0x00019c19    0x20  Code  Gb  pwrctrl.o [1]
PwrCtrl_IdleFunc        0x00019c39     0x2  Code  Gb  pwrctrl.o [1]
PwrCtrl_Init            0x00019bef    0x2a  Code  Gb  pwrctrl.o [1]
PwrCtrl_StateCtrl       0x00019e09    0x78  Code  Lc  pwrctrl.o [1]
PwrCtrl_Task            0x00019dcb    0x3e  Code  Lc  pwrctrl.o [1]
RXWindow                0x1ffe9628     0xc  Data  Lc  trace_phy.o [1]
RXWindowRd              0x1ffe9626     0x1  Data  Lc  trace_phy.o [1]
RXWindowWr              0x1ffe9625     0x1  Data  Lc  trace_phy.o [1]
RealTimeCycFunc500ms_tbl
                        0x1ffe90a0    0x40  Data  Lc  serv_func.o [1]
RealTimeCycFunc_Para    0x1ffe90e0    0x40  Data  Lc  serv_func.o [1]
Region$$Table$$Base     0x00026a78           --   Gb  - Linker created -
Region$$Table$$Limit    0x00026a9c           --   Gb  - Linker created -
S32K14xDFlash_EraseEntireFlash
                        0x00026715     0x2  Code  Lc  hal_s32k14x_dflash.o [1]
S32K14xDFlash_EraseFlashSector
                        0x00026717    0x62  Code  Lc  hal_s32k14x_dflash.o [1]
S32K14xDFlash_GetFlashSize
                        0x000266cf    0x34  Code  Lc  hal_s32k14x_dflash.o [1]
S32K14xDFlash_GetPageSize
                        0x00026709     0x6  Code  Lc  hal_s32k14x_dflash.o [1]
S32K14xDFlash_GetSectorSize
                        0x00026703     0x6  Code  Lc  hal_s32k14x_dflash.o [1]
S32K14xDFlash_GetSegmentSize
                        0x0002670f     0x6  Code  Lc  hal_s32k14x_dflash.o [1]
S32K14xDFlash_Init      0x000266ab    0x24  Code  Lc  hal_s32k14x_dflash.o [1]
S32K14xDFlash_IsBusy    0x00026887     0xc  Code  Lc  hal_s32k14x_dflash.o [1]
S32K14xDFlash_ProgramData
                        0x00026779    0x76  Code  Lc  hal_s32k14x_dflash.o [1]
S32K14xDFlash_ReadData  0x000267ef    0x98  Code  Lc  hal_s32k14x_dflash.o [1]
S32K14x_Adc_GetApi      0x000268cd     0x6  Code  Gb  hal_s32k14x_adc.o [1]
S32K14x_DFlash_GetDFlashHwApi
                        0x000266a5     0x6  Code  Gb  hal_s32k14x_dflash.o [1]
S32K14x_GPIO_DisPinInt  0x000257ad    0x3a  Code  Lc  hal_s32k14x_gpio.o [1]
S32K14x_GPIO_EnPinInt   0x00025733    0x7a  Code  Lc  hal_s32k14x_gpio.o [1]
S32K14x_GPIO_GetGPIOHwApi
                        0x000253f5     0x6  Code  Gb  hal_s32k14x_gpio.o [1]
S32K14x_GPIO_GetPinVal  0x0002564b    0x20  Code  Lc  hal_s32k14x_gpio.o [1]
S32K14x_GPIO_GetPortVal
                        0x0002566b    0x14  Code  Lc  hal_s32k14x_gpio.o [1]
S32K14x_GPIO_InitDevice
                        0x000253fb    0x78  Code  Lc  hal_s32k14x_gpio.o [1]
S32K14x_GPIO_InitPinGPIO
                        0x00025475   0x18a  Code  Lc  hal_s32k14x_gpio.o [1]
S32K14x_GPIO_InitPinInt
                        0x000256e5    0x4e  Code  Lc  hal_s32k14x_gpio.o [1]
S32K14x_GPIO_PinAfConfig
                        0x0002567f    0x66  Code  Lc  hal_s32k14x_gpio.o [1]
S32K14x_GPIO_PortAISR   0x000257e9    0x2c  Code  Lc  hal_s32k14x_gpio.o [1]
S32K14x_GPIO_PortBISR   0x00025815    0x30  Code  Lc  hal_s32k14x_gpio.o [1]
S32K14x_GPIO_PortCISR   0x00025845    0x30  Code  Lc  hal_s32k14x_gpio.o [1]
S32K14x_GPIO_PortDISR   0x00025875    0x30  Code  Lc  hal_s32k14x_gpio.o [1]
S32K14x_GPIO_PortEISR   0x000258a5    0x30  Code  Lc  hal_s32k14x_gpio.o [1]
S32K14x_GPIO_SetPinVal  0x000255ff    0x22  Code  Lc  hal_s32k14x_gpio.o [1]
S32K14x_GPIO_SetPortVal
                        0x0002563b    0x10  Code  Lc  hal_s32k14x_gpio.o [1]
S32K14x_GPIO_TogglePinVal
                        0x00025621    0x1a  Code  Lc  hal_s32k14x_gpio.o [1]
S32K14x_IIC_GetHwApi    0x00024c3d     0x6  Code  Gb  hal_s32k14x_iic.o [1]
S32K14x_SPIAsyncOperation
                        0x00022ea7   0x11e  Code  Lc  hal_s32k14x_spi.o [1]
S32K14x_SPI_Com         0x00022fc5    0x1c  Code  Lc  hal_s32k14x_spi.o [1]
S32K14x_SPI_GetSPIHwApi
                        0x00022c7b     0x6  Code  Gb  hal_s32k14x_spi.o [1]
S32K14x_SPI_Init        0x00022d7f   0x128  Code  Lc  hal_s32k14x_spi.o [1]
S32K14x_UART_DeInit     0x00025f33   0x146  Code  Lc  hal_s32k14x_uart.o [1]
S32K14x_UART_GetBand    0x0002619b    0x56  Code  Lc  hal_s32k14x_uart.o [1]
S32K14x_UART_GetDev     0x00025bdb    0x12  Code  Lc  hal_s32k14x_uart.o [1]
S32K14x_UART_GetUARTHwApi
                        0x00025bd5     0x6  Code  Gb  hal_s32k14x_uart.o [1]
S32K14x_UART_Handle     0x000260c7    0xae  Code  Lc  hal_s32k14x_uart.o [1]
S32K14x_UART_Init       0x00025bed   0x346  Code  Lc  hal_s32k14x_uart.o [1]
S32K14x_UART_Para_Set   0x00026079    0x4a  Code  Lc  hal_s32k14x_uart.o [1]
S32K14x_UART_RxProc     0x000260c3     0x4  Code  Lc  hal_s32k14x_uart.o [1]
S32K14x_UART_Send       0x00026175    0x26  Code  Lc  hal_s32k14x_uart.o [1]
S32K14x_UART_SetPreDefBand
                        0x000261f1    0x1c  Code  Lc  hal_s32k14x_uart.o [1]
S32K14x_UART_SetUserBand
                        0x0002620d    0x2e  Code  Lc  hal_s32k14x_uart.o [1]
S32K14x_Uart_SetCalBk   0x0002623b    0x52  Code  Lc  hal_s32k14x_uart.o [1]
S32K14x_Wdt_Feed        0x00022c0b    0x2a  Code  Lc  hal_s32k14x_wdt.o [1]
S32K14x_Wdt_Init        0x00022bd5    0x36  Code  Lc  hal_s32k14x_wdt.o [1]
S32K14x_Wdt_RstCpu      0x00022c51    0x10  Code  Lc  hal_s32k14x_wdt.o [1]
SendCmd_Complete        0x0001b99d     0x8  Code  Lc  bsp_gps.o [1]
SendCmd_SelfStudy       0x0001b851     0xc  Code  Lc  bsp_gps.o [1]
SendCmd_VehSpeed        0x0001b85d    0x6e  Code  Lc  bsp_gps.o [1]
ServEvtFunc_CallFunc    0x00023fb1    0x44  Code  Gb  serv_evtFunc.o [1]
ServEvtFunc_Init        0x00023f9d    0x14  Code  Gb  serv_evtFunc.o [1]
ServEvt_Create          0x00023c0b    0x66  Code  Gb  serv_evt.o [1]
ServEvt_Flush           0x00023cd1    0x34  Code  Gb  serv_evt.o [1]
ServEvt_Post            0x00023c75    0x5c  Code  Gb  serv_evt.o [1]
ServEvt_Wait            0x00023d05    0x60  Code  Gb  serv_evt.o [1]
ServFunc_Create         0x0001af11    0x40  Code  Gb  serv_func.o [1]
ServFunc_CycCallTask    0x0001af8d    0x4c  Code  Gb  serv_func.o [1]
ServFunc_Realtime500msCycCallTask
                        0x0001afd9    0x34  Code  Gb  serv_func.o [1]
ServFunc_StartCyclic    0x0001af51    0x3c  Code  Gb  serv_func.o [1]
ServTmr_CycCallTask     0x00023f49    0x50  Code  Gb  serv_tmr.o [1]
ServWdt_Create          0x0001c285    0x6c  Code  Gb  serv_wdt.o [1]
ServWdt_ForcePetWdt     0x0001c281     0x4  Code  Gb  serv_wdt.o [1]
ServWdt_monitor         0x0001c339    0x4c  Code  Gb  serv_wdt.o [1]
ServWdt_reset           0x0001c315    0x24  Code  Gb  serv_wdt.o [1]
ServWdt_start           0x0001c2f1    0x24  Code  Gb  serv_wdt.o [1]
Serv_Init               0x00023e27     0x4  Code  Gb  serv.o [1]
SetCmdResponse          0x00021f2d    0x16  Code  Lc  tef6638_funcs.o [1]
SetDataBitFlag_u8       0x1ffe96a4     0x1  Data  Gb  Trace_Server.o [1]
SetDataFlag_u8          0x1ffe96a5     0x1  Data  Gb  Trace_Server.o [1]
SetMessage              0x0001b8cb    0xd2  Code  Lc  bsp_gps.o [1]
SetScreeBackLigtPwmVal_sig_rx_val
                        0x1ffe988b     0x1  Data  Lc  vip_gen_all_code.o [1]
SetSwcBackLigtPwmVal_sig_rx_val
                        0x1ffe988c     0x1  Data  Lc  vip_gen_all_code.o [1]
SigRxProcRxMsg_DevIpcHwAckTmReset
                        0x000142e9    0x18  Code  Lc  vip_gen_all_code.o [1]
SigRxProcRxMsg_LogLvl_Audio
                        0x00014315     0x8  Code  Lc  vip_gen_all_code.o [1]
SigRxProcRxMsg_LogLvl_Eeprom
                        0x0001431d     0x8  Code  Lc  vip_gen_all_code.o [1]
SigRxProcRxMsg_LogLvl_Gps
                        0x00014325     0x8  Code  Lc  vip_gen_all_code.o [1]
SigRxProcRxMsg_LogLvl_OS
                        0x0001432d     0x8  Code  Lc  vip_gen_all_code.o [1]
SigRxProcRxMsg_MAP_AppVer
                        0x00014301    0x14  Code  Lc  vip_gen_all_code.o [1]
SigRxProcRxMsg_SetScreeBackLigtPwmVal
                        0x000142cf     0xa  Code  Lc  vip_gen_all_code.o [1]
SigRxProcRxMsg_SetSwcBackLigtPwmVal
                        0x000142d9     0xa  Code  Lc  vip_gen_all_code.o [1]
SigRxProcRxMsg_SystenReset
                        0x00014335     0xe  Code  Lc  vip_gen_all_code.o [1]
SigRxProcRxMsg_TestCnt  0x000142c9     0x6  Code  Lc  vip_gen_all_code.o [1]
SigTx_ApState1_ChgTm_SetIpcData
                        0x0001407b    0x30  Code  Lc  vip_gen_all_code.o [1]
SigTx_ApState2_ChgTm_SetIpcData
                        0x000140ff    0x30  Code  Lc  vip_gen_all_code.o [1]
SigTx_ApState3_ChgTm_SetIpcData
                        0x00014185    0x30  Code  Lc  vip_gen_all_code.o [1]
SigTx_ApState4_ChgTm_SetIpcData
                        0x00014213    0x30  Code  Lc  vip_gen_all_code.o [1]
SigTx_ApState5_ChgTm_SetIpcData
                        0x00014299    0x30  Code  Lc  vip_gen_all_code.o [1]
SigTx_DevIpcHwAckMaxTm_SetIpcData
                        0x00013fbb    0x20  Code  Lc  vip_gen_all_code.o [1]
SigTx_IgnState_SetIpcData
                        0x00013f69    0x1a  Code  Lc  vip_gen_all_code.o [1]
SigTx_TestCnt_SetIpcData
                        0x00013e8b    0x14  Code  Lc  vip_gen_all_code.o [1]
SigTx_VipAppMd5_SetIpcData
                        0x00013fdb    0x2a  Code  Lc  vip_gen_all_code.o [1]
SigTx_VipAppVer_SetIpcData
                        0x00014005    0x22  Code  Lc  vip_gen_all_code.o [1]
SigTx_WakeUpReason_SetIpcData
                        0x00013efd    0x12  Code  Lc  vip_gen_all_code.o [1]
Signal_AudioControl_to_proxy_addr
                        0x000116cc     0x4  Data  Lc  vip_gen_all_code.o [1]
Signal_AudioControl_to_proxy_interface
                        0x1ffe0044     0xc  Data  Lc  vip_gen_all_code.o [1]
Signal_diagnostic_to_proxy_addr
                        0x000116d0     0x2  Data  Lc  vip_gen_all_code.o [1]
Signal_diagnostic_to_proxy_interface
                        0x1ffe0050     0x8  Data  Lc  vip_gen_all_code.o [1]
Signal_gps_to_proxy_addr
                        0x000116d4     0x1  Data  Lc  vip_gen_all_code.o [1]
Signal_gps_to_proxy_interface
                        0x1ffe0058     0x4  Data  Lc  vip_gen_all_code.o [1]
Sys500ms_Callback       0x0002217d    0x32  Code  Lc  main.o [1]
SystemReset             0x00023f2d     0x4  Code  Lc  log_cmd.o [1]
TRACE_ClientConnected   0x1ffe9885     0x1  Data  Gb  Trace_Common.o [1]
Task_PwrStateCtrl       0x00019e81   0x1f4  Code  Lc  pwrctrl.o [1]
Task_Trace              0x0001cf15    0x6a  Code  Gb  trace.o [1]
Tdf8546_AmpInit         0x0001d545    0x2e  Code  Gb  tdf8546.o [1]
TestCnt_cyc_tm_val      0x1ffe92f4     0x2  Data  Lc  vip_gen_all_code.o [1]
TraceBuffer_AddBufferStateMessage
                        0x0001a7bd    0x30  Code  Lc  Trace_Buffer.o [1]
TraceBuffer_AddFrame    0x0001a577   0x120  Code  Gb  Trace_Buffer.o [1]
TraceBuffer_CheckLimit  0x0001a785    0x38  Code  Lc  Trace_Buffer.o [1]
TraceBuffer_GetFifoAvblNum
                        0x0001a56b     0xc  Code  Gb  Trace_Buffer.o [1]
TraceBuffer_GetFrame    0x0001a697    0x8e  Code  Gb  Trace_Buffer.o [1]
TraceBuffer_Init        0x0001a545    0x26  Code  Gb  Trace_Buffer.o [1]
TracePhy_GetCom         0x00024135     0xe  Code  Gb  trace_phy.o [1]
TracePhy_Init           0x000240c5    0x6e  Code  Gb  trace_phy.o [1]
TracePhy_ResetConnection
                        0x00024133     0x2  Code  Gb  trace_phy.o [1]
TracePhy_SendFrame      0x0002414b    0x4e  Code  Gb  trace_phy.o [1]
TracePhy_SetCom         0x00024143     0x8  Code  Gb  trace_phy.o [1]
TracePhy_UartRxCallback
                        0x0002419d    0xa0  Code  Lc  trace_phy.o [1]
TracePhy_UartTxCallback
                        0x00024199     0x4  Code  Lc  trace_phy.o [1]
Trace_API_Init          0x000223cf    0x6c  Code  Gb  Trace_Server.o [1]
Trace_AddFrameToRXBuffer
                        0x0002271d    0x4e  Code  Gb  Trace_Server.o [1]
Trace_AddedFrameToBufferCounter
                        0x1ffe9878     0x2  Data  Gb  Trace_Common.o [1]
Trace_BufferRequestCounter
                        0x1ffe9876     0x2  Data  Gb  Trace_Common.o [1]
Trace_BufferStatusFrame_Flag_u8
                        0x2001e914     0x1  Data  Lc  Trace_Buffer.o [1]
Trace_Channels_Init     0x0002243b    0x1e  Code  Gb  Trace_Server.o [1]
Trace_ClearCommandDataBuffer
                        0x0002247b    0x14  Code  Gb  Trace_Server.o [1]
Trace_DataID_u8         0x1ffe9888     0x1  Data  Gb  Trace_Common.o [1]
Trace_DispatcherInit    0x00024249     0xe  Code  Gb  Trace_Dispatcher.o [1]
Trace_Dispatcher_AddFrameToFifoRX
                        0x000242ad    0x30  Code  Gb  Trace_Dispatcher.o [1]
Trace_Dispatcher_ResetConnections
                        0x00024257     0x4  Code  Gb  Trace_Dispatcher.o [1]
Trace_Dispatcher_SendNextFrameFromBuffer
                        0x0002425b    0x40  Code  Gb  Trace_Dispatcher.o [1]
Trace_Dispatcher_TraceFrameReceived
                        0x000242dd     0xe  Code  Gb  Trace_Dispatcher.o [1]
Trace_Dispatcher_TransmitComplete
                        0x0002429b    0x12  Code  Gb  Trace_Dispatcher.o [1]
Trace_EnabledState      0x1ffe9886     0x1  Data  Gb  Trace_Common.o [1]
Trace_GetBitVariable    0x00022583    0x4a  Code  Gb  Trace_Server.o [1]
Trace_GetTraceVersion   0x00024241     0x4  Code  Gb  trace_version.o [1]
Trace_InsertCommandDataBuffer
                        0x00022459    0x22  Code  Gb  Trace_Server.o [1]
Trace_InvokeCallbackFunction
                        0x000226a5    0x78  Code  Gb  Trace_Server.o [1]
Trace_LastTransmittedSystemtime_u32
                        0x1ffe9864     0x4  Data  Gb  Trace_Common.o [1]
Trace_Mem               0x000119f3    0xdc  Code  Gb  vip_gen_all_code.o [1]
Trace_MemoryIntegrityPattern
                        0x2001e8fc     0x4  Data  Lc  Trace_Server.o [1]
Trace_MessageCount_u8   0x1ffe9887     0x1  Data  Gb  Trace_Common.o [1]
Trace_Message_Received  0x00022ab3    0x86  Code  Gb  Trace_Server.o [1]
Trace_Message_Transmitted
                        0x00022b39     0xe  Code  Gb  Trace_Server.o [1]
Trace_NoOfBufferCriticalStates
                        0x1ffe9860     0x4  Data  Gb  Trace_Common.o [1]
Trace_NoOfBufferFullStates
                        0x1ffe985c     0x4  Data  Gb  Trace_Common.o [1]
Trace_ProcessClientCommands
                        0x0002276d   0x346  Code  Gb  Trace_Server.o [1]
Trace_ProcessClientCommands::CallbackFunctionID
                        0x1ffe96b8     0x4  Data  Lc  Trace_Server.o [1]
Trace_ProcessClientCommands::SetBitAddress
                        0x1ffe96b4     0x4  Data  Lc  Trace_Server.o [1]
Trace_ProcessClientCommands::SetBitPosition
                        0x1ffe96ad     0x1  Data  Lc  Trace_Server.o [1]
Trace_ProcessClientCommands::SetDataAddress
                        0x1ffe96b0     0x4  Data  Lc  Trace_Server.o [1]
Trace_ProcessClientCommands::SetDataLength_u8
                        0x1ffe96ab     0x1  Data  Lc  Trace_Server.o [1]
Trace_ProcessClientCommands::lastFrameSize
                        0x1ffe96aa     0x1  Data  Lc  Trace_Server.o [1]
Trace_ProcessClientCommands::noOfFrames
                        0x1ffe96a9     0x1  Data  Lc  Trace_Server.o [1]
Trace_ProcessClientCommands::noOfSetDataFramesReceived
                        0x1ffe96ac     0x1  Data  Lc  Trace_Server.o [1]
Trace_RetriggerTransmission_Flag
                        0x1ffe9889     0x1  Data  Gb  Trace_Common.o [1]
Trace_SendNextFrameCounter
                        0x1ffe9874     0x2  Data  Gb  Trace_Common.o [1]
Trace_SendResetInfo     0x0002237f    0x50  Code  Gb  Trace_Server.o [1]
Trace_SendVersionInfo   0x0002234d    0x32  Code  Gb  Trace_Server.o [1]
Trace_SetBitVariable    0x000225cd    0x62  Code  Gb  Trace_Server.o [1]
Trace_SetVariable       0x0002262f    0x76  Code  Gb  Trace_Server.o [1]
Trace_Text              0x00011955    0x24  Code  Gb  vip_gen_all_code.o [1]
Trace_TraceMacroCalledCounter
                        0x1ffe987a     0x2  Data  Gb  Trace_Common.o [1]
Trace_Value             0x00011979    0x22  Code  Gb  vip_gen_all_code.o [1]
Trace_Value2            0x0001199b    0x26  Code  Gb  vip_gen_all_code.o [1]
Trace_Value4            0x000119c1    0x32  Code  Gb  vip_gen_all_code.o [1]
Trace_WatchVariableLarge
                        0x000224c3    0xc0  Code  Gb  Trace_Server.o [1]
Trace_WatchVariableSmall
                        0x0002248f    0x34  Code  Gb  Trace_Server.o [1]
Trace_registerCallbackFunction
                        0x00022b47    0x34  Code  Gb  Trace_Server.o [1]
TxGpsInfo_Task_10ms     0x0001b1f1     0xc  Code  Lc  bsp_gps.o [1]
UART_Int_GPS_UART       0x00025bc5     0x4  Code  Lc  hal_s32k14x_uart.o [1]
UART_Int_PANEL          0x00025bc9     0x4  Code  Lc  hal_s32k14x_uart.o [1]
UART_Int_TCU            0x00025bcd     0x4  Code  Lc  hal_s32k14x_uart.o [1]
UART_Int_TRACE          0x00025bd1     0x4  Code  Lc  hal_s32k14x_uart.o [1]
VerInfo_GetAppMd5       0x0001ad29    0x14  Code  Gb  ver_info.o [1]
VerInfo_GetAppVersion   0x0001ad3d     0x4  Code  Gb  ver_info.o [1]
VerInfo_SetMagicToApp   0x0001ad41    0x12  Code  Gb  ver_info.o [1]
WaitDspAmpPowerInit     0x0001bee3    0x70  Code  Lc  bsp_audio.o [1]
WakeUpReason_cyc_tm_val
                        0x1ffe92f6     0x2  Data  Lc  vip_gen_all_code.o [1]
WakeUpReason_min_intv_val
                        0x1ffe92f8     0x2  Data  Lc  vip_gen_all_code.o [1]
WakeUpReason_tx_sig_val
                        0x1ffe92f1     0x1  Data  Lc  vip_gen_all_code.o [1]
_Getdst                 0x000246c3   0x132  Code  Gb  xgetdst.o [3]
_Gettime                0x0002458f    0x42  Code  Gb  xgettime.o [3]
_IsdstStr               0x1ffe007c     0x4  Data  Gb  setlocale.o [3]
_Isdst_olddst           0x1ffe0084     0x4  Data  Lc  xisdst.o [3]
_Isdst_rules            0x1ffe008c     0x4  Data  Gb  xisdstData.o [3]
_Localtime_oldzone      0x1ffe0070     0x4  Data  Lc  localtim.o [3]
_Localtime_tzoff        0x1ffe0074     0x4  Data  Lc  localtim.o [3]
_Ttotm_ts               0x1ffe0000    0x2c  Data  Lc  xttotm.o [3]
_Tzoff                  0x00023795    0x94  Code  Gb  localtim.o [3]
_TzoneStr               0x1ffe0078     0x4  Data  Gb  setlocale.o [3]
__aeabi_errno_addr      0x00024a5d     0x6  Code  Gb  errno.o [3]
__aeabi_memclr4         0x0001c279          Code  Gb  ABImemclr4.o [5]
__aeabi_memset4         0x00021f85          Code  Gb  ABImemset48.o [5]
__aeabi_memset8         0x00021f85          Code  Gb  ABImemset48.o [5]
__cmain                 0x0002467d          Code  Gb  cmain.o [5]
__data_Aldata           0x1ffe9830     0x8  Data  Gb  xxmemxmalloc.o [3]
__data_GetMemChunk      0x00024bad    0x2c  Code  Gb  xgetmemchunk.o [3]
__data_GetMemChunk::start
                        0x1ffe9870     0x4  Data  Lc  xgetmemchunk.o [3]
__exit                  0x00024bd9          Code  Gb  XXexit.o [5]
__getzone               0x00024585     0x6  Code  Gb  getzone.o [3]
__iar_Daysto32          0x0002360d    0x3a  Code  Gb  xttotm.o [3]
__iar_Errno             0x1ffe0088     0x4  Data  Gb  errno.o [3]
__iar_Isdst32           0x00024425   0x134  Code  Gb  xisdst.o [3]
__iar_Memchr            0x00024b45          Code  Gb  memchr.o [5]
__iar_Memset4_word      0x00021f8d          Code  Gb  ABImemset48.o [5]
__iar_Memset8_word      0x00021f8d          Code  Gb  ABImemset48.o [5]
__iar_Stolx             0x000245d1    0x86  Code  Gb  xstol.o [3]
__iar_Stoulx            0x000248c5   0x142  Code  Gb  xstoul.o [3]
__iar_Strchr            0x00024875          Code  Gb  strchr.o [5]
__iar_Ttotm32           0x00023647   0x112  Code  Gb  xttotm.o [3]
__iar_TzoneStr_init     0x00024559    0x24  Code  Gb  setlocale.o [3]
__iar_copy_init3        0x00026a4d    0x2c  Code  Gb  copy_init3.o [5]
__iar_data_init3        0x00024a69    0x28  Code  Gb  data_init.o [5]
__iar_dlib_perthread_access
                        0x00024b9d     0x2  Code  Gb  xtls.o [3]
__iar_init_vfp          0x00024659          Code  Gb  fpinit_M.o [4]
__iar_program_start     0x000242fd          Code  Gb  cstartup_M.o [5]
__iar_unaligned___aeabi_memcpy
                        0x0001ce3d          Code  Gb  ABImemcpy_unaligned.o [5]
__iar_unaligned___aeabi_memcpy4
                        0x0001ce5d          Code  Gb  ABImemcpy_unaligned.o [5]
__iar_unaligned___aeabi_memcpy8
                        0x0001ce5d          Code  Gb  ABImemcpy_unaligned.o [5]
__iar_zero_init3        0x000269dd    0x40  Code  Gb  zero_init3.o [5]
__mktime32              0x0001d0f5    0xd0  Code  Gb  mktime.o [3]
__vector_table          0x00000000   0x240  Data  Gb  hal_cpu_vect.o [1]
_call_main              0x00024689          Code  Gb  cmain.o [5]
_exit                   0x00024ba1          Code  Gb  cexit.o [5]
_main                   0x00024693          Code  Gb  cmain.o [5]
actv_cf_kernel_task     0x1ffe982c     0x4  Data  Lc  vip_gen_all_code.o [1]
actv_proc_thread        0x1ffe0064     0x4  Data  Lc  bsp_audio.o [1]
actv_trace_task         0x1ffe986c     0x4  Data  Lc  trace.o [1]
adc_ch_val              0x1ffe97f0     0xc  Data  Lc  hal_s32k14x_adc.o [1]
adc_hw_api              0x000269cc    0x10  Data  Gb  hal_s32k14x_adc.o [1]
adc_hw_attr             0x000269a4    0x28  Data  Lc  hal_s32k14x_adc.o [1]
amp_i2c                 0x1ffe006c     0x4  Data  Lc  bsp_audio.o [1]
ap_state                0x1ffe9812     0x1  Data  Lc  map_mana.o [1]
ap_state                0x1ffe939c    0x50  Data  Lc  ap_state.o [1]
ap_state_cmd            0x1ffe968c     0xc  Data  Lc  log_cmd.o [1]
ap_state_cmd_tbl        0x00023f30    0x18  Data  Lc  log_cmd.o [1]
api                     0x00022c60     0xc  Data  Lc  hal_s32k14x_wdt.o [1]
api                     0x1ffe9844     0x4  Data  Lc  hal_dflash.o [1]
api                     0x1ffe9848     0x4  Data  Lc  hal_flash.o [1]
api                     0x1ffe9854     0x4  Data  Lc  hal_wdt.o [1]
api                     0x1ffe9658     0x4  Data  Lc  pwrctrl.o [1]
audio_cmd_exec_max_tm   0x1ffe005e     0x2  Data  Lc  bsp_audio.o [1]
audio_power_avbl        0x1ffe005c     0x1  Data  Lc  bsp_audio.o [1]
calc_runtime_RSSI       0x0001e969    0xae  Code  Gb  tef6638_funcs.o [1]
cf_msg_queue            0x1ffe8318   0x248  Data  Lc  vip_gen_all_code.o [1]
cf_stub_AudioControl    0x00026b40    0x10  Data  Gb  gen_stub_AudioControl_imp.o [1]
cf_stub_diagnostic      0x00026a1c    0x30  Data  Gb  gen_stub_diagnostic_imp.o [1]
cf_stub_gps             0x00026a9c    0x20  Data  Gb  gen_stub_gps_imp.o [1]
check_easy_program_ok   0x0001d8f5    0x82  Code  Gb  tef6638audio.o [1]
cmd_Self_Study          0x0001bb94    0x2c  Data  Lc  bsp_gps.o [1]
cmd_cold_eset           0x0001bb7c     0x8  Data  Lc  bsp_gps.o [1]
cmd_factory_reset       0x0001bb84     0x8  Data  Lc  bsp_gps.o [1]
cmd_hot_reset           0x0001bb8c     0x8  Data  Lc  bsp_gps.o [1]
cmd_tx_buff             0x1ffe9348    0x54  Data  Lc  bsp_gps.o [1]
cnt_1ms                 0x1ffe9656     0x1  Data  Lc  pwrctrl.o [1]
cpu_dis_int_long_cnt    0x1ffe9810     0x2  Data  Lc  cpu_ts.o [1]
cpu_dis_int_max_nest    0x1ffe980a     0x2  Data  Lc  cpu_ts.o [1]
cpu_dis_int_max_tm      0x1ffe980e     0x2  Data  Lc  cpu_ts.o [1]
cpu_dis_int_nest        0x1ffe9808     0x2  Data  Lc  cpu_ts.o [1]
cpu_dis_int_us          0x1ffe980c     0x2  Data  Lc  cpu_ts.o [1]
cpu_interrupt_ADC0_IRQn
                        0x0002642b     0x6  Code  Gb  hal_cpu_vect.o [1]
cpu_interrupt_ADC1_IRQn
                        0x00026431     0x6  Code  Gb  hal_cpu_vect.o [1]
cpu_interrupt_CAN0_Error_IRQn
                        0x000264f7     0x6  Code  Gb  hal_cpu_vect.o [1]
cpu_interrupt_CAN0_ORed_0_15_MB_IRQn
                        0x00026503     0x6  Code  Gb  hal_cpu_vect.o [1]
cpu_interrupt_CAN0_ORed_16_31_MB_IRQn
                        0x00026509     0x6  Code  Gb  hal_cpu_vect.o [1]
cpu_interrupt_CAN0_ORed_IRQn
                        0x000264f1     0x6  Code  Gb  hal_cpu_vect.o [1]
cpu_interrupt_CAN0_Wake_Up_IRQn
                        0x000264fd     0x6  Code  Gb  hal_cpu_vect.o [1]
cpu_interrupt_CAN1_Error_IRQn
                        0x00026515     0x6  Code  Gb  hal_cpu_vect.o [1]
cpu_interrupt_CAN1_ORed_0_15_MB_IRQn
                        0x0002651b     0x6  Code  Gb  hal_cpu_vect.o [1]
cpu_interrupt_CAN1_ORed_16_31_MB_IRQn
                        0x00026521     0x6  Code  Gb  hal_cpu_vect.o [1]
cpu_interrupt_CAN1_ORed_IRQn
                        0x0002650f     0x6  Code  Gb  hal_cpu_vect.o [1]
cpu_interrupt_CAN2_Error_IRQn
                        0x0002652d     0x6  Code  Gb  hal_cpu_vect.o [1]
cpu_interrupt_CAN2_ORed_0_15_MB_IRQn
                        0x00026533     0x6  Code  Gb  hal_cpu_vect.o [1]
cpu_interrupt_CAN2_ORed_16_31_MB_IRQn
                        0x00026539     0x6  Code  Gb  hal_cpu_vect.o [1]
cpu_interrupt_CAN2_ORed_IRQn
                        0x00026527     0x6  Code  Gb  hal_cpu_vect.o [1]
cpu_interrupt_CMP0_IRQn
                        0x00026437     0x6  Code  Gb  hal_cpu_vect.o [1]
cpu_interrupt_DMA0_IRQn
                        0x0002635f     0x6  Code  Gb  hal_cpu_vect.o [1]
cpu_interrupt_DMA10_IRQn
                        0x0002639b     0x6  Code  Gb  hal_cpu_vect.o [1]
cpu_interrupt_DMA11_IRQn
                        0x000263a1     0x6  Code  Gb  hal_cpu_vect.o [1]
cpu_interrupt_DMA12_IRQn
                        0x000263a7     0x6  Code  Gb  hal_cpu_vect.o [1]
cpu_interrupt_DMA13_IRQn
                        0x000263ad     0x6  Code  Gb  hal_cpu_vect.o [1]
cpu_interrupt_DMA14_IRQn
                        0x000263b3     0x6  Code  Gb  hal_cpu_vect.o [1]
cpu_interrupt_DMA15_IRQn
                        0x000263b9     0x6  Code  Gb  hal_cpu_vect.o [1]
cpu_interrupt_DMA1_IRQn
                        0x00026365     0x6  Code  Gb  hal_cpu_vect.o [1]
cpu_interrupt_DMA2_IRQn
                        0x0002636b     0x6  Code  Gb  hal_cpu_vect.o [1]
cpu_interrupt_DMA3_IRQn
                        0x00026371     0x6  Code  Gb  hal_cpu_vect.o [1]
cpu_interrupt_DMA4_IRQn
                        0x00026377     0x6  Code  Gb  hal_cpu_vect.o [1]
cpu_interrupt_DMA5_IRQn
                        0x0002637d     0x6  Code  Gb  hal_cpu_vect.o [1]
cpu_interrupt_DMA6_IRQn
                        0x00026383     0x6  Code  Gb  hal_cpu_vect.o [1]
cpu_interrupt_DMA7_IRQn
                        0x00026389     0x6  Code  Gb  hal_cpu_vect.o [1]
cpu_interrupt_DMA8_IRQn
                        0x0002638f     0x6  Code  Gb  hal_cpu_vect.o [1]
cpu_interrupt_DMA9_IRQn
                        0x00026395     0x6  Code  Gb  hal_cpu_vect.o [1]
cpu_interrupt_DMA_Error_IRQn
                        0x000263bf     0x6  Code  Gb  hal_cpu_vect.o [1]
cpu_interrupt_ENET_ERR_IRQn
                        0x000264df     0x6  Code  Gb  hal_cpu_vect.o [1]
cpu_interrupt_ENET_RX_IRQn
                        0x000264d9     0x6  Code  Gb  hal_cpu_vect.o [1]
cpu_interrupt_ENET_STOP_IRQn
                        0x000264e5     0x6  Code  Gb  hal_cpu_vect.o [1]
cpu_interrupt_ENET_TIMER_IRQn
                        0x000264cd     0x6  Code  Gb  hal_cpu_vect.o [1]
cpu_interrupt_ENET_TX_IRQn
                        0x000264d3     0x6  Code  Gb  hal_cpu_vect.o [1]
cpu_interrupt_ENET_WAKE_IRQn
                        0x000264eb     0x6  Code  Gb  hal_cpu_vect.o [1]
cpu_interrupt_ERM_double_fault_IRQn
                        0x00026443     0x6  Code  Gb  hal_cpu_vect.o [1]
cpu_interrupt_ERM_single_fault_IRQn
                        0x0002643d     0x6  Code  Gb  hal_cpu_vect.o [1]
cpu_interrupt_FLEXIO_IRQn
                        0x000264bb     0x6  Code  Gb  hal_cpu_vect.o [1]
cpu_interrupt_FTFC_Fault_IRQn
                        0x000263dd     0x6  Code  Gb  hal_cpu_vect.o [1]
cpu_interrupt_FTFC_IRQn
                        0x000263cb     0x6  Code  Gb  hal_cpu_vect.o [1]
cpu_interrupt_FTM0_Ch0_Ch1_IRQn
                        0x0002653f     0x6  Code  Gb  hal_cpu_vect.o [1]
cpu_interrupt_FTM0_Ch2_Ch3_IRQn
                        0x00026545     0x6  Code  Gb  hal_cpu_vect.o [1]
cpu_interrupt_FTM0_Ch4_Ch5_IRQn
                        0x0002654b     0x6  Code  Gb  hal_cpu_vect.o [1]
cpu_interrupt_FTM0_Ch6_Ch7_IRQn
                        0x00026551     0x6  Code  Gb  hal_cpu_vect.o [1]
cpu_interrupt_FTM0_Fault_IRQn
                        0x00026557     0x6  Code  Gb  hal_cpu_vect.o [1]
cpu_interrupt_FTM0_Ovf_Reload_IRQn
                        0x0002655d     0x6  Code  Gb  hal_cpu_vect.o [1]
cpu_interrupt_FTM1_Ch0_Ch1_IRQn
                        0x00026563     0x6  Code  Gb  hal_cpu_vect.o [1]
cpu_interrupt_FTM1_Ch2_Ch3_IRQn
                        0x00026569     0x6  Code  Gb  hal_cpu_vect.o [1]
cpu_interrupt_FTM1_Ch4_Ch5_IRQn
                        0x0002656f     0x6  Code  Gb  hal_cpu_vect.o [1]
cpu_interrupt_FTM1_Ch6_Ch7_IRQn
                        0x00026575     0x6  Code  Gb  hal_cpu_vect.o [1]
cpu_interrupt_FTM1_Fault_IRQn
                        0x0002657b     0x6  Code  Gb  hal_cpu_vect.o [1]
cpu_interrupt_FTM1_Ovf_Reload_IRQn
                        0x00026581     0x6  Code  Gb  hal_cpu_vect.o [1]
cpu_interrupt_FTM2_Ch0_Ch1_IRQn
                        0x00026587     0x6  Code  Gb  hal_cpu_vect.o [1]
cpu_interrupt_FTM2_Ch2_Ch3_IRQn
                        0x0002658d     0x6  Code  Gb  hal_cpu_vect.o [1]
cpu_interrupt_FTM2_Ch4_Ch5_IRQn
                        0x00026593     0x6  Code  Gb  hal_cpu_vect.o [1]
cpu_interrupt_FTM2_Ch6_Ch7_IRQn
                        0x00026599     0x6  Code  Gb  hal_cpu_vect.o [1]
cpu_interrupt_FTM2_Fault_IRQn
                        0x0002659f     0x6  Code  Gb  hal_cpu_vect.o [1]
cpu_interrupt_FTM2_Ovf_Reload_IRQn
                        0x000265a5     0x6  Code  Gb  hal_cpu_vect.o [1]
cpu_interrupt_FTM3_Ch0_Ch1_IRQn
                        0x000265ab     0x6  Code  Gb  hal_cpu_vect.o [1]
cpu_interrupt_FTM3_Ch2_Ch3_IRQn
                        0x000265b1     0x6  Code  Gb  hal_cpu_vect.o [1]
cpu_interrupt_FTM3_Ch4_Ch5_IRQn
                        0x000265b7     0x6  Code  Gb  hal_cpu_vect.o [1]
cpu_interrupt_FTM3_Ch6_Ch7_IRQn
                        0x000265bd     0x6  Code  Gb  hal_cpu_vect.o [1]
cpu_interrupt_FTM3_Fault_IRQn
                        0x000265c3     0x6  Code  Gb  hal_cpu_vect.o [1]
cpu_interrupt_FTM3_Ovf_Reload_IRQn
                        0x000265c9     0x6  Code  Gb  hal_cpu_vect.o [1]
cpu_interrupt_FTM4_Ch0_Ch1_IRQn
                        0x000265cf     0x6  Code  Gb  hal_cpu_vect.o [1]
cpu_interrupt_FTM4_Ch2_Ch3_IRQn
                        0x000265d5     0x6  Code  Gb  hal_cpu_vect.o [1]
cpu_interrupt_FTM4_Ch4_Ch5_IRQn
                        0x000265db     0x6  Code  Gb  hal_cpu_vect.o [1]
cpu_interrupt_FTM4_Ch6_Ch7_IRQn
                        0x000265e1     0x6  Code  Gb  hal_cpu_vect.o [1]
cpu_interrupt_FTM4_Fault_IRQn
                        0x000265e7     0x6  Code  Gb  hal_cpu_vect.o [1]
cpu_interrupt_FTM4_Ovf_Reload_IRQn
                        0x000265ed     0x6  Code  Gb  hal_cpu_vect.o [1]
cpu_interrupt_FTM5_Ch0_Ch1_IRQn
                        0x000265f3     0x6  Code  Gb  hal_cpu_vect.o [1]
cpu_interrupt_FTM5_Ch2_Ch3_IRQn
                        0x000265f9     0x6  Code  Gb  hal_cpu_vect.o [1]
cpu_interrupt_FTM5_Ch4_Ch5_IRQn
                        0x000265ff     0x6  Code  Gb  hal_cpu_vect.o [1]
cpu_interrupt_FTM5_Ch6_Ch7_IRQn
                        0x00026605     0x6  Code  Gb  hal_cpu_vect.o [1]
cpu_interrupt_FTM5_Fault_IRQn
                        0x0002660b     0x6  Code  Gb  hal_cpu_vect.o [1]
cpu_interrupt_FTM5_Ovf_Reload_IRQn
                        0x00026611     0x6  Code  Gb  hal_cpu_vect.o [1]
cpu_interrupt_FTM6_Ch0_Ch1_IRQn
                        0x00026617     0x6  Code  Gb  hal_cpu_vect.o [1]
cpu_interrupt_FTM6_Ch2_Ch3_IRQn
                        0x0002661d     0x6  Code  Gb  hal_cpu_vect.o [1]
cpu_interrupt_FTM6_Ch4_Ch5_IRQn
                        0x00026623     0x6  Code  Gb  hal_cpu_vect.o [1]
cpu_interrupt_FTM6_Ch6_Ch7_IRQn
                        0x00026629     0x6  Code  Gb  hal_cpu_vect.o [1]
cpu_interrupt_FTM6_Fault_IRQn
                        0x0002662f     0x6  Code  Gb  hal_cpu_vect.o [1]
cpu_interrupt_FTM6_Ovf_Reload_IRQn
                        0x00026635     0x6  Code  Gb  hal_cpu_vect.o [1]
cpu_interrupt_FTM7_Ch0_Ch1_IRQn
                        0x0002663b     0x6  Code  Gb  hal_cpu_vect.o [1]
cpu_interrupt_FTM7_Ch2_Ch3_IRQn
                        0x00026641     0x6  Code  Gb  hal_cpu_vect.o [1]
cpu_interrupt_FTM7_Ch4_Ch5_IRQn
                        0x00026647     0x6  Code  Gb  hal_cpu_vect.o [1]
cpu_interrupt_FTM7_Ch6_Ch7_IRQn
                        0x0002664d     0x6  Code  Gb  hal_cpu_vect.o [1]
cpu_interrupt_FTM7_Fault_IRQn
                        0x00026653     0x6  Code  Gb  hal_cpu_vect.o [1]
cpu_interrupt_FTM7_Ovf_Reload_IRQn
                        0x00026659     0x6  Code  Gb  hal_cpu_vect.o [1]
cpu_interrupt_LPI2C0_Master_IRQn
                        0x000263ef     0x6  Code  Gb  hal_cpu_vect.o [1]
cpu_interrupt_LPI2C0_Slave_IRQn
                        0x000263f5     0x6  Code  Gb  hal_cpu_vect.o [1]
cpu_interrupt_LPI2C1_Master_IRQn
                        0x0002640d     0x6  Code  Gb  hal_cpu_vect.o [1]
cpu_interrupt_LPI2C1_Slave_IRQn
                        0x00026413     0x6  Code  Gb  hal_cpu_vect.o [1]
cpu_interrupt_LPIT0_Ch0_IRQn
                        0x00026455     0x6  Code  Gb  hal_cpu_vect.o [1]
cpu_interrupt_LPIT0_Ch1_IRQn
                        0x0002645b     0x6  Code  Gb  hal_cpu_vect.o [1]
cpu_interrupt_LPIT0_Ch2_IRQn
                        0x00026461     0x6  Code  Gb  hal_cpu_vect.o [1]
cpu_interrupt_LPIT0_Ch3_IRQn
                        0x00026467     0x6  Code  Gb  hal_cpu_vect.o [1]
cpu_interrupt_LPSPI0_IRQn
                        0x000263fb     0x6  Code  Gb  hal_cpu_vect.o [1]
cpu_interrupt_LPSPI1_IRQn
                        0x00026401     0x6  Code  Gb  hal_cpu_vect.o [1]
cpu_interrupt_LPSPI2_IRQn
                        0x00026407     0x6  Code  Gb  hal_cpu_vect.o [1]
cpu_interrupt_LPTMR0_IRQn
                        0x00026485     0x6  Code  Gb  hal_cpu_vect.o [1]
cpu_interrupt_LPUART0_RxTx_IRQn
                        0x00026419     0x6  Code  Gb  hal_cpu_vect.o [1]
cpu_interrupt_LPUART1_RxTx_IRQn
                        0x0002641f     0x6  Code  Gb  hal_cpu_vect.o [1]
cpu_interrupt_LPUART2_RxTx_IRQn
                        0x00026425     0x6  Code  Gb  hal_cpu_vect.o [1]
cpu_interrupt_LVD_LVW_IRQn
                        0x000263d7     0x6  Code  Gb  hal_cpu_vect.o [1]
cpu_interrupt_MCM_IRQn  0x000263c5     0x6  Code  Gb  hal_cpu_vect.o [1]
cpu_interrupt_PDB0_IRQn
                        0x0002646d     0x6  Code  Gb  hal_cpu_vect.o [1]
cpu_interrupt_PDB1_IRQn
                        0x000264b5     0x6  Code  Gb  hal_cpu_vect.o [1]
cpu_interrupt_PORTA_IRQn
                        0x0002648b     0x6  Code  Gb  hal_cpu_vect.o [1]
cpu_interrupt_PORTB_IRQn
                        0x00026491     0x6  Code  Gb  hal_cpu_vect.o [1]
cpu_interrupt_PORTC_IRQn
                        0x00026497     0x6  Code  Gb  hal_cpu_vect.o [1]
cpu_interrupt_PORTD_IRQn
                        0x0002649d     0x6  Code  Gb  hal_cpu_vect.o [1]
cpu_interrupt_PORTE_IRQn
                        0x000264a3     0x6  Code  Gb  hal_cpu_vect.o [1]
cpu_interrupt_QSPI_IRQn
                        0x000264af     0x6  Code  Gb  hal_cpu_vect.o [1]
cpu_interrupt_RCM_IRQn  0x000263e9     0x6  Code  Gb  hal_cpu_vect.o [1]
cpu_interrupt_RTC_IRQn  0x00026449     0x6  Code  Gb  hal_cpu_vect.o [1]
cpu_interrupt_RTC_Seconds_IRQn
                        0x0002644f     0x6  Code  Gb  hal_cpu_vect.o [1]
cpu_interrupt_Read_Collision_IRQn
                        0x000263d1     0x6  Code  Gb  hal_cpu_vect.o [1]
cpu_interrupt_SAI0_Rx_IRQn
                        0x000264c7     0x6  Code  Gb  hal_cpu_vect.o [1]
cpu_interrupt_SAI0_Tx_IRQn
                        0x000264c1     0x6  Code  Gb  hal_cpu_vect.o [1]
cpu_interrupt_SAI1_Rx_IRQn
                        0x00026479     0x6  Code  Gb  hal_cpu_vect.o [1]
cpu_interrupt_SAI1_Tx_IRQn
                        0x00026473     0x6  Code  Gb  hal_cpu_vect.o [1]
cpu_interrupt_SCG_IRQn  0x0002647f     0x6  Code  Gb  hal_cpu_vect.o [1]
cpu_interrupt_SWI_IRQn  0x000264a9     0x6  Code  Gb  hal_cpu_vect.o [1]
cpu_interrupt_WDOG_EWM_IRQn
                        0x000263e3     0x6  Code  Gb  hal_cpu_vect.o [1]
crc16_table             0x0001a344   0x200  Data  Lc  crc16.o [1]
crc32tab                0x0001a8d0   0x400  Data  Lc  crc32.o [1]
cur_cmd_send_mask       0x1ffe9801     0x1  Data  Lc  bsp_gps.o [1]
cur_signal_info         0x1ffe9588     0x2  Data  Lc  bsp_gps.o [1]
daemon_stack            0x1ffe7f18   0x400  Data  Lc  vip_gen_all_code.o [1]
daemon_stack_used       0x1ffe7f14     0x2  Data  Lc  vip_gen_all_code.o [1]
days2MonthNormal        0x000243f4    0x18  Data  Lc  utc2local.o [1]
days2MonthRun           0x0002440c    0x18  Data  Lc  utc2local.o [1]
dev_iic_msg             0x1ffe95b8    0x18  Data  Lc  hal_s32k14x_iic.o [1]
dev_map_to_hw           0x0001c270     0x2  Data  Lc  hal_spi.o [1]
dev_sig_ipc_state       0x1ffe92f0     0x1  Data  Lc  vip_gen_all_code.o [1]
dflash_BoardHwCfg_current_write_addr
                        0x1ffe9478     0x4  Data  Lc  vip_gen_all_code.o [1]
dflash_BoardReset_current_write_addr
                        0x1ffe947c     0x4  Data  Lc  vip_gen_all_code.o [1]
dflash_UserCfg_current_write_addr
                        0x1ffe9474     0x4  Data  Lc  vip_gen_all_code.o [1]
dflash_block_1_current_write_addr
                        0x1ffe9470     0x4  Data  Lc  vip_gen_all_code.o [1]
dflash_hw_api           0x000268a4    0x28  Data  Lc  hal_s32k14x_dflash.o [1]
dflt_eep_val            0x00012798   0x380  Data  Lc  vip_gen_all_code.o [1]
diagnostic_InjectClient
                        0x0001031d    0x32  Code  Gb  vip_gen_all_code.o [1]
diagnostic_ProxyDecodeMethodHook
                        0x0001034f     0xe  Code  Gb  vip_gen_all_code.o [1]
diagnostic_ProxyDecodeSignalHook
                        0x00010361   0x3e0  Code  Gb  vip_gen_all_code.o [1]
diagnostic_StubDecodeMethodHook
                        0x00010741   0x248  Code  Gb  vip_gen_all_code.o [1]
diagnostic_on_ClearDtc  0x0001a2bb     0x2  Code  Lc  App_Diag.o [1]
diagnostic_on_ClearDtc  0x0001a1f5     0x2  Code  Lc  App_Test_diagnostic.o [1]
diagnostic_on_signal_DiagMsgRecv
                        0x0001a2bf     0x2  Code  Lc  App_Diag.o [1]
diagnostic_on_signal_DiagMsgRecv
                        0x0001a1f9     0x2  Code  Lc  App_Test_diagnostic.o [1]
diagnostic_on_signal_EnterDiagMode
                        0x0001a2c9     0x2  Code  Lc  App_Diag.o [1]
diagnostic_on_signal_EnterDiagMode
                        0x0001a203     0x2  Code  Lc  App_Test_diagnostic.o [1]
diagnostic_on_signal_ExitDiagMode
                        0x0001a2cb     0x2  Code  Lc  App_Diag.o [1]
diagnostic_on_signal_ExitDiagMode
                        0x0001a205     0x2  Code  Lc  App_Test_diagnostic.o [1]
diagnostic_on_signal_SpiDiagSimResponse
                        0x0001a2bd     0x2  Code  Lc  App_Diag.o [1]
diagnostic_on_signal_SpiDiagSimResponse
                        0x0001a1f7     0x2  Code  Lc  App_Test_diagnostic.o [1]
diagnostic_on_signal_UdsIoControl_2F_Req
                        0x0001a2c7     0x2  Code  Lc  App_Diag.o [1]
diagnostic_on_signal_UdsIoControl_2F_Req
                        0x0001a201     0x2  Code  Lc  App_Test_diagnostic.o [1]
diagnostic_on_signal_UdsReadDataById_22_Req
                        0x0001a2c1     0x2  Code  Lc  App_Diag.o [1]
diagnostic_on_signal_UdsReadDataById_22_Req
                        0x0001a1fb     0x2  Code  Lc  App_Test_diagnostic.o [1]
diagnostic_on_signal_UdsRoutineControl_31_Req
                        0x0001a2c5     0x2  Code  Lc  App_Diag.o [1]
diagnostic_on_signal_UdsRoutineControl_31_Req
                        0x0001a1ff     0x2  Code  Lc  App_Test_diagnostic.o [1]
diagnostic_on_signal_UdsWriteDataById_2E_Req
                        0x0001a2c3     0x2  Code  Lc  App_Diag.o [1]
diagnostic_on_signal_UdsWriteDataById_2E_Req
                        0x0001a1fd     0x2  Code  Lc  App_Test_diagnostic.o [1]
diagnostic_on_signal_connected
                        0x0001a2b7     0x2  Code  Lc  App_Diag.o [1]
diagnostic_on_signal_connected
                        0x0001a1f1     0x2  Code  Lc  App_Test_diagnostic.o [1]
diagnostic_on_signal_disconnected
                        0x0001a2b9     0x2  Code  Lc  App_Diag.o [1]
diagnostic_on_signal_disconnected
                        0x0001a1f3     0x2  Code  Lc  App_Test_diagnostic.o [1]
digits                  0x00024a0c    0x28  Data  Lc  xstoul.o [3]
dma_ch_isr              0x00023490    0x40  Data  Lc  hal_s32k14x_edma.o [1]
drv_rtc_api             0x1ffe9644     0x4  Data  Lc  hal_rtc.o [1]
dsp_i2c                 0x1ffe0068     0x4  Data  Lc  bsp_audio.o [1]
eTraceBufferState       0x1ffe9883     0x1  Data  Gb  Trace_Common.o [1]
eTraceDumpState         0x1ffe9884     0x1  Data  Gb  Trace_Common.o [1]
edge_cnt                0x1ffe9820     0x8  Data  Lc  ap_state.o [1]
edma_user_isr           0x1ffe9480    0x40  Data  Lc  hal_s32k14x_edma.o [1]
eep_block_offset_info   0x0001367c     0xc  Data  Lc  vip_gen_all_code.o [1]
eep_hw_image            0x1ffe7814   0x380  Data  Lc  vip_gen_all_code.o [1]
eep_ipc_state           0x1ffe943b     0x1  Data  Lc  vip_gen_all_code.o [1]
eep_last_client         0x1ffe9438     0x1  Data  Lc  vip_gen_all_code.o [1]
eep_list_info           0x000132c0   0x128  Data  Lc  vip_gen_all_code.o [1]
eep_ram_image           0x1ffe7b94   0x380  Data  Lc  vip_gen_all_code.o [1]
eep_transfer_whole      0x1ffe943c     0x1  Data  Lc  vip_gen_all_code.o [1]
eep_write_block_req     0x1ffe9448     0x2  Data  Lc  vip_gen_all_code.o [1]
endcode_sig_tx_to_ipc_data
                        0x00014524    0x2c  Data  Lc  vip_gen_all_code.o [1]
exit                    0x00024a91     0x4  Code  Gb  exit.o [3]
flash_configure         0x00000400    0x10  Data  Gb  ver_info.o [1]
free                    0x000247f5    0x7a  Code  Gb  xxmemxfree.o [3]
g_config                0x0001d834    0x18  Data  Lc  tef6638audio.o [1]
g_loose_Threshold       0x1ffe0038     0xc  Data  Lc  tef6638_funcs.o [1]
g_real_Threshold        0x1ffe002c     0xc  Data  Lc  tef6638_funcs.o [1]
getint                  0x00024697    0x2c  Code  Lc  xgetdst.o [3]
gpio_hw_api             0x000258f0    0x2c  Data  Lc  hal_s32k14x_gpio.o [1]
gpio_input_attr         0x0001d460    0x8c  Data  Lc  bsp_gpio.o [1]
gpio_isr                0x00025944   0x280  Data  Lc  hal_s32k14x_gpio.o [1]
gpio_output_attr        0x0001d4ec    0x58  Data  Lc  bsp_gpio.o [1]
gpio_type_grp           0x00025930    0x14  Data  Lc  hal_s32k14x_gpio.o [1]
gps_InjectClient        0x00010991    0x32  Code  Gb  vip_gen_all_code.o [1]
gps_ProxyDecodeMethodHook
                        0x000109c3     0xe  Code  Gb  vip_gen_all_code.o [1]
gps_ProxyDecodeSignalHook
                        0x000109d1   0x3f8  Code  Gb  vip_gen_all_code.o [1]
gps_StubDecodeMethodHook
                        0x0001110d   0x114  Code  Gb  vip_gen_all_code.o [1]
gps_cmd_send_mask       0x1ffe9800     0x1  Data  Lc  bsp_gps.o [1]
gps_debug_ch_open       0x1ffe97fd     0x1  Data  Lc  bsp_gps.o [1]
gps_debug_fifo          0x1ffe6000  0x1008  Data  Lc  bsp_gps.o [1]
gps_format_ver          0x1ffe9803     0x1  Data  Lc  bsp_gps.o [1]
gps_msg_crc             0x1ffe8f9c     0x1  Data  Lc  bsp_gps.o [1]
gps_msg_len             0x1ffe8f9e     0x2  Data  Lc  bsp_gps.o [1]
gps_msg_rcv_state       0x1ffe97fc     0x1  Data  Lc  bsp_gps.o [1]
gps_on_GetDrState       0x0001a245     0x2  Code  Lc  App_Test_gps.o [1]
gps_on_GetVersion       0x0001a247     0x2  Code  Lc  App_Test_gps.o [1]
gps_on_signal_GpsAngleCalibrationReport
                        0x0001a251     0x2  Code  Lc  App_Test_gps.o [1]
gps_on_signal_GpsAttitude
                        0x0001a24d     0x2  Code  Lc  App_Test_gps.o [1]
gps_on_signal_GpsPositionReport
                        0x0001a24b     0x2  Code  Lc  App_Test_gps.o [1]
gps_on_signal_GpsReset  0x0001a253     0x2  Code  Lc  App_Test_gps.o [1]
gps_on_signal_GpsSatelliteInfoReport
                        0x0001a24f     0x2  Code  Lc  App_Test_gps.o [1]
gps_on_signal_GpsUtcTime
                        0x0001a249     0x2  Code  Lc  App_Test_gps.o [1]
gps_on_signal_connected
                        0x0001a241     0x2  Code  Lc  App_Test_gps.o [1]
gps_on_signal_disconnected
                        0x0001a243     0x2  Code  Lc  App_Test_gps.o [1]
gps_playback_ch_open    0x1ffe97fe     0x1  Data  Lc  bsp_gps.o [1]
gps_return_GetDrState   0x00010dc9    0x34  Code  Gb  vip_gen_all_code.o [1]
gps_return_GetVersion   0x00010dfd    0x7a  Code  Gb  vip_gen_all_code.o [1]
gps_rxmsg_buf           0x1ffe8f14    0x88  Data  Lc  bsp_gps.o [1]
gps_signal_GpsAngleCalibrationReport
                        0x0001109f    0x38  Code  Gb  vip_gen_all_code.o [1]
gps_signal_GpsAttitude  0x00010f73    0xc8  Code  Gb  vip_gen_all_code.o [1]
gps_signal_GpsPositionReport
                        0x00010ebf    0xb4  Code  Gb  vip_gen_all_code.o [1]
gps_signal_GpsReset     0x000110d7    0x34  Code  Gb  vip_gen_all_code.o [1]
gps_signal_GpsSatelliteInfoReport
                        0x0001103b    0x64  Code  Gb  vip_gen_all_code.o [1]
gps_signal_GpsUtcTime   0x00010e77    0x48  Code  Gb  vip_gen_all_code.o [1]
gps_state               0x1ffe9580     0x1  Data  Lc  bsp_gps.o [1]
gps_uart_is_busy        0x1ffe97ff     0x1  Data  Lc  bsp_gps.o [1]
gstuAppInfo             0x00010000    0xa8  Data  Lc  ver_info.o [1]
hal_hw_get_api          0x0001cff8    0x28  Data  Lc  hal_hw.o [1]
hippo_cmd_process       0x0001bbc8    0xdc  Data  Lc  bsp_gps.o [1]
hw_api                  0x000253e8     0xc  Data  Gb  hal_s32k14x_iic.o [1]
hw_api                  0x1ffe984c     0x4  Data  Lc  hal_gpio.o [1]
hw_api                  0x1ffe96cc     0x4  Data  Lc  hal_iic.o [1]
hw_api                  0x1ffe9564     0x4  Data  Lc  hal_spi.o [1]
hw_api                  0x1ffe9850     0x4  Data  Lc  hal_uart.o [1]
i2c_hw_attr             0x000253b8    0x28  Data  Lc  hal_s32k14x_iic.o [1]
iic_dev_attr            0x0001d2f0     0xc  Data  Lc  hal_iic.o [1]
iic_hw_inited           0x1ffe96bc     0x4  Data  Lc  hal_iic.o [1]
iic_hw_int              0x1ffe95d0     0x8  Data  Lc  hal_s32k14x_iic.o [1]
iic_hw_res              0x1ffe96c0     0xc  Data  Lc  hal_iic.o [1]
iic_int_isr             0x000253e0     0x8  Data  Lc  hal_s32k14x_iic.o [1]
imp_AudioControl_ProxyInject
                        0x00026b53     0x2  Code  Lc  gen_stub_AudioControl_imp.o [1]
imp_AudioControl_ProxyResign
                        0x00026b55     0x2  Code  Lc  gen_stub_AudioControl_imp.o [1]
imp_AudioControl_WarningSourceReq
                        0x00026b57     0x6  Code  Lc  gen_stub_AudioControl_imp.o [1]
imp_AudioControl_init   0x00026b51     0x2  Code  Lc  gen_stub_AudioControl_imp.o [1]
imp_diagnostic_ClearDtc
                        0x00026b2f     0x2  Code  Lc  gen_stub_diagnostic_imp.o [1]
imp_diagnostic_ClearFault_Request
                        0x00026b33     0x2  Code  Lc  gen_stub_diagnostic_imp.o [1]
imp_diagnostic_DiagMsgResp
                        0x00026b3b     0x2  Code  Lc  gen_stub_diagnostic_imp.o [1]
imp_diagnostic_ProxyInject
                        0x00026b2b     0x2  Code  Lc  gen_stub_diagnostic_imp.o [1]
imp_diagnostic_ProxyResign
                        0x00026b2d     0x2  Code  Lc  gen_stub_diagnostic_imp.o [1]
imp_diagnostic_SetCmdExecResult
                        0x00026b3d     0x2  Code  Lc  gen_stub_diagnostic_imp.o [1]
imp_diagnostic_SetFault_Request
                        0x00026b31     0x2  Code  Lc  gen_stub_diagnostic_imp.o [1]
imp_diagnostic_SetOperationCycleState_Request
                        0x00026b35     0x2  Code  Lc  gen_stub_diagnostic_imp.o [1]
imp_diagnostic_SpiDiagSimOnOff
                        0x00026b37     0x2  Code  Lc  gen_stub_diagnostic_imp.o [1]
imp_diagnostic_SpiDiagSimRequest
                        0x00026b39     0x2  Code  Lc  gen_stub_diagnostic_imp.o [1]
imp_diagnostic_UdsReadDataById_22_Resp
                        0x00026b3f     0x2  Code  Lc  gen_stub_diagnostic_imp.o [1]
imp_diagnostic_init     0x00026b29     0x2  Code  Lc  gen_stub_diagnostic_imp.o [1]
imp_gps_ColdReset       0x00026ae9     0x4  Code  Lc  gen_stub_gps_imp.o [1]
imp_gps_GetDrState      0x00026af1     0x4  Code  Lc  gen_stub_gps_imp.o [1]
imp_gps_GetVersion      0x00026af5     0x4  Code  Lc  gen_stub_gps_imp.o [1]
imp_gps_HotReset        0x00026ae5     0x4  Code  Lc  gen_stub_gps_imp.o [1]
imp_gps_ProxyInject     0x00026ae1     0x2  Code  Lc  gen_stub_gps_imp.o [1]
imp_gps_ProxyResign     0x00026ae3     0x2  Code  Lc  gen_stub_gps_imp.o [1]
imp_gps_ResetToFactory  0x00026aed     0x4  Code  Lc  gen_stub_gps_imp.o [1]
imp_gps_init            0x00026add     0x4  Code  Lc  gen_stub_gps_imp.o [1]
imx6_hw_fault_cnt       0x1ffe9813     0x1  Data  Lc  map_mana.o [1]
inHandlerMode           0x00019569     0xe  Code  Lc  cmsis_os.o [1]
io_filter_cnt           0x1ffe9670    0x1c  Data  Lc  bsp_gpio.o [1]
ipc_ch_api              0x000193d4   0x188  Data  Lc  vip_gen_all_code.o [1]
ipc_cur_tx_sig          0x1ffe9340     0x4  Data  Lc  vip_gen_all_code.o [1]
ipc_opened              0x1ffe987e     0x1  Data  Lc  ipc_debug.o [1]
ipc_opened              0x1ffe987f     0x1  Data  Lc  ipc_swdl.o [1]
ipc_tx_cmd_header       0x1ffe943d     0x1  Data  Lc  vip_gen_all_code.o [1]
ipc_tx_idx              0x1ffe9444     0x2  Data  Lc  vip_gen_all_code.o [1]
ipc_tx_list             0x1ffe9446     0x2  Data  Lc  vip_gen_all_code.o [1]
ipc_tx_sub_item_header  0x1ffe943e     0x1  Data  Lc  vip_gen_all_code.o [1]
large_msg_pool          0x1ffe53c0   0xc40  Data  Lc  vip_gen_all_code.o [1]
large_msg_pool_flag     0x1ffe40bc     0x4  Data  Lc  vip_gen_all_code.o [1]
last_dev                0x1ffe9560     0x4  Data  Lc  hal_spi.o [1]
lmos                    0x00023764    0x18  Data  Lc  xttotm.o [3]
load_scratch_coeffs     0x0001d97d    0x4c  Code  Gb  tef6638audio.o [1]
main                    0x0002200f    0x26  Code  Gb  main.o [1]
makeFreeRtosPriority    0x0001955d     0xc  Code  Lc  cmsis_os.o [1]
malloc                  0x00024a95    0xac  Code  Gb  xxmemxmalloc.o [3]
map_poweroff_delay_timer
                        0x1ffe9818     0x2  Data  Lc  map_mana.o [1]
map_state_last_tm       0x1ffe9816     0x2  Data  Lc  map_mana.o [1]
memchr                  0x00024b45          Code  Gb  memchr.o [5]
middle_power_gate       0x1ffe965c     0x4  Data  Lc  pwrctrl.o [1]
middle_power_global     0x1ffe9660     0x4  Data  Lc  pwrctrl.o [1]
module_name             0x0001bbc0     0x8  Data  Lc  bsp_gps.o [1]
mos                     0x0002377c    0x18  Data  Lc  xttotm.o [3]
mounted                 0x1ffe987d     0x1  Data  Lc  hal_s32k14x_wdt.o [1]
ndigs                   0x00024a34    0x28  Data  Lc  xstoul.o [3]
normal_msg_pool         0x1ffe40c0  0x1300  Data  Lc  vip_gen_all_code.o [1]
normal_msg_pool_flag    0x1ffe40ac    0x10  Data  Lc  vip_gen_all_code.o [1]
osDelay                 0x000195ed    0x10  Code  Gb  cmsis_os.o [1]
osKernelStart           0x00019577    0x12  Code  Gb  cmsis_os.o [1]
osKernelSysTick         0x00019589    0x1a  Code  Gb  cmsis_os.o [1]
osSemaphoreCreate       0x000195fd     0x6  Code  Gb  cmsis_os.o [1]
osSemaphoreDelete       0x00019695     0xa  Code  Gb  cmsis_os.o [1]
osSemaphoreRelease      0x00019645    0x50  Code  Gb  cmsis_os.o [1]
osSemaphoreWait         0x00019603    0x42  Code  Gb  cmsis_os.o [1]
osThreadCreate          0x000195a3    0x26  Code  Gb  cmsis_os.o [1]
osThreadGetId           0x000195c9     0x4  Code  Gb  cmsis_os.o [1]
osThreadSetPriority     0x000195d7    0x16  Code  Gb  cmsis_os.o [1]
osThreadTerminate       0x000195cd     0xa  Code  Gb  cmsis_os.o [1]
os_thread_def_AppStart  0x00022270    0x14  Data  Lc  main.o [1]
os_thread_def_BspAudioCmdDispatcher
                        0x0001c030    0x14  Data  Lc  bsp_audio.o [1]
os_thread_def_CfDaemon  0x0001122c    0x14  Data  Lc  vip_gen_all_code.o [1]
os_thread_def_DEV_IPC_SPI_0_Task
                        0x00018f4c    0x14  Data  Lc  vip_gen_all_code.o [1]
os_thread_def_PwrCtrl   0x0001a088    0x14  Data  Gb  pwrctrl.o [1]
os_thread_def_TraceServ
                        0x00022284    0x14  Data  Lc  main.o [1]
pin_int_edge            0x1ffe8d4c    0xa0  Data  Lc  hal_s32k14x_gpio.o [1]
port_type_grp           0x0002591c    0x14  Data  Lc  hal_s32k14x_gpio.o [1]
power_api               0x00023e64    0x30  Data  Lc  board_hw.o [1]
power_mode              0x1ffe9654     0x1  Data  Lc  pwrctrl.o [1]
proc_cmd                0x1ffe8a68   0x104  Data  Lc  bsp_audio.o [1]
process_block           0x1ffe9439     0x1  Data  Lc  vip_gen_all_code.o [1]
prvAddCurrentTaskToDelayedList
                        0x0001cabb    0x6c  Code  Lc  tasks.o [1]
prvAddNewTaskToReadyList
                        0x0001c483    0x84  Code  Lc  tasks.o [1]
prvCheckTasksWaitingTermination
                        0x0001ca37    0x48  Code  Lc  tasks.o [1]
prvCopyDataFromQueue    0x00019a83    0x24  Code  Lc  queue.o [1]
prvCopyDataToQueue      0x00019a25    0x5e  Code  Lc  queue.o [1]
prvDeleteTCB            0x0001ca7f    0x14  Code  Lc  tasks.o [1]
prvHeapInit             0x0001cd99    0x4e  Code  Lc  heap_4.o [1]
prvIdleTask             0x0001c9bd    0x28  Code  Lc  tasks.o [1]
prvInitialiseNewQueue   0x00019753    0x1a  Code  Lc  queue.o [1]
prvInitialiseNewTask    0x0001c3f7    0x8c  Code  Lc  tasks.o [1]
prvInitialiseTaskLists  0x0001c9e5    0x52  Code  Lc  tasks.o [1]
prvInsertBlockIntoFreeList
                        0x0001cde7    0x4e  Code  Lc  heap_4.o [1]
prvIsQueueEmpty         0x00019b17    0x18  Code  Lc  queue.o [1]
prvIsQueueFull          0x00019b2f    0x1e  Code  Lc  queue.o [1]
prvResetNextTaskUnblockTime
                        0x0001ca93    0x20  Code  Lc  tasks.o [1]
prvTaskExitError        0x0001cb65    0x10  Code  Lc  port.o [1]
prvUnlockQueue          0x00019aa7    0x70  Code  Lc  queue.o [1]
pvPortMalloc            0x0001ccb9    0x9e  Code  Gb  heap_4.o [1]
pwr_en1ms_monitor       0x1ffe9655     0x1  Data  Lc  pwrctrl.o [1]
pwrctrl_sem             0x1ffe966c     0x4  Data  Lc  pwrctrl.o [1]
pxCurrentTCB            0x1ffe8c34     0x4  Data  Gb  tasks.o [1]
pxDelayedTaskList       0x1ffe8c38     0x4  Data  Lc  tasks.o [1]
pxEnd                   0x1ffe009c     0x4  Data  Lc  heap_4.o [1]
pxOverflowDelayedTaskList
                        0x1ffe8c3c     0x4  Data  Lc  tasks.o [1]
pxPortInitialiseStack   0x0001cb3d    0x28  Code  Gb  port.o [1]
pxReadyTasksLists       0x1ffe8cac    0xa0  Data  Lc  tasks.o [1]
regmap_read             0x0001d6bd    0xea  Code  Gb  tef6638audio.o [1]
regmap_write            0x0001d7a9    0x8a  Code  Gb  tef6638audio.o [1]
res_sem                 0x1ffe955c     0x4  Data  Lc  hal_spi.o [1]
rs232_hdl               0x1ffe9634     0x4  Data  Lc  trace_phy.o [1]
rtc_int_cnt             0x1ffe9638     0x1  Data  Lc  hal_rtc.o [1]
rtc_sem                 0x1ffe9650     0x4  Data  Lc  hal_rtc.o [1]
rx_cmd                  0x1ffe8964   0x104  Data  Lc  bsp_audio.o [1]
rx_sig_attr             0x00014494    0x50  Data  Lc  vip_gen_all_code.o [1]
rx_tmp                  0x1ffe9838     0x4  Data  Lc  hal_s32k14x_spi.o [1]
s_eventFuncPool         0x1ffe95f8    0x20  Data  Lc  serv_evtFunc.o [1]
s_eventQueuePool        0x1ffe8fa0    0x80  Data  Lc  serv_evt.o [1]
s_funcPool              0x1ffe9020    0x80  Data  Lc  serv_func.o [1]
s_st_wdtCB              0x1ffe8e84    0x90  Data  Lc  serv_wdt.o [1]
s_timerPool             0x1ffe9290    0x60  Data  Lc  serv_tmr.o [1]
s_u2_cpuLoadCnt         0x1ffe93f0     0x2  Data  Lc  main.o [1]
s_u2_cpuLoadPerSession  0x1ffe93f2     0x2  Data  Lc  main.o [1]
s_u2_cpuTickCnt         0x1ffe93ee     0x2  Data  Lc  main.o [1]
sig_tx_index            0x1ffe92f2     0x2  Data  Lc  vip_gen_all_code.o [1]
sig_tx_req              0x1ffe933c     0x4  Data  Lc  vip_gen_all_code.o [1]
signal_gps_info_req     0x1ffe9586     0x2  Data  Lc  bsp_gps.o [1]
spi_baud                0x00023004    0x24  Data  Lc  hal_s32k14x_spi.o [1]
spi_dev                 0x1ffe953c    0x20  Data  Lc  hal_spi.o [1]
spi_hw_api              0x0002302c     0x8  Data  Gb  hal_s32k14x_spi.o [1]
spi_nss_af_num          0x1ffe987c     0x1  Data  Lc  hal_s32k14x_spi.o [1]
spi_trans_mod           0x0001c274     0x1  Data  Lc  hal_spi.o [1]
strchr                  0x00024875          Code  Gb  strchr.o [5]
strlen                  0x0002488d          Code  Gb  strlen.o [5]
stub_is_proxy_on_map    0x1ffe9828     0x4  Data  Lc  vip_gen_all_code.o [1]
sys_evt                 0x1ffe93f4     0x4  Data  Lc  main.o [1]
sys_evt_cod_e_buf       0x1ffe93f8    0x40  Data  Lc  main.o [1]
system_reset_calbk_element
                        0x1ffe9698     0xc  Data  Lc  log_cmd.o [1]
system_sleep_gate       0x1ffe9664     0x4  Data  Lc  pwrctrl.o [1]
system_sleep_global     0x1ffe9668     0x4  Data  Lc  pwrctrl.o [1]
t_szFrame               0x1ffe9618     0xc  Data  Lc  trace_phy.o [1]
task_cmd                0x1ffe0060     0x4  Data  Lc  bsp_audio.o [1]
tdf8546_get_AMP_status  0x0001d62d    0x7c  Code  Gb  tdf8546.o [1]
tdf8546_set_AMP         0x0001d5a5    0x88  Code  Gb  tdf8546.o [1]
tef6638_dispatch_cmd    0x00021c3d   0x216  Code  Gb  tef6638_funcs.o [1]
tef6638_dsp_init        0x0001e7c5    0xe6  Code  Gb  tef6638audio.o [1]
tef6638_init_AM_part    0x0001e2f1    0x82  Code  Lc  tef6638audio.o [1]
tef6638_init_Delay_line
                        0x0001d84d    0xa8  Code  Gb  tef6638audio.o [1]
tef6638_init_FM_part    0x0001e26f    0x82  Code  Lc  tef6638audio.o [1]
tef6638_init_GPF        0x0001d9c9   0x166  Code  Gb  tef6638audio.o [1]
tef6638_init_tuner      0x0001e373    0x1e  Code  Gb  tef6638audio.o [1]
tef6638_init_tuner_Generic_part
                        0x0001e191    0xde  Code  Gb  tef6638audio.o [1]
tef6638audio_RW_register
                        0x0002105d    0x94  Code  Gb  tef6638_funcs.o [1]
tef6638audio_enable_ADC_DAC
                        0x0001e007    0x30  Code  Gb  tef6638audio.o [1]
tef6638audio_enable_AuxIn
                        0x0001dffd     0xa  Code  Gb  tef6638audio.o [1]
tef6638audio_enable_DCfilter
                        0x0001e13b    0x38  Code  Gb  tef6638audio.o [1]
tef6638audio_enable_DR_I_DATA_pin
                        0x0001db69    0x60  Code  Gb  tef6638audio.o [1]
tef6638audio_enable_ENT
                        0x0001dbc9    0x1e  Code  Gb  tef6638audio.o [1]
tef6638audio_enable_GSA
                        0x0001e41b    0x3c  Code  Gb  tef6638audio.o [1]
tef6638audio_enable_PChime
                        0x0001e3b7    0x64  Code  Gb  tef6638audio.o [1]
tef6638audio_enable_earlyaudio
                        0x0001e471   0x18e  Code  Gb  tef6638audio.o [1]
tef6638audio_enable_mic_TBox
                        0x0001dbe7    0x88  Code  Gb  tef6638audio.o [1]
tef6638audio_enable_navi_channel
                        0x0001dd1d    0xb0  Code  Gb  tef6638audio.o [1]
tef6638audio_enable_telephone_channel
                        0x0001dc6f    0xae  Code  Gb  tef6638audio.o [1]
tef6638audio_get_GSA_BAR
                        0x00021595    0x98  Code  Gb  tef6638_funcs.o [1]
tef6638audio_get_QPD_BAR
                        0x000217c1    0xaa  Code  Gb  tef6638_funcs.o [1]
tef6638audio_get_limiter_status
                        0x00020e59    0x34  Code  Gb  tef6638_funcs.o [1]
tef6638audio_get_loudness_status
                        0x00020751    0x70  Code  Gb  tef6638_funcs.o [1]
tef6638audio_mute_channel
                        0x0001f141    0xec  Code  Gb  tef6638_funcs.o [1]
tef6638audio_recovery   0x00021101     0x4  Code  Gb  tef6638_funcs.o [1]
tef6638audio_set_DCfilter
                        0x00020e91    0x7a  Code  Gb  tef6638_funcs.o [1]
tef6638audio_set_GEQ    0x0001f519   0x14c  Code  Gb  tef6638_funcs.o [1]
tef6638audio_set_GSA    0x000213d1   0x1b4  Code  Gb  tef6638_funcs.o [1]
tef6638audio_set_PDC    0x00021149   0x142  Code  Gb  tef6638_funcs.o [1]
tef6638audio_set_PEQ    0x0001f671   0x2c6  Code  Gb  tef6638_funcs.o [1]
tef6638audio_set_QPD    0x00021661   0x130  Code  Gb  tef6638_funcs.o [1]
tef6638audio_set_all_scaling_coeffs
                        0x0001e037    0xc4  Code  Gb  tef6638audio.o [1]
tef6638audio_set_anti_zipper_filter
                        0x00021105    0x44  Code  Gb  tef6638_funcs.o [1]
tef6638audio_set_buzzer
                        0x0001f971   0x66e  Code  Gb  tef6638_funcs.o [1]
tef6638audio_set_clickclack
                        0x00020085    0x44  Code  Gb  tef6638_funcs.o [1]
tef6638audio_set_comm   0x0001f2fd    0x66  Code  Gb  tef6638_funcs.o [1]
tef6638audio_set_compressor_expander
                        0x00020829   0x2a2  Code  Gb  tef6638_funcs.o [1]
tef6638audio_set_dynamic_loud
                        0x00020385   0x36e  Code  Gb  tef6638_funcs.o [1]
tef6638audio_set_limiter
                        0x00020b01   0x350  Code  Gb  tef6638_funcs.o [1]
tef6638audio_set_loudness
                        0x0002071d    0x34  Code  Gb  tef6638_funcs.o [1]
tef6638audio_set_mute_delay_time
                        0x0001ddcd    0x5e  Code  Gb  tef6638audio.o [1]
tef6638audio_set_navi_phone_filter
                        0x00020f1d   0x13a  Code  Gb  tef6638_funcs.o [1]
tef6638audio_set_pchime
                        0x000212bd   0x114  Code  Gb  tef6638_funcs.o [1]
tef6638audio_set_preset_chime
                        0x0001ffe5    0x9a  Code  Gb  tef6638_funcs.o [1]
tef6638audio_set_pri_chan_default_volume
                        0x0001e0fb    0x40  Code  Gb  tef6638audio.o [1]
tef6638audio_set_pri_volume
                        0x0001f363    0x56  Code  Gb  tef6638_funcs.o [1]
tef6638audio_set_static_loud
                        0x000200d9   0x290  Code  Gb  tef6638_funcs.o [1]
tef6638audio_set_tone   0x0001f3b9   0x160  Code  Gb  tef6638_funcs.o [1]
tef6638audio_setup_chime_path
                        0x0001de2b    0xf2  Code  Gb  tef6638audio.o [1]
tef6638audio_setup_clickclack_path
                        0x0001df1d    0xe0  Code  Gb  tef6638audio.o [1]
tef6638audio_source_switch
                        0x0001f22d    0xd0  Code  Gb  tef6638_funcs.o [1]
tef6638audio_source_switch{1}{2}::last_source
                        0x1ffe0090     0x1  Data  Lc  tef6638_funcs.o [1]
tef6638radio_check_valid_freq
                        0x0001ecdb   0x376  Code  Gb  tef6638_funcs.o [1]
tef6638radio_get_RSSI   0x0001ebf1    0xea  Code  Gb  tef6638_funcs.o [1]
tef6638radio_init       0x0001eb59    0x98  Code  Gb  tef6638_funcs.o [1]
tef6638radio_set_tuner_reg
                        0x0001f051    0xf0  Code  Gb  tef6638_funcs.o [1]
tef6638radio_tune       0x0001e391    0x26  Code  Gb  tef6638audio.o [1]
tef6638radio_tune_channel
                        0x0001ea17   0x142  Code  Gb  tef6638_funcs.o [1]
test_cnt                0x1ffe9880     0x1  Data  Lc  app_sig.o [1]
tick_cnt_10ms           0x1ffe93ec     0x1  Data  Lc  main.o [1]
trBufferStatusFrame     0x2001e90c     0x8  Data  Lc  Trace_Buffer.o [1]
tr_send_state           0x1ffe988a     0x1  Data  Lc  Trace_Dispatcher.o [1]
trace_fifo              0x2001e000   0x7d8  Data  Lc  Trace_Buffer.o [1]
trace_phy_com           0x1ffe9624     0x1  Data  Lc  trace_phy.o [1]
trace_received_frame    0x0001cf0d     0x8  Code  Gb  trace.o [1]
trace_transmit_complete
                        0x0001cf05     0x8  Code  Gb  trace.o [1]
trans_eep_offset_cur    0x1ffe9460     0x4  Data  Lc  vip_gen_all_code.o [1]
trans_eep_offset_req    0x1ffe945c     0x4  Data  Lc  vip_gen_all_code.o [1]
tx_eep_by_list_to_imx_cur
                        0x1ffe9468     0x8  Data  Lc  vip_gen_all_code.o [1]
tx_eep_by_list_to_imx_req
                        0x1ffe9454     0x8  Data  Lc  vip_gen_all_code.o [1]
tx_tmp                  0x00023028     0x4  Data  Lc  hal_s32k14x_spi.o [1]
tx_veh_speed_tm         0x1ffe9802     0x1  Data  Lc  bsp_gps.o [1]
uart_baud_tbl           0x000262e4    0x30  Data  Lc  hal_s32k14x_uart.o [1]
uart_dev                0x1ffe9220    0x70  Data  Lc  hal_s32k14x_uart.o [1]
uart_fifo               0x1ffe9840     0x4  Data  Gb  hal_s32k14x_uart.o [1]
uart_hdl                0x1ffe9804     0x4  Data  Lc  bsp_gps.o [1]
uart_hw_api             0x00026324    0x2c  Data  Gb  hal_s32k14x_uart.o [1]
uart_hw_attr            0x000262a4    0x40  Data  Lc  hal_s32k14x_uart.o [1]
uart_int_isr            0x00026314    0x10  Data  Lc  hal_s32k14x_uart.o [1]
uart_tx_data            0x1ffe95d8    0x20  Data  Lc  hal_s32k14x_uart.o [1]
uart_water              0x1ffe983c     0x4  Data  Gb  hal_s32k14x_uart.o [1]
uboot_error_cnt         0x1ffe9814     0x1  Data  Lc  map_mana.o [1]
ucHeap                  0x1ffe00ac  0x4000  Data  Lc  heap_4.o [1]
utc_old                 0x1ffe9640     0x4  Data  Lc  hal_rtc.o [1]
utc_tm                  0x1ffe963c     0x4  Data  Lc  hal_rtc.o [1]
uxCriticalNesting       0x1ffe0080     0x4  Data  Lc  port.o [1]
uxCurrentNumberOfTasks  0x1ffe8c58     0x4  Data  Lc  tasks.o [1]
uxDeletedTasksWaitingCleanUp
                        0x1ffe8c40     0x4  Data  Lc  tasks.o [1]
uxListRemove            0x0001cc93    0x24  Code  Gb  list.o [1]
uxPendedTicks           0x1ffe8c68     0x4  Data  Lc  tasks.o [1]
uxSchedulerSuspended    0x1ffe8c80     0x4  Data  Lc  tasks.o [1]
uxTaskNumber            0x1ffe8c74     0x4  Data  Lc  tasks.o [1]
uxTopReadyPriority      0x1ffe8c60     0x4  Data  Lc  tasks.o [1]
vApplicationIdleHook    0x00022001     0xe  Code  Gb  main.o [1]
vApplicationMallocFailedHook
                        0x00021fff     0x2  Code  Gb  main.o [1]
vApplicationStackOverflowHook
                        0x00021ffd     0x2  Code  Gb  main.o [1]
vApplicationTickHook    0x00021fc1    0x3c  Code  Gb  main.o [1]
vListInitialise         0x0001cc2d    0x1a  Code  Gb  list.o [1]
vListInsert             0x0001cc5f    0x34  Code  Gb  list.o [1]
vListInsertEnd          0x0001cc47    0x18  Code  Gb  list.o [1]
vPortEnableVFP          0x00022325          Code  Gb  portasm.o [1]
vPortEnterCritical      0x0001cba9    0x18  Code  Gb  port.o [1]
vPortExitCritical       0x0001cbc1    0x12  Code  Gb  port.o [1]
vPortFree               0x0001cd57    0x42  Code  Gb  heap_4.o [1]
vPortSVCHandler         0x000222f1          Code  Gb  portasm.o [1]
vPortSetupTimerInterrupt
                        0x0001cc0d    0x20  Code  Wk  port.o [1]
vPortStartFirstTask     0x0002230d          Code  Gb  portasm.o [1]
vQueueAddToRegistry     0x00019b4d    0x24  Code  Gb  queue.o [1]
vQueueDelete            0x00019a13    0x12  Code  Gb  queue.o [1]
vQueueUnregisterQueue   0x00019b71    0x24  Code  Gb  queue.o [1]
vTaskDelay              0x0001c5a1    0x32  Code  Gb  tasks.o [1]
vTaskDelete             0x0001c507    0x9a  Code  Gb  tasks.o [1]
vTaskMissedYield        0x0001c9b3     0xa  Code  Gb  tasks.o [1]
vTaskPlaceOnEventList   0x0001c8df    0x1a  Code  Gb  tasks.o [1]
vTaskPrioritySet        0x0001c5d3    0xba  Code  Gb  tasks.o [1]
vTaskSetTimeOutState    0x0001c957     0xe  Code  Gb  tasks.o [1]
vTaskStartScheduler     0x0001c68d    0x4a  Code  Gb  tasks.o [1]
vTaskSuspendAll         0x0001c6d7     0xc  Code  Gb  tasks.o [1]
vTaskSwitchContext      0x0001c869    0x76  Code  Gb  tasks.o [1]
val_ang_cali_status     0x1ffe9581     0x1  Data  Lc  bsp_gps.o [1]
val_attitude            0x1ffe9590    0x28  Data  Lc  bsp_gps.o [1]
val_hw_ver              0x1ffe985a     0x2  Data  Lc  bsp_gps.o [1]
val_position            0x1ffe9568    0x18  Data  Lc  bsp_gps.o [1]
val_reset_event         0x1ffe9584     0x1  Data  Lc  bsp_gps.o [1]
val_self_cali_progress  0x1ffe9582     0x1  Data  Lc  bsp_gps.o [1]
val_sv_info             0x1ffe8dec    0x98  Data  Lc  bsp_gps.o [1]
val_sv_num              0x1ffe9583     0x1  Data  Lc  bsp_gps.o [1]
val_sw_ver              0x1ffe9858     0x2  Data  Lc  bsp_gps.o [1]
val_utc_sec             0x1ffe958c     0x4  Data  Lc  bsp_gps.o [1]
wakeup_callback         0x1ffe9648     0x8  Data  Lc  hal_rtc.o [1]
wakeup_reason           0x1ffe9881     0x1  Data  Lc  bsp_misc.o [1]
warning_req             0x1ffe005d     0x1  Data  Lc  bsp_audio.o [1]
wr_eep_back             0x1ffe9440     0x2  Data  Lc  vip_gen_all_code.o [1]
wr_eep_by_list_req      0x1ffe944c     0x8  Data  Lc  vip_gen_all_code.o [1]
wr_eep_index            0x1ffe9442     0x2  Data  Lc  vip_gen_all_code.o [1]
wr_hw_try_cnt           0x1ffe943a     0x1  Data  Lc  vip_gen_all_code.o [1]
write_eep_offset_req    0x1ffe9464     0x4  Data  Lc  vip_gen_all_code.o [1]
xBlockAllocatedBit      0x1ffe00a8     0x4  Data  Lc  heap_4.o [1]
xDelayedTaskList1       0x1ffe8c84    0x14  Data  Lc  tasks.o [1]
xDelayedTaskList2       0x1ffe8c98    0x14  Data  Lc  tasks.o [1]
xFreeBytesRemaining     0x1ffe00a0     0x4  Data  Lc  heap_4.o [1]
xIdleTaskHandle         0x1ffe8c7c     0x4  Data  Lc  tasks.o [1]
xMinimumEverFreeBytesRemaining
                        0x1ffe00a4     0x4  Data  Lc  heap_4.o [1]
xNextTaskUnblockTime    0x1ffe8c78     0x4  Data  Lc  tasks.o [1]
xNumOfOverflows         0x1ffe8c70     0x4  Data  Lc  tasks.o [1]
xPendingReadyList       0x1ffe8c0c    0x14  Data  Lc  tasks.o [1]
xPortPendSVHandler      0x00022299          Code  Gb  portasm.o [1]
xPortStartScheduler     0x0001cb75    0x34  Code  Gb  port.o [1]
xPortSysTickHandler     0x0001cbd3    0x28  Code  Gb  port.o [1]
xQueueCreateCountingSemaphore
                        0x0001976d    0x14  Code  Gb  queue.o [1]
xQueueGenericCreate     0x00019721    0x32  Code  Gb  queue.o [1]
xQueueGenericReceive    0x000198e7   0x12c  Code  Gb  queue.o [1]
xQueueGenericReset      0x000196a5    0x7c  Code  Gb  queue.o [1]
xQueueGenericSend       0x00019781   0x10a  Code  Gb  queue.o [1]
xQueueGiveFromISR       0x0001988b    0x5c  Code  Gb  queue.o [1]
xQueueRegistry          0x1ffe8b6c    0xa0  Data  Gb  queue.o [1]
xSchedulerRunning       0x1ffe8c64     0x4  Data  Lc  tasks.o [1]
xStart                  0x1ffe0094     0x8  Data  Lc  heap_4.o [1]
xSuspendedTaskList      0x1ffe8c44    0x14  Data  Lc  tasks.o [1]
xTaskCheckForTimeOut    0x0001c965    0x4e  Code  Gb  tasks.o [1]
xTaskCreate             0x0001c38d    0x6a  Code  Gb  tasks.o [1]
xTaskGetCurrentTaskHandle
                        0x0001cab3     0x8  Code  Gb  tasks.o [1]
xTaskGetIdleTaskHandle  0x0001c79d     0x8  Code  Gb  tasks.o [1]
xTaskGetTickCount       0x0001c78d     0x8  Code  Gb  tasks.o [1]
xTaskGetTickCountFromISR
                        0x0001c795     0x8  Code  Gb  tasks.o [1]
xTaskIncrementTick      0x0001c7a5    0xc4  Code  Gb  tasks.o [1]
xTaskRemoveFromEventList
                        0x0001c8f9    0x5e  Code  Gb  tasks.o [1]
xTaskResumeAll          0x0001c6e3    0xaa  Code  Gb  tasks.o [1]
xTasksWaitingTermination
                        0x1ffe8c20    0x14  Data  Lc  tasks.o [1]
xTickCount              0x1ffe8c5c     0x4  Data  Lc  tasks.o [1]
xYieldPending           0x1ffe8c6c     0x4  Data  Lc  tasks.o [1]


[1] = C:\WangChao\sx5_git\n331_vip\src_app\obj
[2] = command line
[3] = dl7M_tln.a
[4] = m7M_tls.a
[5] = rt7M_tl.a

  92 640 bytes of readonly  code memory
     952 bytes of readonly  data memory (+ 184 absolute)
  42 400 bytes of readwrite data memory

Errors: none
Warnings: none
