###############################################################################
#
# IAR ANSI C/C++ Compiler V7.70.1.11437/W32 for ARM       17/Oct/2019  14:25:25
# Copyright 1999-2016 IAR Systems AB.
#
#    Cpu mode     =  thumb
#    Endian       =  little
#    Source file  =  bsp/backlight/backlight.c
#    Command line =  
#        bsp/backlight/backlight.c -DCPU_S32K14x -D__FPU_PRESENT=1 -D__APP_
#        -DSW_VERSION=1000u -I../sys/ewarm_/ew_inc -Icmsis_os
#        -Icmsis_os/Freertos -Icmsis_os/Freertos/include
#        -Icmsis_os/Freertos/portable/IAR/ARM_CM4F
#        -Icmsis_os/Freertos/portable/MemMang -Ihal -IHal/cfg -Ihal/cpu_core
#        -IHal/cpu_core/ARM-Cortex-M4/IAR -Ihal/cpu_core/CMSIS/Include
#        -Ihal/cpu_core/s32k14x -IHal/ext_dev -IHal/hal_c -IHal/os -IHal/hw
#        -IApp -IApp/eep -IApp/flash -IApp/pwrctrl -IApp/version -IApp/diag
#        -IApp/cfg -IApp/cfg/gen_code -IApp/monitor -IApp/tp_iic -IApp/host_iic
#        -IApp/cf_test -IApp/eeprom/gen_code -IApp/boot -IApp/power_mana -Ibsp
#        -Ibsp/gpio -Ibsp/cpu_ts -Ibsp/bat_mana -Ibsp/panel -Ibsp/temperate
#        -Ibsp/backlight -Ibsp/dev_pwr -Iservice -Iobj -Itrace/server -Itrace
#        -Itrace/cfg -Itrace/trace_phy --cpu=Cortex-M4F -e --thumb
#        --char_is_unsigned --endian=little --diag_suppress=pa050 --silent
#        --fpu=VFPv4_sp -D__CHECK_DEVICE_DEFINES --debug --vla -Om -o
#        obj/backlight.o --dependencies=m obj/backlight.dep -l
#        obj/backlight.lst
#    Locale       =  Chinese (Simplified)_People's Republic of China.936
#    List file    =  obj/backlight.lst
#    Object file  =  obj/backlight.o
#
###############################################################################

C:\A26\GAC_NE_DS_A26_2019_27632_DevEng_Workspace\src_app\bsp\backlight\backlight.c
      1          /**********************************************************************************/
      2          /* backlight.c                                      		                          */
      3          
      4          /**********************************************************************************/
      5          #include "std_type.h"
      6          #include "trace_api.h"
      7          
      8          #include "serv.h"
      9          #include "hal_ftm.h"
     10          #include "bat_mana.h"
     11          #include "tp_iic.h"
     12          #include "panel.h"
     13          #include "bsp_gpio.h"
     14          #include "hal_gpio.h"
     15          #include "gpio.cfg"
     16          #include "gen_eep_mana.h"
     17          #include "host_iic.h"
     18          #include "hal_iic_slv.h"
     19          #include "crc8.h"
     20          /** >>>>>>>>>>>>>>>>>>>>>>>>>>>>>>>>>>>>>>>>>>>>>>>>>>>>>>>>>>>>>>>>>>>>>>>>>>>>>>>>>>>>>>>>>>>>>>>>>>>>>>>>>>>>>>>>>>>>>>> **/
     21          
     22          #define BACKLIGHT_I2C_REG_BACKLIGHT 0
     23          #define BACKLIGHT_I2C_REG_BACKLIGHT_CRC 1
     24          #define BACKLIGHT_I2C_REG_STATUS 2
     25          
     26          typedef struct
     27          {
     28              uint8 backlightValue;
     29              uint8 backlightValueCRC;
     30              uint8 backlightStatus;
     31          } backlight_msgType;
     32          
     33          /** >>>>>>>>>>>>>>>>>>>>>>>>>>>>>>>>>>>>>>>>>>>>>>>>>>>>>>>>>>>>>>>>>>>>>>>>>>>>>>>>>>>>>>>>>>>>>>>>>>>>>>>>>>>>>>>>>>>>>>> **/

   \                                 In section .bss, align 4
     34          static backlight_msgType s_backlight_msg;
   \                     s_backlight_msg:
   \   00000000                      DS8 4
   \   00000004                      DS8 1
   \   00000005                      DS8 1
   \   00000006                      DS8 1
   \   00000007                      DS8 1
     35          static uint8_t current_backlight_pwm;
     36          static uint8_t allowedPwm;
     37          static uint8_t userDefinedPwm;
     38          static uint8_t userDefinedBlStatus;
     39          
     40          /** >>>>>>>>>>>>>>>>>>>>>>>>>>>>>>>>>>>>>>>>>>>>>>>>>>>>>>>>>>>>>>>>>>>>>>>>>>>>>>>>>>>>>>>>>>>>>>>>>>>>>>>>>>>>>>>>>>>>>>> **/
     41          static void Proc_BackLight_Func(void);
     42          static void BackLight_HandlePwm(void);
     43          static void BackLight_HandleBlStatus(void);
     44          
     45          /** >>>>>>>>>>>>>>>>>>>>>>>>>>>>>>>>>>>>>>>>>>>>>>>>>>>>>>>>>>>>>>>>>>>>>>>>>>>>>>>>>>>>>>>>>>>>>>>>>>>>>>>>>>>>>>>>>>>>>>> **/

   \                                 In section .text, align 2, keep-with-next
     46          void  BackLight_Init(void)
     47          {
   \                     BackLight_Init: (+1)
   \   00000000   0xB510             PUSH     {R4,LR}
     48              allowedPwm = 100;
   \   00000002   0x....             LDR.N    R4,??DataTable8
   \   00000004   0x2064             MOVS     R0,#+100
   \   00000006   0x7160             STRB     R0,[R4, #+5]
     49              userDefinedPwm = GenEep_Get_ScreenBackLightValOnDay();
   \   00000008   0x.... 0x....      BL       GenEep_Get_ScreenBackLightValOnDay
     50              userDefinedPwm = 100;
   \   0000000C   0x2064             MOVS     R0,#+100
   \   0000000E   0x71A0             STRB     R0,[R4, #+6]
     51          	current_backlight_pwm = userDefinedPwm;
   \   00000010   0x7120             STRB     R0,[R4, #+4]
     52              userDefinedBlStatus = 1;
   \   00000012   0x2001             MOVS     R0,#+1
   \   00000014   0x71E0             STRB     R0,[R4, #+7]
     53          
     54              s_backlight_msg.backlightValue = current_backlight_pwm;
   \   00000016   0x2064             MOVS     R0,#+100
   \   00000018   0x7020             STRB     R0,[R4, #+0]
     55              s_backlight_msg.backlightValueCRC = crc8_Calc(&current_backlight_pwm, 1);
   \   0000001A   0x2101             MOVS     R1,#+1
   \   0000001C   0x1D20             ADDS     R0,R4,#+4
   \   0000001E   0x.... 0x....      BL       crc8_Calc
   \   00000022   0x7060             STRB     R0,[R4, #+1]
     56              s_backlight_msg.backlightStatus = 1;
   \   00000024   0x2001             MOVS     R0,#+1
   \   00000026   0x70A0             STRB     R0,[R4, #+2]
     57          
     58          	HalFtm_ChInit(SCREEN_BL_ID);
   \   00000028   0x2000             MOVS     R0,#+0
   \   0000002A   0x.... 0x....      BL       HalFtm_ChInit
     59          	HalFtm_ChSetPwmVal(SCREEN_BL_ID, current_backlight_pwm);
   \   0000002E   0x7921             LDRB     R1,[R4, #+4]
   \   00000030   0x2000             MOVS     R0,#+0
   \   00000032   0x.... 0x....      BL       HalFtm_ChSetPwmVal
     60              ServFunc_StartCyclic(ServFunc_Create(Proc_BackLight_Func, "Proc BackLight Task"), 1, 50/2);
   \   00000036   0x.... 0x....      ADR.W    R1,?_0
   \   0000003A   0x.... 0x....      ADR.W    R0,Proc_BackLight_Func
   \   0000003E   0x.... 0x....      BL       ServFunc_Create
   \   00000042   0x2219             MOVS     R2,#+25
   \   00000044   0x2101             MOVS     R1,#+1
   \   00000046   0xE8BD 0x4010      POP      {R4,LR}
   \   0000004A   0x.... 0x....      B.W      ServFunc_StartCyclic
     61          }
     62          
     63          /** >>>>>>>>>>>>>>>>>>>>>>>>>>>>>>>>>>>>>>>>>>>>>>>>>>>>>>>>>>>>>>>>>>>>>>>>>>>>>>>>>>>>>>>>>>>>>>>>>>>>>>>>>>>>>>>>>>>>>>> **/
     64          /* User defined PWM duty. */

   \                                 In section .text, align 2, keep-with-next
     65          void BackLight_SetUserPwm(uint8_t pwm)
     66          {
   \                     BackLight_SetUserPwm: (+1)
   \   00000000   0xB410             PUSH     {R4}
     67              if (pwm > 100)
   \   00000002   0x2865             CMP      R0,#+101
   \   00000004   0xDB00             BLT.N    ??BackLight_SetUserPwm_0
     68              {
     69                  pwm = 100;
   \   00000006   0x2064             MOVS     R0,#+100
     70              }
     71          
     72              if (pwm != userDefinedPwm)
   \                     ??BackLight_SetUserPwm_0: (+1)
   \   00000008   0x....             LDR.N    R1,??DataTable8
   \   0000000A   0x4602             MOV      R2,R0
   \   0000000C   0x798B             LDRB     R3,[R1, #+6]
   \   0000000E   0x429A             CMP      R2,R3
   \   00000010   0xD008             BEQ.N    ??BackLight_SetUserPwm_1
     73              {
     74                  userDefinedPwm = pwm;
   \   00000012   0x7188             STRB     R0,[R1, #+6]
     75          
     76                  if (pwm > allowedPwm)
   \   00000014   0x794A             LDRB     R2,[R1, #+5]
   \   00000016   0x4613             MOV      R3,R2
   \   00000018   0x4604             MOV      R4,R0
   \   0000001A   0x42A3             CMP      R3,R4
   \   0000001C   0xD201             BCS.N    ??BackLight_SetUserPwm_2
     77                  {
     78                      // TODO: Error, save to flash.
     79                      current_backlight_pwm = allowedPwm;
   \   0000001E   0x710A             STRB     R2,[R1, #+4]
   \   00000020   0xE000             B.N      ??BackLight_SetUserPwm_1
     80                  }
     81                  else
     82                  {
     83                      current_backlight_pwm = pwm;
   \                     ??BackLight_SetUserPwm_2: (+1)
   \   00000022   0x7108             STRB     R0,[R1, #+4]
     84                  }
     85              }
     86          }
   \                     ??BackLight_SetUserPwm_1: (+1)
   \   00000024   0xBC10             POP      {R4}
   \   00000026   0x4770             BX       LR               ;; return
     87          
     88          /** >>>>>>>>>>>>>>>>>>>>>>>>>>>>>>>>>>>>>>>>>>>>>>>>>>>>>>>>>>>>>>>>>>>>>>>>>>>>>>>>>>>>>>>>>>>>>>>>>>>>>>>>>>>>>>>>>>>>>>> **/

   \                                 In section .text, align 2, keep-with-next
     89          void BackLight_SetAllowedPwm(uint8_t pwm)
     90          {
   \                     BackLight_SetAllowedPwm: (+1)
   \   00000000   0xB410             PUSH     {R4}
     91              if (pwm > 100)
   \   00000002   0x2865             CMP      R0,#+101
   \   00000004   0xDB00             BLT.N    ??BackLight_SetAllowedPwm_0
     92              {
     93                  pwm = 100;
   \   00000006   0x2064             MOVS     R0,#+100
     94              }
     95          
     96              if (pwm != allowedPwm)
   \                     ??BackLight_SetAllowedPwm_0: (+1)
   \   00000008   0x....             LDR.N    R1,??DataTable8
   \   0000000A   0x4602             MOV      R2,R0
   \   0000000C   0x794B             LDRB     R3,[R1, #+5]
   \   0000000E   0x429A             CMP      R2,R3
   \   00000010   0xD008             BEQ.N    ??BackLight_SetAllowedPwm_1
     97              {
     98                  if (pwm < userDefinedPwm)
   \   00000012   0x798A             LDRB     R2,[R1, #+6]
   \   00000014   0x4603             MOV      R3,R0
   \   00000016   0x4614             MOV      R4,R2
   \   00000018   0x42A3             CMP      R3,R4
   \   0000001A   0xD201             BCS.N    ??BackLight_SetAllowedPwm_2
     99                  {
    100                      current_backlight_pwm = pwm;
   \   0000001C   0x7108             STRB     R0,[R1, #+4]
   \   0000001E   0xE000             B.N      ??BackLight_SetAllowedPwm_3
    101                  }
    102                  else
    103                  {
    104                      current_backlight_pwm = userDefinedPwm;
   \                     ??BackLight_SetAllowedPwm_2: (+1)
   \   00000020   0x710A             STRB     R2,[R1, #+4]
    105                  }
    106          
    107                  allowedPwm = pwm;
   \                     ??BackLight_SetAllowedPwm_3: (+1)
   \   00000022   0x7148             STRB     R0,[R1, #+5]
    108              }
    109          }
   \                     ??BackLight_SetAllowedPwm_1: (+1)
   \   00000024   0xBC10             POP      {R4}
   \   00000026   0x4770             BX       LR               ;; return
    110          
    111          /** >>>>>>>>>>>>>>>>>>>>>>>>>>>>>>>>>>>>>>>>>>>>>>>>>>>>>>>>>>>>>>>>>>>>>>>>>>>>>>>>>>>>>>>>>>>>>>>>>>>>>>>>>>>>>>>>>>>>>>> **/
    112          

   \                                 In section .text, align 4, keep-with-next
    113          static void Proc_BackLight_Func(void)
    114          {
   \                     Proc_BackLight_Func: (+1)
   \   00000000   0xB580             PUSH     {R7,LR}
    115              BackLight_HandlePwm();
   \   00000002   0x.... 0x....      BL       BackLight_HandlePwm
    116              BackLight_HandleBlStatus();
   \   00000006   0xE8BD 0x4001      POP      {R0,LR}
   \   0000000A   0x....             B.N      BackLight_HandleBlStatus
    117          }
    118          
    119          /** >>>>>>>>>>>>>>>>>>>>>>>>>>>>>>>>>>>>>>>>>>>>>>>>>>>>>>>>>>>>>>>>>>>>>>>>>>>>>>>>>>>>>>>>>>>>>>>>>>>>>>>>>>>>>>>>>>>>>>> **/

   \                                 In section .text, align 2, keep-with-next
    120          static void BackLight_HandlePwm(void)
    121          {
   \                     BackLight_HandlePwm: (+1)
   \   00000000   0xB538             PUSH     {R3-R5,LR}
    122              uint32_t cpu_sr;
    123          
    124              if(current_backlight_pwm != s_backlight_msg.backlightValue)
   \   00000002   0x....             LDR.N    R4,??DataTable8
   \   00000004   0x7920             LDRB     R0,[R4, #+4]
   \   00000006   0x7821             LDRB     R1,[R4, #+0]
   \   00000008   0x4288             CMP      R0,R1
   \   0000000A   0xD015             BEQ.N    ??BackLight_HandlePwm_0
    125              {
    126                  cpu_sr = osEnterCritical();
   \   0000000C   0x.... 0x....      BL       osEnterCritical
   \   00000010   0x4605             MOV      R5,R0
    127          
    128                  s_backlight_msg.backlightValue = current_backlight_pwm;
   \   00000012   0x7920             LDRB     R0,[R4, #+4]
   \   00000014   0x7020             STRB     R0,[R4, #+0]
    129                  s_backlight_msg.backlightValueCRC = crc8_Calc(&current_backlight_pwm, 1);
   \   00000016   0x2101             MOVS     R1,#+1
   \   00000018   0x1D20             ADDS     R0,R4,#+4
   \   0000001A   0x.... 0x....      BL       crc8_Calc
   \   0000001E   0x7060             STRB     R0,[R4, #+1]
    130          
    131                  osExitCritical(cpu_sr);
   \   00000020   0x4628             MOV      R0,R5
   \   00000022   0x.... 0x....      BL       osExitCritical
    132          
    133              	HalFtm_ChSetPwmVal(SCREEN_BL_ID, current_backlight_pwm);
   \   00000026   0x7921             LDRB     R1,[R4, #+4]
   \   00000028   0x2000             MOVS     R0,#+0
   \   0000002A   0x.... 0x....      BL       HalFtm_ChSetPwmVal
    134          
    135                  GenEep_Set_ScreenBackLightValOnDay(s_backlight_msg.backlightValue);
   \   0000002E   0x7820             LDRB     R0,[R4, #+0]
   \   00000030   0xE8BD 0x4032      POP      {R1,R4,R5,LR}
   \   00000034   0x.... 0x....      B.W      GenEep_Set_ScreenBackLightValOnDay
    136              }
    137          }
   \                     ??BackLight_HandlePwm_0: (+1)
   \   00000038   0xBD31             POP      {R0,R4,R5,PC}    ;; return
    138          

   \                                 In section .text, align 2, keep-with-next
    139          static void BackLight_HandleBlStatus(void)
    140          {
   \                     BackLight_HandleBlStatus: (+1)
   \   00000000   0xB570             PUSH     {R4-R6,LR}
    141              uint32_t cpu_sr;
    142              boolean actualBlStatus;
    143              lcd_power_state_t lcd_power_state;
    144          
    145              cpu_sr = osEnterCritical();
   \   00000002   0x.... 0x....      BL       osEnterCritical
   \   00000006   0x4604             MOV      R4,R0
    146          
    147              actualBlStatus = Bsp_TFTPowerBLGet();
   \   00000008   0x200C             MOVS     R0,#+12
   \   0000000A   0x.... 0x....      BL       BspGpio_GetHwInsVal
   \   0000000E   0x4605             MOV      R5,R0
    148          
    149              if (actualBlStatus != userDefinedBlStatus)
   \   00000010   0x....             LDR.N    R6,??DataTable8
   \   00000012   0x79F0             LDRB     R0,[R6, #+7]
   \   00000014   0x4285             CMP      R5,R0
   \   00000016   0xD013             BEQ.N    ??BackLight_HandleBlStatus_0
    150              {
    151                  lcd_power_state = LCD_GetPowerState();
   \   00000018   0x.... 0x....      BL       LCD_GetPowerState
    152          
    153                  if (userDefinedBlStatus && (LCD_POWER_ON == lcd_power_state)) // Should turn on BL
   \   0000001C   0x79F1             LDRB     R1,[R6, #+7]
   \   0000001E   0x2900             CMP      R1,#+0
   \   00000020   0xD008             BEQ.N    ??BackLight_HandleBlStatus_1
   \   00000022   0x2801             CMP      R0,#+1
   \   00000024   0xD106             BNE.N    ??BackLight_HandleBlStatus_1
    154                  {
    155                      if (FALSE == actualBlStatus)
   \   00000026   0x2D00             CMP      R5,#+0
   \   00000028   0xD10A             BNE.N    ??BackLight_HandleBlStatus_0
    156                      {
    157                          Bsp_TFTPowerBLEn();
   \   0000002A   0x2101             MOVS     R1,#+1
   \   0000002C   0x200C             MOVS     R0,#+12
   \   0000002E   0x.... 0x....      BL       BspGpio_SetVal
   \   00000032   0xE005             B.N      ??BackLight_HandleBlStatus_0
    158                      }
    159                  }
    160                  else // Should turn off BL
    161                  {
    162                      if (TRUE == actualBlStatus)
   \                     ??BackLight_HandleBlStatus_1: (+1)
   \   00000034   0x2D01             CMP      R5,#+1
   \   00000036   0xD103             BNE.N    ??BackLight_HandleBlStatus_0
    163                      {
    164                          Bsp_TFTPowerBLDis();
   \   00000038   0x2100             MOVS     R1,#+0
   \   0000003A   0x200C             MOVS     R0,#+12
   \   0000003C   0x.... 0x....      BL       BspGpio_SetVal
    165                      }
    166                  }
    167              }
    168          
    169              s_backlight_msg.backlightStatus = actualBlStatus;
   \                     ??BackLight_HandleBlStatus_0: (+1)
   \   00000040   0x70B5             STRB     R5,[R6, #+2]
    170          
    171              osExitCritical(cpu_sr);
   \   00000042   0x4620             MOV      R0,R4
   \   00000044   0xE8BD 0x4070      POP      {R4-R6,LR}
   \   00000048   0x.... 0x....      B.W      osExitCritical
    172          }
    173          
    174          /** >>>>>>>>>>>>>>>>>>>>>>>>>>>>>>>>>>>>>>>>>>>>>>>>>>>>>>>>>>>>>>>>>>>>>>>>>>>>>>>>>>>>>>>>>>>>>>>>>>>>>>>>>>>>>>>>>>>>>>> **/

   \                                 In section .text, align 2, keep-with-next
    175          uint8_t BackLight_GetPwm(void)
    176          {
    177              return s_backlight_msg.backlightValue;
   \                     BackLight_GetPwm: (+1)
   \   00000000   0x....             LDR.N    R0,??DataTable8
   \   00000002   0x7800             LDRB     R0,[R0, #+0]
   \   00000004   0x4770             BX       LR               ;; return
    178          }
    179          
    180          /** >>>>>>>>>>>>>>>>>>>>>>>>>>>>>>>>>>>>>>>>>>>>>>>>>>>>>>>>>>>>>>>>>>>>>>>>>>>>>>>>>>>>>>>>>>>>>>>>>>>>>>>>>>>>>>>>>>>>>>> **/

   \                                 In section .text, align 2, keep-with-next
    181          void BackLight_SetStatus(boolean enable)
    182          {
    183              userDefinedBlStatus = enable;
   \                     BackLight_SetStatus: (+1)
   \   00000000   0x....             LDR.N    R1,??DataTable8
   \   00000002   0x71C8             STRB     R0,[R1, #+7]
    184          }
   \   00000004   0x4770             BX       LR               ;; return
    185          
    186          /** >>>>>>>>>>>>>>>>>>>>>>>>>>>>>>>>>>>>>>>>>>>>>>>>>>>>>>>>>>>>>>>>>>>>>>>>>>>>>>>>>>>>>>>>>>>>>>>>>>>>>>>>>>>>>>>>>>>>>>> **/

   \                                 In section .text, align 2, keep-with-next
    187          boolean BackLight_GetStatus(void)
    188          {
    189              return Bsp_TFTPowerBLGet();
   \                     BackLight_GetStatus: (+1)
   \   00000000   0x200C             MOVS     R0,#+12
   \   00000002   0x.... 0x....      B.W      BspGpio_GetHwInsVal
    190          }
    191          
    192          /** >>>>>>>>>>>>>>>>>>>>>>>>>>>>>>>>>>>>>>>>>>>>>>>>>>>>>>>>>>>>>>>>>>>>>>>>>>>>>>>>>>>>>>>>>>>>>>>>>>>>>>>>>>>>>>>>>>>>>>> **/

   \                                 In section .text, align 2, keep-with-next
    193          void BACKLIGHT_I2C_MsgHandler(uint16_t addr, uint16_t len, const uint8_t* data)
    194          {
   \                     BACKLIGHT_I2C_MsgHandler: (+1)
   \   00000000   0xB538             PUSH     {R3-R5,LR}
   \   00000002   0x460C             MOV      R4,R1
   \   00000004   0x4615             MOV      R5,R2
    195              if (len > 0) /* Write */
   \   00000006   0x0021             MOVS     R1,R4
   \   00000008   0xD018             BEQ.N    ??BACKLIGHT_I2C_MsgHandler_0
    196              {
    197                  switch(addr)
   \   0000000A   0x2800             CMP      R0,#+0
   \   0000000C   0xD002             BEQ.N    ??BACKLIGHT_I2C_MsgHandler_1
   \   0000000E   0x2802             CMP      R0,#+2
   \   00000010   0xD00E             BEQ.N    ??BACKLIGHT_I2C_MsgHandler_2
   \   00000012   0xBD31             POP      {R0,R4,R5,PC}
    198                  {
    199                      case BACKLIGHT_I2C_REG_BACKLIGHT:
    200                          if ((2 == len) || (3 == len))
   \                     ??BACKLIGHT_I2C_MsgHandler_1: (+1)
   \   00000014   0x2C02             CMP      R4,#+2
   \   00000016   0xD001             BEQ.N    ??BACKLIGHT_I2C_MsgHandler_3
   \   00000018   0x2C03             CMP      R4,#+3
   \   0000001A   0xD11A             BNE.N    ??BACKLIGHT_I2C_MsgHandler_4
    201                          {
    202                              if (data[1] == crc8_Calc(&data[0], 1))
   \                     ??BACKLIGHT_I2C_MsgHandler_3: (+1)
   \   0000001C   0x2101             MOVS     R1,#+1
   \   0000001E   0x4628             MOV      R0,R5
   \   00000020   0x.... 0x....      BL       crc8_Calc
    203                              {
    204                                  //BackLight_SetUserPwm(data[0]);
    205                              }
    206          
    207                              if (3 == len)
   \   00000024   0x2C03             CMP      R4,#+3
   \   00000026   0xD114             BNE.N    ??BACKLIGHT_I2C_MsgHandler_4
    208                              {
    209                                  BackLight_SetStatus(data[2]);
   \   00000028   0x78A8             LDRB     R0,[R5, #+2]
   \   0000002A   0xE8BD 0x4032      POP      {R1,R4,R5,LR}
   \   0000002E   0x....             B.N      BackLight_SetStatus
    210                              }
    211                          }
    212          
    213                          break;
    214          
    215                      case BACKLIGHT_I2C_REG_STATUS:
    216                          if (1 == len)
   \                     ??BACKLIGHT_I2C_MsgHandler_2: (+1)
   \   00000030   0x2C01             CMP      R4,#+1
   \   00000032   0xD10E             BNE.N    ??BACKLIGHT_I2C_MsgHandler_4
    217                          {
    218                              BackLight_SetStatus(data[0]);
   \   00000034   0x7828             LDRB     R0,[R5, #+0]
   \   00000036   0xE8BD 0x4032      POP      {R1,R4,R5,LR}
   \   0000003A   0x....             B.N      BackLight_SetStatus
    219                          }
    220                          break;
    221          
    222                      default:
    223                          break;
    224                  }
    225              }
    226              else /* Read */
    227              {
    228                  /* Set the data address for read. */
    229                  HalIic_SLV_SetTxData(host_i2c, ((uint8_t*)(&s_backlight_msg)) + addr, sizeof(backlight_msgType) - addr);
   \                     ??BACKLIGHT_I2C_MsgHandler_0: (+1)
   \   0000003C   0xF1C0 0x0203      RSB      R2,R0,#+3
   \   00000040   0xB292             UXTH     R2,R2
   \   00000042   0x....             LDR.N    R1,??DataTable8
   \   00000044   0x4401             ADD      R1,R1,R0
   \   00000046   0x....             LDR.N    R0,??DataTable8_1
   \   00000048   0x6800             LDR      R0,[R0, #+0]
   \   0000004A   0xE8BD 0x4038      POP      {R3-R5,LR}
   \   0000004E   0x.... 0x....      B.W      HalIic_SLV_SetTxData
    230              }
    231          }
   \                     ??BACKLIGHT_I2C_MsgHandler_4: (+1)
   \   00000052   0xBD31             POP      {R0,R4,R5,PC}    ;; return

   \                                 In section .text, align 4, keep-with-next
   \                     ??DataTable8:
   \   00000000   0x........         DC32     s_backlight_msg

   \                                 In section .text, align 4, keep-with-next
   \                     ??DataTable8_1:
   \   00000000   0x........         DC32     host_i2c

   \                                 In section .text, align 4, keep-with-next
   \                     ?_0:
   \   00000000   0x50 0x72          DC8 "Proc BackLight Task"
   \              0x6F 0x63    
   \              0x20 0x42    
   \              0x61 0x63    
   \              0x6B 0x4C    
   \              0x69 0x67    
   \              0x68 0x74    
   \              0x20 0x54    
   \              0x61 0x73    
   \              0x6B 0x00    
    232          
    233          /** >>>>>>>> end of file  >>>>>>>>>>>>>>>>>>>>>>>>>>>>>>>>>>>>>>>>>>>>>>>>>>>>>>>>>>>>>>>>>>>>>>>>>>>>>>>>>>>>>>>>>>>>>>>>> **/

   Maximum stack usage in bytes:

   .cstack Function
   ------- --------
      16   BACKLIGHT_I2C_MsgHandler
         0   -> BackLight_SetStatus
         0   -> HalIic_SLV_SetTxData
        16   -> crc8_Calc
       0   BackLight_GetPwm
       0   BackLight_GetStatus
         0   -> BspGpio_GetHwInsVal
      16   BackLight_HandleBlStatus
        16   -> BspGpio_GetHwInsVal
        16   -> BspGpio_SetVal
        16   -> LCD_GetPowerState
        16   -> osEnterCritical
         0   -> osExitCritical
      16   BackLight_HandlePwm
         0   -> GenEep_Set_ScreenBackLightValOnDay
        16   -> HalFtm_ChSetPwmVal
        16   -> crc8_Calc
        16   -> osEnterCritical
        16   -> osExitCritical
       8   BackLight_Init
         8   -> GenEep_Get_ScreenBackLightValOnDay
         8   -> HalFtm_ChInit
         8   -> HalFtm_ChSetPwmVal
         8   -> ServFunc_Create
         0   -> ServFunc_StartCyclic
         8   -> crc8_Calc
       4   BackLight_SetAllowedPwm
       0   BackLight_SetStatus
       4   BackLight_SetUserPwm
       8   Proc_BackLight_Func
         0   -> BackLight_HandleBlStatus
         8   -> BackLight_HandlePwm


   Section sizes:

   Bytes  Function/Label
   -----  --------------
       4  ??DataTable8
       4  ??DataTable8_1
      20  ?_0
      84  BACKLIGHT_I2C_MsgHandler
       6  BackLight_GetPwm
       6  BackLight_GetStatus
      76  BackLight_HandleBlStatus
      58  BackLight_HandlePwm
      78  BackLight_Init
      40  BackLight_SetAllowedPwm
       6  BackLight_SetStatus
      40  BackLight_SetUserPwm
      12  Proc_BackLight_Func
       8  s_backlight_msg
          current_backlight_pwm
          allowedPwm
          userDefinedPwm
          userDefinedBlStatus

 
   8 bytes in section .bss
 434 bytes in section .text
 
 434 bytes of CODE memory
   8 bytes of DATA memory

Errors: none
Warnings: none
