###############################################################################
#
# IAR ANSI C/C++ Compiler V7.70.1.11437/W32 for ARM       17/Oct/2019  14:25:08
# Copyright 1999-2016 IAR Systems AB.
#
#    Cpu mode     =  thumb
#    Endian       =  little
#    Source file  =  bsp/gpio/bsp_gpio.c
#    Command line =  
#        bsp/gpio/bsp_gpio.c -DCPU_S32K14x -D__FPU_PRESENT=1 -D__APP_
#        -DSW_VERSION=1000u -I../sys/ewarm_/ew_inc -Icmsis_os
#        -Icmsis_os/Freertos -Icmsis_os/Freertos/include
#        -Icmsis_os/Freertos/portable/IAR/ARM_CM4F
#        -Icmsis_os/Freertos/portable/MemMang -Ihal -IHal/cfg -Ihal/cpu_core
#        -IHal/cpu_core/ARM-Cortex-M4/IAR -Ihal/cpu_core/CMSIS/Include
#        -Ihal/cpu_core/s32k14x -IHal/ext_dev -IHal/hal_c -IHal/os -IHal/hw
#        -IApp -IApp/eep -IApp/flash -IApp/pwrctrl -IApp/version -IApp/diag
#        -IApp/cfg -IApp/cfg/gen_code -IApp/monitor -IApp/tp_iic -IApp/host_iic
#        -IApp/cf_test -IApp/eeprom/gen_code -IApp/boot -IApp/power_mana -Ibsp
#        -Ibsp/gpio -Ibsp/cpu_ts -Ibsp/bat_mana -Ibsp/panel -Ibsp/temperate
#        -Ibsp/backlight -Ibsp/dev_pwr -Iservice -Iobj -Itrace/server -Itrace
#        -Itrace/cfg -Itrace/trace_phy --cpu=Cortex-M4F -e --thumb
#        --char_is_unsigned --endian=little --diag_suppress=pa050 --silent
#        --fpu=VFPv4_sp -D__CHECK_DEVICE_DEFINES --debug --vla -Om -o
#        obj/bsp_gpio.o --dependencies=m obj/bsp_gpio.dep -l obj/bsp_gpio.lst
#    Locale       =  Chinese (Simplified)_People's Republic of China.936
#    List file    =  obj/bsp_gpio.lst
#    Object file  =  obj/bsp_gpio.o
#
###############################################################################

C:\A26\GAC_NE_DS_A26_2019_27632_DevEng_Workspace\src_app\bsp\gpio\bsp_gpio.c
      1          /** >>>>>>>>>>>>>>>>>>>>>>>>>>>>>>>>>>>>>>>>>>>>>>>>>>>>>>>>>>>>>>>>>>>>>>>>>>>>>>>>>>>>>>>>>>>>>>>>>>>>>>>>>>>>>>>>>>>>>>> 
      2              All rights reserved
      3          >>>>>>>>>>>>>>>>>>>>>>>>>>>>>>>>>>>>>>>>>>>>>>>>>>>>>>>>>>>>>>>>>>>>>>>>>>>>>>>>>>>>>>>>>>>>>>>>>>>>>>>>>>>>>>>>>>>>>>> **/
      4          
      5          #include "std_type.h"
      6          #include "bsp_gpio.h"
      7          #include "hal_os.h"
      8          #include "hal_gpio.h"
      9          #include "serv.h"
     10          
     11          
     12          /** >>>>>>>>>>>>>>>>>>>>>>>>>>>>>>>>>>>>>>>>>>>>>>>>>>>>>>>>>>>>>>>>>>>>>>>>>>>>>>>>>>>>>>>>>>>>>>>>>>>>>>>>>>>>>>>>>>>>>>> **/
     13          
     14          #define OUTPUT_GPIO_MAX	(sizeof(gpio_output_attr)/sizeof(GPIO_OUT_ATTR))
     15          #define INPUT_GPIO_MAX	(sizeof(gpio_input_attr)/sizeof(GPIO_INPUT_ATTR))
     16          
     17          /** >>>>>>>>>>>>>>>>>>>>>>>>>>>>>>>>>>>>>>>>>>>>>>>>>>>>>>>>>>>>>>>>>>>>>>>>>>>>>>>>>>>>>>>>>>>>>>>>>>>>>>>>>>>>>>>>>>>>>>> **/
     18          typedef struct
     19          {	
     20          	HAL_PORT_NAME	port;
     21          	uint8 			pin;
     22          	uint8 			flt_cnt;
     23          	INPUT_TYPE      type;
     24          	boolean 		actv;
     25          }GPIO_INPUT_ATTR;
     26          
     27          typedef struct
     28          {//port,pin,dfl_val,actv_val
     29          	HAL_PORT_NAME 	port;
     30          	uint8 			pin;
     31          	uint8 			dfl_val;
     32          	uint8 			actv_val;
     33          }GPIO_OUT_ATTR;
     34          /** >>>>>>>>>>>>>>>>>>>>>>>>>>>>>>>>>>>>>>>>>>>>>>>>>>>>>>>>>>>>>>>>>>>>>>>>>>>>>>>>>>>>>>>>>>>>>>>>>>>>>>>>>>>>>>>>>>>>>>> **/

   \                                 In section .text, align 4, keep-with-next
     35          static const GPIO_INPUT_ATTR gpio_input_attr[] = 
   \                     gpio_input_attr:
   \   00000000   0x03 0x0D          DC8 3, 13, 44, 0, 0, 3, 15, 44, 0, 0, 2, 13, 44, 0, 0, 2, 11, 44, 0, 1
   \              0x2C 0x00    
   \              0x00 0x03    
   \              0x0F 0x2C    
   \              0x00 0x00    
   \              0x02 0x0D    
   \              0x2C 0x00    
   \              0x00 0x02    
   \              0x0B 0x2C    
   \              0x00 0x01    
     36          {
     37          	#define GPIO_CFG_INPUT(name,port,pin, filter_cnt,input_type,actv_val)	{port,pin,filter_cnt,input_type,actv_val},
     38          		#include "gpio.cfg"
     39          	#undef GPIO_CFG_INPUT
     40          };

   \                                 In section .text, align 4, keep-with-next
     41          static const GPIO_OUT_ATTR gpio_output_attr[] = 
   \                     gpio_output_attr:
   \   00000000   0x03 0x00          DC8 3, 0, 0, 1, 4, 10, 1, 1, 0, 27, 1, 0, 4, 12, 1, 1, 2, 28, 0, 1, 1
   \              0x00 0x01    
   \              0x04 0x0A    
   \              0x01 0x01    
   \              0x00 0x1B    
   \              0x01 0x00    
   \              0x04 0x0C    
   \              0x01 0x01    
   \              0x02 0x1C    
   \              0x00 0x01    
   \              0x01         
   \   00000015   0x05 0x00          DC8 5, 0, 1, 0, 10, 0, 1, 1, 4, 0, 1, 3, 17, 0, 1, 0, 17, 0, 1
   \              0x01 0x00    
   \              0x0A 0x00    
   \              0x01 0x01    
   \              0x04 0x00    
   \              0x01 0x03    
   \              0x11 0x00    
   \              0x01 0x00    
   \              0x11 0x00    
   \              0x01         
     42          {
     43          	#define GPIO_CFG_OUTPUT(name,port,pin,dfl_val,actv_val)		{port,pin,dfl_val,actv_val},
     44          		#include "gpio.cfg"
     45          	#undef GPIO_CFG_OUTPUT
     46          };
     47          
     48          

   \                                 In section .bss, align 4
     49          static uint8 io_filter_cnt[INPUT_GPIO_MAX];
   \                     io_filter_cnt:
   \   00000000                      DS8 4
     50          
     51          /** >>>>>>>>>>>>>>>>>>>>>>>>>>>>>>>>>>>>>>>>>>>>>>>>>>>>>>>>>>>>>>>>>>>>>>>>>>>>>>>>>>>>>>>>>>>>>>>>>>>>>>>>>>>>>>>>>>>>>>> **/
     52          /** >>>>>>>>>>>>>>>>>>>>>>>>>>>>>>>>>>>>>>>>>>>>>>>>>>>>>>>>>>>>>>>>>>>>>>>>>>>>>>>>>>>>>>>>>>>>>>>>>>>>>>>>>>>>>>>>>>>>>>> **/

   \                                 In section .text, align 2, keep-with-next
     53          void   	BspGpio_Init(void)
     54          {
   \                     BspGpio_Init: (+1)
   \   00000000   0xB530             PUSH     {R4,R5,LR}
   \   00000002   0xB083             SUB      SP,SP,#+12
     55          	/* initial output gpio */
     56          	for (uint16 i = 0; i < OUTPUT_GPIO_MAX; i ++ )
   \   00000004   0x2400             MOVS     R4,#+0
   \   00000006   0xE01A             B.N      ??BspGpio_Init_0
     57          	{
     58          		GPIO_OUT_ATTR const *attr = gpio_output_attr + i;
   \                     ??BspGpio_Init_1: (+1)
   \   00000008   0x.... 0x....      ADR.W    R0,gpio_output_attr
   \   0000000C   0xEB00 0x0584      ADD      R5,R0,R4, LSL #+2
   \   00000010   0x7828             LDRB     R0,[R5, #+0]
   \   00000012   0xF88D 0x0000      STRB     R0,[SP, #+0]
     59          		HalGpio_InitPinGpio_Def(attr->port,attr->pin,	PORT_OUTPUT,OUTPUT_PUSH_PULL,INPUT_NO_PULL);
   \   00000016   0x7868             LDRB     R0,[R5, #+1]
   \   00000018   0xF88D 0x0001      STRB     R0,[SP, #+1]
   \   0000001C   0x2001             MOVS     R0,#+1
   \   0000001E   0xF88D 0x0002      STRB     R0,[SP, #+2]
   \   00000022   0x2000             MOVS     R0,#+0
   \   00000024   0xF88D 0x0003      STRB     R0,[SP, #+3]
   \   00000028   0xF88D 0x0004      STRB     R0,[SP, #+4]
   \   0000002C   0x4668             MOV      R0,SP
   \   0000002E   0x.... 0x....      BL       HalGpio_InitPinGpio
     60          		HalGpio_SetPinVal(attr->port,attr->pin,attr->dfl_val);
   \   00000032   0x78AA             LDRB     R2,[R5, #+2]
   \   00000034   0x7869             LDRB     R1,[R5, #+1]
   \   00000036   0x7828             LDRB     R0,[R5, #+0]
   \   00000038   0x.... 0x....      BL       HalGpio_SetPinVal
     61          	}
   \   0000003C   0x1C64             ADDS     R4,R4,#+1
   \                     ??BspGpio_Init_0: (+1)
   \   0000003E   0x2C0A             CMP      R4,#+10
   \   00000040   0xD3E2             BCC.N    ??BspGpio_Init_1
     62          
     63          	for (uint16 i = 0; i < INPUT_GPIO_MAX; i ++ )
   \   00000042   0x2400             MOVS     R4,#+0
   \   00000044   0xE017             B.N      ??BspGpio_Init_2
     64          	{
     65          		GPIO_INPUT_ATTR const *attr = gpio_input_attr + i;
     66          		HalGpio_InitPinGpio_Def(attr->port,attr->pin,	PORT_INPUT,OUTPUT_OPEN_DRAIN,attr->type);
   \                     ??BspGpio_Init_3: (+1)
   \   00000046   0x.... 0x....      ADR.W    R0,gpio_input_attr
   \   0000004A   0xEB04 0x0184      ADD      R1,R4,R4, LSL #+2
   \   0000004E   0x4408             ADD      R0,R0,R1
   \   00000050   0x7801             LDRB     R1,[R0, #+0]
   \   00000052   0xF88D 0x1000      STRB     R1,[SP, #+0]
   \   00000056   0x7841             LDRB     R1,[R0, #+1]
   \   00000058   0xF88D 0x1001      STRB     R1,[SP, #+1]
   \   0000005C   0x2100             MOVS     R1,#+0
   \   0000005E   0xF88D 0x1002      STRB     R1,[SP, #+2]
   \   00000062   0x2101             MOVS     R1,#+1
   \   00000064   0xF88D 0x1003      STRB     R1,[SP, #+3]
   \   00000068   0x78C0             LDRB     R0,[R0, #+3]
   \   0000006A   0xF88D 0x0004      STRB     R0,[SP, #+4]
   \   0000006E   0x4668             MOV      R0,SP
   \   00000070   0x.... 0x....      BL       HalGpio_InitPinGpio
     67          	}
   \   00000074   0x1C64             ADDS     R4,R4,#+1
   \                     ??BspGpio_Init_2: (+1)
   \   00000076   0x2C04             CMP      R4,#+4
   \   00000078   0xD3E5             BCC.N    ??BspGpio_Init_3
     68          }
   \   0000007A   0xBD37             POP      {R0-R2,R4,R5,PC}  ;; return
     69          
     70          /** >>>>>>>>>>>>>>>>>>>>>>>>>>>>>>>>>>>>>>>>>>>>>>>>>>>>>>>>>>>>>>>>>>>>>>>>>>>>>>>>>>>>>>>>>>>>>>>>>>>>>>>>>>>>>>>>>>>>>>> **/

   \                                 In section .text, align 2, keep-with-next
     71          void   	BspGpio_EnterToSleep()
     72          {
     73          	
     74          }
   \                     BspGpio_EnterToSleep: (+1)
   \   00000000   0x4770             BX       LR               ;; return
     75          
     76          /** >>>>>>>>>>>>>>>>>>>>>>>>>>>>>>>>>>>>>>>>>>>>>>>>>>>>>>>>>>>>>>>>>>>>>>>>>>>>>>>>>>>>>>>>>>>>>>>>>>>>>>>>>>>>>>>>>>>>>>> **/

   \                                 In section .text, align 2, keep-with-next
     77          void	BspGpio_ExitFromSleep(void)
     78          {
     79          	
     80          }
   \                     BspGpio_ExitFromSleep: (+1)
   \   00000000   0x4770             BX       LR               ;; return
     81          
     82          /** >>>>>>>>>>>>>>>>>>>>>>>>>>>>>>>>>>>>>>>>>>>>>>>>>>>>>>>>>>>>>>>>>>>>>>>>>>>>>>>>>>>>>>>>>>>>>>>>>>>>>>>>>>>>>>>>>>>>>>> **/

   \                                 In section .text, align 2, keep-with-next
     83          void 	BspGpio_SetVal(uint16 name, boolean value)
     84          {
     85          	if ( name < BPS_GPIO_NAME_MAX && name >= INPUT_GPIO_MAX )
   \                     BspGpio_SetVal: (+1)
   \   00000000   0x280E             CMP      R0,#+14
   \   00000002   0xDA1A             BGE.N    ??BspGpio_SetVal_0
   \   00000004   0x2804             CMP      R0,#+4
   \   00000006   0xD318             BCC.N    ??BspGpio_SetVal_0
   \   00000008   0x.... 0x....      ADR.W    R2,gpio_output_attr
   \   0000000C   0x1F00             SUBS     R0,R0,#+4
   \   0000000E   0xB280             UXTH     R0,R0
   \   00000010   0xEB02 0x0080      ADD      R0,R2,R0, LSL #+2
   \   00000014   0x78C2             LDRB     R2,[R0, #+3]
   \   00000016   0x2A00             CMP      R2,#+0
   \   00000018   0x460A             MOV      R2,R1
   \   0000001A   0xD007             BEQ.N    ??BspGpio_SetVal_1
     86          	{
     87          		name -= INPUT_GPIO_MAX;
     88          		GPIO_OUT_ATTR const *attr = gpio_output_attr + name;
     89          		if ( attr->actv_val )
     90          		{
     91          			HalGpio_SetPinVal(attr->port,attr->pin,!!value); //lint !e730
   \   0000001C   0x1E52             SUBS     R2,R2,#+1
   \   0000001E   0x4192             SBCS     R2,R2,R2
   \   00000020   0x43D2             MVNS     R2,R2
   \   00000022   0x0FD2             LSRS     R2,R2,#+31
   \   00000024   0x7841             LDRB     R1,[R0, #+1]
   \   00000026   0x7800             LDRB     R0,[R0, #+0]
   \   00000028   0x.... 0x....      B.W      HalGpio_SetPinVal
     92          		}
     93          		else
     94          		{
     95          			HalGpio_SetPinVal(attr->port,attr->pin,!value); //lint !e730
   \                     ??BspGpio_SetVal_1: (+1)
   \   0000002C   0x1E52             SUBS     R2,R2,#+1
   \   0000002E   0x4192             SBCS     R2,R2,R2
   \   00000030   0x0FD2             LSRS     R2,R2,#+31
   \   00000032   0x7841             LDRB     R1,[R0, #+1]
   \   00000034   0x7800             LDRB     R0,[R0, #+0]
   \   00000036   0x.... 0x....      B.W      HalGpio_SetPinVal
     96          		}
     97          	}
     98          }
   \                     ??BspGpio_SetVal_0: (+1)
   \   0000003A   0x4770             BX       LR               ;; return
     99          /** >>>>>>>>>>>>>>>>>>>>>>>>>>>>>>>>>>>>>>>>>>>>>>>>>>>>>>>>>>>>>>>>>>>>>>>>>>>>>>>>>>>>>>>>>>>>>>>>>>>>>>>>>>>>>>>>>>>>>>> **/

   \                                 In section .text, align 2, keep-with-next
    100          void 	BspGpio_ToggleVal(uint16 name)
    101          {
    102          	//HalGpio_TogglePinval
    103          	if ( name < BPS_GPIO_NAME_MAX && name >= INPUT_GPIO_MAX )
   \                     BspGpio_ToggleVal: (+1)
   \   00000000   0x280E             CMP      R0,#+14
   \   00000002   0xDA0C             BGE.N    ??BspGpio_ToggleVal_0
   \   00000004   0x2804             CMP      R0,#+4
   \   00000006   0xD30A             BCC.N    ??BspGpio_ToggleVal_0
   \   00000008   0x1F00             SUBS     R0,R0,#+4
   \   0000000A   0xB280             UXTH     R0,R0
   \   0000000C   0x.... 0x....      ADR.W    R2,gpio_output_attr
   \   00000010   0xEB02 0x0180      ADD      R1,R2,R0, LSL #+2
   \   00000014   0x7849             LDRB     R1,[R1, #+1]
   \   00000016   0xF812 0x0020      LDRB     R0,[R2, R0, LSL #+2]
   \   0000001A   0x.... 0x....      B.W      HalGpio_TogglePinval
    104          	{
    105          		name -= INPUT_GPIO_MAX;
    106          		GPIO_OUT_ATTR const *attr = gpio_output_attr + name;
    107          		HalGpio_TogglePinval(attr->port,attr->pin);
    108          	}	
    109          }
   \                     ??BspGpio_ToggleVal_0: (+1)
   \   0000001E   0x4770             BX       LR               ;; return
    110          
    111          /** >>>>>>>>>>>>>>>>>>>>>>>>>>>>>>>>>>>>>>>>>>>>>>>>>>>>>>>>>>>>>>>>>>>>>>>>>>>>>>>>>>>>>>>>>>>>>>>>>>>>>>>>>>>>>>>>>>>>>>> **/

   \                                 In section .text, align 2, keep-with-next
    112          boolean	BspGpio_GetVal(uint16 name)			// get value with filter
    113          {
   \                     BspGpio_GetVal: (+1)
   \   00000000   0x4602             MOV      R2,R0
    114          	boolean val = 0;
   \   00000002   0x2000             MOVS     R0,#+0
    115          	if ( name < INPUT_GPIO_MAX )
   \   00000004   0x4611             MOV      R1,R2
   \   00000006   0x2A04             CMP      R2,#+4
   \   00000008   0xD207             BCS.N    ??BspGpio_GetVal_0
    116          	{
    117          		val = (io_filter_cnt[name]&0x80)>0;
   \   0000000A   0x....             LDR.N    R2,??DataTable3
   \   0000000C   0x5C51             LDRB     R1,[R2, R1]
   \   0000000E   0xF001 0x0180      AND      R1,R1,#0x80
   \   00000012   0x2901             CMP      R1,#+1
   \   00000014   0xDB0E             BLT.N    ??BspGpio_GetVal_1
   \   00000016   0x2001             MOVS     R0,#+1
   \   00000018   0x4770             BX       LR
    118          	}
    119          	else if ( name < BPS_GPIO_NAME_MAX )
   \                     ??BspGpio_GetVal_0: (+1)
   \   0000001A   0x290E             CMP      R1,#+14
   \   0000001C   0xDA0A             BGE.N    ??BspGpio_GetVal_1
    120          	{
    121          		name -= INPUT_GPIO_MAX;
   \   0000001E   0x1F12             SUBS     R2,R2,#+4
    122          		val = HalGpio_GetPinVal(gpio_output_attr[name].port, gpio_output_attr[name].pin);
   \   00000020   0xB292             UXTH     R2,R2
   \   00000022   0x.... 0x....      ADR.W    R0,gpio_output_attr
   \   00000026   0xEB00 0x0182      ADD      R1,R0,R2, LSL #+2
   \   0000002A   0x7849             LDRB     R1,[R1, #+1]
   \   0000002C   0xF810 0x0022      LDRB     R0,[R0, R2, LSL #+2]
   \   00000030   0x.... 0x....      B.W      HalGpio_GetPinVal
    123          	}
    124          	else{}
    125          
    126          	return val;
   \                     ??BspGpio_GetVal_1: (+1)
   \   00000034   0x4770             BX       LR               ;; return
    127          }
    128          /** >>>>>>>>>>>>>>>>>>>>>>>>>>>>>>>>>>>>>>>>>>>>>>>>>>>>>>>>>>>>>>>>>>>>>>>>>>>>>>>>>>>>>>>>>>>>>>>>>>>>>>>>>>>>>>>>>>>>>>> **/

   \                                 In section .text, align 2, keep-with-next
    129          boolean	BspGpio_GetHwInsVal(uint16 name)		// get value without filter, 
    130          {
   \                     BspGpio_GetHwInsVal: (+1)
   \   00000000   0xB538             PUSH     {R3-R5,LR}
    131          	boolean val = 0;
   \   00000002   0x2400             MOVS     R4,#+0
    132          	if ( name < INPUT_GPIO_MAX )
   \   00000004   0x4601             MOV      R1,R0
   \   00000006   0x2804             CMP      R0,#+4
   \   00000008   0xD20D             BCS.N    ??BspGpio_GetHwInsVal_0
    133          	{
    134          		val = (HalGpio_GetPinVal(gpio_input_attr[name].port, gpio_input_attr[name].pin)==gpio_input_attr[name].actv);
   \   0000000A   0x.... 0x....      ADR.W    R0,gpio_input_attr
   \   0000000E   0xEB01 0x0181      ADD      R1,R1,R1, LSL #+2
   \   00000012   0x1845             ADDS     R5,R0,R1
   \   00000014   0x7869             LDRB     R1,[R5, #+1]
   \   00000016   0x7828             LDRB     R0,[R5, #+0]
   \   00000018   0x.... 0x....      BL       HalGpio_GetPinVal
   \   0000001C   0x7929             LDRB     R1,[R5, #+4]
   \   0000001E   0x4288             CMP      R0,R1
   \   00000020   0xD10F             BNE.N    ??BspGpio_GetHwInsVal_1
   \   00000022   0x2401             MOVS     R4,#+1
   \   00000024   0xE00D             B.N      ??BspGpio_GetHwInsVal_1
    135          	}
    136          	else if ( name < BPS_GPIO_NAME_MAX )
   \                     ??BspGpio_GetHwInsVal_0: (+1)
   \   00000026   0x290E             CMP      R1,#+14
   \   00000028   0xDA0B             BGE.N    ??BspGpio_GetHwInsVal_1
    137          	{
    138          		name -= INPUT_GPIO_MAX;
   \   0000002A   0x1F00             SUBS     R0,R0,#+4
    139          		val = HalGpio_GetPinVal(gpio_output_attr[name].port, gpio_output_attr[name].pin);
   \   0000002C   0xB280             UXTH     R0,R0
   \   0000002E   0x.... 0x....      ADR.W    R2,gpio_output_attr
   \   00000032   0xEB02 0x0180      ADD      R1,R2,R0, LSL #+2
   \   00000036   0x7849             LDRB     R1,[R1, #+1]
   \   00000038   0xF812 0x0020      LDRB     R0,[R2, R0, LSL #+2]
   \   0000003C   0x.... 0x....      BL       HalGpio_GetPinVal
   \   00000040   0x4604             MOV      R4,R0
    140          	}
    141          	else{}
    142          
    143          	return val;	
   \                     ??BspGpio_GetHwInsVal_1: (+1)
   \   00000042   0x4620             MOV      R0,R4
   \   00000044   0xBD32             POP      {R1,R4,R5,PC}    ;; return
    144          }
    145          
    146          /** >>>>>>>>>>>>>>>>>>>>>>>>>>>>>>>>>>>>>>>>>>>>>>>>>>>>>>>>>>>>>>>>>>>>>>>>>>>>>>>>>>>>>>>>>>>>>>>>>>>>>>>>>>>>>>>>>>>>>>> **/

   \                                 In section .text, align 2, keep-with-next
    147          void 	BspGpio_SetGpioInt(uint16 name,INT_EDGE edge)
    148          {
   \                     BspGpio_SetGpioInt: (+1)
   \   00000000   0xB500             PUSH     {LR}
   \   00000002   0xB083             SUB      SP,SP,#+12
    149          	if ( name < INPUT_GPIO_MAX )
   \   00000004   0x4602             MOV      R2,R0
   \   00000006   0x2804             CMP      R0,#+4
   \   00000008   0xD224             BCS.N    ??BspGpio_SetGpioInt_0
    150          	{
    151          		INT_EDGE edge_val;
    152          		
    153          		if ( edge == GPIO_BOTH_EDGE )
   \   0000000A   0x.... 0x....      ADR.W    R0,gpio_input_attr
   \   0000000E   0xEB02 0x0282      ADD      R2,R2,R2, LSL #+2
   \   00000012   0x4410             ADD      R0,R0,R2
   \   00000014   0x2902             CMP      R1,#+2
   \   00000016   0xD101             BNE.N    ??BspGpio_SetGpioInt_1
    154          		{
    155          			edge_val = GPIO_BOTH_EDGE;
   \   00000018   0x2102             MOVS     R1,#+2
   \   0000001A   0xE00D             B.N      ??BspGpio_SetGpioInt_2
    156          		}
   \                     ??BspGpio_SetGpioInt_1: (+1)
   \   0000001C   0x7902             LDRB     R2,[R0, #+4]
   \   0000001E   0x2900             CMP      R1,#+0
   \   00000020   0xD105             BNE.N    ??BspGpio_SetGpioInt_3
    157          		else if ( edge == GPIO_RISING_EDGE ) 
    158          		{
    159          			if ( gpio_input_attr[name].actv == ACTIVATE_HIGH )
   \   00000022   0x2A01             CMP      R2,#+1
   \   00000024   0xD101             BNE.N    ??BspGpio_SetGpioInt_4
    160          			{
    161          				edge_val = GPIO_RISING_EDGE;
   \   00000026   0x2100             MOVS     R1,#+0
   \   00000028   0xE006             B.N      ??BspGpio_SetGpioInt_2
    162          			}
    163          			else
    164          			{
    165          				edge_val = GPIO_FALLING_EDGE;
   \                     ??BspGpio_SetGpioInt_4: (+1)
   \   0000002A   0x2101             MOVS     R1,#+1
   \   0000002C   0xE004             B.N      ??BspGpio_SetGpioInt_2
    166          			}
    167          		}
    168          		else
    169          		{	// GPIO_FALLING_EDGE
    170          			if ( gpio_input_attr[name].actv == ACTIVATE_HIGH )
   \                     ??BspGpio_SetGpioInt_3: (+1)
   \   0000002E   0x2A01             CMP      R2,#+1
   \   00000030   0xD101             BNE.N    ??BspGpio_SetGpioInt_5
    171          			{
    172          				edge_val = GPIO_FALLING_EDGE;
   \   00000032   0x2101             MOVS     R1,#+1
   \   00000034   0xE000             B.N      ??BspGpio_SetGpioInt_2
    173          			}
    174          			else
    175          			{
    176          				edge_val = GPIO_RISING_EDGE;
   \                     ??BspGpio_SetGpioInt_5: (+1)
   \   00000036   0x2100             MOVS     R1,#+0
    177          			}
    178          		}
    179          		HalGpio_InitPinInt_Def (gpio_input_attr[name].port, gpio_input_attr[name].pin, edge_val, NULL);
   \                     ??BspGpio_SetGpioInt_2: (+1)
   \   00000038   0x7802             LDRB     R2,[R0, #+0]
   \   0000003A   0xF88D 0x2000      STRB     R2,[SP, #+0]
   \   0000003E   0x7840             LDRB     R0,[R0, #+1]
   \   00000040   0xF88D 0x0001      STRB     R0,[SP, #+1]
   \   00000044   0xF88D 0x1002      STRB     R1,[SP, #+2]
   \   00000048   0x2000             MOVS     R0,#+0
   \   0000004A   0x9001             STR      R0,[SP, #+4]
   \   0000004C   0x4668             MOV      R0,SP
   \   0000004E   0x.... 0x....      BL       HalGpio_InitPinInt
   \   00000052   0xBD07             POP      {R0-R2,PC}
    180          	}
    181          	else if ( name < BPS_GPIO_NAME_MAX )
   \                     ??BspGpio_SetGpioInt_0: (+1)
   \   00000054   0x2A0E             CMP      R2,#+14
   \   00000056   0xDA24             BGE.N    ??BspGpio_SetGpioInt_6
    182          	{
    183          		name -= INPUT_GPIO_MAX;
   \   00000058   0x1F00             SUBS     R0,R0,#+4
   \   0000005A   0x.... 0x....      ADR.W    R2,gpio_output_attr
   \   0000005E   0xB280             UXTH     R0,R0
   \   00000060   0xEB02 0x0080      ADD      R0,R2,R0, LSL #+2
   \   00000064   0x2902             CMP      R1,#+2
   \   00000066   0xD101             BNE.N    ??BspGpio_SetGpioInt_7
    184          		INT_EDGE edge_val;
    185          		if ( edge == GPIO_BOTH_EDGE )
    186          		{
    187          			edge_val = GPIO_BOTH_EDGE;
   \   00000068   0x2102             MOVS     R1,#+2
   \   0000006A   0xE00D             B.N      ??BspGpio_SetGpioInt_8
    188          		}
   \                     ??BspGpio_SetGpioInt_7: (+1)
   \   0000006C   0x78C2             LDRB     R2,[R0, #+3]
   \   0000006E   0x2900             CMP      R1,#+0
   \   00000070   0xD105             BNE.N    ??BspGpio_SetGpioInt_9
    189          		else if ( edge == GPIO_RISING_EDGE ) 
    190          		{
    191          			if ( gpio_output_attr[name].actv_val == ACTIVATE_HIGH )
   \   00000072   0x2A01             CMP      R2,#+1
   \   00000074   0xD101             BNE.N    ??BspGpio_SetGpioInt_10
    192          			{
    193          				edge_val = GPIO_RISING_EDGE;
   \   00000076   0x2100             MOVS     R1,#+0
   \   00000078   0xE006             B.N      ??BspGpio_SetGpioInt_8
    194          			}
    195          			else
    196          			{
    197          				edge_val = GPIO_FALLING_EDGE;
   \                     ??BspGpio_SetGpioInt_10: (+1)
   \   0000007A   0x2101             MOVS     R1,#+1
   \   0000007C   0xE004             B.N      ??BspGpio_SetGpioInt_8
    198          			}
    199          		}
    200          		else
    201          		{	// GPIO_FALLING_EDGE
    202          			if ( gpio_output_attr[name].actv_val == ACTIVATE_HIGH )
   \                     ??BspGpio_SetGpioInt_9: (+1)
   \   0000007E   0x2A01             CMP      R2,#+1
   \   00000080   0xD101             BNE.N    ??BspGpio_SetGpioInt_11
    203          			{
    204          				edge_val = GPIO_FALLING_EDGE;
   \   00000082   0x2101             MOVS     R1,#+1
   \   00000084   0xE000             B.N      ??BspGpio_SetGpioInt_8
    205          			}
    206          			else
    207          			{
    208          				edge_val = GPIO_RISING_EDGE;
   \                     ??BspGpio_SetGpioInt_11: (+1)
   \   00000086   0x2100             MOVS     R1,#+0
    209          			}
    210          		}
    211          		HalGpio_InitPinInt_Def (gpio_output_attr[name].port, gpio_output_attr[name].pin, edge_val, NULL);
   \                     ??BspGpio_SetGpioInt_8: (+1)
   \   00000088   0x7802             LDRB     R2,[R0, #+0]
   \   0000008A   0xF88D 0x2000      STRB     R2,[SP, #+0]
   \   0000008E   0x7840             LDRB     R0,[R0, #+1]
   \   00000090   0xF88D 0x0001      STRB     R0,[SP, #+1]
   \   00000094   0xF88D 0x1002      STRB     R1,[SP, #+2]
   \   00000098   0x2000             MOVS     R0,#+0
   \   0000009A   0x9001             STR      R0,[SP, #+4]
   \   0000009C   0x4668             MOV      R0,SP
   \   0000009E   0x.... 0x....      BL       HalGpio_InitPinInt
    212          	}
    213          	else{}
    214          }
   \                     ??BspGpio_SetGpioInt_6: (+1)
   \   000000A2   0xBD07             POP      {R0-R2,PC}       ;; return
    215          
    216          /** >>>>>>>>>>>>>>>>>>>>>>>>>>>>>>>>>>>>>>>>>>>>>>>>>>>>>>>>>>>>>>>>>>>>>>>>>>>>>>>>>>>>>>>>>>>>>>>>>>>>>>>>>>>>>>>>>>>>>>> **/

   \                                 In section .text, align 2, keep-with-next
    217          void 	BspGpio_EnGpioInt(uint16 name)
    218          {
    219          	if ( name < INPUT_GPIO_MAX )
   \                     BspGpio_EnGpioInt: (+1)
   \   00000000   0x4601             MOV      R1,R0
   \   00000002   0x2804             CMP      R0,#+4
   \   00000004   0xD208             BCS.N    ??BspGpio_EnGpioInt_0
    220          	{
    221          		HalGpio_EnPinInt (gpio_input_attr[name].port, gpio_input_attr[name].pin);
   \   00000006   0xEB01 0x0081      ADD      R0,R1,R1, LSL #+2
   \   0000000A   0x.... 0x....      ADR.W    R2,gpio_input_attr
   \   0000000E   0x1811             ADDS     R1,R2,R0
   \   00000010   0x7849             LDRB     R1,[R1, #+1]
   \   00000012   0x5C10             LDRB     R0,[R2, R0]
   \   00000014   0x.... 0x....      B.W      HalGpio_EnPinInt
    222          	}
    223          	else if ( name < BPS_GPIO_NAME_MAX )
   \                     ??BspGpio_EnGpioInt_0: (+1)
   \   00000018   0x290E             CMP      R1,#+14
   \   0000001A   0xDA0A             BGE.N    ??BspGpio_EnGpioInt_1
    224          	{
    225          		name -= INPUT_GPIO_MAX;
   \   0000001C   0x1F00             SUBS     R0,R0,#+4
    226          		HalGpio_EnPinInt (gpio_output_attr[name].port, gpio_output_attr[name].pin);
   \   0000001E   0xB280             UXTH     R0,R0
   \   00000020   0x.... 0x....      ADR.W    R2,gpio_output_attr
   \   00000024   0xEB02 0x0180      ADD      R1,R2,R0, LSL #+2
   \   00000028   0x7849             LDRB     R1,[R1, #+1]
   \   0000002A   0xF812 0x0020      LDRB     R0,[R2, R0, LSL #+2]
   \   0000002E   0x.... 0x....      B.W      HalGpio_EnPinInt
    227          	}
    228          	else{}
    229          }
   \                     ??BspGpio_EnGpioInt_1: (+1)
   \   00000032   0x4770             BX       LR               ;; return
    230          
    231          /** >>>>>>>>>>>>>>>>>>>>>>>>>>>>>>>>>>>>>>>>>>>>>>>>>>>>>>>>>>>>>>>>>>>>>>>>>>>>>>>>>>>>>>>>>>>>>>>>>>>>>>>>>>>>>>>>>>>>>>> **/

   \                                 In section .text, align 2, keep-with-next
    232          void 	BspGpio_DisGpioInt(uint16 name)
    233          {
    234          	if ( name < INPUT_GPIO_MAX )
   \                     BspGpio_DisGpioInt: (+1)
   \   00000000   0x4601             MOV      R1,R0
   \   00000002   0x2804             CMP      R0,#+4
   \   00000004   0xD208             BCS.N    ??BspGpio_DisGpioInt_0
    235          	{
    236          		HalGpio_DisPinInt(gpio_input_attr[name].port, gpio_input_attr[name].pin);
   \   00000006   0xEB01 0x0081      ADD      R0,R1,R1, LSL #+2
   \   0000000A   0x.... 0x....      ADR.W    R2,gpio_input_attr
   \   0000000E   0x1811             ADDS     R1,R2,R0
   \   00000010   0x7849             LDRB     R1,[R1, #+1]
   \   00000012   0x5C10             LDRB     R0,[R2, R0]
   \   00000014   0x.... 0x....      B.W      HalGpio_DisPinInt
    237          	}
    238          	else if ( name < BPS_GPIO_NAME_MAX )
   \                     ??BspGpio_DisGpioInt_0: (+1)
   \   00000018   0x290E             CMP      R1,#+14
   \   0000001A   0xDA0A             BGE.N    ??BspGpio_DisGpioInt_1
    239          	{
    240          		name -= INPUT_GPIO_MAX;
   \   0000001C   0x1F00             SUBS     R0,R0,#+4
    241          		HalGpio_DisPinInt (gpio_output_attr[name].port, gpio_output_attr[name].pin);
   \   0000001E   0xB280             UXTH     R0,R0
   \   00000020   0x.... 0x....      ADR.W    R2,gpio_output_attr
   \   00000024   0xEB02 0x0180      ADD      R1,R2,R0, LSL #+2
   \   00000028   0x7849             LDRB     R1,[R1, #+1]
   \   0000002A   0xF812 0x0020      LDRB     R0,[R2, R0, LSL #+2]
   \   0000002E   0x.... 0x....      B.W      HalGpio_DisPinInt
    242          	}
    243          	else{}
    244          }
   \                     ??BspGpio_DisGpioInt_1: (+1)
   \   00000032   0x4770             BX       LR               ;; return
    245          
    246          /** >>>>>>>>>>>>>>>>>>>>>>>>>>>>>>>>>>>>>>>>>>>>>>>>>>>>>>>>>>>>>>>>>>>>>>>>>>>>>>>>>>>>>>>>>>>>>>>>>>>>>>>>>>>>>>>>>>>>>>> **/

   \                                 In section .text, align 2, keep-with-next
    247          void	BspGpio_MainFunc(void)		// 10ms function
    248          {
   \                     BspGpio_MainFunc: (+1)
   \   00000000   0xB538             PUSH     {R3-R5,LR}
    249          	for( uint16 i = 0; i < INPUT_GPIO_MAX; i ++ )
   \   00000002   0x2400             MOVS     R4,#+0
   \   00000004   0xE007             B.N      ??BspGpio_MainFunc_0
    250          	{
    251          		GPIO_INPUT_ATTR const*attr = gpio_input_attr + i ;
    252          		boolean  pin_val 	  = HalGpio_GetPinVal(attr->port, attr->pin);
    253          		if ( pin_val == attr->actv )
    254          		{
    255          			if ( io_filter_cnt[i]&0x80 )
    256          			{
    257          				io_filter_cnt[i] |= 0xFE;
    258          			}
    259          			else
    260          			{
    261          				io_filter_cnt[i] += attr->flt_cnt;
    262          				if ( io_filter_cnt[i]&0x80 )
    263          				{
    264          					io_filter_cnt[i] = 0xFE;
    265          				}
    266          			}
    267          		}
    268          		else
    269          		{	
    270          			if ( !(io_filter_cnt[i]&0x80) )
    271          			{
    272          				io_filter_cnt[i] &= 0x01;
    273          			}
    274          			else
    275          			{
    276          				io_filter_cnt[i] -= attr->flt_cnt;
   \                     ??BspGpio_MainFunc_1: (+1)
   \   00000006   0x78A8             LDRB     R0,[R5, #+2]
   \   00000008   0x1A10             SUBS     R0,R2,R0
   \   0000000A   0x5508             STRB     R0,[R1, R4]
    277          				if ( !(io_filter_cnt[i]&0x80) )
   \   0000000C   0x0600             LSLS     R0,R0,#+24
   \   0000000E   0xD401             BMI.N    ??BspGpio_MainFunc_2
    278          				{
    279          					io_filter_cnt[i] = 0x01;
   \   00000010   0x2001             MOVS     R0,#+1
   \   00000012   0x5508             STRB     R0,[R1, R4]
    280          				}
    281          			}	
   \                     ??BspGpio_MainFunc_2: (+1)
   \   00000014   0x1C64             ADDS     R4,R4,#+1
   \                     ??BspGpio_MainFunc_0: (+1)
   \   00000016   0x2C04             CMP      R4,#+4
   \   00000018   0xD221             BCS.N    ??BspGpio_MainFunc_3
   \   0000001A   0x.... 0x....      ADR.W    R0,gpio_input_attr
   \   0000001E   0xEB04 0x0184      ADD      R1,R4,R4, LSL #+2
   \   00000022   0x1845             ADDS     R5,R0,R1
   \   00000024   0x7869             LDRB     R1,[R5, #+1]
   \   00000026   0x7828             LDRB     R0,[R5, #+0]
   \   00000028   0x.... 0x....      BL       HalGpio_GetPinVal
   \   0000002C   0x....             LDR.N    R1,??DataTable3
   \   0000002E   0x5D0A             LDRB     R2,[R1, R4]
   \   00000030   0x792B             LDRB     R3,[R5, #+4]
   \   00000032   0x4298             CMP      R0,R3
   \   00000034   0xD10D             BNE.N    ??BspGpio_MainFunc_4
   \   00000036   0x0610             LSLS     R0,R2,#+24
   \   00000038   0xD503             BPL.N    ??BspGpio_MainFunc_5
   \   0000003A   0xF042 0x00FE      ORR      R0,R2,#0xFE
   \   0000003E   0x5508             STRB     R0,[R1, R4]
   \   00000040   0xE7E8             B.N      ??BspGpio_MainFunc_2
   \                     ??BspGpio_MainFunc_5: (+1)
   \   00000042   0x78A8             LDRB     R0,[R5, #+2]
   \   00000044   0x1880             ADDS     R0,R0,R2
   \   00000046   0x5508             STRB     R0,[R1, R4]
   \   00000048   0x0600             LSLS     R0,R0,#+24
   \   0000004A   0xD5E3             BPL.N    ??BspGpio_MainFunc_2
   \   0000004C   0x20FE             MOVS     R0,#+254
   \   0000004E   0x5508             STRB     R0,[R1, R4]
   \   00000050   0xE7E0             B.N      ??BspGpio_MainFunc_2
   \                     ??BspGpio_MainFunc_4: (+1)
   \   00000052   0x0610             LSLS     R0,R2,#+24
   \   00000054   0xD4D7             BMI.N    ??BspGpio_MainFunc_1
   \   00000056   0xF002 0x0001      AND      R0,R2,#0x1
   \   0000005A   0x5508             STRB     R0,[R1, R4]
   \   0000005C   0xE7DA             B.N      ??BspGpio_MainFunc_2
    282          		}		
    283          	}
    284          	
    285          }
   \                     ??BspGpio_MainFunc_3: (+1)
   \   0000005E   0xBD31             POP      {R0,R4,R5,PC}    ;; return

   \                                 In section .text, align 4, keep-with-next
   \                     ??DataTable3:
   \   00000000   0x........         DC32     io_filter_cnt
    286          
    287          

   Maximum stack usage in bytes:

   .cstack Function
   ------- --------
       0   BspGpio_DisGpioInt
         0   -> HalGpio_DisPinInt
       0   BspGpio_EnGpioInt
         0   -> HalGpio_EnPinInt
       0   BspGpio_EnterToSleep
       0   BspGpio_ExitFromSleep
      16   BspGpio_GetHwInsVal
        16   -> HalGpio_GetPinVal
       0   BspGpio_GetVal
         0   -> HalGpio_GetPinVal
      24   BspGpio_Init
        24   -> HalGpio_InitPinGpio
        24   -> HalGpio_SetPinVal
      16   BspGpio_MainFunc
        16   -> HalGpio_GetPinVal
      16   BspGpio_SetGpioInt
        16   -> HalGpio_InitPinInt
       0   BspGpio_SetVal
         0   -> HalGpio_SetPinVal
       0   BspGpio_ToggleVal
         0   -> HalGpio_TogglePinval


   Section sizes:

   Bytes  Function/Label
   -----  --------------
       4  ??DataTable3
      52  BspGpio_DisGpioInt
      52  BspGpio_EnGpioInt
       2  BspGpio_EnterToSleep
       2  BspGpio_ExitFromSleep
      70  BspGpio_GetHwInsVal
      54  BspGpio_GetVal
     124  BspGpio_Init
      96  BspGpio_MainFunc
     164  BspGpio_SetGpioInt
      60  BspGpio_SetVal
      32  BspGpio_ToggleVal
      20  gpio_input_attr
      40  gpio_output_attr
       4  io_filter_cnt

 
   4 bytes in section .bss
 772 bytes in section .text
 
 772 bytes of CODE memory
   4 bytes of DATA memory

Errors: none
Warnings: none
