###############################################################################
#
# IAR ANSI C/C++ Compiler V7.70.1.11437/W32 for ARM       17/Oct/2019  14:23:29
# Copyright 1999-2016 IAR Systems AB.
#
#    Cpu mode     =  thumb
#    Endian       =  little
#    Source file  =  hal/cpu_core/s32k14x/hal_s32k14x_wdt.c
#    Command line =  
#        hal/cpu_core/s32k14x/hal_s32k14x_wdt.c -DCPU_S32K14x -D__FPU_PRESENT=1
#        -D__APP_ -DSW_VERSION=1000u -I../sys/ewarm_/ew_inc -Icmsis_os
#        -Icmsis_os/Freertos -Icmsis_os/Freertos/include
#        -Icmsis_os/Freertos/portable/IAR/ARM_CM4F
#        -Icmsis_os/Freertos/portable/MemMang -Ihal -IHal/cfg -Ihal/cpu_core
#        -IHal/cpu_core/ARM-Cortex-M4/IAR -Ihal/cpu_core/CMSIS/Include
#        -Ihal/cpu_core/s32k14x -IHal/ext_dev -IHal/hal_c -IHal/os -IHal/hw
#        -IApp -IApp/eep -IApp/flash -IApp/pwrctrl -IApp/version -IApp/diag
#        -IApp/cfg -IApp/cfg/gen_code -IApp/monitor -IApp/tp_iic -IApp/host_iic
#        -IApp/cf_test -IApp/eeprom/gen_code -IApp/boot -IApp/power_mana -Ibsp
#        -Ibsp/gpio -Ibsp/cpu_ts -Ibsp/bat_mana -Ibsp/panel -Ibsp/temperate
#        -Ibsp/backlight -Ibsp/dev_pwr -Iservice -Iobj -Itrace/server -Itrace
#        -Itrace/cfg -Itrace/trace_phy --cpu=Cortex-M4F -e --thumb
#        --char_is_unsigned --endian=little --diag_suppress=pa050 --silent
#        --fpu=VFPv4_sp -D__CHECK_DEVICE_DEFINES --debug --vla -Om -o
#        obj/hal_s32k14x_wdt.o --dependencies=m obj/hal_s32k14x_wdt.dep -l
#        obj/hal_s32k14x_wdt.lst
#    Locale       =  Chinese (Simplified)_People's Republic of China.936
#    List file    =  obj/hal_s32k14x_wdt.lst
#    Object file  =  obj/hal_s32k14x_wdt.o
#
###############################################################################

C:\A26\GAC_NE_DS_A26_2019_27632_DevEng_Workspace\src_app\hal\cpu_core\s32k14x\hal_s32k14x_wdt.c
      1          /*****************************************************************************
      2           *
      3           * Copyright (c) 
      4           *
      5           *****************************************************************************/
      6           
      7          
      8           /*****************************************************************************
      9           *  Include Files
     10           *****************************************************************************/
     11          #include "std_type.h" 
     12          
     13          //#include "hal_gpio.h"
     14          #include "hal_wdt.h"
     15          
     16          #include "cpu.h"
     17          
     18          #include "std_lib.h"

   \                                 In section .text, align 2, keep-with-next
   \   static __interwork __softfp void NVIC_SystemReset(void)
   \                     NVIC_SystemReset: (+1)
   \   00000000   0xF3BF 0x8F4F      DSB      
   \   00000004   0x....             LDR.N    R0,??DataTable4  ;; 0xe000ed0c
   \   00000006   0x6801             LDR      R1,[R0, #+0]
   \   00000008   0xF401 0x61E0      AND      R1,R1,#0x700
   \   0000000C   0x....             LDR.N    R2,??DataTable4_1  ;; 0x5fa0004
   \   0000000E   0x4311             ORRS     R1,R2,R1
   \   00000010   0x6001             STR      R1,[R0, #+0]
   \   00000012   0xF3BF 0x8F4F      DSB      
   \                     ??NVIC_SystemReset_0: (+1)
   \   00000016   0xBF00             Nop      
   \   00000018   0xE7FD             B.N      ??NVIC_SystemReset_0
     19          
     20          /*****************************************************************************
     21           *  Local Macro Definitions
     22           *****************************************************************************/
     23          #define WDOG_UNLOCK_KEY     (0xD928C520UL)
     24          #define WDOG_CLK_FROM_BUS   (0x0UL)
     25          #define WDOG_CLK_FROM_LPO   (0x1UL)
     26          #define WDOG_CLK_FROM_SOSC  (0x2UL)
     27          #define WDOG_CLK_FROM_SIRC  (0x3UL)
     28          
     29           /*****************************************************************************
     30           *  Local Type Declarations
     31           *****************************************************************************/
     32          
     33          
     34          
     35           
     36           /*****************************************************************************
     37           *  Global Variable Definitions (Global for the whole system)
     38           *****************************************************************************/
     39          
     40           
     41          /*****************************************************************************
     42           *  Local Variable Definitions (Global within this file)
     43           *****************************************************************************/

   \                                 In section .bss, align 1
     44          static boolean mounted;
   \                     mounted:
   \   00000000                      DS8 1
     45          
     46          static void	S32K14x_Wdt_Init(void);
     47          static void	S32K14x_Wdt_Feed(void);
     48          static void	S32K14x_Wdt_RstCpu(void);

   \                                 In section .text, align 4, keep-with-next
     49          static HAL_WDT_HW_API const api = 
   \                     api:
   \   00000000   0x........         DC32 S32K14x_Wdt_Init, S32K14x_Wdt_Feed, S32K14x_Wdt_RstCpu
   \              0x........   
   \              0x........   
     50          {
     51           	.init 	=	S32K14x_Wdt_Init,
     52           	.feed	=	S32K14x_Wdt_Feed,
     53           	.rst_cpu=	S32K14x_Wdt_RstCpu,
     54          };
     55           
     56           /*****************************************************************************
     57           *  Global Function Declarations
     58           *****************************************************************************/
     59          
     60          
     61          /*****************************************************************************
     62           *  Local Function Declarations
     63          *****************************************************************************/
     64          
     65          /*****************************************************************************/
     66          /*  Global Function Definitions                                              */
     67          /*****************************************************************************/
     68          

   \                                 In section .text, align 2, keep-with-next
     69          void	HalS32K14x_Wdt_Mount(void)
     70          {
     71          	mounted = TRUE;
   \                     HalS32K14x_Wdt_Mount: (+1)
   \   00000000   0x2001             MOVS     R0,#+1
   \   00000002   0x....             LDR.N    R1,??DataTable4_2
   \   00000004   0x7008             STRB     R0,[R1, #+0]
     72          }
   \   00000006   0x4770             BX       LR               ;; return
     73          

   \                                 In section .text, align 2, keep-with-next
     74          HAL_WDT_HW_API const * HalS32K14x_Wdt_GetApi(void)
     75          {
     76          	return &api;
   \                     HalS32K14x_Wdt_GetApi: (+1)
   \   00000000   0x.... 0x....      ADR.W    R0,api
   \   00000004   0x4770             BX       LR               ;; return
     77          }
     78          
     79          
     80          /*****************************************************************************
     81           *  Local Function Definitions
     82           *****************************************************************************/
     83          
     84          /** >>>>>>>>>>>>>>>>>>>>>>>>>>>>>>>>>>>>>>>>>>>>>>>>>>>>>>>>>>>>>>>>>>>>>>>>>>>>>>>>>>>>>>>>>>>>>>>>>>>>>>>>>>>>>>>>>>>>>>> **/

   \                                 In section .text, align 2, keep-with-next
     85          static void    S32K14x_Wdt_Init ( void )
     86          {
   \                     S32K14x_Wdt_Init: (+1)
   \   00000000   0xB510             PUSH     {R4,LR}
     87          	if ( mounted )
   \   00000002   0x....             LDR.N    R0,??DataTable4_2
   \   00000004   0x7800             LDRB     R0,[R0, #+0]
   \   00000006   0x2800             CMP      R0,#+0
   \   00000008   0xD01A             BEQ.N    ??S32K14x_Wdt_Init_0
     88          	{
     89          		CPU_SR_ALLOC();
     90          		CPU_CRITICAL_ENTER();/* disable global interrupt */
   \   0000000A   0x.... 0x....      BL       CPU_SR_Save
   \   0000000E   0x4604             MOV      R4,R0
   \   00000010   0x.... 0x....      BL       CpuTs_IntDisMeasStart
     91          				
     92          		/*inital write of wdog config register; clock select from lpo / 256, update disable, watchdog enable */
     93          		/*in the cs reg, bit 13 is reserved but if it is not written the wdog can't be disabled*/
     94          		WDOG->CNT = (uint32_t ) WDOG_UNLOCK_KEY;
   \   00000014   0x....             LDR.N    R0,??DataTable4_3  ;; 0x40052000
   \   00000016   0x....             LDR.N    R1,??DataTable4_4  ;; 0xd928c520
   \   00000018   0x6041             STR      R1,[R0, #+4]
     95          		while ( !(WDOG->CS & WDOG_CS_ULK_MASK) )
   \                     ??S32K14x_Wdt_Init_1: (+1)
   \   0000001A   0x6801             LDR      R1,[R0, #+0]
   \   0000001C   0x0509             LSLS     R1,R1,#+20
   \   0000001E   0xD5FC             BPL.N    ??S32K14x_Wdt_Init_1
     96          		{}
     97          		WDOG->CS =  (uint32_t ) ((1 << 13) | (WDOG_CLK_FROM_LPO << WDOG_CS_CLK_SHIFT) | (1 << WDOG_CS_EN_SHIFT)| 
     98          								 /*(0 << WDOG_CS_UPDATE_SHIFT)|*/ (1<<WDOG_CS_WAIT_SHIFT) | (1<<WDOG_CS_PRES_SHIFT) );
   \   00000020   0xF243 0x1182      MOVW     R1,#+12674
   \   00000024   0x6001             STR      R1,[R0, #+0]
     99          		/*write of the wdog unlock key to cnt register, must be done in order to allow any modifications*/
    100          		WDOG->TOVAL = 1000;	// about 2s
   \   00000026   0xF44F 0x717A      MOV      R1,#+1000
   \   0000002A   0x6081             STR      R1,[R0, #+8]
    101          
    102          		while ( !(WDOG->CS & WDOG_CS_RCS_MASK) )
   \                     ??S32K14x_Wdt_Init_2: (+1)
   \   0000002C   0x6801             LDR      R1,[R0, #+0]
   \   0000002E   0x0549             LSLS     R1,R1,#+21
   \   00000030   0xD5FC             BPL.N    ??S32K14x_Wdt_Init_2
    103                  {}
    104          		/* restore interrupt	*/	
    105          		CPU_CRITICAL_EXIT();	
   \   00000032   0x.... 0x....      BL       CpuTs_IntDisMeasStop
   \   00000036   0x4620             MOV      R0,R4
   \   00000038   0xE8BD 0x4010      POP      {R4,LR}
   \   0000003C   0x.... 0x....      B.W      CPU_SR_Restore
    106          	}
    107          }
   \                     ??S32K14x_Wdt_Init_0: (+1)
   \   00000040   0xBD10             POP      {R4,PC}          ;; return
    108          
    109          /** >>>>>>>>>>>>>>>>>>>>>>>>>>>>>>>>>>>>>>>>>>>>>>>>>>>>>>>>>>>>>>>>>>>>>>>>>>>>>>>>>>>>>>>>>>>>>>>>>>>>>>>>>>>>>>>>>>>>>>> **/

   \                                 In section .text, align 2, keep-with-next
    110          static void    S32K14x_Wdt_Feed ( void )
    111          {
   \                     S32K14x_Wdt_Feed: (+1)
   \   00000000   0xB510             PUSH     {R4,LR}
    112          	if ( mounted )
   \   00000002   0x....             LDR.N    R0,??DataTable4_2
   \   00000004   0x7800             LDRB     R0,[R0, #+0]
   \   00000006   0x2800             CMP      R0,#+0
   \   00000008   0xD00E             BEQ.N    ??S32K14x_Wdt_Feed_0
    113          	{
    114          		CPU_SR_ALLOC();
    115          		CPU_CRITICAL_ENTER();/* disable global interrupt */
   \   0000000A   0x.... 0x....      BL       CPU_SR_Save
   \   0000000E   0x4604             MOV      R4,R0
   \   00000010   0x.... 0x....      BL       CpuTs_IntDisMeasStart
    116          
    117          		WDOG->CNT = 0xB480A602;
   \   00000014   0x....             LDR.N    R0,??DataTable4_5  ;; 0xb480a602
   \   00000016   0x....             LDR.N    R1,??DataTable4_6  ;; 0x40052004
   \   00000018   0x6008             STR      R0,[R1, #+0]
    118          	
    119          		/* restore interrupt	*/	
    120          		CPU_CRITICAL_EXIT();		
   \   0000001A   0x.... 0x....      BL       CpuTs_IntDisMeasStop
   \   0000001E   0x4620             MOV      R0,R4
   \   00000020   0xE8BD 0x4010      POP      {R4,LR}
   \   00000024   0x.... 0x....      B.W      CPU_SR_Restore
    121          	}
    122          }
   \                     ??S32K14x_Wdt_Feed_0: (+1)
   \   00000028   0xBD10             POP      {R4,PC}          ;; return
    123          
    124          /** >>>>>>>>>>>>>>>>>>>>>>>>>>>>>>>>>>>>>>>>>>>>>>>>>>>>>>>>>>>>>>>>>>>>>>>>>>>>>>>>>>>>>>>>>>>>>>>>>>>>>>>>>>>>>>>>>>>>>>> **/

   \                                 In section .text, align 2, keep-with-next
    125          static void	S32K14x_Wdt_RstCpu ( void )
    126          {
   \                     S32K14x_Wdt_RstCpu: (+1)
   \   00000000   0xB580             PUSH     {R7,LR}
    127              /* pet extern dog than set a system reset */
    128          extern  void  __iar_program_start(void);	//lint -e830 -e526
    129          
    130          	S32K14x_Wdt_Feed();	/* pet watch dog */
   \   00000002   0x.... 0x....      BL       S32K14x_Wdt_Feed
    131          	
    132            	NVIC_SystemReset();
   \   00000006   0x.... 0x....      BL       NVIC_SystemReset
    133          	__iar_program_start();
   \   0000000A   0x.... 0x....      BL       __iar_program_start
    134              for ( ;; );	//lint !e722
   \                     ??S32K14x_Wdt_RstCpu_0: (+1)
   \   0000000E   0xE7FE             B.N      ??S32K14x_Wdt_RstCpu_0
    135          }

   \                                 In section .text, align 4, keep-with-next
   \                     ??DataTable4:
   \   00000000   0xE000ED0C         DC32     0xe000ed0c

   \                                 In section .text, align 4, keep-with-next
   \                     ??DataTable4_1:
   \   00000000   0x05FA0004         DC32     0x5fa0004

   \                                 In section .text, align 4, keep-with-next
   \                     ??DataTable4_2:
   \   00000000   0x........         DC32     mounted

   \                                 In section .text, align 4, keep-with-next
   \                     ??DataTable4_3:
   \   00000000   0x40052000         DC32     0x40052000

   \                                 In section .text, align 4, keep-with-next
   \                     ??DataTable4_4:
   \   00000000   0xD928C520         DC32     0xd928c520

   \                                 In section .text, align 4, keep-with-next
   \                     ??DataTable4_5:
   \   00000000   0xB480A602         DC32     0xb480a602

   \                                 In section .text, align 4, keep-with-next
   \                     ??DataTable4_6:
   \   00000000   0x40052004         DC32     0x40052004
    136          
    137          
    138          
    139          

   Maximum stack usage in bytes:

   .cstack Function
   ------- --------
       0   HalS32K14x_Wdt_GetApi
       0   HalS32K14x_Wdt_Mount
       0   NVIC_SystemReset
       8   S32K14x_Wdt_Feed
         0   -> CPU_SR_Restore
         8   -> CPU_SR_Save
         8   -> CpuTs_IntDisMeasStart
         8   -> CpuTs_IntDisMeasStop
       8   S32K14x_Wdt_Init
         0   -> CPU_SR_Restore
         8   -> CPU_SR_Save
         8   -> CpuTs_IntDisMeasStart
         8   -> CpuTs_IntDisMeasStop
       8   S32K14x_Wdt_RstCpu
         8   -> NVIC_SystemReset
         8   -> S32K14x_Wdt_Feed
         8   -> __iar_program_start


   Section sizes:

   Bytes  Function/Label
   -----  --------------
       4  ??DataTable4
       4  ??DataTable4_1
       4  ??DataTable4_2
       4  ??DataTable4_3
       4  ??DataTable4_4
       4  ??DataTable4_5
       4  ??DataTable4_6
       6  HalS32K14x_Wdt_GetApi
       8  HalS32K14x_Wdt_Mount
      26  NVIC_SystemReset
      42  S32K14x_Wdt_Feed
      66  S32K14x_Wdt_Init
      16  S32K14x_Wdt_RstCpu
      12  api
       1  mounted

 
   1 byte  in section .bss
 204 bytes in section .text
 
 204 bytes of CODE memory
   1 byte  of DATA memory

Errors: none
Warnings: none
