###############################################################################
#
# IAR ANSI C/C++ Compiler V7.70.1.11437/W32 for ARM       17/Oct/2019  14:23:53
# Copyright 1999-2016 IAR Systems AB.
#
#    Cpu mode     =  thumb
#    Endian       =  little
#    Source file  =  hal/hal_c/hal_int.c
#    Command line =  
#        hal/hal_c/hal_int.c -DCPU_S32K14x -D__FPU_PRESENT=1 -D__APP_
#        -DSW_VERSION=1000u -I../sys/ewarm_/ew_inc -Icmsis_os
#        -Icmsis_os/Freertos -Icmsis_os/Freertos/include
#        -Icmsis_os/Freertos/portable/IAR/ARM_CM4F
#        -Icmsis_os/Freertos/portable/MemMang -Ihal -IHal/cfg -Ihal/cpu_core
#        -IHal/cpu_core/ARM-Cortex-M4/IAR -Ihal/cpu_core/CMSIS/Include
#        -Ihal/cpu_core/s32k14x -IHal/ext_dev -IHal/hal_c -IHal/os -IHal/hw
#        -IApp -IApp/eep -IApp/flash -IApp/pwrctrl -IApp/version -IApp/diag
#        -IApp/cfg -IApp/cfg/gen_code -IApp/monitor -IApp/tp_iic -IApp/host_iic
#        -IApp/cf_test -IApp/eeprom/gen_code -IApp/boot -IApp/power_mana -Ibsp
#        -Ibsp/gpio -Ibsp/cpu_ts -Ibsp/bat_mana -Ibsp/panel -Ibsp/temperate
#        -Ibsp/backlight -Ibsp/dev_pwr -Iservice -Iobj -Itrace/server -Itrace
#        -Itrace/cfg -Itrace/trace_phy --cpu=Cortex-M4F -e --thumb
#        --char_is_unsigned --endian=little --diag_suppress=pa050 --silent
#        --fpu=VFPv4_sp -D__CHECK_DEVICE_DEFINES --debug --vla -Om -o
#        obj/hal_int.o --dependencies=m obj/hal_int.dep -l obj/hal_int.lst
#    Locale       =  Chinese (Simplified)_People's Republic of China.936
#    List file    =  obj/hal_int.lst
#    Object file  =  obj/hal_int.o
#
###############################################################################

C:\A26\GAC_NE_DS_A26_2019_27632_DevEng_Workspace\src_app\hal\hal_c\hal_int.c
      1          
      2          /*
      3          *********************************************************************************************************
      4          *                                             INCLUDE FILES
      5          *********************************************************************************************************
      6          */
      7          #include "std_type.h"
      8          #include "std_lib.h"

   \                                 In section .text, align 2, keep-with-next
   \   static __interwork __softfp void NVIC_EnableIRQ(IRQn_Type)
   \                     NVIC_EnableIRQ: (+1)
   \   00000000   0x2101             MOVS     R1,#+1
   \   00000002   0xF000 0x021F      AND      R2,R0,#0x1F
   \   00000006   0x4091             LSLS     R1,R1,R2
   \   00000008   0x....             LDR.N    R2,??DataTable4  ;; 0xe000e100
   \   0000000A   0x0940             LSRS     R0,R0,#+5
   \   0000000C   0xF842 0x1020      STR      R1,[R2, R0, LSL #+2]
   \   00000010   0x4770             BX       LR               ;; return

   \                                 In section .text, align 2, keep-with-next
   \   static __interwork __softfp void NVIC_DisableIRQ(IRQn_Type)
   \                     NVIC_DisableIRQ: (+1)
   \   00000000   0x2101             MOVS     R1,#+1
   \   00000002   0xF000 0x021F      AND      R2,R0,#0x1F
   \   00000006   0x4091             LSLS     R1,R1,R2
   \   00000008   0x....             LDR.N    R2,??DataTable4_1  ;; 0xe000e180
   \   0000000A   0x0940             LSRS     R0,R0,#+5
   \   0000000C   0xF842 0x1020      STR      R1,[R2, R0, LSL #+2]
   \   00000010   0x4770             BX       LR               ;; return

   \                                 In section .text, align 2, keep-with-next
   \   static __interwork __softfp void NVIC_SetPriority(IRQn_Type, uint32_t)
   \                     NVIC_SetPriority: (+1)
   \   00000000   0x0109             LSLS     R1,R1,#+4
   \   00000002   0x2800             CMP      R0,#+0
   \   00000004   0xD506             BPL.N    ??NVIC_SetPriority_0
   \   00000006   0x....             LDR.N    R2,??DataTable4_2  ;; 0xe000ed18
   \   00000008   0xF000 0x000F      AND      R0,R0,#0xF
   \   0000000C   0x4410             ADD      R0,R2,R0
   \   0000000E   0xF800 0x1C04      STRB     R1,[R0, #-4]
   \   00000012   0x4770             BX       LR
   \                     ??NVIC_SetPriority_0: (+1)
   \   00000014   0x....             LDR.N    R2,??DataTable4_3  ;; 0xe000e400
   \   00000016   0x5411             STRB     R1,[R2, R0]
   \   00000018   0x4770             BX       LR               ;; return
      9          #include "cpu.h"
     10          #include "hal_int.h"
     11          #include "trace_api.h"
     12          //lint -e734
     13          /*
     14          *********************************************************************************************************
     15          *                                            LOCAL DEFINES
     16          *********************************************************************************************************
     17          */
     18          #define		INT_MEASURE_OCCURED_EN	(TRUE) 
     19          
     20          #if LOG_ENABLE == 0
     21          #undef 	INT_MEASURE_OCCURED_EN
     22          #define INT_MEASURE_OCCURED_EN FALSE
     23          #endif
     24          
     25          /*
     26          *********************************************************************************************************
     27          *                                           LOCAL CONSTANTS
     28          *********************************************************************************************************
     29          */
     30          
     31          
     32          /*
     33          *********************************************************************************************************
     34          *                                          LOCAL DATA TYPES
     35          *********************************************************************************************************
     36          */
     37          
     38          
     39          /*
     40          *********************************************************************************************************
     41          *                                            LOCAL TABLES
     42          *********************************************************************************************************
     43          */
     44          

   \                                 In section .bss, align 4
     45          static  CPU_FNCT_VOID  Hal_IntVectTbl[HAL_INT_ID_MAX];
   \                     Hal_IntVectTbl:
   \   00000000                      DS8 588
     46          
     47          
     48          /*
     49          *********************************************************************************************************
     50          *                                       LOCAL GLOBAL VARIABLES
     51          *********************************************************************************************************
     52          */
     53          #if INT_MEASURE_OCCURED_EN
     54          static uint8_t  tick_cnt;
     55          static uint16_t tick_1s;
     56          static uint32_t cpu_int_cnt[10];
     57          #endif
     58          //static uint32_t	cpu_int_cnt_per_1s;
     59          /*
     60          *********************************************************************************************************
     61          *                                      LOCAL FUNCTION PROTOTYPES
     62          *********************************************************************************************************
     63          */
     64          
     65          static  void  HalInt_HandlerDummy(void);
     66          
     67          
     68          /*
     69          *********************************************************************************************************
     70          *                                     LOCAL CONFIGURATION ERRORS
     71          *********************************************************************************************************
     72          */
     73          
     74          
     75          /*
     76          *********************************************************************************************************
     77          *                                              BSP_IntClr()
     78          *
     79          * Description : Clear interrupt.
     80          *
     81          * Argument(s) : int_id      Interrupt to clear.
     82          *
     83          * Return(s)   : none.
     84          *
     85          * Caller(s)   : Application.
     86          *
     87          * Note(s)     : (1) An interrupt does not need to be cleared within the interrupt controller.
     88          *********************************************************************************************************
     89          */
     90          

   \                                 In section .text, align 2, keep-with-next
     91          void  HalInt_Clr ( uint8  int_id)
     92          {
     93          	if ( int_id < HAL_INT_ID_MAX )
   \                     HalInt_Clr: (+1)
   \   00000000   0x2893             CMP      R0,#+147
   \   00000002   0xDA02             BGE.N    ??HalInt_Clr_0
     94          	{
     95                  HalInt_VectSet(int_id, HalInt_HandlerDummy);
   \   00000004   0x.... 0x....      ADR.W    R1,HalInt_HandlerDummy
   \   00000008   0x....             B.N      HalInt_VectSet
     96          	}
     97          }
   \                     ??HalInt_Clr_0: (+1)
   \   0000000A   0x4770             BX       LR               ;; return
     98          
     99          
    100          /*
    101          *********************************************************************************************************
    102          *                                              BSP_IntDis()
    103          *
    104          * Description : Disable interrupt.
    105          *
    106          * Argument(s) : int_id      Interrupt to disable.
    107          *
    108          * Return(s)   : none.
    109          *
    110          * Caller(s)   : Application.
    111          *
    112          * Note(s)     : none.
    113          *********************************************************************************************************
    114          */
    115          

   \                                 In section .text, align 2, keep-with-next
    116          void HalInt_Dis ( uint8  int_id)
    117          {
    118              if ( int_id < HAL_INT_ID_MAX ) {
   \                     HalInt_Dis: (+1)
   \   00000000   0x2893             CMP      R0,#+147
   \   00000002   0xDA00             BGE.N    ??HalInt_Dis_0
    119              	NVIC_DisableIRQ((IRQn_Type)int_id);
   \   00000004   0x....             B.N      NVIC_DisableIRQ
    120                  //CPU_IntSrcDis(int_id);
    121              }
    122          }
   \                     ??HalInt_Dis_0: (+1)
   \   00000006   0x4770             BX       LR               ;; return
    123          
    124          
    125          /*
    126          *********************************************************************************************************
    127          *                                           BSP_IntDisAll()
    128          *
    129          * Description : Disable ALL interrupts.
    130          *
    131          * Argument(s) : none.
    132          *
    133          * Return(s)   : none.
    134          *
    135          * Caller(s)   : Application.
    136          *
    137          * Note(s)     : none.
    138          *********************************************************************************************************
    139          */
    140          

   \                                 In section .text, align 2, keep-with-next
    141          void  HalInt_DisAll (void)
    142          {
    143              CPU_IntDis();
   \                     HalInt_DisAll: (+1)
   \   00000000   0x.... 0x....      B.W      CPU_IntDis
    144          }
    145          
    146          
    147          /*
    148          *********************************************************************************************************
    149          *                                               BSP_IntEn()
    150          *
    151          * Description : Enable interrupt.
    152          *
    153          * Argument(s) : int_id      Interrupt to enable.
    154          *
    155          * Return(s)   : none.
    156          *
    157          * Caller(s)   : Application.
    158          *
    159          * Note(s)     : none.
    160          *********************************************************************************************************
    161          */
    162          

   \                                 In section .text, align 2, keep-with-next
    163          void  HalInt_En ( uint8  int_id)
    164          {
    165              if ( int_id < HAL_INT_ID_MAX ) {
   \                     HalInt_En: (+1)
   \   00000000   0x2893             CMP      R0,#+147
   \   00000002   0xDA00             BGE.N    ??HalInt_En_0
    166              	NVIC_EnableIRQ((IRQn_Type)int_id);
   \   00000004   0x....             B.N      NVIC_EnableIRQ
    167                  //CPU_IntSrcEn(int_id + 16);
    168              }
    169          }
   \                     ??HalInt_En_0: (+1)
   \   00000006   0x4770             BX       LR               ;; return
    170          
    171          
    172          /*
    173          *********************************************************************************************************
    174          *                                            Hal_IntVectSet()
    175          *
    176          * Description : Assign ISR handler.
    177          *
    178          * Argument(s) : int_id      Interrupt for which vector will be set.
    179          *
    180          *               isr         Handler to assign
    181          *
    182          * Return(s)   : none.
    183          *
    184          * Caller(s)   : Application.
    185          *
    186          * Note(s)     : none.
    187          *********************************************************************************************************
    188          */
    189          

   \                                 In section .text, align 2, keep-with-next
    190          void  HalInt_VectSet (uint8       int_id,
    191                                CPU_FNCT_VOID  isr)
    192          {
    193              if (int_id < HAL_INT_ID_MAX) {
   \                     HalInt_VectSet: (+1)
   \   00000000   0x2893             CMP      R0,#+147
   \   00000002   0xDA02             BGE.N    ??HalInt_VectSet_0
    194                  Hal_IntVectTbl[int_id] = isr;
   \   00000004   0x....             LDR.N    R2,??DataTable4_4
   \   00000006   0xF842 0x1020      STR      R1,[R2, R0, LSL #+2]
    195              }
    196          }
   \                     ??HalInt_VectSet_0: (+1)
   \   0000000A   0x4770             BX       LR               ;; return
    197          
    198          
    199          /*
    200          *********************************************************************************************************
    201          *                                            BSP_IntPrioSet()
    202          *
    203          * Description : Assign ISR priority.
    204          *
    205          * Argument(s) : int_id      Interrupt for which vector will be set.
    206          *
    207          *               prio        Priority to assign
    208          *
    209          * Return(s)   : none.
    210          *
    211          * Caller(s)   : Application.
    212          *
    213          * Note(s)     : none.
    214          *********************************************************************************************************
    215          */
    216          

   \                                 In section .text, align 2, keep-with-next
    217          void  HalInt_PrioSet ( int16_t int_id, uint32_t  prio )
    218          {
    219              if ( int_id < HAL_INT_ID_MAX && int_id>=-16 ) {
   \                     HalInt_PrioSet: (+1)
   \   00000000   0xF100 0x0210      ADD      R2,R0,#+16
   \   00000004   0x2AA3             CMP      R2,#+163
   \   00000006   0xD200             BCS.N    ??HalInt_PrioSet_0
    220                  NVIC_SetPriority((IRQn_Type)int_id,prio);
   \   00000008   0x....             B.N      NVIC_SetPriority
    221              }
    222          }
   \                     ??HalInt_PrioSet_0: (+1)
   \   0000000A   0x4770             BX       LR               ;; return
    223          
    224          
    225          /*
    226          *********************************************************************************************************
    227          *********************************************************************************************************
    228          *                                           INTERNAL FUNCTIONS
    229          *********************************************************************************************************
    230          *********************************************************************************************************
    231          */
    232          
    233          /*
    234          *********************************************************************************************************
    235          *                                              BSP_IntInit()
    236          *
    237          * Description : Initialize interrupts:
    238          *
    239          * Argument(s) : none.
    240          *
    241          * Return(s)   : none.
    242          *
    243          * Caller(s)   : BSP_InitHp().
    244          *
    245          * Note(s)     : none.
    246          *********************************************************************************************************
    247          */
    248          

   \                                 In section .text, align 2, keep-with-next
    249          void  HalInt_Init (void)
    250          {
   \                     HalInt_Init: (+1)
   \   00000000   0xB510             PUSH     {R4,LR}
    251              uint8_t  int_id;
    252          
    253              for (int_id = 0; int_id < HAL_INT_ID_MAX; int_id++) {
   \   00000002   0x2400             MOVS     R4,#+0
   \   00000004   0xE009             B.N      ??HalInt_Init_0
    254                  HalInt_VectSet(int_id, HalInt_HandlerDummy);
   \                     ??HalInt_Init_1: (+1)
   \   00000006   0x.... 0x....      ADR.W    R1,HalInt_HandlerDummy
   \   0000000A   0x4620             MOV      R0,R4
   \   0000000C   0x.... 0x....      BL       HalInt_VectSet
    255                  HalInt_PrioSet(int_id,15);
   \   00000010   0x210F             MOVS     R1,#+15
   \   00000012   0x4620             MOV      R0,R4
   \   00000014   0x.... 0x....      BL       HalInt_PrioSet
    256              }
   \   00000018   0x1C64             ADDS     R4,R4,#+1
   \                     ??HalInt_Init_0: (+1)
   \   0000001A   0x2C93             CMP      R4,#+147
   \   0000001C   0xDBF3             BLT.N    ??HalInt_Init_1
    257          
    258          	HalInt_PrioSet(PendSV_IRQn,15);				/**< Cortex-M4 Pend SV Interrupt */
   \   0000001E   0x210F             MOVS     R1,#+15
   \   00000020   0xF06F 0x0001      MVN      R0,#+1
   \   00000024   0x.... 0x....      BL       HalInt_PrioSet
    259          	HalInt_PrioSet(SysTick_IRQn,15);			/**< Cortex-M4 System Tick Interrupt */
   \   00000028   0x210F             MOVS     R1,#+15
   \   0000002A   0xF04F 0x30FF      MOV      R0,#-1
   \   0000002E   0xE8BD 0x4010      POP      {R4,LR}
   \   00000032   0x....             B.N      HalInt_PrioSet
    260          }
    261          
    262          
    263          /*
    264          *********************************************************************************************************
    265          *                                          HalInt_Handler()
    266          *
    267          * Description : Central interrupt handler.
    268          *
    269          * Argument(s) : int_id          Interrupt that will be handled.
    270          *
    271          * Return(s)   : none.
    272          *
    273          * Caller(s)   : ISR handlers.
    274          *
    275          * Note(s)     : none.
    276          *********************************************************************************************************
    277          */
    278          

   \                                 In section .text, align 2, keep-with-next
    279          void  HalInt_Handler (uint8_t  int_id)
    280          {
    281              CPU_FNCT_VOID  isr;
    282              
    283          #if INT_MEASURE_OCCURED_EN
    284          	cpu_int_cnt[9]++;
    285          #endif
    286          
    287              if (int_id < HAL_INT_ID_MAX) {
   \                     HalInt_Handler: (+1)
   \   00000000   0x2893             CMP      R0,#+147
   \   00000002   0xDA05             BGE.N    ??HalInt_Handler_0
    288                  isr = Hal_IntVectTbl[int_id];
   \   00000004   0x....             LDR.N    R1,??DataTable4_4
   \   00000006   0xF851 0x0020      LDR      R0,[R1, R0, LSL #+2]
    289                  if (isr != (CPU_FNCT_VOID)0) {
   \   0000000A   0x0001             MOVS     R1,R0
   \   0000000C   0xD000             BEQ.N    ??HalInt_Handler_0
    290                      isr();
   \   0000000E   0x4700             BX       R0
    291                  }
    292              }
    293          }
   \                     ??HalInt_Handler_0: (+1)
   \   00000010   0x4770             BX       LR               ;; return
    294          
    295          

   \                                 In section .text, align 2, keep-with-next
    296          void	PendSVHandler_Occure(void)
    297          {
    298          #if INT_MEASURE_OCCURED_EN
    299          	cpu_int_cnt[9]++;
    300          #endif	
    301          }
   \                     PendSVHandler_Occure: (+1)
   \   00000000   0x4770             BX       LR               ;; return
    302          

   \                                 In section .text, align 2, keep-with-next
    303          void	SysTickHandler_Occure(void)
    304          {
    305          #if INT_MEASURE_OCCURED_EN
    306          
    307          	if ( MOD_HW_Lvl >= LOG_IO )
    308          	{
    309          		cpu_int_cnt[9] ++;
    310          
    311          		tick_1s ++;
    312          		tick_cnt ++;
    313          		if ( tick_cnt > 99 )
    314          		{
    315          			tick_cnt 		= 0x00;
    316          
    317          			if ( tick_1s > 999 )
    318          			{
    319          				tick_1s -= 1000;
    320          				uint32_t int_cnt = cpu_int_cnt[0] + cpu_int_cnt[1] + cpu_int_cnt[2] + cpu_int_cnt[3] 
    321          								+  cpu_int_cnt[4] + cpu_int_cnt[5] + cpu_int_cnt[6] + cpu_int_cnt[7] 
    322          								+  cpu_int_cnt[8] + cpu_int_cnt[9];
    323          				TRACE_VALUE(LOG_IO, MOD_HW, "interrupt occured %d times every 1 second", int_cnt);
    324          			}
    325          			//TRACE_VALUE(LOG_RAW, MOD_HW,"interrupt occured %d times at last 100ms", cpu_int_cnt[9]);
    326          			
    327          			cpu_int_cnt[0]	=	cpu_int_cnt[1];
    328          			cpu_int_cnt[1]	=	cpu_int_cnt[2];
    329          			cpu_int_cnt[2]	=	cpu_int_cnt[3];
    330          			cpu_int_cnt[3]	=	cpu_int_cnt[4];
    331          			cpu_int_cnt[4]	=	cpu_int_cnt[5];
    332          			cpu_int_cnt[5]	=	cpu_int_cnt[6];
    333          			cpu_int_cnt[6]	=	cpu_int_cnt[7];
    334          			cpu_int_cnt[7]	=	cpu_int_cnt[8];
    335          			cpu_int_cnt[8]	=	cpu_int_cnt[9];
    336          			cpu_int_cnt[9] 	= 	0x00;	
    337          		}	
    338          	}
    339          #endif	
    340          }
   \                     SysTickHandler_Occure: (+1)
   \   00000000   0x4770             BX       LR               ;; return
    341          /*
    342          *********************************************************************************************************
    343          *********************************************************************************************************
    344          *                                           LOCAL FUNCTIONS
    345          *********************************************************************************************************
    346          *********************************************************************************************************
    347          */
    348          
    349          
    350          
    351          
    352          /*
    353          *********************************************************************************************************
    354          *                                        HalInt_HandlerDummy()
    355          *
    356          * Description : Dummy interrupt handler.
    357          *
    358          * Argument(s) : none.
    359          *
    360          * Return(s)   : none.
    361          *
    362          * Caller(s)   : HalInt_Handler().
    363          *
    364          * Note(s)     : none.
    365          *********************************************************************************************************
    366          */
    367          

   \                                 In section .text, align 4, keep-with-next
    368          static  void  HalInt_HandlerDummy (void)
    369          {
    370          
    371          }
   \                     HalInt_HandlerDummy: (+1)
   \   00000000   0x4770             BX       LR               ;; return

   \                                 In section .text, align 4, keep-with-next
   \                     ??DataTable4:
   \   00000000   0xE000E100         DC32     0xe000e100

   \                                 In section .text, align 4, keep-with-next
   \                     ??DataTable4_1:
   \   00000000   0xE000E180         DC32     0xe000e180

   \                                 In section .text, align 4, keep-with-next
   \                     ??DataTable4_2:
   \   00000000   0xE000ED18         DC32     0xe000ed18

   \                                 In section .text, align 4, keep-with-next
   \                     ??DataTable4_3:
   \   00000000   0xE000E400         DC32     0xe000e400

   \                                 In section .text, align 4, keep-with-next
   \                     ??DataTable4_4:
   \   00000000   0x........         DC32     Hal_IntVectTbl
    372          

   Maximum stack usage in bytes:

   .cstack Function
   ------- --------
       0   HalInt_Clr
         0   -> HalInt_VectSet
       0   HalInt_Dis
         0   -> NVIC_DisableIRQ
       0   HalInt_DisAll
         0   -> CPU_IntDis
       0   HalInt_En
         0   -> NVIC_EnableIRQ
       0   HalInt_Handler
         0   -- Indirect call
       0   HalInt_HandlerDummy
       8   HalInt_Init
         0   -> HalInt_PrioSet
         8   -> HalInt_PrioSet
         8   -> HalInt_VectSet
       0   HalInt_PrioSet
         0   -> NVIC_SetPriority
       0   HalInt_VectSet
       0   NVIC_DisableIRQ
       0   NVIC_EnableIRQ
       0   NVIC_SetPriority
       0   PendSVHandler_Occure
       0   SysTickHandler_Occure


   Section sizes:

   Bytes  Function/Label
   -----  --------------
       4  ??DataTable4
       4  ??DataTable4_1
       4  ??DataTable4_2
       4  ??DataTable4_3
       4  ??DataTable4_4
      12  HalInt_Clr
       8  HalInt_Dis
       4  HalInt_DisAll
       8  HalInt_En
      18  HalInt_Handler
       2  HalInt_HandlerDummy
      52  HalInt_Init
      12  HalInt_PrioSet
      12  HalInt_VectSet
     588  Hal_IntVectTbl
      18  NVIC_DisableIRQ
      18  NVIC_EnableIRQ
      26  NVIC_SetPriority
       2  PendSVHandler_Occure
       2  SysTickHandler_Occure

 
 588 bytes in section .bss
 214 bytes in section .text
 
 214 bytes of CODE memory
 588 bytes of DATA memory

Errors: none
Warnings: none
