###############################################################################
#
# IAR ANSI C/C++ Compiler V7.70.1.11437/W32 for ARM       17/Oct/2019  14:24:22
# Copyright 1999-2016 IAR Systems AB.
#
#    Cpu mode     =  thumb
#    Endian       =  little
#    Source file  =  App/main.c
#    Command line =  
#        App/main.c -DCPU_S32K14x -D__FPU_PRESENT=1 -D__APP_ -DSW_VERSION=1000u
#        -I../sys/ewarm_/ew_inc -Icmsis_os -Icmsis_os/Freertos
#        -Icmsis_os/Freertos/include -Icmsis_os/Freertos/portable/IAR/ARM_CM4F
#        -Icmsis_os/Freertos/portable/MemMang -Ihal -IHal/cfg -Ihal/cpu_core
#        -IHal/cpu_core/ARM-Cortex-M4/IAR -Ihal/cpu_core/CMSIS/Include
#        -Ihal/cpu_core/s32k14x -IHal/ext_dev -IHal/hal_c -IHal/os -IHal/hw
#        -IApp -IApp/eep -IApp/flash -IApp/pwrctrl -IApp/version -IApp/diag
#        -IApp/cfg -IApp/cfg/gen_code -IApp/monitor -IApp/tp_iic -IApp/host_iic
#        -IApp/cf_test -IApp/eeprom/gen_code -IApp/boot -IApp/power_mana -Ibsp
#        -Ibsp/gpio -Ibsp/cpu_ts -Ibsp/bat_mana -Ibsp/panel -Ibsp/temperate
#        -Ibsp/backlight -Ibsp/dev_pwr -Iservice -Iobj -Itrace/server -Itrace
#        -Itrace/cfg -Itrace/trace_phy --cpu=Cortex-M4F -e --thumb
#        --char_is_unsigned --endian=little --diag_suppress=pa050 --silent
#        --fpu=VFPv4_sp -D__CHECK_DEVICE_DEFINES --debug --vla -Om -o
#        obj/main.o --dependencies=m obj/main.dep -l obj/main.lst
#    Locale       =  Chinese (Simplified)_People's Republic of China.936
#    List file    =  obj/main.lst
#    Object file  =  obj/main.o
#
###############################################################################

C:\A26\GAC_NE_DS_A26_2019_27632_DevEng_Workspace\src_app\App\main.c
      1          
      2          /* Standard includes. */
      3          #include "std_type.h"
      4          #include "cmsis_os.h"
      5          #include "serv.h"
      6          
      7          #include "hal_hw.h"
      8          
      9          #include "hal_clk.h"
     10          #include "hal_rtc.h"
     11          
     12          #include "hal_uart.h"
     13          #include "hal_gpio.h"
     14          
     15          //#include "hal_key.h"
     16          //#include "matric_key.h"
     17          //#include "eeprom.h"
     18          
     19          #include "board_hw.h"
     20          
     21          #include "std_lib.h"
     22          
     23          #include "hal_int.h"
     24          #include "hal_adc.h"
     25          #include "bsp_gpio.h"
     26          //#include "bsp_audio.h"
     27          //#include "bsp_serdes.h"
     28          #include "map_mana.h"
     29          #include "bat_mana.h"
     30          #include "temperate.h"
     31          //#include "panel.h"
     32          //#include "swc.h"
     33          //#include "dvr.h"
     34          #include "dev_pwr.h"
     35          // #include "dev_ipc.h"
     36          //#include "cf_kernel.h"
     37          #include "trace_api.h"
     38          #include "diag.h"
     39          //#include "Trace_Handler.h"
     40          
     41          #include "gen_eep_mana.h"
     42          #include "bsp_misc.h"
     43          #include "log_cmd.h"
     44          #include "backlight.h"
     45          #include "ver_info.h"
     46          //#include "ap_state.h"
     47          // MDL
     48          //#include "MDL_OBC_Sys.h"
     49          //#include "MDL_ODO_Sys.h"
     50          //#include "MDL_Speed_Sys.h"
     51          //#include "MDL_Fuel_Sys.h"
     52          //#include "MDL_Tacho_Sys.h"
     53          //#include "MDL_Temperature_Sys.h"
     54          //#include "MDL_GearBox_Sys.h"
     55          //#include "MDL_TestTask_Sys.h"
     56          //#include "MDL_Drive_Sys.h"
     57          //#include "MDL_IdleStop_Sys.h"
     58          //#include "MDL_ECO_Sys.h"
     59          //#include "MDL_ANA_Sys.h"
     60          //#include "MDL_FuelCan_Sys.h"
     61          //#include "Buzzer.h"
     62          //#include "MeterOutput.h"
     63          //#include "MeterWarning.h"
     64          //#include "MeterHMI.h"
     65          //
     66          //#include "CanTask.h"
     67          //
     68          //#include "meter_speed.h"
     69          //#include "meter_odo.h"
     70          //#include "meter_temperature.h"
     71          //#include "meter_at_position.h"
     72          //#include "meter_obc.h"
     73          //#include "meter_tacho.h"
     74          //#include "meter_fuel.h"
     75          //#include "meter_dte.h"
     76          //#include "GSI_model.h"
     77          //
     78          //#include "ComRTE.h"
     79          #include "power_mode.h"
     80          #include "ver_info.h"
     81          //#include "power.h"
     82          #include "monitor.h"
     83          #include "panel.h"
     84          #include "tp_iic.h"
     85          #include "host_iic.h"
     86          #include "bootloader.h"
     87          /** >>>>>>>>>>>>>>>>>>>>>>>>>>>>>>>>>>>>>>>>>>>>>>>>>>>>>>>>>>>>>>>>>>>>>>>>>>>>>>>>>>>>>>>>>>>>>>>>>>>>>>>>>>>>>>>>>>>>>>> **/
     88          
     89          /** >>>>>>>>>>>>>>>>>>>>>>>>>>>>>>>>>>>>>>>>>>>>>>>>>>>>>>>>>>>>>>>>>>>>>>>>>>>>>>>>>>>>>>>>>>>>>>>>>>>>>>>>>>>>>>>>>>>>>>> **/
     90          /* for system event service 	*/
     91          //static  uint8	mp_50ms_cnt;

   \                                 In section .bss, align 4
     92          static	uint8	tick_cnt_2ms;
   \                     tick_cnt_2ms:
   \   00000000                      DS8 1
   \   00000001                      DS8 1
   \   00000002                      DS8 2
   \   00000004                      DS8 2
   \   00000006                      DS8 2
   \   00000008                      DS8 2
   \   0000000A                      DS8 2
   \   0000000C                      DS8 4
   \   00000010                      DS8 64
     93          static	uint16	tick_cnt_500ms;
     94          
     95          static	uint16	s_u2_cpuTickCnt;
     96          static	uint16	s_u2_cpuLoadCnt;
     97          static	uint16	s_u2_cpuLoadPerSession;
     98          
     99          //static 	SERV_WDT *	app_wdt;
    100          
    101          static	SERV_EVENT	*sys_evt;
    102          static	uint8		sys_evt_cod_e_buf[64];
    103          
    104          static 	boolean	eep_initial_compl;
    105          
    106          /** >>>>>>>>>>>>>>>>>>>>>>>>>>>>>>>>>>>>>>>>>>>>>>>>>>>>>>>>>>>>>>>>>>>>>>>>>>>>>>>>>>>>>>>>>>>>>>>>>>>>>>>>>>>>>>>>>>>>>>> **/
    107          static	void	CalcCpuLoad ( void );
    108          //static  void 	Sys500ms_Callback(void);
    109          
    110          static  void 	AppTaskStart(void const *argument);

   \                                 In section .text, align 4, keep-with-next
    111          static osThreadDef(AppStart, 	AppTaskStart, osPriorityHigh, 0, 192);
   \                     os_thread_def_AppStart:
   \   00000000   0x........         DC32 ?_0, AppTaskStart
   \              0x........   
   \   00000008   0x0002             DC16 2
   \   0000000A   0x00 0x00          DC8 0, 0
   \   0000000C   0x00000000         DC32 0, 192
   \              0x000000C0   
    112          static void		AppWriteResetInfo(void);
    113          
    114          #if LOG_ENABLE    
    115          /* for trace task	*/
    116          static osThreadDef(TraceServ, 	Task_Trace,   osPriorityNormal, 0, 192);
    117          #endif
    118          #if DIAG_ENABLE    
    119          /* for diagnostic task	*/

   \                                 In section .text, align 4, keep-with-next
    120          static osThreadDef(DiagServ, 	Task_Diag,   osPriorityNormal, 0, 192);
   \                     os_thread_def_DiagServ:
   \   00000000   0x........         DC32 ?_1, Task_Diag
   \              0x........   
   \   00000008   0x0000             DC16 0
   \   0000000A   0x00 0x00          DC8 0, 0
   \   0000000C   0x00000000         DC32 0, 192
   \              0x000000C0   
    121          #endif
    122          //osThreadDef(TraceServ, 	Task_Trace,   osPriorityAboveNormal, 0, 192);
    123          //static void	OsStatusMonitor(void);
    124          
    125          /** >>>>>>>>>>>>>>>>>>>>>>>>>>>>>>>>>>>>>>>>>>>>>>>>>>>>>>>>>>>>>>>>>>>>>>>>>>>>>>>>>>>>>>>>>>>>>>>>>>>>>>>>>>>>>>>>>>>>>>> **/
    126          
    127          
    128          
    129          /** >>>>>>>>>>>>>>>>>>>>>>>>>>>>>>>>>>>>>>>>>>>>>>>>>>>>>>>>>>>>>>>>>>>>>>>>>>>>>>>>>>>>>>>>>>>>>>>>>>>>>>>>>>>>>>>>>>>>>>> **/

   \                                 In section .text, align 2, keep-with-next
    130          void vApplicationTickHook( void )
    131          {	
   \                     vApplicationTickHook: (+1)
   \   00000000   0xB510             PUSH     {R4,LR}
    132          	/* system 1ms tick */
    133          	MapMana_1msFunc();
   \   00000002   0x.... 0x....      BL       MapMana_1msFunc
    134          
    135          	
    136          	POWER_MODE power_mode = PwrCtrl_GetPwrMode();
    137          	if ( power_mode == POWER_MODE_HIGH )
    138          	{
    139          		tick_cnt_2ms++;
   \   00000006   0x....             LDR.N    R4,??DataTable11
   \   00000008   0x7820             LDRB     R0,[R4, #+0]
   \   0000000A   0x1C40             ADDS     R0,R0,#+1
   \   0000000C   0x7020             STRB     R0,[R4, #+0]
    140          		if (tick_cnt_2ms >= (configTICK_RATE_HZ / SERV_TM_TICK_PER_SEC)) 
   \   0000000E   0xB2C0             UXTB     R0,R0
   \   00000010   0x2802             CMP      R0,#+2
   \   00000012   0xD308             BCC.N    ??vApplicationTickHook_0
    141          		{
    142          			/* send system 10ms event */
    143          			if ( ServEvt_Post(sys_evt, EVENT_SYSTEM_2MS_TIMER) )
   \   00000014   0x2101             MOVS     R1,#+1
   \   00000016   0x68E0             LDR      R0,[R4, #+12]
   \   00000018   0x.... 0x....      BL       ServEvt_Post
   \   0000001C   0x2800             CMP      R0,#+0
   \   0000001E   0xD002             BEQ.N    ??vApplicationTickHook_0
    144          			{
    145          				tick_cnt_2ms -= (configTICK_RATE_HZ / SERV_TM_TICK_PER_SEC);
   \   00000020   0x7820             LDRB     R0,[R4, #+0]
   \   00000022   0x1E80             SUBS     R0,R0,#+2
   \   00000024   0x7020             STRB     R0,[R4, #+0]
    146          			}
    147          		}
    148          
    149          		tick_cnt_500ms++;
   \                     ??vApplicationTickHook_0: (+1)
   \   00000026   0x8860             LDRH     R0,[R4, #+2]
   \   00000028   0x1C40             ADDS     R0,R0,#+1
   \   0000002A   0x8060             STRH     R0,[R4, #+2]
    150          		if (tick_cnt_500ms >= (configTICK_RATE_HZ / SERV_500MS_TICK_PER_SEC))
   \   0000002C   0xB280             UXTH     R0,R0
   \   0000002E   0xF5B0 0x7FFA      CMP      R0,#+500
   \   00000032   0xD309             BCC.N    ??vApplicationTickHook_1
    151          		{
    152          			if(ServEvt_Post(sys_evt, EVENT_SYSTEM_REALTIME_500MS))
   \   00000034   0x2107             MOVS     R1,#+7
   \   00000036   0x68E0             LDR      R0,[R4, #+12]
   \   00000038   0x.... 0x....      BL       ServEvt_Post
   \   0000003C   0x2800             CMP      R0,#+0
   \   0000003E   0xD003             BEQ.N    ??vApplicationTickHook_1
    153          			{
    154          				tick_cnt_500ms -= (configTICK_RATE_HZ / SERV_500MS_TICK_PER_SEC);
   \   00000040   0x8860             LDRH     R0,[R4, #+2]
   \   00000042   0xF5A0 0x70FA      SUB      R0,R0,#+500
   \   00000046   0x8060             STRH     R0,[R4, #+2]
    155          			}
    156          		}
    157          		/* calc cpu load 		*/
    158          		CalcCpuLoad();
   \                     ??vApplicationTickHook_1: (+1)
   \   00000048   0x.... 0x....      BL       CalcCpuLoad
    159          		/* power control hp function */
    160          		PwrCtrl_1msHpFunc();		
    161          	}
    162          
    163          	/* adc 1ms conversion function */
    164          	HalAdc_CycleConvert();
   \   0000004C   0xE8BD 0x4010      POP      {R4,LR}
   \   00000050   0x.... 0x....      B.W      HalAdc_CycleConvert
    165          
    166          #if 0
    167          	CanTask_1msTick();
    168          #endif
    169          }
    170          
    171          /** >>>>>>>>>>>>>>>>>>>>>>>>>>>>>>>>>>>>>>>>>>>>>>>>>>>>>>>>>>>>>>>>>>>>>>>>>>>>>>>>>>>>>>>>>>>>>>>>>>>>>>>>>>>>>>>>>>>>>>> **/

   \                                 In section .text, align 2, keep-with-next
    172          void vApplicationStackOverflowHook( TaskHandle_t pxTask, char *pcTaskName )
    173          {
    174          	( void ) pcTaskName;
    175          	( void ) pxTask;
    176          
    177          	/* Run time stack overflow checking is performed if
    178          	configconfigCHECK_FOR_STACK_OVERFLOW is defined to 1 or 2.  This hook
    179          	function is called if a stack overflow is detected. */
    180          	for( ;; );	//lint !e722
   \                     vApplicationStackOverflowHook: (+1)
   \                     ??vApplicationStackOverflowHook_0: (+1)
   \   00000000   0xE7FE             B.N      ??vApplicationStackOverflowHook_0
    181          }
    182          
    183          /** >>>>>>>>>>>>>>>>>>>>>>>>>>>>>>>>>>>>>>>>>>>>>>>>>>>>>>>>>>>>>>>>>>>>>>>>>>>>>>>>>>>>>>>>>>>>>>>>>>>>>>>>>>>>>>>>>>>>>>> **/

   \                                 In section .text, align 2, keep-with-next
    184          void vApplicationMallocFailedHook( void )
    185          {
    186          	/* Called if a call to pvPortMalloc() fails because there is insufficient
    187          	free memory available in the FreeRTOS heap.  pvPortMalloc() is called
    188          	internally by FreeRTOS API functions that create tasks, queues or
    189          	semaphores. */
    190          	for( ;; );	//lint !e722
   \                     vApplicationMallocFailedHook: (+1)
   \                     ??vApplicationMallocFailedHook_0: (+1)
   \   00000000   0xE7FE             B.N      ??vApplicationMallocFailedHook_0
    191          }
    192          
    193          /** >>>>>>>>>>>>>>>>>>>>>>>>>>>>>>>>>>>>>>>>>>>>>>>>>>>>>>>>>>>>>>>>>>>>>>>>>>>>>>>>>>>>>>>>>>>>>>>>>>>>>>>>>>>>>>>>>>>>>>> **/

   \                                 In section .text, align 2, keep-with-next
    194          void vApplicationIdleHook( void )
    195          {
    196          	/* Called on each iteration of the idle task.  In this case the idle task
    197          	just enters a low(ish) power mode. */
    198          	//PWR_EnterSleepMode( PWR_Regulator_ON, PWR_SLEEPEntry_WFI );
    199          	if( eep_initial_compl ){
   \                     vApplicationIdleHook: (+1)
   \   00000000   0x....             LDR.N    R0,??DataTable11
   \   00000002   0x7840             LDRB     R0,[R0, #+1]
   \   00000004   0x2800             CMP      R0,#+0
   \   00000006   0xD001             BEQ.N    ??vApplicationIdleHook_0
    200          		EepMana_IdleTask();
   \   00000008   0x.... 0x....      B.W      EepMana_IdleTask
    201          	}
    202          	// VerInfo_MainFunc();
    203          	PwrCtrl_IdleFunc();
    204          }
   \                     ??vApplicationIdleHook_0: (+1)
   \   0000000C   0x4770             BX       LR               ;; return
    205          
    206          /** >>>>>>>>>>>>>>>>>>>>>>>>>>>>>>>>>>>>>>>>>>>>>>>>>>>>>>>>>>>>>>>>>>>>>>>>>>>>>>>>>>>>>>>>>>>>>>>>>>>>>>>>>>>>>>>>>>>>>>> **/

   \                                 In section .text, align 2, keep-with-next
    207          SERV_EVENT * Sys_GetServEvt(void)
    208          {
    209          	return sys_evt;
   \                     Sys_GetServEvt: (+1)
   \   00000000   0x....             LDR.N    R0,??DataTable11
   \   00000002   0x68C0             LDR      R0,[R0, #+12]
   \   00000004   0x4770             BX       LR               ;; return
    210          }
    211          
    212          /** >>>>>>>>>>>>>>>>>>>>>>>>>>>>>>>>>>>>>>>>>>>>>>>>>>>>>>>>>>>>>>>>>>>>>>>>>>>>>>>>>>>>>>>>>>>>>>>>>>>>>>>>>>>>>>>>>>>>>>> **/

   \                                 In section .text, align 2, keep-with-next
    213          uint8_t 	AppGet_CpuLoad(void)
    214          {
    215          	return (uint8_t)((s_u2_cpuLoadPerSession+20)/40);
   \                     AppGet_CpuLoad: (+1)
   \   00000000   0x....             LDR.N    R0,??DataTable11
   \   00000002   0x8900             LDRH     R0,[R0, #+8]
   \   00000004   0x3014             ADDS     R0,R0,#+20
   \   00000006   0x2128             MOVS     R1,#+40
   \   00000008   0xFB90 0xF0F1      SDIV     R0,R0,R1
   \   0000000C   0xB2C0             UXTB     R0,R0
   \   0000000E   0x4770             BX       LR               ;; return
    216          }
    217          
    218          /** >>>>>>>>>>>>>>>>>>>>>>>>>>>>>>>>>>>>>>>>>>>>>>>>>>>>>>>>>>>>>>>>>>>>>>>>>>>>>>>>>>>>>>>>>>>>>>>>>>>>>>>>>>>>>>>>>>>>>>> **/

   \                                 In section .text, align 2, keep-with-next
    219          void main( void )
    220          { 
   \                     main: (+1)
   \   00000000   0xB580             PUSH     {R7,LR}
    221          	/* misc initial */
    222          	BspMisc_Init();
   \   00000002   0x.... 0x....      BL       BspMisc_Init
    223          
    224          	/* CPU time stamp init					*/
    225          	CPU_TS_INIT();	
   \   00000006   0x.... 0x....      BL       CpuTs_Init
    226          	
    227          	/*Hal interrupt initial :this need to be done firstly */
    228          	HalInt_Init();
   \   0000000A   0x.... 0x....      BL       HalInt_Init
    229          	/* initial gpio */
    230          	HalGpio_Init();
   \   0000000E   0x.... 0x....      BL       HalGpio_Init
    231          	/* initial gpio first */
    232          	BspGpio_Init();
   \   00000012   0x.... 0x....      BL       BspGpio_Init
    233          
    234          	//SystemInit();
    235          	/* initial cpu clock */
    236          	HalClk_CpuClkInit();
   \   00000016   0x.... 0x....      BL       HalClk_CpuClkInit
    237          
    238          	/* map manager initial */
    239          	MapMana_Init();
   \   0000001A   0x.... 0x....      BL       MapMana_Init
    240          
    241          	(void)osKernelStart(&os_thread_def_AppStart,NULL);
   \   0000001E   0x2100             MOVS     R1,#+0
   \   00000020   0x.... 0x....      ADR.W    R0,os_thread_def_AppStart
   \   00000024   0x.... 0x....      BL       osKernelStart
    242          	/* If all is well then this line will never be reached.  If it is reached
    243          	then it is likely that there was insufficient (FreeRTOS) heap memory space
    244          	to create the idle task.  This may have been trapped by the malloc() failed
    245          	hook function, if one is configured. */
    246          	for( ;; );	//lint !e722
   \                     ??main_0: (+1)
   \   00000028   0xE7FE             B.N      ??main_0
    247          }
    248          
    249          /** >>>>>>>>>>>>>>>>>>>>>>>>>>>>>>>>>>>>>>>>>>>>>>>>>>>>>>>>>>>>>>>>>>>>>>>>>>>>>>>>>>>>>>>>>>>>>>>>>>>>>>>>>>>>>>>>>>>>>>> **/
    250          //static void * rs232_hdl;
    251          
    252          /** >>>>>>>>>>>>>>>>>>>>>>>>>>>>>>>>>>>>>>>>>>>>>>>>>>>>>>>>>>>>>>>>>>>>>>>>>>>>>>>>>>>>>>>>>>>>>>>>>>>>>>>>>>>>>>>>>>>>>>> **/

   \                                 In section .text, align 2, keep-with-next
    253          static void AppTaskStart(void const *argument)
    254          {	
   \                     AppTaskStart: (+1)
   \   00000000   0xB538             PUSH     {R3-R5,LR}
    255          	/* hal initial, api and hw 	*/
    256          	HalHw_Init();
   \   00000002   0x.... 0x....      BL       HalHw_Init
    257          	/* service event,time event	*/
    258          	Serv_Init();
   \   00000006   0x.... 0x....      BL       Serv_Init
    259          	/* service wdt 				*/
    260          	ServWdt_init();
   \   0000000A   0x.... 0x....      BL       ServWdt_init
    261          
    262          
    263          	/* trace service initial				*/
    264          	TRACE_API_INIT();
    265          	TRACE_VALUE(LOG_SHOUT, MOD_ALWAYS, "Tis Log is N331 DA Master Log., wakeup reason=%d",BspMisc_GetWakeUpReason());
   \   0000000E   0x.... 0x....      BL       BspMisc_GetWakeUpReason
    266          	WakeUpHwReg_T reg;
    267          	BspMisc_GetWakeUpHwReg(&reg);
   \   00000012   0x4668             MOV      R0,SP
   \   00000014   0x.... 0x....      BL       BspMisc_GetWakeUpHwReg
    268          	TRACE_VALUE2(LOG_SHOUT, MOD_ALWAYS, "Wake up Hw reg: SRS=0x%04x,wdt_id=%d", reg.RCM_SRS, reg.wdt_id);
    269          	/* Ap size state pin monitor */
    270          	//ApState_Init();
    271          	/* eeprom initial						*/
    272          	EepMana_Init();
   \   00000018   0x.... 0x....      BL       EepMana_Init
    273          	MapMana_RecordResetInfo(SOC_POR_RESET);	// record soc reset info
   \   0000001C   0x2000             MOVS     R0,#+0
   \   0000001E   0x.... 0x....      BL       MapMana_RecordResetInfo
    274          	
    275          	eep_initial_compl = TRUE;
   \   00000022   0x....             LDR.N    R4,??DataTable11
   \   00000024   0x2001             MOVS     R0,#+1
   \   00000026   0x7060             STRB     R0,[R4, #+1]
    276          
    277              /* reset trace module mask after eeprom is initial  */
    278          	TRACE_RESTORE_MODULE_LVL_FROM_EEP();
    279          #if LOG_ENABLE    
    280          	/* create trace task for trace server	*/
    281          	(void)osThreadCreate(&os_thread_def_TraceServ,NULL);	// if need high power mode, create this thread
    282          #endif
    283          
    284          #if DIAG_ENABLE
    285          	/* create trace task for trace server	*/
    286          	(void)osThreadCreate(&os_thread_def_DiagServ,NULL);	// if need high power mode, create this thread
   \   00000028   0x2100             MOVS     R1,#+0
   \   0000002A   0x.... 0x....      ADR.W    R0,os_thread_def_DiagServ
   \   0000002E   0x.... 0x....      BL       osThreadCreate
    287          #endif
    288          	
    289          	BoardHw_Init();
   \   00000032   0x.... 0x....      BL       BoardHw_Init
    290          	PwrCtrl_Init(BoardHw_GetPwrCtrlApi());
    291          
    292          	
    293          	/** >>>>>>>>>>>>>>>>>>>>>>>>>>>>>>>>> application initial start >>>>>>>>>>>>>>>>>>>>>>>>>>>>>>>>>>>>>>> **/
    294          	/* init can task, however not start in this function */
    295          	//CanTask_Init();
    296          	/* disable middle power gage			*/
    297          	PwrCtrl_DisMpSleepGate(MP_PWR_GATE_APP_MODE);
    298          	/* dev ipc initial */
    299          	// DevIpc_Init();
    300          	/* c-framework initial	*/
    301          	//CfKernel_Init();
    302          	/* screen backlight 	*/
    303          	BackLight_Init();
   \   00000036   0x.... 0x....      BL       BackLight_Init
    304          
    305          	/* Serializer and deserializer management init */
    306          	//BspSerdes_Init();
    307          	/* battery management init */
    308          	BatMana_Init();
   \   0000003A   0x.... 0x....      BL       BatMana_Init
    309          
    310          	/* bsp audio initial */
    311          	//BspAudio_Init();
    312          
    313          	/* Panel initial */
    314          	//Panel_Init();
    315          
    316          	/* Swc initial */
    317          	//SwcKey_Init();
    318          
    319          	/* DVR initial */
    320          	//Dvr_Init();
    321          
    322          	/* device power initial */
    323          	DevPower_Init();
   \   0000003E   0x.... 0x....      BL       DevPower_Init
    324          
    325          	/* log received command initial */
    326          #if LOG_ENABLE
    327          	LogCmd_Init();
    328          #endif
    329          
    330          	/* Temperate management init */
    331          	Temperate_Init();
   \   00000042   0x.... 0x....      BL       Temperate_Init
    332          	/* version info check initial */
    333          	VerInfo_Init();
   \   00000046   0x.... 0x....      BL       VerInfo_Init
    334          
    335          	// added by xmu2
    336          	//MDL_FuelCan_Init();
    337          //    MDL_Drive_Init();
    338          	//MDL_Test_Init();
    339          //	MDL_GearBox_Init();
    340          //	MDL_Tacho_Init();
    341          	//MDL_Temperature_Init();
    342          
    343          	//MDL_Fuel_Init();
    344          	//MDL_Speed_Init();
    345          	//MDL_Odo_Init();
    346          	//MDL_OBC_Init();
    347          	//MDL_IdleStop_Init();
    348          	//MDL_ANA_Init();
    349          	
    350          
    351          #if 0
    352          	MeterWarning_Init();
    353          	MeterHMI_Init();
    354          	MeterOBC_Init();
    355          	MeterSpeed_Init();/*speed */
    356          	MeterOdo_Init();
    357          	MeterTemperature_Init();
    358          	MeterAtPos_Init();
    359          	//Engine round speed init.
    360          	MeterTacho_Init();
    361          	MeterOutput_Init();
    362          	//Fuel module init.
    363          	MeterFuel_Init();
    364          	MeterDTE_Init();
    365          	GSI_model_initialize();
    366          #endif
    367              Monitor_Init();
   \   0000004A   0x.... 0x....      BL       Monitor_Init
    368          
    369              PANEL_Init();
   \   0000004E   0x.... 0x....      BL       PANEL_Init
    370          
    371              TP_Init();
   \   00000052   0x.... 0x....      BL       TP_Init
    372          
    373              BOOTLOADER_Init();
   \   00000056   0x.... 0x....      BL       BOOTLOADER_Init
    374          
    375              /* HOST I2C. */
    376              HOST_I2C_Init();
   \   0000005A   0x.... 0x....      BL       HOST_I2C_Init
    377          
    378          	/* set 500ms callback					*/
    379          	//HalRtc_SetCycCallback(Sys500ms_Callback);
    380          	//ServFunc_StartCyclic (	ServFunc_Create (Sys500ms_Callback, "500ms system callback" ), 
    381          							//1, 500/10);
    382          
    383          	/** >>>>>>>>>>>>>>>>>>>>>>>>>>>>>>>>> application initial end >>>>>>>>>>>>>>>>>>>>>>>>>>>>>>>>>>>>>>>>> **/
    384          	/* force pet watchdog */
    385          	ServWdt_ForcePetWdt();
   \   0000005E   0x.... 0x....      BL       ServWdt_ForcePetWdt
    386          	
    387          	/* create timer for wdt */
    388          	ServFunc_StartCyclic (	ServFunc_Create (ServWdt_monitor, "Wdt Manager Func" ), 
    389          							1, WDT_MONITOR_TIMER/2);
   \   00000062   0x.... 0x....      ADR.W    R1,?_2
   \   00000066   0x....             LDR.N    R0,??DataTable11_1
   \   00000068   0x.... 0x....      BL       ServFunc_Create
   \   0000006C   0x2232             MOVS     R2,#+50
   \   0000006E   0x2101             MOVS     R1,#+1
   \   00000070   0x.... 0x....      BL       ServFunc_StartCyclic
    390          	//app_wdt	=	ServWdt_Create(1000,"App Watch Dog");	/* create task watch dog 									*/
    391          	//if ( app_wdt == NULL ){
    392          	//	(void)osThreadTerminate(osThreadGetId());
    393          	//}
    394          	//ServWdt_start(app_wdt);
    395          	
    396          	/* create system event service	*/
    397          	sys_evt	=	ServEvt_Create(sys_evt_cod_e_buf,sizeof(sys_evt_cod_e_buf), "System Event" );
   \   00000074   0x.... 0x....      ADR.W    R2,?_3
   \   00000078   0x2140             MOVS     R1,#+64
   \   0000007A   0xF104 0x0010      ADD      R0,R4,#+16
   \   0000007E   0x.... 0x....      BL       ServEvt_Create
   \   00000082   0x60E0             STR      R0,[R4, #+12]
    398          
    399          	/* force pet watchdog 			*/
    400          	ServWdt_ForcePetWdt();	
   \   00000084   0x.... 0x....      BL       ServWdt_ForcePetWdt
    401          	/*change system task to low 	*/
    402          	(void)osThreadSetPriority(osThreadGetId(),osPriorityNormal);
   \   00000088   0x.... 0x....      BL       osThreadGetId
   \   0000008C   0x2100             MOVS     R1,#+0
   \   0000008E   0x.... 0x....      BL       osThreadSetPriority
    403          
    404          	//(void)osDelay(1000);
    405          	/* flush system */
    406          	ServEvt_Flush(sys_evt);
   \   00000092   0x68E0             LDR      R0,[R4, #+12]
   \   00000094   0x.... 0x....      BL       ServEvt_Flush
    407          	
    408          	/* enable middle sleep*/
    409          	PwrCtrl_EnMpSleepGate(MP_PWR_GATE_APP_MODE);
    410          
    411          	AppWriteResetInfo();
   \   00000098   0x.... 0x....      BL       AppWriteResetInfo
    412          	
    413          	/* open IC device signal for meter device signal  */
    414          	//DevIpc_Open(IC_DEV_SIG);
    415          
    416          	/*ComRTE init*/
    417          //	ComRTE_Init();
    418          
    419          	/*power mode init*/
    420          	PowerMode_Init();
   \   0000009C   0x.... 0x....      BL       PowerMode_Init
    421          
    422          	TRACE_TEXT(LOG_SHOUT, MOD_ALWAYS, "Tis Log is N331 DA Master Log,App initial complete");
   \   000000A0   0xE003             B.N      ??AppTaskStart_0
    423          
    424          	while(1)	//lint !e716
    425          	{             
    426          		uint8 ev_code;
    427          		/* wait a event	*/
    428          		ev_code	=	ServEvt_Wait(sys_evt, HAL_OS_WaitForever);
    429          		uint32 exec_start = HalOS_GetKernelTick();
    430          		switch ( ev_code )
    431          		{
    432          		case EVENT_SYSTEM_2MS_TIMER:
    433          			/* reset watch dog 					*/
    434          			//ServWdt_reset(app_wdt); 			
    435          			/* service fuction, call task 		*/
    436          			ServFunc_CycCallTask();
    437          			/* service timer call task			*/
    438          			//ServTmr_CycCallTask();
    439          			/* hal gpio 10ms function			*/
    440          			BspGpio_MainFunc();
    441          			break;
    442          
    443          		case EVENT_SYSTEM_REALTIME_500MS:
    444          			//tp_iic_CHG_test();
    445          			//ServFunc_Realtime500msCycCallTask();
    446          			//PwrCtrl_EnLpSleepGlobal();
    447          			//OsStatusMonitor();	// monitor os status
    448          			//TRACE_TEXT(TRACE_TEST, MOD_ALWAYS, "Time 500ms occured");
    449          			break;
    450          			
    451          		case EVENT_SYSTEM_OUTPUT_CPU_LOAD:
    452          			TRACE_VALUE(CPU_USAGE, MOD_OS, "############ Cpu Load: %u%%", (s_u2_cpuLoadPerSession+20)/40);			
    453          			break;
    454          
    455          		/* for event 50ms in low power uart enable	*/
    456          		case EVENT_SYSTEM_MIDDLE_POWER_50MS:
    457          			/* reset watch dog 					*/
    458          			//ServWdt_reset(app_wdt);
    459          			//mp_50ms_cnt++;
    460          			//if ( mp_50ms_cnt & 0x01 ){
    461          			//	ServWdt_monitor();
    462          			//}
    463          			//ServFunc_MpCycCallTask();
    464          			break;
    465          
    466          		case EVENT_SYSTEM_LOW_POWER_500MS:
    467          			//mp_50ms_cnt = 0x01;
    468          			/* reset watch dog 					*/
    469          			//ServWdt_reset(app_wdt);
    470          			//ServWdt_monitor();
    471          			//ServFunc_LpCycCallTask();
    472          			//PwrCtrl_EnLpSleepGlobal();
    473          			break;
    474          			
    475          		default:
    476          			/* may be a event function			*/
    477          			ServEvtFunc_CallFunc(ev_code);
   \                     ??AppTaskStart_1: (+1)
   \   000000A2   0x.... 0x....      BL       ServEvtFunc_CallFunc
    478          			break;
    479          		}
    480          		uint32 exec_intv_tm = HalOS_GetKernelTick() - exec_start;
   \                     ??AppTaskStart_2: (+1)
   \   000000A6   0x.... 0x....      BL       osKernelSysTick
    481          		if ( exec_intv_tm >= 10 ){
   \                     ??AppTaskStart_0: (+1)
   \   000000AA   0xF04F 0x31FF      MOV      R1,#-1
   \   000000AE   0x68E0             LDR      R0,[R4, #+12]
   \   000000B0   0x.... 0x....      BL       ServEvt_Wait
   \   000000B4   0x4605             MOV      R5,R0
   \   000000B6   0x.... 0x....      BL       osKernelSysTick
   \   000000BA   0x4628             MOV      R0,R5
   \   000000BC   0x2801             CMP      R0,#+1
   \   000000BE   0xD008             BEQ.N    ??AppTaskStart_3
   \   000000C0   0x2802             CMP      R0,#+2
   \   000000C2   0xD0F0             BEQ.N    ??AppTaskStart_2
   \   000000C4   0x2805             CMP      R0,#+5
   \   000000C6   0xD0EE             BEQ.N    ??AppTaskStart_2
   \   000000C8   0x2807             CMP      R0,#+7
   \   000000CA   0xD0EC             BEQ.N    ??AppTaskStart_2
   \   000000CC   0x280A             CMP      R0,#+10
   \   000000CE   0xD0EA             BEQ.N    ??AppTaskStart_2
   \   000000D0   0xE7E7             B.N      ??AppTaskStart_1
   \                     ??AppTaskStart_3: (+1)
   \   000000D2   0x.... 0x....      BL       ServFunc_CycCallTask
   \   000000D6   0x.... 0x....      BL       BspGpio_MainFunc
   \   000000DA   0xE7E4             B.N      ??AppTaskStart_2
    482          			TRACE_VALUE2(LOG_SHOUT,MOD_OS,"Serv Func execute too long, Tm = %dms,ev_code=%d", (uint16)exec_intv_tm,ev_code);
    483          		}
    484          	}
    485          }
    486          
    487          
    488          /** >>>>>>>>>>>>>>>>>>>>>>>>>>>>>>>>>>>>>>>>>>>>>>>>>>>>>>>>>>>>>>>>>>>>>>>>>>>>>>>>>>>>>>>>>>>>>>>>>>>>>>>>>>>>>>>>>>>>>>> **/

   \                                 In section .text, align 2, keep-with-next
    489          static	void	CalcCpuLoad ( void )
    490          {
   \                     CalcCpuLoad: (+1)
   \   00000000   0xB538             PUSH     {R3-R5,LR}
    491          	if ( osThreadGetId() != xTaskGetIdleTaskHandle() ){
   \   00000002   0x.... 0x....      BL       osThreadGetId
   \   00000006   0x4605             MOV      R5,R0
   \   00000008   0x....             LDR.N    R4,??DataTable11
   \   0000000A   0x.... 0x....      BL       xTaskGetIdleTaskHandle
   \   0000000E   0x4285             CMP      R5,R0
   \   00000010   0xD002             BEQ.N    ??CalcCpuLoad_0
    492          		s_u2_cpuLoadCnt	++;
   \   00000012   0x88E0             LDRH     R0,[R4, #+6]
   \   00000014   0x1C40             ADDS     R0,R0,#+1
   \   00000016   0x80E0             STRH     R0,[R4, #+6]
    493          	}
    494          	if ( s_u2_cpuTickCnt > 0 ){
   \                     ??CalcCpuLoad_0: (+1)
   \   00000018   0x88A0             LDRH     R0,[R4, #+4]
   \   0000001A   0x0001             MOVS     R1,R0
   \   0000001C   0xD001             BEQ.N    ??CalcCpuLoad_1
    495          		s_u2_cpuTickCnt --;
   \   0000001E   0x1E40             SUBS     R0,R0,#+1
   \   00000020   0x80A0             STRH     R0,[R4, #+4]
    496          	}
    497          	if ( s_u2_cpuTickCnt == 0 ){
   \                     ??CalcCpuLoad_1: (+1)
   \   00000022   0x88A0             LDRH     R0,[R4, #+4]
   \   00000024   0x2800             CMP      R0,#+0
   \   00000026   0xD10C             BNE.N    ??CalcCpuLoad_2
    498          		/* calc cpu load per 10s	*/
    499          		s_u2_cpuTickCnt			=	4000;
   \   00000028   0xF44F 0x607A      MOV      R0,#+4000
   \   0000002C   0x80A0             STRH     R0,[R4, #+4]
    500          		s_u2_cpuLoadPerSession	=	s_u2_cpuLoadCnt;	
   \   0000002E   0x88E0             LDRH     R0,[R4, #+6]
   \   00000030   0x8120             STRH     R0,[R4, #+8]
    501          		s_u2_cpuLoadCnt			=	0;
   \   00000032   0x2000             MOVS     R0,#+0
   \   00000034   0x80E0             STRH     R0,[R4, #+6]
    502          		/* send system 10ms event 	*/
    503          		(void)ServEvt_Post(sys_evt, EVENT_SYSTEM_OUTPUT_CPU_LOAD);
   \   00000036   0x210A             MOVS     R1,#+10
   \   00000038   0x68E0             LDR      R0,[R4, #+12]
   \   0000003A   0xE8BD 0x4034      POP      {R2,R4,R5,LR}
   \   0000003E   0x.... 0x....      B.W      ServEvt_Post
    504          	}
    505          }
   \                     ??CalcCpuLoad_2: (+1)
   \   00000042   0xBD31             POP      {R0,R4,R5,PC}    ;; return
    506          
    507          /** >>>>>>>>>>>>>>>>>>>>>>>>>>>>>>>>>>>>>>>>>>>>>>>>>>>>>>>>>>>>>>>>>>>>>>>>>>>>>>>>>>>>>>>>>>>>>>>>>>>>>>>>>>>>>>>>>>>>>>> **/
    508          #if 0 
    509          static void Sys500ms_Callback(void)
    510          {
    511          	if ( ServEvt_Post(sys_evt, EVENT_SYSTEM_REALTIME_500MS) )
    512          	{	/* disable sleep */
    513          		PwrCtrl_DisLpSleepGlobal();
    514          	}
    515          	
    516          	if ( POWER_MODE_LOW == PwrCtrl_GetPwrMode() )
    517          	{
    518          		if ( ServEvt_Post(sys_evt, EVENT_SYSTEM_LOW_POWER_500MS) )
    519          		{
    520          			/* disable sleep */
    521          			PwrCtrl_DisLpSleepGlobal();
    522          		}
    523          	}
    524          }
    525          #endif
    526          /** >>>>>>>>>>>>>>>>>>>>>>>>>>>>>>>>>>>>>>>>>>>>>>>>>>>>>>>>>>>>>>>>>>>>>>>>>>>>>>>>>>>>>>>>>>>>>>>>>>>>>>>>>>>>>>>>>>>>>>> **/

   \                                 In section .text, align 2, keep-with-next
    527          static void		AppWriteResetInfo(void)
    528          {
   \                     AppWriteResetInfo: (+1)
   \   00000000   0xB580             PUSH     {R7,LR}
    529          	uint32_t total_reset = GenEep_Get_TotalReset_Cnt();
   \   00000002   0x.... 0x....      BL       GenEep_Get_TotalReset_Cnt
    530          	total_reset++;
    531          	GenEep_Set_TotalReset_Cnt(total_reset);
   \   00000006   0x1C40             ADDS     R0,R0,#+1
   \   00000008   0x.... 0x....      BL       GenEep_Set_TotalReset_Cnt
    532          	/* inital all cpu ts count */
    533          	CpuTs_ReinitCnt();
   \   0000000C   0xE8BD 0x4001      POP      {R0,LR}
   \   00000010   0x.... 0x....      B.W      CpuTs_ReinitCnt
    534          }

   \                                 In section .text, align 4, keep-with-next
   \                     ??DataTable11:
   \   00000000   0x........         DC32     tick_cnt_2ms

   \                                 In section .text, align 4, keep-with-next
   \                     ??DataTable11_1:
   \   00000000   0x........         DC32     ServWdt_monitor

   \                                 In section .rodata, align 4, keep-with-next
   \                     ?_0:
   \   00000000   0x41 0x70          DC8 "AppStart"
   \              0x70 0x53    
   \              0x74 0x61    
   \              0x72 0x74    
   \              0x00         
   \   00000009   0x00 0x00          DC8 0, 0, 0
   \              0x00         

   \                                 In section .rodata, align 4, keep-with-next
   \                     ?_1:
   \   00000000   0x44 0x69          DC8 "DiagServ"
   \              0x61 0x67    
   \              0x53 0x65    
   \              0x72 0x76    
   \              0x00         
   \   00000009   0x00 0x00          DC8 0, 0, 0
   \              0x00         

   \                                 In section .text, align 4, keep-with-next
   \                     ?_2:
   \   00000000   0x57 0x64          DC8 "Wdt Manager Func"
   \              0x74 0x20    
   \              0x4D 0x61    
   \              0x6E 0x61    
   \              0x67 0x65    
   \              0x72 0x20    
   \              0x46 0x75    
   \              0x6E 0x63    
   \              0x00         
   \   00000011   0x00 0x00          DC8 0, 0, 0
   \              0x00         

   \                                 In section .text, align 4, keep-with-next
   \                     ?_3:
   \   00000000   0x53 0x79          DC8 "System Event"
   \              0x73 0x74    
   \              0x65 0x6D    
   \              0x20 0x45    
   \              0x76 0x65    
   \              0x6E 0x74    
   \              0x00         
   \   0000000D   0x00 0x00          DC8 0, 0, 0
   \              0x00         
    535          
    536          /** >>>>>>>>>>>>>>>>>>>>>>>>>>>>>>>>>>>>>>>>>>>>>>>>>>>>>>>>>>>>>>>>>>>>>>>>>>>>>>>>>>>>>>>>>>>>>>>>>>>>>>>>>>>>>>>>>>>>>>> **/
    537          /*static void	OsStatusMonitor(void)
    538          {
    539          	uint16 temp;
    540          	
    541          	temp = CpuTs_GetDisIntMaxTm();
    542          	if ( temp > GenEep_Get_CpuDisIntMaxTm() )
    543          	{
    544          		GenEep_Set_CpuDisIntMaxTm(temp);
    545          
    546          		TRACE_VALUE(LOG_SHOUT, MOD_OS, "OS disable interrupt tm max change to %dus", temp);
    547          	}
    548          
    549          	temp = CpuTs_GetDisIntNestMax();
    550          	if ( temp > GenEep_Get_CpuDisIntMaxNest() )
    551          	{
    552          		GenEep_Set_CpuDisIntMaxNest(temp);
    553          
    554          		TRACE_VALUE(LOG_SHOUT, MOD_OS, "OS disable interrupt nest max change to %d", temp);
    555          	}
    556          
    557          	temp = CpuTs_GetDisIntLongCnt();
    558          	if( temp < GenEep_Get_CpuDisIntTooLongCnt() )
    559          	{
    560          		GenEep_Set_CpuDisIntTooLongCnt(temp);
    561          		TRACE_VALUE(LOG_SHOUT, MOD_OS, "OS disable interrupt too long count = %d", temp);
    562          	}
    563          }*/
    564          
    565          
    566          

   Maximum stack usage in bytes:

   .cstack Function
   ------- --------
       0   AppGet_CpuLoad
      16   AppTaskStart
        16   -> AppWriteResetInfo
        16   -> BOOTLOADER_Init
        16   -> BackLight_Init
        16   -> BatMana_Init
        16   -> BoardHw_Init
        16   -> BspGpio_MainFunc
        16   -> BspMisc_GetWakeUpHwReg
        16   -> BspMisc_GetWakeUpReason
        16   -> DevPower_Init
        16   -> EepMana_Init
        16   -> HOST_I2C_Init
        16   -> HalHw_Init
        16   -> MapMana_RecordResetInfo
        16   -> Monitor_Init
        16   -> PANEL_Init
        16   -> PowerMode_Init
        16   -> ServEvtFunc_CallFunc
        16   -> ServEvt_Create
        16   -> ServEvt_Flush
        16   -> ServEvt_Wait
        16   -> ServFunc_Create
        16   -> ServFunc_CycCallTask
        16   -> ServFunc_StartCyclic
        16   -> ServWdt_ForcePetWdt
        16   -> ServWdt_init
        16   -> Serv_Init
        16   -> TP_Init
        16   -> Temperate_Init
        16   -> VerInfo_Init
        16   -> osKernelSysTick
        16   -> osThreadCreate
        16   -> osThreadGetId
        16   -> osThreadSetPriority
       8   AppWriteResetInfo
         0   -> CpuTs_ReinitCnt
         8   -> GenEep_Get_TotalReset_Cnt
         8   -> GenEep_Set_TotalReset_Cnt
      16   CalcCpuLoad
         0   -> ServEvt_Post
        16   -> osThreadGetId
        16   -> xTaskGetIdleTaskHandle
       0   Sys_GetServEvt
       8   main
         8   -> BspGpio_Init
         8   -> BspMisc_Init
         8   -> CpuTs_Init
         8   -> HalClk_CpuClkInit
         8   -> HalGpio_Init
         8   -> HalInt_Init
         8   -> MapMana_Init
         8   -> osKernelStart
       0   vApplicationIdleHook
         0   -> EepMana_IdleTask
       0   vApplicationMallocFailedHook
       0   vApplicationStackOverflowHook
       8   vApplicationTickHook
         8   -> CalcCpuLoad
         0   -> HalAdc_CycleConvert
         8   -> MapMana_1msFunc
         8   -> ServEvt_Post


   Section sizes:

   Bytes  Function/Label
   -----  --------------
       4  ??DataTable11
       4  ??DataTable11_1
      12  ?_0
      12  ?_1
      20  ?_2
      16  ?_3
      16  AppGet_CpuLoad
     220  AppTaskStart
      20  AppWriteResetInfo
      68  CalcCpuLoad
       6  Sys_GetServEvt
      42  main
      20  os_thread_def_AppStart
      20  os_thread_def_DiagServ
      80  tick_cnt_2ms
          eep_initial_compl
          tick_cnt_500ms
          s_u2_cpuTickCnt
          s_u2_cpuLoadCnt
          s_u2_cpuLoadPerSession
          sys_evt
          sys_evt_cod_e_buf
      14  vApplicationIdleHook
       2  vApplicationMallocFailedHook
       2  vApplicationStackOverflowHook
      84  vApplicationTickHook

 
  80 bytes in section .bss
  24 bytes in section .rodata
 558 bytes in section .text
 
 558 bytes of CODE  memory
  24 bytes of CONST memory
  80 bytes of DATA  memory

Errors: none
Warnings: none
