###############################################################################
#
# IAR ANSI C/C++ Compiler V7.70.1.11437/W32 for ARM       17/Oct/2019  14:25:47
# Copyright 1999-2016 IAR Systems AB.
#
#    Cpu mode     =  thumb
#    Endian       =  little
#    Source file  =  service/serv_evt.c
#    Command line =  
#        service/serv_evt.c -DCPU_S32K14x -D__FPU_PRESENT=1 -D__APP_
#        -DSW_VERSION=1000u -I../sys/ewarm_/ew_inc -Icmsis_os
#        -Icmsis_os/Freertos -Icmsis_os/Freertos/include
#        -Icmsis_os/Freertos/portable/IAR/ARM_CM4F
#        -Icmsis_os/Freertos/portable/MemMang -Ihal -IHal/cfg -Ihal/cpu_core
#        -IHal/cpu_core/ARM-Cortex-M4/IAR -Ihal/cpu_core/CMSIS/Include
#        -Ihal/cpu_core/s32k14x -IHal/ext_dev -IHal/hal_c -IHal/os -IHal/hw
#        -IApp -IApp/eep -IApp/flash -IApp/pwrctrl -IApp/version -IApp/diag
#        -IApp/cfg -IApp/cfg/gen_code -IApp/monitor -IApp/tp_iic -IApp/host_iic
#        -IApp/cf_test -IApp/eeprom/gen_code -IApp/boot -IApp/power_mana -Ibsp
#        -Ibsp/gpio -Ibsp/cpu_ts -Ibsp/bat_mana -Ibsp/panel -Ibsp/temperate
#        -Ibsp/backlight -Ibsp/dev_pwr -Iservice -Iobj -Itrace/server -Itrace
#        -Itrace/cfg -Itrace/trace_phy --cpu=Cortex-M4F -e --thumb
#        --char_is_unsigned --endian=little --diag_suppress=pa050 --silent
#        --fpu=VFPv4_sp -D__CHECK_DEVICE_DEFINES --debug --vla -Om -o
#        obj/serv_evt.o --dependencies=m obj/serv_evt.dep -l obj/serv_evt.lst
#    Locale       =  Chinese (Simplified)_People's Republic of China.936
#    List file    =  obj/serv_evt.lst
#    Object file  =  obj/serv_evt.o
#
###############################################################################

C:\A26\GAC_NE_DS_A26_2019_27632_DevEng_Workspace\src_app\service\serv_evt.c
      1          /*******************_**********************************************************
      2           *
      3           * Copyright (c) 
      4           *
      5           *****************************************************************************/
      6           
      7          
      8           /*****************************************************************************
      9           *  Include Files
     10           *****************************************************************************/
     11          #include "serv_evt.h"

   \                                 In section .text, align 2, keep-with-next
   \   static __interwork __softfp void * HalOS_SemaphoreCreate(uint16, char const *)
   \                     HalOS_SemaphoreCreate: (+1)
   \   00000000   0xB538             PUSH     {R3-R5,LR}
   \   00000002   0x460C             MOV      R4,R1
   \   00000004   0x4601             MOV      R1,R0
   \   00000006   0x2000             MOVS     R0,#+0
   \   00000008   0x.... 0x....      BL       osSemaphoreCreate
   \   0000000C   0x4605             MOV      R5,R0
   \   0000000E   0x4621             MOV      R1,R4
   \   00000010   0x.... 0x....      BL       vQueueAddToRegistry
   \   00000014   0x4628             MOV      R0,R5
   \   00000016   0xBD32             POP      {R1,R4,R5,PC}    ;; return

   \                                 In section .text, align 2, keep-with-next
   \   static __interwork __softfp enum <unnamed> HalOS_SemaphoreWait(void *, uint32)
   \                     HalOS_SemaphoreWait: (+1)
   \   00000000   0xB580             PUSH     {R7,LR}
   \   00000002   0x.... 0x....      BL       osSemaphoreWait
   \   00000006   0x1E40             SUBS     R0,R0,#+1
   \   00000008   0x4180             SBCS     R0,R0,R0
   \   0000000A   0x43C0             MVNS     R0,R0
   \   0000000C   0x0FC0             LSRS     R0,R0,#+31
   \   0000000E   0xBD02             POP      {R1,PC}          ;; return
     12          
     13          #include "cpu.h"
     14          
     15          
     16          /*****************************************************************************
     17           *  Local Macro Definitions
     18           *****************************************************************************/
     19          
     20          
     21          
     22           /*****************************************************************************
     23           *  Local Type Declarations
     24           *****************************************************************************/
     25           
     26          /* event poll								*/

   \                                 In section .bss, align 4
     27          static	SERV_EVENT 	s_eventQueuePool[SERVER_EVENT_POOL_SIZE];
   \                     s_eventQueuePool:
   \   00000000                      DS8 128
     28          
     29           
     30           /*****************************************************************************
     31           *  Global Variable Definitions (Global for the whole system)
     32           *****************************************************************************/
     33           
     34          /*****************************************************************************
     35           *  Local Variable Definitions (Global within this file)
     36           *****************************************************************************/
     37          
     38           
     39           /*****************************************************************************
     40           *  Global Function Declarations
     41           *****************************************************************************/
     42          
     43          /*****************************************************************************
     44           *  Local Function Declarations
     45          *****************************************************************************/
     46          
     47          /*****************************************************************************/
     48          /*  Global Function Definitions                                              */
     49          /*****************************************************************************/
     50          
     51          /*****************************************************************************
     52          *
     53          * Function:  ServEvt_Create
     54          *
     55          * Description: create event queue
     56          *              
     57          *                                      
     58          * Called from: 	
     59          *
     60          * Requrement:  
     61          *
     62          ******************************************************************************/

   \                                 In section .text, align 2, keep-with-next
     63          SERV_EVENT	*ServEvt_Create ( unsigned char *ev_buf, unsigned short ev_length, const char * ev_name )
     64          {
   \                     ServEvt_Create: (+1)
   \   00000000   0xE92D 0x41F0      PUSH     {R4-R8,LR}
   \   00000004   0x4604             MOV      R4,R0
   \   00000006   0x460D             MOV      R5,R1
   \   00000008   0x4611             MOV      R1,R2
     65          	SERV_EVENT *servEvt = NULL;
   \   0000000A   0x2600             MOVS     R6,#+0
     66          	if ( ev_buf != NULL && ev_length > 0 )
   \   0000000C   0x2C00             CMP      R4,#+0
   \   0000000E   0xD027             BEQ.N    ??ServEvt_Create_0
   \   00000010   0x0028             MOVS     R0,R5
   \   00000012   0xD025             BEQ.N    ??ServEvt_Create_0
     67          	{
     68          		HAL_OS_SEM_ID os_ev	=	HalOS_SemaphoreCreate(0,ev_name);
   \   00000014   0x4630             MOV      R0,R6
   \   00000016   0x.... 0x....      BL       HalOS_SemaphoreCreate
   \   0000001A   0x0007             MOVS     R7,R0
     69          		if( os_ev != NULL )
   \   0000001C   0xD020             BEQ.N    ??ServEvt_Create_0
     70          		{
     71          			/* disable interrupt	*/
     72          			CPU_SR_ALLOC();
     73          			CPU_CRITICAL_ENTER();
   \   0000001E   0x.... 0x....      BL       CPU_SR_Save
   \   00000022   0x4680             MOV      R8,R0
   \   00000024   0x.... 0x....      BL       CpuTs_IntDisMeasStart
     74          			
     75          			for ( unsigned char i = 0; i < sizeof(s_eventQueuePool)/sizeof(SERV_EVENT); i ++ )
   \   00000028   0x4630             MOV      R0,R6
   \   0000002A   0xE000             B.N      ??ServEvt_Create_1
   \                     ??ServEvt_Create_2: (+1)
   \   0000002C   0x1C40             ADDS     R0,R0,#+1
   \                     ??ServEvt_Create_1: (+1)
   \   0000002E   0xB2C0             UXTB     R0,R0
   \   00000030   0x2808             CMP      R0,#+8
   \   00000032   0xD20B             BCS.N    ??ServEvt_Create_3
     76          			{
     77          				
     78          				if ( s_eventQueuePool[i].ev_buf == NULL )
   \   00000034   0x....             LDR.N    R1,??DataTable0
   \   00000036   0xEB01 0x1100      ADD      R1,R1,R0, LSL #+4
   \   0000003A   0x680A             LDR      R2,[R1, #+0]
   \   0000003C   0x2A00             CMP      R2,#+0
   \   0000003E   0xD1F5             BNE.N    ??ServEvt_Create_2
     79          				{	
     80          					servEvt	=	&s_eventQueuePool[i];
   \   00000040   0x460E             MOV      R6,R1
     81          					
     82          					servEvt->ev_buf			=	ev_buf;
   \   00000042   0x6034             STR      R4,[R6, #+0]
     83          					servEvt->ev_size		=	ev_length;
   \   00000044   0x8135             STRH     R5,[R6, #+8]
     84          					servEvt->ev_used		=	0;
   \   00000046   0x2000             MOVS     R0,#+0
   \   00000048   0x8170             STRH     R0,[R6, #+10]
     85          #if SERVER_EVENT_NAME_EN
     86          					servEvt->ev_name		=	ev_name;
     87          #endif
     88          					servEvt->os_event 	 	=	os_ev;
   \   0000004A   0x6077             STR      R7,[R6, #+4]
     89          					
     90          					break;
     91          				}
     92          			}
     93          			
     94          			/* restore interrupt	*/	
     95          			CPU_CRITICAL_EXIT();
   \                     ??ServEvt_Create_3: (+1)
   \   0000004C   0x.... 0x....      BL       CpuTs_IntDisMeasStop
   \   00000050   0x4640             MOV      R0,R8
   \   00000052   0x.... 0x....      BL       CPU_SR_Restore
     96          			
     97          			if ( servEvt == NULL )
   \   00000056   0x2E00             CMP      R6,#+0
   \   00000058   0xD102             BNE.N    ??ServEvt_Create_0
     98          			{
     99          				HalOS_SemaphoreDelete(os_ev);
   \   0000005A   0x4638             MOV      R0,R7
   \   0000005C   0x.... 0x....      BL       osSemaphoreDelete
    100          			}
    101          		}
    102          	}
    103          	
    104          	return servEvt;
   \                     ??ServEvt_Create_0: (+1)
   \   00000060   0x4630             MOV      R0,R6
   \   00000062   0xE8BD 0x81F0      POP      {R4-R8,PC}       ;; return
    105          } 
    106          
    107          
    108          /*****************************************************************************
    109          *
    110          * Function:  ServEvt_Del
    111          *
    112          * Description: del a event
    113          *              
    114          *                                      
    115          * Called from: 	
    116          *
    117          * Requrement:  
    118          *
    119          ******************************************************************************/

   \                                 In section .text, align 2, keep-with-next
    120          void	ServEvt_Del ( SERV_EVENT * servEvt )
    121          {
   \                     ServEvt_Del: (+1)
   \   00000000   0xB538             PUSH     {R3-R5,LR}
   \   00000002   0x0004             MOVS     R4,R0
    122          	if ( servEvt != NULL )
   \   00000004   0xD010             BEQ.N    ??ServEvt_Del_0
    123          	{	
    124          		/* disable interrupt	*/
    125          		CPU_SR_ALLOC();
    126          		CPU_CRITICAL_ENTER();
   \   00000006   0x.... 0x....      BL       CPU_SR_Save
   \   0000000A   0x4605             MOV      R5,R0
   \   0000000C   0x.... 0x....      BL       CpuTs_IntDisMeasStart
    127          		
    128          		servEvt->ev_buf = NULL;
   \   00000010   0x2000             MOVS     R0,#+0
   \   00000012   0x6020             STR      R0,[R4, #+0]
    129          			
    130          		HalOS_SemaphoreDelete(servEvt->os_event);
   \   00000014   0x6860             LDR      R0,[R4, #+4]
   \   00000016   0x.... 0x....      BL       osSemaphoreDelete
    131          		
    132          		/* restore interrupt	*/
    133          		CPU_CRITICAL_EXIT();
   \   0000001A   0x.... 0x....      BL       CpuTs_IntDisMeasStop
   \   0000001E   0x4628             MOV      R0,R5
   \   00000020   0xE8BD 0x4032      POP      {R1,R4,R5,LR}
   \   00000024   0x.... 0x....      B.W      CPU_SR_Restore
    134          	}
    135          }
   \                     ??ServEvt_Del_0: (+1)
   \   00000028   0xBD31             POP      {R0,R4,R5,PC}    ;; return
    136          
    137          /*****************************************************************************
    138          *
    139          * Function:  ServEvt_Post
    140          *
    141          * Description: post a event
    142          *              
    143          *                                      
    144          * Called from: 	
    145          *
    146          * Requrement:  
    147          *
    148          ******************************************************************************/

   \                                 In section .text, align 2, keep-with-next
    149          boolean	ServEvt_Post ( SERV_EVENT * servEvt, unsigned char ev_code )
    150          {
   \                     ServEvt_Post: (+1)
   \   00000000   0xB5F8             PUSH     {R3-R7,LR}
   \   00000002   0x4604             MOV      R4,R0
   \   00000004   0x460D             MOV      R5,R1
    151          	boolean send_ok = FALSE;
   \   00000006   0x2600             MOVS     R6,#+0
    152          	if ( servEvt != NULL && servEvt->ev_buf != NULL && ev_code != EVENT_NONE  )
   \   00000008   0x2C00             CMP      R4,#+0
   \   0000000A   0xD025             BEQ.N    ??ServEvt_Post_0
   \   0000000C   0x6820             LDR      R0,[R4, #+0]
   \   0000000E   0x2800             CMP      R0,#+0
   \   00000010   0xD022             BEQ.N    ??ServEvt_Post_0
   \   00000012   0x0028             MOVS     R0,R5
   \   00000014   0xD020             BEQ.N    ??ServEvt_Post_0
    153          	{
    154          		/* disable interrupt	*/
    155          		CPU_SR_ALLOC();
    156          		CPU_CRITICAL_ENTER();
   \   00000016   0x.... 0x....      BL       CPU_SR_Save
   \   0000001A   0x4607             MOV      R7,R0
   \   0000001C   0x.... 0x....      BL       CpuTs_IntDisMeasStart
    157          		
    158          		if ( servEvt->ev_used < servEvt->ev_size )
   \   00000020   0x8960             LDRH     R0,[R4, #+10]
   \   00000022   0x4601             MOV      R1,R0
   \   00000024   0x8922             LDRH     R2,[R4, #+8]
   \   00000026   0x4291             CMP      R1,R2
   \   00000028   0xD211             BCS.N    ??ServEvt_Post_1
    159          		{
    160          			servEvt->ev_used++;
   \   0000002A   0x1C40             ADDS     R0,R0,#+1
   \   0000002C   0x8160             STRH     R0,[R4, #+10]
    161          			/* write event to queue		*/
    162                      servEvt->ev_buf[servEvt->ev_write_index]	= ev_code;
   \   0000002E   0x6820             LDR      R0,[R4, #+0]
   \   00000030   0x89E1             LDRH     R1,[R4, #+14]
   \   00000032   0x5445             STRB     R5,[R0, R1]
    163          			
    164          			servEvt->ev_write_index ++;
   \   00000034   0x89E0             LDRH     R0,[R4, #+14]
   \   00000036   0x1C40             ADDS     R0,R0,#+1
   \   00000038   0x81E0             STRH     R0,[R4, #+14]
    165          			if ( servEvt->ev_write_index >= servEvt->ev_size )
   \   0000003A   0x8921             LDRH     R1,[R4, #+8]
   \   0000003C   0xB280             UXTH     R0,R0
   \   0000003E   0x4288             CMP      R0,R1
   \   00000040   0xD301             BCC.N    ??ServEvt_Post_2
    166          			{	/* to arrayr end */
    167          				servEvt->ev_write_index = 0;
   \   00000042   0x4630             MOV      R0,R6
   \   00000044   0x81E0             STRH     R0,[R4, #+14]
    168          			}
    169          
    170          			send_ok = TRUE;
   \                     ??ServEvt_Post_2: (+1)
   \   00000046   0x2601             MOVS     R6,#+1
    171          			
    172          			HalOS_SemaphorePost(servEvt->os_event);
   \   00000048   0x6860             LDR      R0,[R4, #+4]
   \   0000004A   0x.... 0x....      BL       osSemaphoreRelease
    173          		}
    174          		
    175          		/* restore interrupt	*/
    176          		CPU_CRITICAL_EXIT();
   \                     ??ServEvt_Post_1: (+1)
   \   0000004E   0x.... 0x....      BL       CpuTs_IntDisMeasStop
   \   00000052   0x4638             MOV      R0,R7
   \   00000054   0x.... 0x....      BL       CPU_SR_Restore
    177          	}
    178          
    179          	return send_ok;
   \                     ??ServEvt_Post_0: (+1)
   \   00000058   0x4630             MOV      R0,R6
   \   0000005A   0xBDF2             POP      {R1,R4-R7,PC}    ;; return
    180          }
    181          
    182          /*****************************************************************************
    183          *
    184          * Function:  ServEvt_PostFront
    185          *
    186          * Description: post a event to queue front 
    187          *              
    188          *                                      
    189          * Called from: 	
    190          *
    191          * Requrement:  
    192          *
    193          ******************************************************************************/

   \                                 In section .text, align 2, keep-with-next
    194          void	ServEvt_PostFront ( SERV_EVENT * servEvt, unsigned char ev_code )
    195          {
   \                     ServEvt_PostFront: (+1)
   \   00000000   0xB570             PUSH     {R4-R6,LR}
   \   00000002   0x4604             MOV      R4,R0
   \   00000004   0x460D             MOV      R5,R1
    196          	if ( servEvt != NULL && servEvt->ev_buf != NULL && ev_code != EVENT_NONE  )
   \   00000006   0x2C00             CMP      R4,#+0
   \   00000008   0xD026             BEQ.N    ??ServEvt_PostFront_0
   \   0000000A   0x6820             LDR      R0,[R4, #+0]
   \   0000000C   0x2800             CMP      R0,#+0
   \   0000000E   0xD023             BEQ.N    ??ServEvt_PostFront_0
   \   00000010   0x0028             MOVS     R0,R5
   \   00000012   0xD021             BEQ.N    ??ServEvt_PostFront_0
    197          	{
    198          		/* disable interrupt	*/
    199          		CPU_SR_ALLOC();
    200          		CPU_CRITICAL_ENTER();
   \   00000014   0x.... 0x....      BL       CPU_SR_Save
   \   00000018   0x4606             MOV      R6,R0
   \   0000001A   0x.... 0x....      BL       CpuTs_IntDisMeasStart
    201          		
    202          		if ( servEvt->ev_used < servEvt->ev_size )
   \   0000001E   0x8960             LDRH     R0,[R4, #+10]
   \   00000020   0x4601             MOV      R1,R0
   \   00000022   0x8922             LDRH     R2,[R4, #+8]
   \   00000024   0x4291             CMP      R1,R2
   \   00000026   0xD210             BCS.N    ??ServEvt_PostFront_1
    203          		{
    204          			servEvt->ev_used++;
   \   00000028   0x1C40             ADDS     R0,R0,#+1
   \   0000002A   0x8160             STRH     R0,[R4, #+10]
    205          			/* write event to queue		*/
    206          			if ( servEvt->ev_read_index > 0 ){
   \   0000002C   0x89A0             LDRH     R0,[R4, #+12]
   \   0000002E   0x0001             MOVS     R1,R0
   \   00000030   0xD002             BEQ.N    ??ServEvt_PostFront_2
    207          				servEvt->ev_read_index --;
   \   00000032   0x1E40             SUBS     R0,R0,#+1
   \   00000034   0x81A0             STRH     R0,[R4, #+12]
   \   00000036   0xE002             B.N      ??ServEvt_PostFront_3
    208          			}else{
    209          				servEvt->ev_read_index = servEvt->ev_size-1;
   \                     ??ServEvt_PostFront_2: (+1)
   \   00000038   0x4610             MOV      R0,R2
   \   0000003A   0x1E40             SUBS     R0,R0,#+1
   \   0000003C   0x81A0             STRH     R0,[R4, #+12]
    210          			}
    211                      servEvt->ev_buf[servEvt->ev_read_index]	= ev_code;
   \                     ??ServEvt_PostFront_3: (+1)
   \   0000003E   0x6820             LDR      R0,[R4, #+0]
   \   00000040   0x89A1             LDRH     R1,[R4, #+12]
   \   00000042   0x5445             STRB     R5,[R0, R1]
    212          			
    213          			HalOS_SemaphorePost(servEvt->os_event);
   \   00000044   0x6860             LDR      R0,[R4, #+4]
   \   00000046   0x.... 0x....      BL       osSemaphoreRelease
    214          		}
    215          		/* restore interrupt	*/
    216          		CPU_CRITICAL_EXIT();
   \                     ??ServEvt_PostFront_1: (+1)
   \   0000004A   0x.... 0x....      BL       CpuTs_IntDisMeasStop
   \   0000004E   0x4630             MOV      R0,R6
   \   00000050   0xE8BD 0x4070      POP      {R4-R6,LR}
   \   00000054   0x.... 0x....      B.W      CPU_SR_Restore
    217          	}
    218          }
   \                     ??ServEvt_PostFront_0: (+1)
   \   00000058   0xBD70             POP      {R4-R6,PC}       ;; return
    219          
    220          /*****************************************************************************
    221          *
    222          * Function:  ServEvt_Flush
    223          *
    224          * Description: flush event queue
    225          *              
    226          *                                      
    227          * Called from: 	
    228          *
    229          * Requrement:  
    230          *
    231          ******************************************************************************/

   \                                 In section .text, align 2, keep-with-next
    232          void	ServEvt_Flush ( SERV_EVENT * servEvt )
    233          {
   \                     ServEvt_Flush: (+1)
   \   00000000   0xB538             PUSH     {R3-R5,LR}
   \   00000002   0x0004             MOVS     R4,R0
    234          	if ( servEvt != NULL )
   \   00000004   0xD015             BEQ.N    ??ServEvt_Flush_0
    235          	{
    236          		/* disable interrupt	*/
    237          		CPU_SR_ALLOC();
    238          		CPU_CRITICAL_ENTER();
   \   00000006   0x.... 0x....      BL       CPU_SR_Save
   \   0000000A   0x4605             MOV      R5,R0
   \   0000000C   0x.... 0x....      BL       CpuTs_IntDisMeasStart
    239          		
    240          		servEvt->ev_read_index	=	0;
   \   00000010   0x2000             MOVS     R0,#+0
   \   00000012   0x81A0             STRH     R0,[R4, #+12]
    241          		servEvt->ev_write_index	=	0;
   \   00000014   0x81E0             STRH     R0,[R4, #+14]
    242          		servEvt->ev_used		= 	0;
   \   00000016   0x8160             STRH     R0,[R4, #+10]
    243          
    244          		do
    245          		{
    246          		}while( HalOS_SemaphoreWait(servEvt->os_event,0)==HAL_OS_SEM_ERR_NONE );
   \                     ??ServEvt_Flush_1: (+1)
   \   00000018   0x2100             MOVS     R1,#+0
   \   0000001A   0x6860             LDR      R0,[R4, #+4]
   \   0000001C   0x.... 0x....      BL       HalOS_SemaphoreWait
   \   00000020   0x2800             CMP      R0,#+0
   \   00000022   0xD0F9             BEQ.N    ??ServEvt_Flush_1
    247          
    248          		/* restore interrupt	*/
    249          		CPU_CRITICAL_EXIT();
   \   00000024   0x.... 0x....      BL       CpuTs_IntDisMeasStop
   \   00000028   0x4628             MOV      R0,R5
   \   0000002A   0xE8BD 0x4032      POP      {R1,R4,R5,LR}
   \   0000002E   0x.... 0x....      B.W      CPU_SR_Restore
    250          	}
    251          }
   \                     ??ServEvt_Flush_0: (+1)
   \   00000032   0xBD31             POP      {R0,R4,R5,PC}    ;; return
    252          
    253          
    254          /*****************************************************************************
    255          *
    256          * Function:  ServEvt_Pend
    257          *
    258          * Description: This function waits for a event to be sent to a queue
    259          *   timeout: 0, no wait, if event available return event else EVENT_NONE           
    260          *                                      
    261          * Called from: 	
    262          *
    263          * Requrement:  
    264          *
    265          ******************************************************************************/

   \                                 In section .text, align 2, keep-with-next
    266          unsigned char ServEvt_Wait ( SERV_EVENT *servEvt, unsigned long timeout )
    267          {
   \                     ServEvt_Wait: (+1)
   \   00000000   0xB570             PUSH     {R4-R6,LR}
   \   00000002   0x4604             MOV      R4,R0
    268          	unsigned char ev_code = SERV_EVENT_ERR;
   \   00000004   0x26F2             MOVS     R6,#+242
    269          	if ( servEvt != NULL && servEvt->ev_buf != NULL)
   \   00000006   0x2C00             CMP      R4,#+0
   \   00000008   0xD028             BEQ.N    ??ServEvt_Wait_0
   \   0000000A   0x6820             LDR      R0,[R4, #+0]
   \   0000000C   0x2800             CMP      R0,#+0
   \   0000000E   0xD025             BEQ.N    ??ServEvt_Wait_0
    270          	{			
    271          		switch ( HalOS_SemaphoreWait(servEvt->os_event,timeout) )
   \   00000010   0x6860             LDR      R0,[R4, #+4]
   \   00000012   0x.... 0x....      BL       HalOS_SemaphoreWait
   \   00000016   0x2800             CMP      R0,#+0
   \   00000018   0xD002             BEQ.N    ??ServEvt_Wait_1
   \   0000001A   0x2801             CMP      R0,#+1
   \   0000001C   0xD01B             BEQ.N    ??ServEvt_Wait_2
   \   0000001E   0xE01C             B.N      ??ServEvt_Wait_3
    272          		{
    273          		case HAL_OS_SEM_ERR_NONE:
    274          			{
    275          				/* disable interrupt	*/
    276          				CPU_SR_ALLOC();
    277          				CPU_CRITICAL_ENTER();
   \                     ??ServEvt_Wait_1: (+1)
   \   00000020   0x.... 0x....      BL       CPU_SR_Save
   \   00000024   0x4605             MOV      R5,R0
   \   00000026   0x.... 0x....      BL       CpuTs_IntDisMeasStart
    278          				
    279          				if ( servEvt->ev_used > 0 )
   \   0000002A   0x8960             LDRH     R0,[R4, #+10]
   \   0000002C   0x0001             MOVS     R1,R0
   \   0000002E   0xD00C             BEQ.N    ??ServEvt_Wait_4
    280          				{	/* get event 			*/
    281          					servEvt->ev_used --;
   \   00000030   0x1E40             SUBS     R0,R0,#+1
   \   00000032   0x8160             STRH     R0,[R4, #+10]
    282          					ev_code	=	servEvt->ev_buf[servEvt->ev_read_index++];
   \   00000034   0x89A0             LDRH     R0,[R4, #+12]
   \   00000036   0x1C41             ADDS     R1,R0,#+1
   \   00000038   0x81A1             STRH     R1,[R4, #+12]
   \   0000003A   0x6822             LDR      R2,[R4, #+0]
   \   0000003C   0x5C16             LDRB     R6,[R2, R0]
    283          					if ( servEvt->ev_read_index >=  servEvt->ev_size )
   \   0000003E   0x8920             LDRH     R0,[R4, #+8]
   \   00000040   0xB289             UXTH     R1,R1
   \   00000042   0x4281             CMP      R1,R0
   \   00000044   0xD301             BCC.N    ??ServEvt_Wait_4
    284          					{
    285          						servEvt->ev_read_index = 0;
   \   00000046   0x2000             MOVS     R0,#+0
   \   00000048   0x81A0             STRH     R0,[R4, #+12]
    286          					}
    287          				}
    288          				/* restore interrupt	*/
    289          				CPU_CRITICAL_EXIT();
   \                     ??ServEvt_Wait_4: (+1)
   \   0000004A   0x.... 0x....      BL       CpuTs_IntDisMeasStop
   \   0000004E   0x4628             MOV      R0,R5
   \   00000050   0x.... 0x....      BL       CPU_SR_Restore
    290          			}
    291          			break;
   \   00000054   0xE002             B.N      ??ServEvt_Wait_0
    292          		
    293          		case HAL_OS_SEM_TIMEOUT:
    294          			/* time out 			*/
    295          			ev_code	=	EVENT_TIMEOUT;
   \                     ??ServEvt_Wait_2: (+1)
   \   00000056   0x26F1             MOVS     R6,#+241
    296          			break;
   \   00000058   0xE000             B.N      ??ServEvt_Wait_0
    297          			
    298          		default:
    299          			/* no event in queue	*/
    300          			ev_code	=	EVENT_NONE;
   \                     ??ServEvt_Wait_3: (+1)
   \   0000005A   0x2600             MOVS     R6,#+0
    301          			break;
    302          		}
    303          	}
    304          
    305          	return ev_code;
   \                     ??ServEvt_Wait_0: (+1)
   \   0000005C   0x4630             MOV      R0,R6
   \   0000005E   0xBD70             POP      {R4-R6,PC}       ;; return
    306          }
    307          
    308          
    309          /*****************************************************************************
    310          *
    311          * Function:  ServEvt_Query
    312          *
    313          * Description: Query a event state, ocured or not
    314          *             return event quantity
    315          *                                      
    316          * Called from: 	
    317          *
    318          * Requrement:  
    319          *
    320          ******************************************************************************/

   \                                 In section .text, align 2, keep-with-next
    321          unsigned short  ServEvt_Query ( SERV_EVENT * servEvt )
    322          {
   \                     ServEvt_Query: (+1)
   \   00000000   0xB570             PUSH     {R4-R6,LR}
   \   00000002   0x4604             MOV      R4,R0
    323          	unsigned short retval = 0;
   \   00000004   0x2500             MOVS     R5,#+0
    324          	
    325          	(void)servEvt;
    326          	
    327          	if ( servEvt != NULL )
   \   00000006   0x2C00             CMP      R4,#+0
   \   00000008   0xD00A             BEQ.N    ??ServEvt_Query_0
    328          	{
    329          		CPU_SR_ALLOC();
    330          		CPU_CRITICAL_ENTER();
   \   0000000A   0x.... 0x....      BL       CPU_SR_Save
   \   0000000E   0x4606             MOV      R6,R0
   \   00000010   0x.... 0x....      BL       CpuTs_IntDisMeasStart
    331          
    332          		retval	=	servEvt->ev_used;
   \   00000014   0x8965             LDRH     R5,[R4, #+10]
    333          
    334          		CPU_CRITICAL_EXIT();
   \   00000016   0x.... 0x....      BL       CpuTs_IntDisMeasStop
   \   0000001A   0x4630             MOV      R0,R6
   \   0000001C   0x.... 0x....      BL       CPU_SR_Restore
    335          	}
    336          	return retval;
   \                     ??ServEvt_Query_0: (+1)
   \   00000020   0x4628             MOV      R0,R5
   \   00000022   0xBD70             POP      {R4-R6,PC}       ;; return
    337          }

   \                                 In section .text, align 4, keep-with-next
   \                     ??DataTable0:
   \   00000000   0x........         DC32     s_eventQueuePool
    338          
    339          /*****************************************************************************
    340           *  Local Function Definitions
    341           *****************************************************************************/
    342           
    343          /*****************************************************************************
    344          *
    345          * Function:  
    346          *
    347          * Description: 
    348          *              
    349          *                                      
    350          * Called from: 	
    351          *
    352          * Requrement:  
    353          *
    354          ******************************************************************************/
    355          

   Maximum stack usage in bytes:

   .cstack Function
   ------- --------
      16   HalOS_SemaphoreCreate
        16   -> osSemaphoreCreate
        16   -> vQueueAddToRegistry
       8   HalOS_SemaphoreWait
         8   -> osSemaphoreWait
      24   ServEvt_Create
        24   -> CPU_SR_Restore
        24   -> CPU_SR_Save
        24   -> CpuTs_IntDisMeasStart
        24   -> CpuTs_IntDisMeasStop
        24   -> HalOS_SemaphoreCreate
        24   -> osSemaphoreDelete
      16   ServEvt_Del
         0   -> CPU_SR_Restore
        16   -> CPU_SR_Save
        16   -> CpuTs_IntDisMeasStart
        16   -> CpuTs_IntDisMeasStop
        16   -> osSemaphoreDelete
      16   ServEvt_Flush
         0   -> CPU_SR_Restore
        16   -> CPU_SR_Save
        16   -> CpuTs_IntDisMeasStart
        16   -> CpuTs_IntDisMeasStop
        16   -> HalOS_SemaphoreWait
      24   ServEvt_Post
        24   -> CPU_SR_Restore
        24   -> CPU_SR_Save
        24   -> CpuTs_IntDisMeasStart
        24   -> CpuTs_IntDisMeasStop
        24   -> osSemaphoreRelease
      16   ServEvt_PostFront
         0   -> CPU_SR_Restore
        16   -> CPU_SR_Save
        16   -> CpuTs_IntDisMeasStart
        16   -> CpuTs_IntDisMeasStop
        16   -> osSemaphoreRelease
      16   ServEvt_Query
        16   -> CPU_SR_Restore
        16   -> CPU_SR_Save
        16   -> CpuTs_IntDisMeasStart
        16   -> CpuTs_IntDisMeasStop
      16   ServEvt_Wait
        16   -> CPU_SR_Restore
        16   -> CPU_SR_Save
        16   -> CpuTs_IntDisMeasStart
        16   -> CpuTs_IntDisMeasStop
        16   -> HalOS_SemaphoreWait


   Section sizes:

   Bytes  Function/Label
   -----  --------------
       4  ??DataTable0
      24  HalOS_SemaphoreCreate
      16  HalOS_SemaphoreWait
     102  ServEvt_Create
      42  ServEvt_Del
      52  ServEvt_Flush
      92  ServEvt_Post
      90  ServEvt_PostFront
      36  ServEvt_Query
      96  ServEvt_Wait
     128  s_eventQueuePool

 
 128 bytes in section .bss
 554 bytes in section .text
 
 554 bytes of CODE memory
 128 bytes of DATA memory

Errors: none
Warnings: none
